:020000040800F2
:10000000E8090020C9110008311200083112000867
:1000100031120008311200083112000800000000FF
:100020000000000000000000000000003112000885
:1000300031120008000000003112000831120008DF
:100040003112000831120008311200083112000884
:100050003112000831120008311200083112000874
:100060003112000831120008311200083112000864
:100070003112000831120008311200083112000854
:10008000311200083112000831120008000000008F
:100090000000000000000000000000003112000815
:1000A0003112000831120008311200083112000824
:1000B0003112000831120008311200083112000814
:1000C0003112000831120008311200083112000804
:1000D000311200084D1B0008791C0008311200087D
:1000E000311200083112000831120008000000002F
:1000F0000000000000000000000000000000000000
:1001000000000000000000000000000000000000EF
:100110000000000000000000311200083112000849
:100120005FF808F180B584B000AF786039604FF0B7
:100130000003FB817A686B4B9A4244D07B68B3F131
:10014000804F40D07A68684B9A423CD07A68674BBF
:100150009A4238D07A68664B9A4234D07A68654BB6
:100160009A4230D07A68644B9A422CD07A68634BBA
:100170009A4228D07A68624B9A4224D07A68614BBE
:100180009A4220D07A68604B9A421CD07A685F4BC2
:100190009A4218D07A685E4B9A4214D07A685D4BC6
:1001A0009A4210D07A685C4B9A420CD07A685B4BCA
:1001B0009A4208D07A685A4B9A4204D059484FF074
:1001C000E70101F0BDFC3B685B88002B14D03B6865
:1001D0005B88102B10D03B685B88202B0CD03B68D1
:1001E0005B88402B08D03B685B88602B04D04D486F
:1001F0004FF0E80101F0A4FC3B68DB88002B0ED037
:100200003B68DB88B3F5807F09D03B68DB88B3F5BA
:10021000007F04D043484FF0E90101F091FC7B6876
:100220001B88FB817A682F4B9A4213D07A68334B34
:100230009A420FD07B68B3F1804F0BD07A682A4B7B
:100240009A4207D07A68294B9A4203D07A68284BA1
:100250009A4209D1FB8923F07003FB813B685A88DD
:10026000FB8942EA0303FB817A68224B9A420DD054
:100270007A68214B9A4209D0FB8923F44073FB81B1
:100280003B68DA88FB8942EA0303FB817B68FA89D1
:100290001A803B689A887B689A853B681A887B68D5
:1002A0001A857A680F4B9A420FD07A68134B9A429C
:1002B0000BD07A68184B9A4207D07A68174B9A424B
:1002C00003D07A68164B9A4204D13B681B7A1A46CF
:1002D0007B681A867B684FF001029A8207F110074B
:1002E000BD4680BD002C01400004004000080040D5
:1002F000000C004000100040001400400034014099
:10030000004C0140005001400054014000180040E2
:10031000001C00400020004000400140004401401B
:1003200000480140E828000880B584B000AF78603C
:1003300039604FF000037B814FF00003FB814FF0E9
:100340000003BB817A68784B9A423CD07B68B3F15A
:10035000804F38D07A68754B9A4234D07A68744BA3
:100360009A4230D07A68734B9A422CD07A68724B9A
:100370009A4228D07A68714B9A4224D07A68704B9E
:100380009A4220D07A686F4B9A421CD07A686E4BA2
:100390009A4218D07A686D4B9A4214D07A686C4BA6
:1003A0009A4210D07A686B4B9A420CD07A686A4BAA
:1003B0009A4208D07A68694B9A4204D068484FF450
:1003C0008E7101F0BDFB3B681B88002B18D03B6889
:1003D0001B88102B14D03B681B88202B10D03B6847
:1003E0001B88302B0CD03B681B88602B08D03B68E7
:1003F0001B88702B04D05A4840F21D1101F0A0FB5D
:100400003B685B88002B08D03B685B88012B04D0DD
:1004100053484FF48F7101F093FB3B681B89002B0D
:1004200008D03B681B89022B04D04D4840F21F11B5
:1004300001F086FB7B681B8C9BB223F001039AB210
:100440007B681A847B681B8CFB817B689B88BB81E3
:100450007B681B8B7B817B8923F070037B817B898D
:1004600023F003037B813B681A887B8942EA0303FC
:100470007B81FB8923F00203FB813B681A89FB899E
:1004800042EA0303FB813B685A88FB8942EA030383
:10049000FB817A68244B9A420FD07A68264B9A42A5
:1004A0000BD07A682B4B9A4207D07A682A4B9A4233
:1004B00003D07A68294B9A427CD13B689B88002BF9
:1004C00008D03B689B88042B04D025484FF49E71CC
:1004D00001F036FB3B685B89002B08D03B685B89E9
:1004E000082B04D01E4840F23D1101F029FB3B6867
:1004F000DB89B3F5007F08D03B68DB89002B04D093
:1005000017484FF49F7101F01BFB3B689B89B3F5C3
:10051000807F27D03B689B89002B23D0104840F276
:100520003F1101F00DFB1DE0002C014000040040D4
:1005300000080040000C004000340140004C014025
:10054000005001400054014000180040001C0040D1
:1005500000200040004001400044014000480140AC
:10056000E8280008FB8923F00803FB813B685A89CF
:10057000FB8942EA0303FB81FB8923F00403FB812F
:100580003B689A88FB8942EA0303FB81BB8923F419
:100590008073BB81BB8923F40073BB813B689A895C
:1005A000BB8942EA0303BB813B68DA89BB8942EA23
:1005B0000303BB817B68BA899A807B687A891A8336
:1005C0003B68DA887B689A867B68FA891A8407F127
:1005D0001007BD4680BD00BF80B584B000AF786015
:1005E00039604FF000037B814FF00003FB814FF037
:1005F0000003BB817A68854B9A4224D07B68B3F1B3
:10060000804F20D07A68824B9A421CD07A68814B06
:100610009A4218D07A68804B9A4214D07A687F4BFD
:100620009A4210D07A687E4B9A420CD07A687D4B01
:100630009A4208D07A687C4B9A4204D07B4840F2B8
:100640006F1101F07DFA3B681B88002B18D03B68C6
:100650001B88102B14D03B681B88202B10D03B68C4
:100660001B88302B0CD03B681B88602B08D03B6864
:100670001B88702B04D06D484FF4B87101F060FAFC
:100680003B685B88002B08D03B685B88012B04D05B
:10069000664840F2711101F053FA3B681B89002B48
:1006A00008D03B681B89022B04D060484FF4B97115
:1006B00001F046FA7B681B8C9BB223F010039AB2C0
:1006C0007B681A847B681B8CFB817B689B88BB8161
:1006D0007B681B8B7B817B8923F4E0437B817B8957
:1006E00023F440737B813B681B884FEA03239AB253
:1006F0007B8942EA03037B81FB8923F02003FB8192
:100700003B681B894FEA03139AB2FB8942EA030351
:10071000FB813B685B884FEA03139AB2FB8942EA8C
:100720000303FB817A68394B9A4203D07A683B4BCA
:100730009A427DD13B689B88002B08D03B689B8800
:10074000042B04D0394840F28F1101F0F9F93B68CD
:100750005B89002B08D03B685B89082B04D03348A9
:100760004FF4C87101F0ECF93B68DB89B3F5007F09
:1007700008D03B68DB89002B04D02C4840F2911153
:1007800001F0DEF93B689B89B3F5807F08D03B68B8
:100790009B89002B04D025484FF4C97101F0D0F992
:1007A000FB8923F08003FB813B685B894FEA0313DD
:1007B0009AB2FB8942EA0303FB81FB8923F04003E1
:1007C000FB813B689B884FEA03139AB2FB8942EA9C
:1007D0000303FB81BB8923F48063BB81BB8923F4C2
:1007E0000063BB813B689B894FEA83039AB2BB8954
:1007F00042EA0303BB813B68DB894FEA83039AB279
:10080000BB8942EA0303BB8112E000BF002C014018
:100810000004004000080040000C0040003401408B
:10082000004C01400018004000400140E82800084A
:100830007B68BA899A807B687A891A833B68DA88F0
:100840007B681A877B68FA891A8407F11007BD460E
:1008500080BD00BF80B584B000AF786039604FF0D4
:1008600000037B814FF00003FB814FF00003BB814D
:100870007A68854B9A4218D07B68B3F1804F14D0C8
:100880007A68824B9A4210D07A68814B9A420CD097
:100890007A68804B9A4208D07A687F4B9A4204D09B
:1008A0007E4840F2C11101F04BF93B681B88002BD8
:1008B00018D03B681B88102B14D03B681B88202B5A
:1008C00010D03B681B88302B0CD03B681B88602BFA
:1008D00008D03B681B88702B04D070484FF4E1713E
:1008E00001F02EF93B685B88002B08D03B685B88E1
:1008F000012B04D0694840F2C31101F021F93B6893
:100900001B89002B08D03B681B89022B04D063484D
:100910004FF4E27101F014F97B681B8C9BB223F455
:1009200080739AB27B681A847B681B8CFB817B681E
:100930009B88BB817B689B8B7B817B8923F07003C9
:100940007B817B8923F003037B813B681A887B8949
:1009500042EA03037B81FB8923F40073FB813B683C
:100960001B894FEA03239AB2FB8942EA0303FB8106
:100970003B685B884FEA03239AB2FB8942EA030390
:10098000FB817A68404B9A4203D07A68424B9A4284
:1009900069D13B689B88002B08D03B689B88042B5F
:1009A00004D03E484FF4F07101F0CAF83B685B890F
:1009B000002B08D03B685B89082B04D0374840F2F5
:1009C000E11101F0BDF83B68DB89B3F5007F08D089
:1009D0003B68DB89002B04D030484FF4F17101F003
:1009E000AFF83B689B89B3F5807F08D03B689B8953
:1009F000002B04D0294840F2E31101F0A1F8FB8953
:100A000023F40063FB813B685B894FEA03239AB2BE
:100A1000FB8942EA0303FB81FB8923F48063FB81AA
:100A20003B689B884FEA03239AB2FB8942EA03039F
:100A3000FB81BB8923F48053BB81BB8923F4005322
:100A4000BB813B689B894FEA03139AB2BB8942EA98
:100A50000303BB813B68DB894FEA03139AB2BB896E
:100A600042EA0303BB817B68BA899A807B687A89F2
:100A70009A833B68DA887B689A877B68FA891A844C
:100A800007F11007BD4680BD002C01400004004066
:100A900000080040000C004000340140E828000835
:100AA00080B584B000AF786039604FF00003BB813F
:100AB0004FF000037B814FF00003FB817A68604BAD
:100AC0009A4218D07B68B3F1804F14D07A685D4B9E
:100AD0009A4210D07A685C4B9A420CD07A685B4B91
:100AE0009A4208D07A685A4B9A4204D059484FF437
:100AF000047101F025F83B681B88002B18D03B6877
:100B00001B88102B14D03B681B88202B10D03B680F
:100B10001B88302B0CD03B681B88602B08D03B68AF
:100B20001B88702B04D04B4840F2112101F008F8CB
:100B30003B685B88002B08D03B685B88012B04D0A6
:100B4000444840F2122100F0FBFF3B681B89002B58
:100B500008D03B681B89022B04D03E4840F2132189
:100B600000F0EEFF7B681B8C9BB223F480539AB29B
:100B70007B681A847B681B8C7B817B689B88FB81EC
:100B80007B689B8BBB81BB8923F4E043BB81BB8922
:100B900023F44073BB813B681B884FEA03239AB25E
:100BA000BB8942EA0303BB817B8923F400537B8129
:100BB0003B681B894FEA03339AB27B8942EA0303FD
:100BC0007B813B685B884FEA03339AB27B8942EAB8
:100BD00003037B817A681A4B9A4203D07A681C4BD4
:100BE0009A421AD13B689B89B3F5807F08D03B6855
:100BF0009B89002B04D017484FF40C7100F0A0FF24
:100C0000FB8923F48043FB813B689B894FEA831374
:100C10009AB2FB8942EA0303FB817B68FA899A80D6
:100C20007B68BA899A833B68DA887B68A3F840209E
:100C30007B687A891A8407F11007BD4680BD00BF22
:100C4000002C01400004004000080040000C00405F
:100C500000340140E828000880B582B000AF786019
:100C60000B46FB707A68354B9A4244D07B68B3F1EF
:100C7000804F40D07A68324B9A423CD07A68314BF0
:100C80009A4238D07A68304B9A4234D07A682F4BE7
:100C90009A4230D07A682E4B9A422CD07A682D4BEB
:100CA0009A4228D07A682C4B9A4224D07A682B4BEF
:100CB0009A4220D07A682A4B9A421CD07A68294BF3
:100CC0009A4218D07A68284B9A4214D07A68274BF7
:100CD0009A4210D07A68264B9A420CD07A68254BFB
:100CE0009A4208D07A68244B9A4204D0234840F2B2
:100CF000293100F025FFFB78002B07D0FB78012B72
:100D000004D01E4840F22A3100F01AFFFB78002B75
:100D100008D07B681B889BB243F001039AB27B68C2
:100D20001A8007E07B681B889BB223F001039AB20C
:100D30007B681A8007F10807BD4680BD002C014082
:100D40000004004000080040000C0040001000407B
:100D50000014004000340140004C014000500140AC
:100D60000054014000180040001C004000200040DA
:100D7000004001400044014000480140E8280008CC
:100D800080B582B000AF78600B46FB707A68354B57
:100D90009A4244D07B68B3F1804F40D07A68324B9E
:100DA0009A423CD07A68314B9A4238D07A68304BBC
:100DB0009A4234D07A682F4B9A4230D07A682E4BC0
:100DC0009A422CD07A682D4B9A4228D07A682C4BC4
:100DD0009A4224D07A682B4B9A4220D07A682A4BC8
:100DE0009A421CD07A68294B9A4218D07A68284BCC
:100DF0009A4214D07A68274B9A4210D07A68264BD0
:100E00009A420CD07A68254B9A4208D07A68244BD3
:100E10009A4204D0234840F2845100F091FEFB78BE
:100E2000002B07D0FB78012B04D01E4840F28551DF
:100E300000F086FEFB78002B08D07B681B889BB2F5
:100E400043F080039AB27B681A8007E07B681B88B6
:100E50009BB223F080039AB27B681A8007F10807DF
:100E6000BD4680BD002C0140000400400008004049
:100E7000000C00400010004000140040003401400D
:100E8000004C014000500140005401400018004057
:100E9000001C004000200040004001400044014090
:100EA00000480140E828000880B584B000AF7860B1
:100EB0000B467B804FF00003FB817A682E4B9A42F1
:100EC0003CD07B68B3F1804F38D07A682B4B9A4284
:100ED00034D07A682A4B9A4230D07A68294B9A42A9
:100EE0002CD07A68284B9A4228D07A68274B9A42AD
:100EF00024D07A68264B9A4220D07A68254B9A42B1
:100F00001CD07A68244B9A4218D07A68234B9A42B4
:100F100014D07A68224B9A4210D07A68214B9A42B8
:100F20000CD07A68204B9A4208D07A681F4B9A42BC
:100F300004D01F4840F2E95100F002FE7B88082BE4
:100F400007D07B88002B04D0194840F2EA5100F00A
:100F5000F7FD7B681B8BFB81FB8923F00803FB817A
:100F6000FA897B8842EA0303FB817B68FA891A834A
:100F700007F11007BD4680BD002C01400004004071
:100F800000080040000C004000340140004C0140CB
:100F9000005001400054014000180040001C004077
:100FA0000020004000400140004401400048014052
:100FB000E828000880B584B000AF78600B467B80DD
:100FC0004FF00003FB817A68244B9A4224D07B685F
:100FD000B3F1804F20D07A68214B9A421CD07A68B6
:100FE000204B9A4218D07A681F4B9A4214D07A68E4
:100FF0001E4B9A4210D07A681D4B9A420CD07A68E8
:101000001C4B9A4208D07A681B4B9A4204D01B486A
:1010100040F2026100F094FD7B88082B07D07B88AA
:10102000002B04D0154840F2036100F089FD7B6875
:101030001B8BFB81FB8923F40063FB817B884FEAD8
:1010400003239AB2FB8942EA0303FB817B68FA8996
:101050001A8307F11007BD4680BD00BF002C014078
:101060000004004000080040000C00400034014033
:10107000004C01400018004000400140E8280008F2
:1010800080B584B000AF78600B467B804FF00003E2
:10109000FB817A681C4B9A4218D07B68B3F1804F71
:1010A00014D07A68194B9A4210D07A68184B9A4239
:1010B0000CD07A68174B9A4208D07A68164B9A423D
:1010C00004D0164840F21A6100F03AFD7B88082BE4
:1010D00007D07B88002B04D0104840F21B6100F041
:1010E0002FFD7B689B8BFB81FB8923F00803FB8131
:1010F000FA897B8842EA0303FB817B68FA899A8339
:1011000007F11007BD4680BD002C014000040040DF
:1011100000080040000C004000340140E8280008AE
:1011200080B584B000AF78600B467B804FF0000341
:10113000FB817A681E4B9A4218D07B68B3F1804FCE
:1011400014D07A681B4B9A4210D07A681A4B9A4294
:101150000CD07A68194B9A4208D07A68184B9A4298
:1011600004D0184840F2326100F0EAFC7B88082B7A
:1011700007D07B88002B04D0124840F2336100F086
:10118000DFFC7B689B8BFB81FB8923F40063FB8185
:101190007B884FEA03239AB2FB8942EA0303FB816F
:1011A0007B68FA899A8307F11007BD4680BD00BFAE
:1011B000002C01400004004000080040000C0040EA
:1011C00000340140E828000880B582B000AF134B1E
:1011D0007B60134B3B600BE07B681A683B681A60CE
:1011E0003B6803F104033B607B6803F104037B600D
:1011F0003A680C4B9A42EFD30B480C494FF000026F
:101200008842B8BF40F8042BFADB00F0FFF900F089
:1012100085FC07F10807BD4680BD00BF102A000805
:10122000000000201400002014000020E805002029
:1012300080B400AFFEE700BF80B500AF4FF00600FE
:101240004FF0010100F0AAFE4FF01D004FF0010128
:1012500000F066FE80BD00BF80B582B000AF4FF0E9
:10126000C003BB804FF01803FB714FF00203BB714A
:1012700007F104030F48194600F074FA40F2C33333
:10128000BB8007F104030C48194600F06BFA4FF4D9
:101290004073BB804FF01003FB714FF00203BB7132
:1012A00007F104030548194600F05CFA07F1080746
:1012B000BD4680BD00080140000C01400010014007
:1012C00080B500AF664B48F2D0429A80644B4FF035
:1012D0000D021A80624B4FF00002DA80604B4FF033
:1012E00000025A805F485E49FEF71CFF5E4B4FF0DC
:1012F00070021A805C4B4FF002021A815A4B4FF079
:1013000001025A8057485849FFF70EF855484FF0E8
:101310000801FFF7C9FD544B4FF001025A805148B4
:101320005149FFF759F94F484FF00801FFF742FEC6
:101330004D4B4FF001025A804A484B49FFF78AFA59
:1013400048484FF00801FFF79BFE474B4FF0010262
:101350005A8044484449FFF7A3FB42484FF0080134
:10136000FFF7DEFE3F484FF00101FFF709FD3D4862
:101370004FF00101FFF770FC394B48F2D0429A80E0
:10138000374B4FF00D021A80354B4FF00002DA80D8
:10139000334B4FF000025A8034483149FEF7C2FE09
:1013A000314B4FF070021A802F4B4FF002021A811E
:1013B0002D4B4FF001025A802C482B49FEF7B4FF09
:1013C0002A484FF00801FFF76FFD274B4FF001024D
:1013D0005A8026482449FFF7FFF824484FF00801B7
:1013E000FFF7E8FD204B4FF001025A801F481E49CD
:1013F000FFF730FA1D484FF00801FFF741FE1A4B86
:101400004FF001025A8019481749FFF749FB174866
:101410004FF00801FFF784FE14484FF00101FFF779
:10142000AFFC12484FF00101FFF716FC4FF001002E
:101430004FF0010100F0B2FD4FF0804345F6BF527E
:101440001A854FF080434FF6FF729A854FF0804324
:101450004FF001021A80064B4FF400625A6080BDC3
:101460004C0000200004004058000020000800400C
:10147000002004E080B586B000AF44F204004FF0D5
:10148000010100F04DFD4FF40073BB824FF01803D3
:10149000FB754FF00303BB7507F114035848194659
:1014A00000F060F94FF48063BB824FF00403FB75DA
:1014B0004FF00303BB7507F114035148194600F0C0
:1014C00051F94FF4E1337B604FF000033B814FF063
:1014D00000037B814FF00003BB814FF000033B8290
:1014E0004FF00C03FB8107F104034648194600F056
:1014F00093FD44484FF0010100F010FF4FF400301D
:101500004FF0010100F04AFD4FF00403BB824FF0A1
:101510001803FB754FF00303BB7507F1140338483C
:10152000194600F01FF94FF00803BB824FF0040387
:10153000FB754FF00303BB7507F1140330481946E0
:1015400000F010F94FF4E1337B604FF000033B8172
:101550004FF000037B814FF00003BB814FF000038D
:101560003B824FF00C03FB8107F104032648194628
:1015700000F052FD24484FF0010100F0CFFE4FF083
:1015800025033B704FF000037B704FF00003BB70EE
:101590004FF00103FB703B46184601F019F919485A
:1015A00040F225514FF0010200F006FF154840F2CD
:1015B00027714FF0010200F0FFFE4FF026033B7051
:1015C0004FF000037B704FF00003BB704FF001033E
:1015D000FB703B46184601F0FBF80B4840F22551E2
:1015E0004FF0010200F0E8FE074840F227714FF08B
:1015F000010200F0E1FE07F11807BD4680BD00BF03
:1016000000080140003801400044004080B500AFB0
:10161000174B174A126842F001021A60144A144B21
:101620005968144B01EA03035360114A104B1B68BD
:1016300023F0847323F4803313600D4B0C4A12683B
:1016400022F480221A600A4B094A526822F4FE02F0
:101650005A60074B4FF41F029A60054B4FF000028F
:10166000DA6200F00BF8044B4FF000629A6080BD24
:10167000001002400000FFF800ED00E080B500AF70
:1016800000F002F880BD00BF80B483B000AF4FF01F
:1016900000037B604FF000033B60314B304A12681F
:1016A00042F480321A602E4B1B6803F400333B6017
:1016B0007B6803F101037B603B68002B03D17B68EF
:1016C000B3F5A06FEFD1264B1B6803F40033002B5A
:1016D00003D04FF001033B6002E04FF000033B609A
:1016E0003B68012B37D11E4B1D4A52685A601C4B78
:1016F0001B4A52685A601A4B194A52685A60184B72
:10170000174A526822F47C125A60154B144A5268E8
:1017100042F498125A60124B114A126842F08072D9
:101720001A6000BF0E4B1B6803F00073002BF9D04A
:101730000B4B0B4A526822F003025A60084B084ACE
:10174000526842F002025A6000BF054B5B6803F02A
:101750000C03082BF9D107F10C07BD4680BC70477C
:101760000010024080B588B000AF786039604FF05B
:101770000003FB614FF000033B614FF00003BB61CE
:101780004FF00003FB604FF000037B614FF000035C
:10179000BB607A68694B9A421CD07A68684B9A425F
:1017A00018D07A68674B9A4214D07A68664B9A428E
:1017B00010D07A68654B9A420CD07A68644B9A4292
:1017C00008D07A68634B9A4204D063484FF0B20164
:1017D00000F0B6F93B68DB78002B20D03B68DB7863
:1017E000042B1CD03B68DB78282B18D03B68DB78B7
:1017F000482B14D03B68DB78142B10D03B68DB7887
:10180000102B0CD03B68DB781C2B08D03B68DB78B6
:10181000182B04D050484FF0B30100F091F93B6809
:101820001B88002B04D14C484FF0B40100F088F91C
:101830003B68DB7803F00F03FB613B68DB7803F068
:101840001003002B16D03B689B78012B0CD03B6813
:101850009B78022B08D03B689B78032B04D03E4832
:101860004FF0BB0100F06CF93B689B78FA6942EAE3
:101870000303FB613B681B8803F0FF03002B51D07F
:101880007B681B687B614FF00003BB6144E0BB6970
:101890004FF0010202FA03F3FB603B681B881A4613
:1018A000FB6802EA03033B613A69FB689A422FD165
:1018B000BB694FEA8303FB60FB684FF00F0202FA3B
:1018C00003F3BB60BB686FEA03037A6902EA0303B0
:1018D0007B61FB68FA6902FA03F37A6942EA03035F
:1018E0007B613B68DB78282B07D1BB694FF0010295
:1018F00002FA03F27B685A610AE03B68DB78482B06
:1019000006D1BB694FF0010202FA03F27B681A614B
:10191000BB6903F10103BB61BB69072BB7D97B68C6
:101920007A691A603B681B88FF2B67D97B685B6804
:101930007B614FF00003BB615AE000BF000801402B
:10194000000C01400010014000140140001801404B
:10195000001C01400020014024290008BB6903F15C
:1019600008034FF0010202FA03F3FB603B681B8897
:101970001A46FB6802EA03033B613A69FB689A4234
:1019800032D1BB694FEA8303FB60FB684FF00F0263
:1019900002FA03F3BB60BB686FEA03037A6902EAE9
:1019A00003037B61FB68FA6902FA03F37A6942EA8E
:1019B00003037B613B68DB78282B08D1BB6903F10B
:1019C00008034FF0010202FA03F27B685A613B6898
:1019D000DB78482B08D1BB6903F108034FF0010203
:1019E00002FA03F27B681A61BB6903F10103BB6170
:1019F000BB69072BB2D97B687A695A6007F1200767
:101A0000BD4680BD80B582B000AF78600B467B805C
:101A10007A68174B9A421CD07A68164B9A4218D0B3
:101A20007A68154B9A4214D07A68144B9A4210D0B7
:101A30007A68134B9A420CD07A68124B9A4208D0BB
:101A40007A68114B9A4204D0104840F2691100F0B4
:101A500077F87B88002B04D10C484FF4B57100F067
:101A60006FF87A887B681A6107F10807BD4680BD68
:101A700000080140000C014000100140001401402A
:101A800000180140001C01400020014024290008EA
:101A900080B582B000AF78600B467B807A68174BC8
:101AA0009A421CD07A68164B9A4218D07A68154B25
:101AB0009A4214D07A68144B9A4210D07A68134B29
:101AC0009A420CD07A68124B9A4208D07A68114B2D
:101AD0009A4204D0104840F2791100F031F87B8826
:101AE000002B04D10C484FF4BD7100F029F87A881E
:101AF0007B685A6107F10807BD4680BD00080140B8
:101B0000000C014000100140001401400018014089
:101B1000001C0140002001402429000880B582B04B
:101B200000AFFFF773FDFFF787FBFFF795FBFFF7AC
:101B3000C7FBFFF79FFC4FF00003FB71FEE700BF00
:101B400080B483B000AF78603960FEE798B500AF2D
:101B500040484FF40071FFF755FF3F4840F22551D0
:101B600000F064FD0346012B33D13B4B1B889BB235
:101B700003F00F03002B29D1384B1C68364800F0C6
:101B80001FFD0346DAB2364B1A5504F10102334BFE
:101B90001A60324B1B68B3F5AF7F03D12F4B4FF068
:101BA00000021A602F4B1B6803F101022D4B1A60D3
:101BB0002C4B1B68B3F5AF7F0BD12A4B4FF00002C3
:101BC0001A60294B4FF001021A7002E0224800F01F
:101BD000F7FC21484FF4587100F028FD0346012B13
:101BE00002D11D4800F0ECFC1B4840F2277100F0C8
:101BF0001DFD0346012B26D11C4B1B68002B1BD05F
:101C00001A4B1B6803F1FF32184B1A60184B1B6804
:101C1000184AD25C03F10101154B19600E481146B8
:101C200000F08CFC124B1B68B3F5AF7F0BD1104B4F
:101C30004FF000021A6006E0074840F227714FF0AB
:101C4000000200F0B9FB03484FF40071FFF720FFDA
:101C500098BD00BF00100140003801401400002072
:101C6000C80100201C000020200000202C000020C3
:101C7000280000208804002098B500AF40484FF4A9
:101C80008071FFF7BFFE3F4840F2255100F0CEFCC7
:101C90000346012B33D13B4B1B889BB203F00F0350
:101CA000002B29D1384B1C68364800F089FC0346CC
:101CB000DAB2364B1A5504F10102334B1A60324B3B
:101CC0001B68B3F5AF7F03D12F4B4FF000021A60B2
:101CD0002F4B1B6803F101022D4B1A602C4B1B6824
:101CE000B3F5AF7F0BD12A4B4FF000021A60294B9E
:101CF0004FF001021A7002E0224800F061FC214816
:101D00004FF4587100F092FC0346012B02D11D489C
:101D100000F056FC1B4840F2277100F087FC034698
:101D2000012B26D11C4B1B68002B1BD01A4B1B68A8
:101D300003F1FF32184B1A60184B1B68184AD25C2B
:101D400003F10101154B19600E48114600F0F6FB36
:101D5000124B1B68B3F5AF7F0BD1104B4FF0000255
:101D60001A6006E0074840F227714FF0000200F0C9
:101D700023FB03484FF48071FFF78AFE98BD00BF34
:101D800000100140004400403000002068000020A6
:101D9000380000203C0000204800002044000020C3
:101DA0002803002080B489B000AF78604FF00003B2
:101DB000FB614FF00003BB614FF000037B614FF00C
:101DC00000033B614FF00003FB60504B5B6803F086
:101DD0000C03FB61FB69042B07D0082B09D0002BF7
:101DE00032D17B684A4A1A6032E07B68484A1A60FE
:101DF0002EE0464B5B6803F47013BB61434B5B689A
:101E000003F480337B61BB694FEA934303F1020320
:101E1000BB617B69002B06D1BB693E4A02FB03F222
:101E20007B681A6014E0394BDB6A03F00F0303F19F
:101E30000103FB60364AFB68B2FBF3F3BA6902FBAD
:101E400003F27B681A6003E07B68314A1A6000BFC6
:101E50002E4B5B6803F0F003FB61FB694FEA131341
:101E6000FB612D4AFB69D3181B78DBB23B617B68B1
:101E70001A683B6922FA03F27B685A60234B5B685D
:101E800003F4E063FB61FB694FEA1323FB61224A21
:101E9000FB69D3181B78DBB23B617B685A683B69EE
:101EA00022FA03F27B689A60184B5B6803F4605374
:101EB000FB61FB694FEAD323FB61174AFB69D31827
:101EC0001B78DBB23B617B685A683B6922FA03F2FC
:101ED0007B68DA600D4B5B6803F44043FB61FB6990
:101EE0004FEA9333FB610D4AFB69D3181B78DBB2D1
:101EF0003B617B68DA683B69B2FBF3F27B681A618D
:101F000007F12407BD4680BC704700BF00100240A7
:101F100000127A0000093D0000000020100000209F
:101F200080B582B000AF78600B46FB707A68184BC2
:101F300002EA0303002B02D17B68002B04D1154871
:101F400040F24A41FFF7FCFDFB78002B07D0FB78FD
:101F5000012B04D00F4840F24B41FFF7F1FDFB7815
:101F6000002B07D00C4B0C4A91697A6841EA0202B7
:101F70009A6108E0084B084A91697A686FEA0202A0
:101F800001EA02029A6107F10807BD4680BD00BF61
:101F90000200C0FF602900080010024080B582B036
:101FA00000AF78600B46FB707A68184B02EA0303B7
:101FB000002B02D17B68002B04D1154840F2694107
:101FC000FFF7BEFDFB78002B07D0FB78012B04D078
:101FD0000F4840F26A41FFF7B3FDFB78002B07D0B2
:101FE0000C4B0C4AD1697A6841EA0202DA6108E0D6
:101FF000084B084AD1697A686FEA020201EA0202D4
:10200000DA6107F10807BD4680BD00BF00360181D7
:10201000602900080010024080B58CB000AF7860E5
:1020200039604FF00003FB624FF00003BB624FF0DA
:1020300000037B624FF000033B624FF00003FB6143
:102040007A68854B9A4214D07A68844B9A4210D0B1
:102050007A68834B9A420CD07A68824B9A4208D0B5
:102060007A68814B9A4204D080484FF0B801FFF75C
:1020700067FD3B681B68002B04D03B681A687C4BEB
:102080009A4204D979484FF0B901FFF759FD3B68EE
:102090009B88002B09D03B689B88B3F5805F04D0F8
:1020A00072484FF0BA01FFF74BFD3B68DB88002B0D
:1020B00013D03B68DB88B3F5805F0ED03B68DB88CC
:1020C000B3F5005F09D03B68DB88B3F5405F04D00F
:1020D00066484FF0BB01FFF733FD3B681B89002BBF
:1020E0000ED03B681B89B3F5806F09D03B681B8914
:1020F000B3F5C06F04D05D484FF0BC01FFF720FD81
:102100003B685B891A464FF6F37302EA0303002B20
:1021100003D13B685B89002B04D154484FF0BD01CB
:10212000FFF70EFD3B689B89002B13D03B689B8912
:10213000B3F5807F0ED03B689B89B3F5007F09D053
:102140003B689B89B3F5407F04D048484FF0BE01FF
:10215000FFF7F6FC3B689B89002B10D07A683E4B5A
:102160009A420CD07A683D4B9A4208D07A683C4B30
:102170009A4204D03D484FF0C201FFF7E1FC7B6872
:10218000FB617B681B8A9BB2FB62FA6A4CF6FF73A9
:1021900002EA0303FB623B68DB88FA6A42EA030354
:1021A000FB62FB6A9AB27B681A827B689B899BB24E
:1021B000FB62FA6A4EF6F31302EA0303FB623B6822
:1021C0009A883B681B8942EA03039AB23B685B89A1
:1021D00042EA03039BB2FA6A42EA0303FB62FB6A28
:1021E0009AB27B689A817B689B8A9BB2FB62FA6A8F
:1021F0004FF6FF4302EA0303FB623B689B89FA6ADE
:1022000042EA0303FB62FB6A9AB27B689A8207F197
:1022100008031846FFF7C6FDFA690F4B9A4202D130
:102220007B69BB6201E03B69BB627B689B899BB2B7
:102230009BB21BB2002B1DDABA6A13464FEA830326
:102240009B184FEA83029A183B681B684FEA4303C6
:10225000B2FBF3F37B621CE0003801400044004015
:1022600000480040004C0040005000409C290008FD
:1022700020AA4400BA6A13464FEA83039B184FEA28
:1022800083029A183B681B684FEA8303B2FBF3F39F
:102290007B627A6A204BA3FB02134FEA53134FEA87
:1022A0000313FB62FB6A4FEA13134FF0640202FB55
:1022B00003F37A6AD31A3B627B689B899BB29BB219
:1022C0001BB2002B10DA3B6A4FEAC30303F1320260
:1022D000114BA3FB02134FEA531303F00703FA6AEF
:1022E00042EA0303FB620FE03B6A4FEA031303F188
:1022F0003202094BA3FB02134FEA531303F00F03FF
:10230000FA6A42EA0303FB62FB6A9AB27B681A81AB
:1023100007F13007BD4680BD1F85EB5180B582B007
:1023200000AF78600B46FB707A681D4B9A4214D060
:102330007A681C4B9A4210D07A681B4B9A420CD098
:102340007A681A4B9A4208D07A68194B9A4204D09C
:1023500018484FF4B171FFF7F3FBFB78002B07D05F
:10236000FB78012B04D0134840F26311FFF7E8FB20
:10237000FB78002B08D07B689B899BB243F4005309
:102380009AB27B689A8107E07B689B899BB223F4B1
:1023900000539AB27B689A8107F10807BD4680BD59
:1023A000003801400044004000480040004C00401C
:1023B000005000409C29000880B586B000AF7860CE
:1023C00013460A467A807B704FF000033B614FF062
:1023D0000003FB604FF00003BB604FF000037B6124
:1023E0007A68504B9A4214D07A684F4B9A4210D078
:1023F0007A684E4B9A420CD07A684D4B9A4208D07C
:102400007A684C4B9A4204D04B4840F28911FFF74E
:1024100097FB7B88282B25D07A8840F227739A4235
:1024200020D07A8840F226639A421BD07A8840F204
:1024300025539A4216D07A8840F224439A4211D00A
:102440007A8840F646039A420CD07A8840F66A139E
:102450009A4207D07B88602B04D037484FF4C5716F
:10246000FFF76EFB7B78002B07D07B78012B04D025
:10247000314840F28B11FFF763FB7A8840F66A130C
:102480009A4210D17A68274B9A420CD07A68264B30
:102490009A4208D07A68254B9A4204D0264840F2E6
:1024A0008F11FFF74DFB7B687B617B88DBB24FEAC6
:1024B0005313DBB23B617B8803F01F03FB60FB68B7
:1024C0004FF0010202FA03F3BB603B69012B04D118
:1024D0007B6903F10C037B610BE03B69022B04D1A8
:1024E0007B6903F110037B6103E07B6903F1140353
:1024F0007B617B78002B07D07B697A691168BA68A9
:1025000041EA02021A6008E07B697A691168BA68D8
:102510006FEA020201EA02021A6007F11807BD46DB
:1025200080BD00BF0038014000440040004800402A
:10253000004C0040005000409C29000880B582B04B
:1025400000AF78600B467B807A68174B9A4214D0B4
:102550007A68164B9A4210D07A68154B9A420CD082
:102560007A68144B9A4208D07A68134B9A4204D086
:10257000124840F25321FFF7E3FA7A8840F2FF1342
:102580009A4204D90D484FF41571FFF7D9FA7B88A8
:102590004FEAC3534FEAD3539AB27B689A8007F14C
:1025A0000807BD4680BD00BF003801400044004020
:1025B00000480040004C0040005000409C290008AA
:1025C00080B582B000AF78607A68124B9A4214D01E
:1025D0007A68114B9A4210D07A68104B9A420CD00C
:1025E0007A680F4B9A4208D07A680E4B9A4204D010
:1025F0000D484FF41971FFF7A3FA7B689B889BB2D3
:102600004FEAC3534FEAD3539BB2184607F108076A
:10261000BD4680BD003801400044004000480040F5
:10262000004C0040005000409C29000880B586B056
:1026300000AF78600B467B804FF00003FB604FF0EB
:1026400000037B614FF00003BB604FF00003FB749D
:102650007A68594B9A4214D07A68584B9A4210D0F3
:102660007A68574B9A420CD07A68564B9A4208D0F7
:102670007A68554B9A4204D0544840F2C131FFF772
:102680005FFA7B88282B2ED07A8840F227739A42F3
:1026900029D07A8840F226639A4224D07A8840F280
:1026A00025539A421FD07A8840F224439A421AD086
:1026B0007A8840F646039A4215D07A8840F66A1323
:1026C0009A4210D07B88B3F5587F0CD07B88B3F545
:1026D000187F08D07B88B3F5B07F04D03B4840F228
:1026E000C231FFF72DFA7A8840F66A139A4210D168
:1026F0007A68314B9A420CD07A68304B9A4208D0B3
:102700007A682F4B9A4204D0304840F2C631FFF726
:1027100017FA7B88DBB24FEA5313DBB2BB607B88CE
:1027200003F01F037B617B694FF0010202FA03F3A0
:102730007B61BB68012B07D17B689B899BB27A695F
:1027400002EA03037B6111E0BB68022B07D17B68BF
:102750001B8A9BB27A6902EA03037B6106E07B680D
:102760009B8A9BB27A6902EA03037B617B884FEA0A
:1027700013239BB2FB60FB684FF0010202FA03F3E4
:10278000FB607B681B889BB2FA6802EA0303FB606C
:102790007B69002B06D0FB68002B03D04FF00103B0
:1027A000FB7402E04FF00003FB74FB7C184607F15A
:1027B0001807BD4680BD00BF0038014000440040FE
:1027C00000480040004C0040005000409C29000898
:1027D00080B586B000AF78604FF000037B614FF0AA
:1027E00000033B614FF00F03FB607B68DB78002B3D
:1027F00008D07B68DB78012B04D038484FF0750196
:10280000FFF79EF97B685B780F2B04D933484FF0B4
:102810007601FFF795F97B689B780F2B04D92F4839
:102820004FF07701FFF78CF97B68DB78002B3FD006
:102830002B4BDB686FEA030303F4E0634FEA1323D7
:102840007B617B69C3F104033B617B69FA6822FA0F
:1028500003F3FB607B685B781A463B6902FA03F37B
:102860007B617B689B781A46FB6802EA03037A69FE
:1028700042EA03037B617B694FEA03137B611949D9
:102880007B681B787A69D2B2CB1883F80023154B8A
:102890007A6812784FEA5212D2B27968097801F058
:1028A0001F014FF0010000FA01F143F8221011E07E
:1028B0000C4B7A6812784FEA5212D2B279680978D2
:1028C00001F01F014FF0010000FA01F102F12002B6
:1028D00043F8221007F11807BD4680BDDC29000827
:1028E00000ED00E000E100E0453A5C436F6F436FAC
:1028F000785C436F4944455C776F726B73706163BA
:10290000655C50574D315C73746D5F6C69625C73CC
:1029100072635C73746D3332663130785F74696DE5
:102920002E630000453A5C436F6F436F785C436FE2
:102930004944455C776F726B73706163655C505797
:102940004D315C73746D5F6C69625C7372635C7350
:10295000746D3332663130785F6770696F2E630053
:10296000453A5C436F6F436F785C436F4944455C05
:10297000776F726B73706163655C50574D315C7338
:10298000746D5F6C69625C7372635C73746D333217
:10299000663130785F7263632E630000453A5C43B2
:1029A0006F6F436F785C436F4944455C776F726B20
:1029B00073706163655C50574D315C73746D5F6C0F
:1029C00069625C7372635C73746D33326631307844
:1029D0005F75736172742E6300000000453A5C43BA
:1029E0006F6F436F785C436F4944455C776F726BE0
:1029F00073706163655C50574D315C73746D5F6CCF
:102A000069625C7372635C6D6973632E63000000BE
:102A10000000000001020304010203040607080984
:042A2000020406089E
:0400000508000000EF
:00000001FF
