:020000040800F2
:10000000D0060020011600085D1600085D160008E5
:100010005D1600085D1600085D160008000000006F
:100020000000000000000000000000005D16000855
:100030005D160008000000005D1600085D1600084F
:100040005D1600085D1600085D1600085D160008C4
:100050005D1600085D1600085D1600085D160008B4
:100060005D1600085D1600085D1600085D160008A4
:100070005D1600085D1600085D1600085D16000894
:100080005D1600085D1600085D1600085D16000884
:100090005D1600085D1600085D1600085D16000874
:1000A0005D1600085D1600085D1600085D16000864
:1000B0005D1600085D1600085D1600085D16000854
:1000C0005D1600085D1600085D1600085D16000844
:1000D0005D160008DD1300085D160008F114000825
:1000E0005D1600085D1600085D160008000000009F
:1000F0000000000000000000000000000000000000
:1001000000000000000000005FF808F180B584B036
:1001100000AF786039600023FB817B68674A9342B7
:1001200043D07B68B3F1804F3FD07B68644A9342F1
:100130003BD07B68634A934237D07B68624A9342E4
:1001400033D07B68614A93422FD07B68604A9342E8
:100150002BD07B685F4A934227D07B685E4A9342EC
:1001600023D07B685D4A93421FD07B685C4A9342F0
:100170001BD07B685B4A934217D07B685A4A9342F4
:1001800013D07B68594A93420FD07B68584A9342F8
:100190000BD07B68574A934207D07B68564A9342FC
:1001A00003D05648E72101F031FE3B685B88002B05
:1001B00013D03B685B88102B0FD03B685B88202BEB
:1001C0000BD03B685B88402B07D03B685B88602B7B
:1001D00003D04A48E82101F019FE3B68DB88002B78
:1001E0000DD03B68DB88B3F5807F08D03B68DB88A7
:1001F000B3F5007F03D04148E92101F007FE7B6899
:100200001B88FB817B682D4A934213D07B68314A5F
:1002100093420FD07B68B3F1804F0BD07B68284AA4
:10022000934207D07B68274A934203D07B68264AD3
:10023000934208D1FB8923F07003FB813B685A8805
:10024000FB891343FB817B68204A93420CD07B6877
:100250001F4A934208D0FB8923F44073FB813B681B
:10026000DA88FB891343FB817B68FA891A803B6833
:100270009A887B689A853B681A887B681A857B68B0
:100280000E4A93420FD07B68124A93420BD07B6890
:10029000174A934207D07B68164A934203D07B6883
:1002A000154A934204D13B681B7A9AB27B681A863E
:1002B0007B6801229A821037BD4680BD002C014028
:1002C0000004004000080040000C00400010004006
:1002D0000014004000340140004C01400050014037
:1002E0000054014000180040001C00400020004065
:1002F000004001400044014000480140D82A000865
:1003000080B584B000AF7860396000237B81002322
:10031000FB810023BB817B68904A93423CD07B6881
:10032000B3F1804F38D07B688D4A934234D07B68DC
:100330008C4A934230D07B688B4A93422CD07B68A6
:100340008A4A934228D07B68894A934224D07B68AA
:10035000884A934220D07B68874A93421CD07B68AE
:10036000864A934218D07B68854A934214D07B68B2
:10037000844A934210D07B68834A93420CD07B68B6
:10038000824A934208D07B68814A934204D08148D4
:100390004FF48E7101F03AFD3B681B88002B18D09A
:1003A0003B681B88102B14D03B681B88202B10D077
:1003B0003B681B88302B0CD03B681B88602B08D017
:1003C0003B681B88702B04D0724840F21D1101F06D
:1003D0001DFD3B685B88002B08D03B685B88012BC8
:1003E00004D06C484FF48F7101F010FD3B681B89FD
:1003F000002B08D03B681B89022B04D0654840F2D3
:100400001F1101F003FD7B681B8C9BB223F00103DD
:100410009AB27B681A847B681B8CFB817B689B8803
:10042000BB817B681B8B7B817B8923F070037B8185
:100430007B8923F003037B813B681A887B89134304
:100440007B81FB8923F00203FB813B681A89FB89CE
:100450001343FB813B685A88FB891343FB817B680C
:100460003E4A93420FD07B68404A93420BD07B6850
:10047000454A934207D07B68444A934203D07B6845
:10048000434A934259D13B689B88002B08D03B6874
:100490009B88042B04D03F484FF49E7101F0B6FCBA
:1004A0003B685B89002B08D03B685B89082B04D034
:1004B000384840F23D1101F0A9FC3B68DB89B3F5F7
:1004C000007F08D03B68DB89002B04D031484FF413
:1004D0009F7101F09BFC3B689B89B3F5807F08D03E
:1004E0003B689B89002B04D02A4840F23F1101F061
:1004F0008DFCFB8923F00803FB813B685A89FB894B
:100500001343FB81FB8923F00403FB813B689A883A
:10051000FB891343FB81BB8923F48073BB81BB89B7
:1005200023F40073BB813B689A89BB891343BB8169
:100530003B68DA89BB891343BB817B68BA899A809F
:100540007B687A891A833B68DA887B689A867B683D
:10055000FA891A841037BD4680BD00BF002C0140C7
:100560000004004000080040000C0040003401403E
:10057000004C014000500140005401400018004070
:10058000001C0040002000400040014000440140A9
:1005900000480140D82A000880B584B000AF7860D8
:1005A000396000237B810023FB810023BB817B68B2
:1005B000854A934224D07B68B3F1804F20D07B687A
:1005C000824A93421CD07B68814A934218D07B6850
:1005D000804A934214D07B687F4A934210D07B6854
:1005E0007E4A93420CD07B687D4A934208D07B6858
:1005F0007C4A934204D07C4840F26F1101F006FC23
:100600003B681B88002B18D03B681B88102B14D02C
:100610003B681B88202B10D03B681B88302B0CD0EC
:100620003B681B88602B08D03B681B88702B04D06C
:100630006D484FF4B87101F0E9FB3B685B88002B13
:1006400008D03B685B88012B04D0674840F27111E9
:1006500001F0DCFB3B681B89002B08D03B681B8941
:10066000022B04D060484FF4B97101F0CFFB7B68D6
:100670001B8C9BB223F010039AB27B681A847B68B0
:100680001B8CFB817B689B88BB817B681B8B7B8180
:100690007B8923F4E0437B817B8923F440737B8156
:1006A0003B681B881B029AB27B8913437B81FB89C1
:1006B00023F02003FB813B681B891B019AB2FB8955
:1006C0001343FB813B685B881B019AB2FB89134390
:1006D000FB817B683C4A934203D07B683E4A93424D
:1006E00061D13B689B88002B08D03B689B88042B1A
:1006F00004D03D4840F28F1101F088FB3B685B89D4
:10070000002B08D03B685B89082B04D036484FF497
:10071000C87101F07BFB3B68DB89B3F5007F08D033
:100720003B68DB89002B04D02F4840F2911101F087
:100730006DFB3B689B89B3F5807F08D03B689B8944
:10074000002B04D028484FF4C97101F05FFBFB89EE
:1007500023F08003FB813B685B891B019AB2FB8914
:100760001343FB81FB8923F04003FB813B689B889B
:100770001B019AB2FB891343FB81BB8923F480637D
:10078000BB81BB8923F40063BB813B689B899B00D1
:100790009AB2BB891343BB813B68DB899B009AB249
:1007A000BB891343BB817B68BA899A807B687A894D
:1007B0001A833B68DA887B681A877B68FA891A840F
:1007C0001037BD4680BD00BF002C01400004004032
:1007D00000080040000C004000340140004C014083
:1007E0000018004000400140D82A000880B584B0BD
:1007F00000AF7860396000237B810023FB810023F8
:10080000BB817B687E4A934218D07B68B3F1804FEE
:1008100014D07B687B4A934210D07B687A4A93421B
:100820000CD07B68794A934208D07B68784A93421F
:1008300004D0784840F2C11101F0E8FA3B681B8807
:10084000002B18D03B681B88102B14D03B681B88EA
:10085000202B10D03B681B88302B0CD03B681B88AA
:10086000602B08D03B681B88702B04D069484FF47C
:10087000E17101F0CBFA3B685B88002B08D03B6844
:100880005B88012B04D0634840F2C31101F0BEFA2B
:100890003B681B89002B08D03B681B89022B04D0C6
:1008A0005C484FF4E27101F0B1FA7B681B8C9BB29B
:1008B00023F480739AB27B681A847B681B8CFB815B
:1008C0007B689B88BB817B689B8B7B817B8923F0CA
:1008D00070037B817B8923F003037B813B681A884B
:1008E0007B8913437B81FB8923F40073FB813B6885
:1008F0001B891B029AB2FB891343FB813B685B880F
:100900001B029AB2FB891343FB817B683C4A9342EA
:1009100003D07B683E4A934261D13B689B88002BA1
:1009200008D03B689B88042B04D03A484FF4F07100
:1009300001F06CFA3B685B89002B08D03B685B894F
:10094000082B04D0334840F2E11101F05FFA3B6814
:10095000DB89B3F5007F08D03B68DB89002B04D02E
:100960002C484FF4F17101F051FA3B689B89B3F5C3
:10097000807F08D03B689B89002B04D0254840F23B
:10098000E31101F043FAFB8923F40063FB813B6828
:100990005B891B029AB2FB891343FB81FB8923F419
:1009A0008063FB813B689B881B029AB2FB891343DF
:1009B000FB81BB8923F48053BB81BB8923F40053A3
:1009C000BB813B689B891B019AB2BB891343BB81E6
:1009D0003B68DB891B019AB2BB891343BB817B68EF
:1009E000BA899A807B687A899A833B68DA887B68BF
:1009F0009A877B68FA891A841037BD4680BD00BF8C
:100A0000002C01400004004000080040000C0040A1
:100A100000340140D82A000880B584B000AF786067
:100A200039600023BB8100237B810023FB817B682D
:100A30005B4A934218D07B68B3F1804F14D07B6837
:100A4000584A934210D07B68574A93420CD07B6837
:100A5000564A934208D07B68554A934204D0554881
:100A60004FF4047101F0D2F93B681B88002B18D0B9
:100A70003B681B88102B14D03B681B88202B10D0A0
:100A80003B681B88302B0CD03B681B88602B08D040
:100A90003B681B88702B04D0464840F2112101F0BE
:100AA000B5F93B685B88002B08D03B685B88012B5D
:100AB00004D0404840F2122101F0A8F93B681B899C
:100AC000002B08D03B681B89022B04D0394840F228
:100AD000132101F09BF97B681B8C9BB223F480539C
:100AE0009AB27B681A847B681B8C7B817B689B88AD
:100AF000FB817B689B8BBB81BB8923F4E043BB817B
:100B0000BB8923F44073BB813B681B881B029AB2EC
:100B1000BB891343BB817B8923F400537B813B68F2
:100B20001B891B039AB27B8913437B813B685B88DB
:100B30001B039AB27B8913437B817B68184A9342DB
:100B400003D07B681A4A934218D13B689B89B3F55E
:100B5000807F08D03B689B89002B04D015484FF458
:100B60000C7101F053F9FB8923F48043FB813B684E
:100B70009B899B019AB2FB891343FB817B68FA89AD
:100B80009A807B68BA899A833B68DA887B68A3F885
:100B900040207B687A891A841037BD4680BD00BF2B
:100BA000002C01400004004000080040000C004000
:100BB00000340140D82A000880B582B000AF7860C8
:100BC0000B46FB707B68354A934244D07B68B3F197
:100BD000804F40D07B68324A93423CD07B68314A98
:100BE000934238D07B68304A934234D07B682F4A96
:100BF000934230D07B682E4A93422CD07B682D4A9A
:100C0000934228D07B682C4A934224D07B682B4A9D
:100C1000934220D07B682A4A93421CD07B68294AA1
:100C2000934218D07B68284A934214D07B68274AA5
:100C3000934210D07B68264A93420CD07B68254AA9
:100C4000934208D07B68244A934204D0234840F260
:100C5000293101F0DBF8FB78002B07D0FB78012B62
:100C600004D01E4840F22A3101F0D0F8FB78002B66
:100C700008D07B681B889BB243F001039AB27B6863
:100C80001A8007E07B681B889BB223F001039AB2AD
:100C90007B681A800837BD4680BD00BF002C01402C
:100CA0000004004000080040000C0040001000401C
:100CB0000014004000340140004C0140005001404D
:100CC0000054014000180040001C0040002000407B
:100CD000004001400044014000480140D82A00087B
:100CE00080B582B000AF78600B46FB707B68354AF8
:100CF000934244D07B68B3F1804F40D07B68324A46
:100D000093423CD07B68314A934238D07B68304A6A
:100D1000934234D07B682F4A934230D07B682E4A6E
:100D200093422CD07B682D4A934228D07B682C4A72
:100D3000934224D07B682B4A934220D07B682A4A76
:100D400093421CD07B68294A934218D07B68284A7A
:100D5000934214D07B68274A934210D07B68264A7E
:100D600093420CD07B68254A934208D07B68244A82
:100D7000934204D0234840F2845101F047F8FB78B5
:100D8000002B07D0FB78012B04D01E4840F2855180
:100D900001F03CF8FB78002B08D07B681B889BB2E5
:100DA00043F080039AB27B681A8007E07B681B8857
:100DB0009BB223F080039AB27B681A800837BD4645
:100DC00080BD00BF002C014000040040000800402E
:100DD000000C0040001000400014004000340140AE
:100DE000004C0140005001400054014000180040F8
:100DF000001C004000200040004001400044014031
:100E000000480140D82A000880B584B000AF78605F
:100E10000B467B800023FB817B682E4A93423CD0AB
:100E20007B68B3F1804F38D07B682B4A934234D033
:100E30007B682A4A934230D07B68294A93422CD05F
:100E40007B68284A934228D07B68274A934224D063
:100E50007B68264A934220D07B68254A93421CD067
:100E60007B68244A934218D07B68234A934214D06B
:100E70007B68224A934210D07B68214A93420CD06F
:100E80007B68204A934208D07B681F4A934204D073
:100E90001E4840F2E95100F0B9FF7B88082B07D0CB
:100EA0007B88002B04D0194840F2EA5100F0AEFFD5
:100EB0007B681B8BFB81FB8923F00803FB81FA898C
:100EC0007B881343FB817B68FA891A831037BD4600
:100ED00080BD00BF002C014000040040000800401D
:100EE000000C004000340140004C01400050014023
:100EF0000054014000180040001C00400020004049
:100F0000004001400044014000480140D82A000848
:100F100080B584B000AF78600B467B800023FB81F6
:100F20007B68234A934224D07B68B3F1804F20D062
:100F30007B68204A93421CD07B681F4A934218D09A
:100F40007B681E4A934214D07B681D4A934210D09E
:100F50007B681C4A93420CD07B681B4A934208D0A2
:100F60007B681A4A934204D0194840F2026100F0AB
:100F70004DFF7B88082B07D07B88002B04D01448BA
:100F800040F2036100F042FF7B681B8BFB81FB8911
:100F900023F40063FB817B881B029AB2FB89134315
:100FA000FB817B68FA891A831037BD4680BD00BF7C
:100FB000002C01400004004000080040000C0040EC
:100FC00000340140004C0140001800400040014046
:100FD000D82A000880B584B000AF78600B467B80CB
:100FE0000023FB817B681C4A934218D07B68B3F1D5
:100FF000804F14D07B68194A934210D07B68184AFE
:1010000093420CD07B68174A934208D07B68164AFB
:10101000934204D0154840F21A6100F0F7FE7B8835
:10102000082B07D07B88002B04D0104840F21B61AE
:1010300000F0ECFE7B689B8BFB81FB8923F00803AF
:10104000FB81FA897B881343FB817B68FA899A8349
:101050001037BD4680BD00BF002C01400004004099
:1010600000080040000C004000340140D82A00086D
:1010700080B584B000AF78600B467B800023FB8195
:101080007B681D4A934218D07B68B3F1804F14D01F
:101090007B681A4A934210D07B68194A93420CD05D
:1010A0007B68184A934208D07B68174A934204D061
:1010B000164840F2326100F0A9FE7B88082B07D069
:1010C0007B88002B04D0114840F2336100F09EFE73
:1010D0007B689B8BFB81FB8923F40063FB817B880E
:1010E0001B029AB2FB891343FB817B68FA899A83BE
:1010F0001037BD4680BD00BF002C014000040040F9
:1011000000080040000C004000340140D82A0008CC
:1011100080B500AF154A154B1B6843F001031360FF
:101120001249124B5A68124B13404B600F4A0F4B37
:101130001B6823F0847323F4803313600B4A0B4B3A
:101140001B6823F480231360084A084B5B6823F470
:10115000FE035360054B4FF41F029A6000F00CF839
:10116000044B4FF000629A6080BD00BF0010024047
:101170000000FFF800ED00E080B500AF00F002F8DD
:1011800080BD00BF80B483B000AF00237B6000232C
:101190003B603A4A394B1B6843F480331360374B4A
:1011A0001B6803F400333B607B6801337B603B6862
:1011B000002B03D17B68B3F5A06FF0D12F4B1B68D8
:1011C00003F40033002B02D001233B6001E0002335
:1011D0003B603B68012B4BD1294A294B1B6843F0EC
:1011E00010031360264A264B1B6823F00303136089
:1011F000234A234B1B6843F0020313601F4A1F4B13
:101200005B6853601D4A1D4B5B6853601B4A1B4B58
:101210005B6843F480635360184A184B5B6823F49F
:101220007C135360154A154B5B6843F4E813536015
:10123000124A124B1B6843F08073136000BF0F4BC0
:101240001B6803F00073002BF9D00C4A0B4B5B6852
:1012500023F003035360094A084B5B6843F0020321
:10126000536000BF054B5B6803F00C03082BF9D1FA
:101270000C37BD465DF8047B704700BF001002408C
:101280000020024080B586B000AF44F20400012186
:1012900000F074FE4FF40073BB821823FB75032328
:1012A000BB7507F114034948194600F0DBF94FF408
:1012B0008063BB820423FB750323BB7507F1140312
:1012C0004248194600F0CEF94FF4E1337B60002329
:1012D0003B8100237B810023BB8100233B820C23C5
:1012E000FB813B1D3A48194600F0B8FE3848012101
:1012F00001F010F80820012100F040FE4FF480209A
:10130000012100F073FE4FF48063BB821823FB754C
:101310000323BB7507F114032E48194600F0A2F908
:101320004FF40063BB820423FB750323BB7507F1F5
:1013300014032848194600F095F94FF4E1337B6017
:1013400000233B8100237B810023BB8100233B8260
:101350000C23FB813B1D2048194600F07FFE1E48F0
:10136000012100F0D7FF25233B7000237B70002371
:10137000BB700123FB703B46184601F02FFB14485D
:1013800040F22551012201F013F8114840F2277173
:10139000012201F00DF827233B7000237B7000230E
:1013A000BB700123FB703B46184601F017FB0A484F
:1013B00040F22551012200F0FBFF074840F227715F
:1013C000012200F0F5FF1837BD4680BD000801403E
:1013D00000380140000C01400048004098B500AFC3
:1013E0003A484FF4004100F067FA394840F225517D
:1013F00001F004F90346012B2CD1354B1B889BB21D
:1014000003F00F03002B22D1324B1C68631C314ABE
:1014100013602F4801F0BEF80346DAB22E4B1A557E
:101420002C4B1B68802B02D12A4B00221A602B4BBD
:101430001B680133294A1360284B1B68802B09D194
:10144000264B00221A60264B01221A7002E0204827
:1014500001F0A0F81E484FF4587101F0CFF8034690
:10146000012B02D11A4801F095F8194840F2277172
:1014700001F0C4F80346012B22D11A4B1B68002B44
:1014800018D0184B1B68013B164A1360164B1B689B
:101490005A1C15490A60154AD35C9BB20C48194680
:1014A00001F03AF8104B1B68802B09D10E4B00223B
:1014B0001A6005E0064840F22771002200F078FF2C
:1014C00002484FF4004100F03DFA98BD0008014089
:1014D00000380140140000204C0000201C000020B7
:1014E000200000202C000020280000204C010020BB
:1014F00098B500AF3948082100F0DEF9384840F2CD
:10150000255101F07BF80346012B2CD1344B1B886D
:101510009BB203F00F03002B22D1324B1C68631CDB
:10152000304A13602E4801F035F80346DAB22E4BEC
:101530001A552C4B1B68802B02D12A4B00221A60B3
:101540002A4B1B680133294A1360284B1B68802BE8
:1015500009D1264B00221A60254B01221A7002E0A5
:101560001F4801F017F81E484FF4587101F046F873
:101570000346012B02D11A4801F00CF8184840F23A
:10158000277101F03BF80346012B22D1194B1B6850
:10159000002B18D0174B1B68013B164A1360164BE3
:1015A0001B685A1C14490A60144AD35C9BB20C484D
:1015B000194600F0B1FF104B1B68802B09D10E4B70
:1015C00000221A6005E0064840F22771002200F070
:1015D000EFFE0248082100F0B5F998BD000C01406B
:1015E0000048004030000020CC01002038000020DE
:1015F0003C0000204800002044000020CC000020D7
:1016000080B582B000AF104B7B60104B3B6007E0B1
:101610003B681A1D3A607A68111D796012681A6079
:101620003B680B4A9342F3D30A480B494FF0000240
:101630008842B8BF40F8042BFADBFFF769FD00F0E1
:1016400045FB0837BD4680BD4C2C0008000000203B
:101650001400002014000020CC02002080B400AF51
:10166000FEE700BF80B588B000AF78603960002326
:10167000FB6100233B610023BB610023FB6000236F
:101680007B610023BB607B68834A93421BD07B68ED
:10169000824A934217D07B68814A934213D07B6879
:1016A000804A93420FD07B687F4A93420BD07B687D
:1016B0007E4A934207D07B687D4A934203D07D489F
:1016C000B22100F0A3FB3B68DB78002B1FD03B6806
:1016D000DB78042B1BD03B68DB78282B17D03B68CA
:1016E000DB78482B13D03B68DB78142B0FD03B689A
:1016F000DB78102B0BD03B68DB781C2B07D03B68CA
:10170000DB78182B03D06B48B32100F07FFB3B68DC
:101710001B88002B03D16748B42100F077FB3B689E
:10172000DB7803F00F03FB613B68DB7803F0100309
:10173000002B15D03B689B78012B0BD03B689B7826
:10174000022B07D03B689B78032B03D05948BB2161
:1017500000F05CFB3B689B781A46FB691343FB6116
:101760003B681B88DBB2002B44D07B681B687B6125
:101770000023BB6138E0BB69012202FA03F3FB607E
:101780003B681B881A46FB6813403B613A69FB685B
:101790009A4226D1BB699B00FB60FB680F2202FACC
:1017A00003F3BB60BB68DB437A6913407B61FB6872
:1017B000FA6902FA03F37A6913437B613B68DB78C9
:1017C000282B05D1BB6901229A407B685A6108E049
:1017D0003B68DB78482B04D1BB6901229A407B68C7
:1017E0001A61BB690133BB61BB69072BC3D97B6835
:1017F0007A691A603B681B88FF2B4AD97B685B6853
:101800007B610023BB613EE0BB6908331A460123BC
:101810009340FB603B681B881A46FB6813403B61A2
:101820003A69FB689A422BD1BB699B00FB60FB685D
:101830000F2202FA03F3BB60BB68DB437A691340F3
:101840007B61FB68FA6902FA03F37A6913437B61EF
:101850003B68DB78282B07D1BB6908331A46012384
:1018600003FA02F27B685A613B68DB78482B07D1A8
:10187000BB6908331A46012303FA02F27B681A6136
:10188000BB690133BB61BB69072BBDD97B687A6932
:101890005A602037BD4680BD00080140000C014061
:1018A000001001400014014000180140001C0140DC
:1018B00000200140242B000880B582B000AF786082
:1018C0000B467B807B68174A93421CD07B68164A84
:1018D000934218D07B68154A934214D07B68144A0F
:1018E000934210D07B68134A93420CD07B68124A13
:1018F000934208D07B68114A934204D0104840F2CA
:10190000691100F083FA7B88002B04D10C484FF456
:10191000B57100F07BFA7A887B681A610837BD469A
:1019200080BD00BF00080140000C014000100140D4
:101930000014014000180140001C0140002001403B
:10194000242B000880B582B000AF78600B467B8006
:101950007B68174A93421CD07B68164A934218D082
:101960007B68154A934214D07B68144A934210D086
:101970007B68134A93420CD07B68124A934208D08A
:101980007B68114A934204D0104840F2791100F06C
:101990003DFA7B88002B04D10C484FF4BD7100F058
:1019A00035FA7A887B685A610837BD4680BD00BF2A
:1019B00000080140000C01400010014000140140EB
:1019C00000180140001C014000200140242B0008A9
:1019D00080B586B000AF78600B46FB7000233B619A
:1019E0000023FB6000237B610023BB607B68012B2D
:1019F00000F0BA807B68022B00F0B6807B68042B75
:101A000000F0B2807B68082B00F0AE807B688B4AC8
:101A1000934200F0A9807B68894A934200F0A48039
:101A20007B68884A934200F09F807B68864A934295
:101A300000F09A807B68854A934200F095807B682D
:101A4000834A934200F090807B68824A934200F080
:101A50008B807B68804A934200F086807B687F4A57
:101A6000934200F081807B68B3F5805F7CD07B6817
:101A7000B3F5EA1F78D07B68B3F5EB1F74D07B68B1
:101A8000B3F5004F70D07B68754A93426CD07B6889
:101A9000744A934268D07B68734A934264D07B68EF
:101AA000724A934260D07B68714A93425CD07B68F3
:101AB000B3F1201F58D07B686E4A934254D07B68A4
:101AC0006D4A934250D07B686C4A93424CD07B68FD
:101AD0006B4A934248D07B686A4A934244D07B6801
:101AE000694A934240D07B68B3F5011F3CD07B68C4
:101AF000664A934238D07B68654A934234D07B680B
:101B0000644A934230D07B68634A93422CD07B680E
:101B1000624A934228D07B68614A934224D07B6812
:101B2000604A934220D07B685F4A93421CD07B6816
:101B30005E4A934218D07B685D4A934214D07B681A
:101B40005C4A934210D07B685B4A93420CD07B681E
:101B50005A4A934208D07B68594A934204D0594864
:101B600040F22A2100F052F9FB78002B07D0FB78D5
:101B7000012B04D0534840F22B2100F047F97B6839
:101B8000002B03DA504BDB697B6102E04E4B5B6854
:101B90007B617B6803F470231B0CBB607B689BB28A
:101BA0003B617B6803F44013B3F5401F0AD17B69A6
:101BB00023F070637B61444A434B5B6823F070639E
:101BC000536021E07B6803F48013002B0ED0BB68C8
:101BD000032202FA03F3FB60FB68DB437A691340DC
:101BE0007B617B6943F070637B610DE07B685B0D1B
:101BF0001B011A463B699340DB437A6913407B61C2
:101C00007B6943F070637B61FB78002B08D07B68B5
:101C10005B0D1B011A463B6993407A6913437B6154
:101C20007B68002B03DA284A7B69D36102E0264AED
:101C30007B6953601837BD4680BD00BF100014009B
:101C40003000140040001600C0001600000118000B
:101C5000000218000003180000081A00000C1A0007
:101C600001002000020020000400200008002000E5
:101C70001000200040002000000130000002300071
:101C8000000430000011200000202000010000802E
:101C90000200008004000080080000801000008026
:101CA0002000008040000080800000800001008053
:101CB0000002008000040080000800800010008006
:101CC00000200080242B00080000014080B500AFF8
:101CD000FFF71EFA00F088FD00F056FD00F0BCFD95
:101CE000FFF7D0FA48484FF40041FFF72BFE1E20C3
:101CF00000F090FD44484FF40041FFF7DDFD022065
:101D000000F088FD40484FF40041FFF71BFE012022
:101D100000F080FD3C484FF40041FFF7CDFD02206C
:101D200000F078FD38484FF40041FFF70BFE01202A
:101D300000F070FD34484FF40041FFF7BDFD022074
:101D400000F068FD30484FF40041FFF7FBFD012033
:101D500000F060FD2C484FF40041FFF7ADFD02207C
:101D600000F058FD28484FF40041FFF7EBFD01203B
:101D700000F050FD24484FF40041FFF79DFD022084
:101D800000F048FD20484FF40041FFF7DBFD012043
:101D900000F040FD1C484FF40041FFF78DFD02208C
:101DA00000F038FD18484FF40041FFF7CBFD01204B
:101DB00000F030FD14484FF40041FFF77DFD022094
:101DC00000F028FD10484FF40041FFF7BBFD012053
:101DD00000F020FD0C484FF40041FFF76DFD02209C
:101DE00000F018FD08484FF40041FFF7ABFD01205B
:101DF00000F010FD04484FF40041FFF75DFD0220A4
:101E000000F008FD6EE700BF0008014080B483B019
:101E100000AF78603960FEE780B487B000AF7860CB
:101E200000237B6100233B610023FB600023BB6038
:101E30004D4B5B6803F00C037B617B69042B07D07F
:101E4000082B09D0002B34D17B68484A1A6034E053
:101E50007B68464A1A6030E0434B5B6803F47013BA
:101E60003B61414B5B6803F48033FB603B699B0C37
:101E700002333B61FB68002B06D13B693C4A02FB05
:101E800003F27B681A6013E0374B5B6803F400339E
:101E9000002B06D03B69364A02FB03F27B681A60CE
:101EA00006E03B69314A02FB03F27B681A6004E0FA
:101EB00003E07B682D4A1A6000BF2B4B5B6803F080
:101EC000F0037B617B691B097B612A4A7B691344B0
:101ED0001B78DBB2BB607B681A68BB68DA407B6842
:101EE0005A60214B5B6803F4E0637B617B691B0AEA
:101EF0007B61204A7B6913441B78DBB2BB607B6843
:101F00005A68BB68DA407B689A60174B5B6803F4D9
:101F100060537B617B69DB0A7B61164A7B691344F2
:101F20001B78DBB2BB607B685A68BB68DA407B68B1
:101F3000DA600D4B5B6803F440437B617B699B0B6C
:101F40007B610D4A7B6913441B78DBB2BB607B6805
:101F5000DA68BB68B2FBF3F27B681A611C37BD46D6
:101F60005DF8047B704700BF0010024000127A0049
:101F700000093D00000000201000002080B582B064
:101F800000AF78600B46FB707A68154B1340002B4E
:101F900002D17B68002B04D1124840F24A41FFF77E
:101FA00035FFFB78002B07D0FB78012B04D00D48C0
:101FB00040F24B41FFF72AFFFB78002B06D00A497D
:101FC000094B9A697B6813438B6106E00649064B0F
:101FD0009A697B68DB4313408B610837BD4680BD3F
:101FE0000200C0FF702B00080010024080B582B0D4
:101FF00000AF78600B46FB707A68154B1340002BDE
:1020000002D17B68002B04D1124840F26941FFF7EE
:10201000FDFEFB78002B07D0FB78012B04D00D4888
:1020200040F26A41FFF7F2FEFB78002B06D00A4926
:10203000094BDA697B681343CB6106E00649064B1E
:10204000DA697B68DB431340CB610837BD4680BD4E
:1020500000360181702B00080010024080B58CB062
:1020600000AF786039600023FB620023BB6200236D
:102070007B6200233B620023FB617B689D4A9342A5
:1020800013D07B689C4A93420FD07B689B4A934253
:102090000BD07B689A4A934207D07B68994A934257
:1020A00003D09948B821FFF7B1FE3B681B68002BAD
:1020B00004D03B681B68954A934203D99248B921E2
:1020C000FFF7A4FE3B689B88002B08D03B689B88E9
:1020D000B3F5805F03D08C48BA21FFF797FE3B68C9
:1020E000DB88002B12D03B68DB88B3F5805F0DD016
:1020F0003B68DB88B3F5005F08D03B68DB88B3F54D
:10210000405F03D08048BB21FFF780FE3B681B89FE
:10211000002B0DD03B681B89B3F5806F08D03B685E
:102120001B89B3F5C06F03D07748BC21FFF76EFE63
:102130003B685B891A464FF6F3731340002B03D1BB
:102140003B685B89002B03D16F48BD21FFF75EFE22
:102150003B689B89002B12D03B689B89B3F5807F3D
:102160000DD03B689B89B3F5007F08D03B689B8905
:10217000B3F5407F03D06448BE21FFF747FE3B68BC
:102180009B89002B0FD07B685A4A93420BD07B6807
:10219000594A934207D07B68584A934203D05A4821
:1021A000C221FFF733FE7B68FB617B681B8A9BB211
:1021B000FB62FA6A4CF6FF731340FB623B68DB88F4
:1021C0001A46FB6A1343FB62FB6A9AB27B681A8267
:1021D0007B689B899BB2FB62FA6A4EF6F31313404D
:1021E000FB623B689A883B681B8913439AB23B6841
:1021F0005B8913439BB21A46FB6A1343FB62FB6A7B
:102200009AB27B689A817B689B8A9BB2FB62FA6A6E
:102210004FF6FF431340FB623B689B891A46FB6AFB
:102220001343FB62FB6A9AB27B689A8207F1080348
:102230001846FFF7F1FDFB692E4A934202D17B69F4
:10224000BB6201E03B69BB627B689B899BB29BB22E
:102250001BB2002B0CDABA6A13469B0013449A0097
:102260001A443B681B685B00B2FBF3F37B620BE034
:10227000BA6A13469B0013449A001A443B681B68D1
:102280009B00B2FBF3F37B627B6A214AA2FB032330
:102290005B091B01FB62FB6A1B09642202FB03F35F
:1022A0007A6AD31A3B627B689B899BB29BB21BB252
:1022B000002B0CDA3B6ADB003233154AA2FB032306
:1022C0005B0903F00703FA6A1343FB620BE03B6A06
:1022D0001B0132330E4AA2FB03235B0903F00F03F9
:1022E000FA6A1343FB62FB6A9AB27B681A81303741
:1022F000BD4680BD00380140004400400048004019
:10230000004C004000500040BC2B000820AA4400B4
:102310001F85EB5180B582B000AF78600B46FB7033
:102320007B681D4A934214D07B681C4A934210D0AC
:102330007B681B4A93420CD07B681A4A934208D0B0
:102340007B68194A934204D018484FF4B171FFF7E3
:102350005DFDFB78002B07D0FB78012B04D01348E0
:1023600040F26311FFF752FDFB78002B08D07B6829
:102370009B899BB243F400539AB27B689A8107E031
:102380007B689B899BB223F400539AB27B689A8145
:102390000837BD4680BD00BF003801400044004002
:1023A00000480040004C004000500040BC2B00089A
:1023B00080B586B000AF78600B467B8013467B709B
:1023C00000233B610023FB600023BB6000237B6193
:1023D0007B684B4A934214D07B684A4A934210D0A0
:1023E0007B68494A93420CD07B68484A934208D0A4
:1023F0007B68474A934204D0464840F28911FFF770
:1024000005FD7B88282B25D07B8840F227729342DC
:1024100020D07B8840F2266293421BD07B8840F21A
:102420002552934216D07B8840F22442934211D029
:102430007B8840F6460293420CD07B8840F66A12B5
:10244000934207D07B88602B04D032484FF4C5718B
:10245000FFF7DCFC7B78002B07D07B78012B04D0C6
:102460002C4840F28B11FFF7D1FC7B8840F66A12B2
:10247000934210D17B68224A93420CD07B68214A58
:10248000934208D07B68204A934204D0214840F20E
:102490008F11FFF7BBFC7B687B617B88DBB25B093C
:1024A000DBB23B617B8803F01F03FB60FB6801220A
:1024B00002FA03F3BB603B69012B03D17B690C3348
:1024C0007B6109E03B69022B03D17B6910337B619F
:1024D00002E07B6914337B617B78002B06D07B693B
:1024E0007A691168BA680A431A6006E07B697A69FA
:1024F0001168BA68D2430A401A601837BD4680BDD9
:10250000003801400044004000480040004C0040BA
:1025100000500040BC2B000880B582B000AF78604E
:102520000B467B807B68154A934214D07B68144A23
:10253000934210D07B68134A93420CD07B68124AB6
:10254000934208D07B68114A934204D0104840F26D
:102550005321FFF75BFC7B88B3F5007F04D30C4865
:102560004FF41571FFF752FC7B88C3F308039AB24E
:102570007B689A800837BD4680BD00BF00380140A7
:102580000044004000480040004C00400050004023
:10259000BC2B000880B582B000AF78607B68114A20
:1025A000934214D07B68104A934210D07B680F4A44
:1025B00093420CD07B680E4A934208D07B680D4A48
:1025C000934204D00C484FF41971FFF71FFC7B684D
:1025D0009B889BB2C3F308039BB218460837BD46DD
:1025E00080BD00BF0038014000440040004800406A
:1025F000004C004000500040BC2B000880B586B065
:1026000000AF78600B467B800023FB6000237B617A
:102610000023BB600023FB747B68554A934214D0AF
:102620007B68544A934210D07B68534A93420CD043
:102630007B68524A934208D07B68514A934204D047
:10264000504840F2C131FFF7E1FB7B88282B2ED0A8
:102650007B8840F22772934229D07B8840F2266221
:10266000934224D07B8840F2255293421FD07B882E
:1026700040F2244293421AD07B8840F646029342AD
:1026800015D07B8840F66A12934210D07B88B3F550
:10269000587F0CD07B88B3F5187F08D07B88B3F5C2
:1026A000B07F04D0374840F2C231FFF7AFFB7B88E0
:1026B00040F66A12934210D17B682D4A93420CD0A7
:1026C0007B682C4A934208D07B682B4A934204D003
:1026D0002C4840F2C631FFF799FB7B88DBB25B09DF
:1026E000DBB2BB607B8803F01F037B617B69012247
:1026F00002FA03F37B61BB68012B07D17B689B89DE
:102700009BB21A467B6913407B6111E0BB68022BC8
:1027100007D17B681B8A9BB21A467B6913407B6199
:1027200006E07B689B8A9BB21A467B6913407B61FB
:102730007B881B0A9BB2FB60FB68012202FA03F351
:10274000FB607B681B889BB21A46FB681340FB60EA
:102750007B69002B05D0FB68002B02D00123FB74A2
:1027600001E00023FB74FB7C18461837BD4680BD92
:10277000003801400044004000480040004C004048
:1027800000500040BC2B000880B582B000AF012093
:102790000121FFF7F3FB11480121FFF719F90C2084
:1027A0000121FFF7EBFB4FF40273BB801023FB7199
:1027B0000223BB713B1D0A481946FEF753FF4FF435
:1027C0000043BB801023FB710223BB713B1D0548F6
:1027D0001946FEF747FF0837BD4680BD00023000AE
:1027E000000C01400008014080B500AF0420012129
:1027F000FFF7FCFB054B48F69F421A85034B01226D
:102800001A80034B4FF400525A6080BD000800400C
:10281000002004E080B483B000AF0346FB800D4A83
:10282000FB8893850B4B00229A8400BF094B1B8ABF
:102830009BB203F00103002BF8D0064A054B1B8A1C
:102840009BB223F001039BB213820C37BD465DF8A7
:10285000047B70470008004080B588B000AF0320BB
:102860000121FFF7C3FB0D200121FFF787FBCF23D9
:102870003B801823FB700223BB703B46544819462B
:10288000FEF7F0FE03233B803B4652481946FEF715
:10289000E9FE4AF28C033B832223BB8200237B8325
:1028A0000023FB8207F114034B481946FDF72EFC69
:1028B0007023BB80BB887B810223BB810123FB800B
:1028C0003B1D45481946FDF71BFD43480821FEF70F
:1028D0009BFA0123FB803B1D3F481946FDF75CFE38
:1028E0003D480821FEF714FB0123FB803B1D3A48BD
:1028F0001946FDF77BFF38480821FEF76BFB0123E3
:10290000FB803B1D34481946FEF786F83248082103
:10291000FEF7AEFB30480121FEF7E2F92E48012117
:10292000FEF74AF94AF28C033B832223BB82002341
:102930007B830023FB8207F114034FF0804019468C
:10294000FDF7E4FB7023BB800223BB810123FB80E6
:102950003B1D4FF080401946FDF7D2FC4FF0804000
:102960000821FEF751FA0123FB803B1D4FF0804008
:102970001946FDF711FE4FF080400821FEF7C8FA16
:102980000123FB803B1D4FF080401946FDF72EFFD1
:102990004FF080400821FEF71DFB0123FB803B1D0B
:1029A0004FF080401946FEF737F84FF0804008217D
:1029B000FEF75EFB4FF080400121FEF791F94FF0EA
:1029C00080400121FEF7F8F82037BD4680BD00BFEA
:1029D00000080140000C01400004004080B586B0B2
:1029E00000AF786000237B6100233B610F23FB6015
:1029F0007B68DB78002B07D07B68DB78012B03D06A
:102A000032487521FFF702FA7B685B780F2B03D9F8
:102A10002E487621FFF7FAF97B689B780F2B03D9B4
:102A20002A487721FFF7F2F97B68DB78002B3AD050
:102A3000274BDB68DB4303F4E0631B0A7B617B69A4
:102A4000C3F104033B617B69FA6822FA03F3FB607C
:102A50007B685B781A463B6902FA03F37B617B680B
:102A60009B781A46FB6813407A6913437B617B6944
:102A70001B017B61174A7B681B787969C9B21344D3
:102A80000A4683F80023134A7B681B785B09DBB294
:102A900018467B681B7803F01F03012101FA03F33A
:102AA00042F820300FE00B497B681B785B09DBB2F2
:102AB00018467B681B7803F01F0301229A4000F13F
:102AC000200341F823201837BD4680BD082C00089C
:102AD00000ED00E000E100E0433A5C55736572737D
:102AE0005C4C5C446F63756D656E74735C67697490
:102AF0006875625C52434F4E54524F4C5C4669724B
:102B00006D776172655C73746D5F6C69625C737222
:102B1000635C73746D3332663130785F74696D2E27
:102B200063000000433A5C55736572735C4C5C440F
:102B30006F63756D656E74735C6769746875625CEC
:102B400052434F4E54524F4C5C4669726D776172DE
:102B5000655C73746D5F6C69625C7372635C7374E3
:102B60006D3332663130785F6770696F2E630000B5
:102B7000433A5C55736572735C4C5C446F63756D6E
:102B8000656E74735C6769746875625C52434F4E1E
:102B900054524F4C5C4669726D776172655C737418
:102BA0006D5F6C69625C7372635C73746D33326603
:102BB0003130785F7263632E63000000433A5C55E6
:102BC000736572735C4C5C446F63756D656E747392
:102BD0005C6769746875625C52434F4E54524F4C47
:102BE0005C4669726D776172655C73746D5F6C6968
:102BF000625C7372635C73746D3332663130785F1C
:102C000075736172742E6300433A5C557365727319
:102C10005C4C5C446F63756D656E74735C6769745E
:102C20006875625C52434F4E54524F4C5C46697219
:102C30006D776172655C73746D5F6C69625C7372F1
:0C2C4000635C6D6973632E63000000008C
:102C4C000000000001020304010203040607080946
:042C5C000204060860
:0400000508000000EF
:00000001FF
