:020000040800F2
:100000007007002099170008F5170008F517000879
:10001000F5170008F5170008F517000800000000A4
:10002000000000000000000000000000F5170008BC
:10003000F517000800000000F5170008F517000884
:10004000F5170008F5170008F5170008F517000860
:10005000F5170008F5170008F5170008F517000850
:10006000F5170008F5170008F5170008F517000840
:10007000F5170008F5170008F5170008F517000830
:10008000F5170008F5170008F5170008F517000820
:10009000F5170008F5170008F5170008F517000810
:1000A000F5170008F5170008F5170008F517000800
:1000B000F5170008F5170008F5170008F5170008F0
:1000C000F5170008F5170008F5170008F5170008E0
:1000D000F5170008DD130008F51700088916000859
:1000E000F5170008F5170008F517000800000000D4
:1000F0000000000000000000000000000000000000
:1001000000000000000000005FF808F180B584B036
:1001100000AF786039600023FB817B68674A9342B7
:1001200043D07B68B3F1804F3FD07B68644A9342F1
:100130003BD07B68634A934237D07B68624A9342E4
:1001400033D07B68614A93422FD07B68604A9342E8
:100150002BD07B685F4A934227D07B685E4A9342EC
:1001600023D07B685D4A93421FD07B685C4A9342F0
:100170001BD07B685B4A934217D07B685A4A9342F4
:1001800013D07B68594A93420FD07B68584A9342F8
:100190000BD07B68574A934207D07B68564A9342FC
:1001A00003D05648E72101F06FFE3B685B88002BC7
:1001B00013D03B685B88102B0FD03B685B88202BEB
:1001C0000BD03B685B88402B07D03B685B88602B7B
:1001D00003D04A48E82101F057FE3B68DB88002B3A
:1001E0000DD03B68DB88B3F5807F08D03B68DB88A7
:1001F000B3F5007F03D04148E92101F045FE7B685B
:100200001B88FB817B682D4A934213D07B68314A5F
:1002100093420FD07B68B3F1804F0BD07B68284AA4
:10022000934207D07B68274A934203D07B68264AD3
:10023000934208D1FB8923F07003FB813B685A8805
:10024000FB891343FB817B68204A93420CD07B6877
:100250001F4A934208D0FB8923F44073FB813B681B
:10026000DA88FB891343FB817B68FA891A803B6833
:100270009A887B689A853B681A887B681A857B68B0
:100280000E4A93420FD07B68124A93420BD07B6890
:10029000174A934207D07B68164A934203D07B6883
:1002A000154A934204D13B681B7A9AB27B681A863E
:1002B0007B6801229A821037BD4680BD002C014028
:1002C0000004004000080040000C00400010004006
:1002D0000014004000340140004C01400050014037
:1002E0000054014000180040001C00400020004065
:1002F0000040014000440140004801404C440008D7
:1003000080B584B000AF7860396000237B81002322
:10031000FB810023BB817B68904A93423CD07B6881
:10032000B3F1804F38D07B688D4A934234D07B68DC
:100330008C4A934230D07B688B4A93422CD07B68A6
:100340008A4A934228D07B68894A934224D07B68AA
:10035000884A934220D07B68874A93421CD07B68AE
:10036000864A934218D07B68854A934214D07B68B2
:10037000844A934210D07B68834A93420CD07B68B6
:10038000824A934208D07B68814A934204D08148D4
:100390004FF48E7101F078FD3B681B88002B18D05C
:1003A0003B681B88102B14D03B681B88202B10D077
:1003B0003B681B88302B0CD03B681B88602B08D017
:1003C0003B681B88702B04D0724840F21D1101F06D
:1003D0005BFD3B685B88002B08D03B685B88012B8A
:1003E00004D06C484FF48F7101F04EFD3B681B89BF
:1003F000002B08D03B681B89022B04D0654840F2D3
:100400001F1101F041FD7B681B8C9BB223F001039F
:100410009AB27B681A847B681B8CFB817B689B8803
:10042000BB817B681B8B7B817B8923F070037B8185
:100430007B8923F003037B813B681A887B89134304
:100440007B81FB8923F00203FB813B681A89FB89CE
:100450001343FB813B685A88FB891343FB817B680C
:100460003E4A93420FD07B68404A93420BD07B6850
:10047000454A934207D07B68444A934203D07B6845
:10048000434A934259D13B689B88002B08D03B6874
:100490009B88042B04D03F484FF49E7101F0F4FC7C
:1004A0003B685B89002B08D03B685B89082B04D034
:1004B000384840F23D1101F0E7FC3B68DB89B3F5B9
:1004C000007F08D03B68DB89002B04D031484FF413
:1004D0009F7101F0D9FC3B689B89B3F5807F08D000
:1004E0003B689B89002B04D02A4840F23F1101F061
:1004F000CBFCFB8923F00803FB813B685A89FB890D
:100500001343FB81FB8923F00403FB813B689A883A
:10051000FB891343FB81BB8923F48073BB81BB89B7
:1005200023F40073BB813B689A89BB891343BB8169
:100530003B68DA89BB891343BB817B68BA899A809F
:100540007B687A891A833B68DA887B689A867B683D
:10055000FA891A841037BD4680BD00BF002C0140C7
:100560000004004000080040000C0040003401403E
:10057000004C014000500140005401400018004070
:10058000001C0040002000400040014000440140A9
:10059000004801404C44000880B584B000AF78604A
:1005A000396000237B810023FB810023BB817B68B2
:1005B000854A934224D07B68B3F1804F20D07B687A
:1005C000824A93421CD07B68814A934218D07B6850
:1005D000804A934214D07B687F4A934210D07B6854
:1005E0007E4A93420CD07B687D4A934208D07B6858
:1005F0007C4A934204D07C4840F26F1101F044FCE5
:100600003B681B88002B18D03B681B88102B14D02C
:100610003B681B88202B10D03B681B88302B0CD0EC
:100620003B681B88602B08D03B681B88702B04D06C
:100630006D484FF4B87101F027FC3B685B88002BD4
:1006400008D03B685B88012B04D0674840F27111E9
:1006500001F01AFC3B681B89002B08D03B681B8902
:10066000022B04D060484FF4B97101F00DFC7B6897
:100670001B8C9BB223F010039AB27B681A847B68B0
:100680001B8CFB817B689B88BB817B681B8B7B8180
:100690007B8923F4E0437B817B8923F440737B8156
:1006A0003B681B881B029AB27B8913437B81FB89C1
:1006B00023F02003FB813B681B891B019AB2FB8955
:1006C0001343FB813B685B881B019AB2FB89134390
:1006D000FB817B683C4A934203D07B683E4A93424D
:1006E00061D13B689B88002B08D03B689B88042B1A
:1006F00004D03D4840F28F1101F0C6FB3B685B8996
:10070000002B08D03B685B89082B04D036484FF497
:10071000C87101F0B9FB3B68DB89B3F5007F08D0F5
:100720003B68DB89002B04D02F4840F2911101F087
:10073000ABFB3B689B89B3F5807F08D03B689B8906
:10074000002B04D028484FF4C97101F09DFBFB89B0
:1007500023F08003FB813B685B891B019AB2FB8914
:100760001343FB81FB8923F04003FB813B689B889B
:100770001B019AB2FB891343FB81BB8923F480637D
:10078000BB81BB8923F40063BB813B689B899B00D1
:100790009AB2BB891343BB813B68DB899B009AB249
:1007A000BB891343BB817B68BA899A807B687A894D
:1007B0001A833B68DA887B681A877B68FA891A840F
:1007C0001037BD4680BD00BF002C01400004004032
:1007D00000080040000C004000340140004C014083
:1007E00000180040004001404C44000880B584B02F
:1007F00000AF7860396000237B810023FB810023F8
:10080000BB817B687E4A934218D07B68B3F1804FEE
:1008100014D07B687B4A934210D07B687A4A93421B
:100820000CD07B68794A934208D07B68784A93421F
:1008300004D0784840F2C11101F026FB3B681B88C8
:10084000002B18D03B681B88102B14D03B681B88EA
:10085000202B10D03B681B88302B0CD03B681B88AA
:10086000602B08D03B681B88702B04D069484FF47C
:10087000E17101F009FB3B685B88002B08D03B6805
:100880005B88012B04D0634840F2C31101F0FCFAED
:100890003B681B89002B08D03B681B89022B04D0C6
:1008A0005C484FF4E27101F0EFFA7B681B8C9BB25D
:1008B00023F480739AB27B681A847B681B8CFB815B
:1008C0007B689B88BB817B689B8B7B817B8923F0CA
:1008D00070037B817B8923F003037B813B681A884B
:1008E0007B8913437B81FB8923F40073FB813B6885
:1008F0001B891B029AB2FB891343FB813B685B880F
:100900001B029AB2FB891343FB817B683C4A9342EA
:1009100003D07B683E4A934261D13B689B88002BA1
:1009200008D03B689B88042B04D03A484FF4F07100
:1009300001F0AAFA3B685B89002B08D03B685B8911
:10094000082B04D0334840F2E11101F09DFA3B68D6
:10095000DB89B3F5007F08D03B68DB89002B04D02E
:100960002C484FF4F17101F08FFA3B689B89B3F585
:10097000807F08D03B689B89002B04D0254840F23B
:10098000E31101F081FAFB8923F40063FB813B68EA
:100990005B891B029AB2FB891343FB81FB8923F419
:1009A0008063FB813B689B881B029AB2FB891343DF
:1009B000FB81BB8923F48053BB81BB8923F40053A3
:1009C000BB813B689B891B019AB2BB891343BB81E6
:1009D0003B68DB891B019AB2BB891343BB817B68EF
:1009E000BA899A807B687A899A833B68DA887B68BF
:1009F0009A877B68FA891A841037BD4680BD00BF8C
:100A0000002C01400004004000080040000C0040A1
:100A1000003401404C44000880B584B000AF7860D9
:100A200039600023BB8100237B810023FB817B682D
:100A30005B4A934218D07B68B3F1804F14D07B6837
:100A4000584A934210D07B68574A93420CD07B6837
:100A5000564A934208D07B68554A934204D0554881
:100A60004FF4047101F010FA3B681B88002B18D07A
:100A70003B681B88102B14D03B681B88202B10D0A0
:100A80003B681B88302B0CD03B681B88602B08D040
:100A90003B681B88702B04D0464840F2112101F0BE
:100AA000F3F93B685B88002B08D03B685B88012B1F
:100AB00004D0404840F2122101F0E6F93B681B895E
:100AC000002B08D03B681B89022B04D0394840F228
:100AD000132101F0D9F97B681B8C9BB223F480535E
:100AE0009AB27B681A847B681B8C7B817B689B88AD
:100AF000FB817B689B8BBB81BB8923F4E043BB817B
:100B0000BB8923F44073BB813B681B881B029AB2EC
:100B1000BB891343BB817B8923F400537B813B68F2
:100B20001B891B039AB27B8913437B813B685B88DB
:100B30001B039AB27B8913437B817B68184A9342DB
:100B400003D07B681A4A934218D13B689B89B3F55E
:100B5000807F08D03B689B89002B04D015484FF458
:100B60000C7101F091F9FB8923F48043FB813B6810
:100B70009B899B019AB2FB891343FB817B68FA89AD
:100B80009A807B68BA899A833B68DA887B68A3F885
:100B900040207B687A891A841037BD4680BD00BF2B
:100BA000002C01400004004000080040000C004000
:100BB000003401404C44000880B582B000AF78603A
:100BC0000B46FB707B68354A934244D07B68B3F197
:100BD000804F40D07B68324A93423CD07B68314A98
:100BE000934238D07B68304A934234D07B682F4A96
:100BF000934230D07B682E4A93422CD07B682D4A9A
:100C0000934228D07B682C4A934224D07B682B4A9D
:100C1000934220D07B682A4A93421CD07B68294AA1
:100C2000934218D07B68284A934214D07B68274AA5
:100C3000934210D07B68264A93420CD07B68254AA9
:100C4000934208D07B68244A934204D0234840F260
:100C5000293101F019F9FB78002B07D0FB78012B23
:100C600004D01E4840F22A3101F00EF9FB78002B27
:100C700008D07B681B889BB243F001039AB27B6863
:100C80001A8007E07B681B889BB223F001039AB2AD
:100C90007B681A800837BD4680BD00BF002C01402C
:100CA0000004004000080040000C0040001000401C
:100CB0000014004000340140004C0140005001404D
:100CC0000054014000180040001C0040002000407B
:100CD0000040014000440140004801404C440008ED
:100CE00080B582B000AF78600B46FB707B68354AF8
:100CF000934244D07B68B3F1804F40D07B68324A46
:100D000093423CD07B68314A934238D07B68304A6A
:100D1000934234D07B682F4A934230D07B682E4A6E
:100D200093422CD07B682D4A934228D07B682C4A72
:100D3000934224D07B682B4A934220D07B682A4A76
:100D400093421CD07B68294A934218D07B68284A7A
:100D5000934214D07B68274A934210D07B68264A7E
:100D600093420CD07B68254A934208D07B68244A82
:100D7000934204D0234840F2845101F085F8FB7877
:100D8000002B07D0FB78012B04D01E4840F2855180
:100D900001F07AF8FB78002B08D07B681B889BB2A7
:100DA00043F080039AB27B681A8007E07B681B8857
:100DB0009BB223F080039AB27B681A800837BD4645
:100DC00080BD00BF002C014000040040000800402E
:100DD000000C0040001000400014004000340140AE
:100DE000004C0140005001400054014000180040F8
:100DF000001C004000200040004001400044014031
:100E0000004801404C44000880B584B000AF7860D1
:100E10000B467B800023FB817B682E4A93423CD0AB
:100E20007B68B3F1804F38D07B682B4A934234D033
:100E30007B682A4A934230D07B68294A93422CD05F
:100E40007B68284A934228D07B68274A934224D063
:100E50007B68264A934220D07B68254A93421CD067
:100E60007B68244A934218D07B68234A934214D06B
:100E70007B68224A934210D07B68214A93420CD06F
:100E80007B68204A934208D07B681F4A934204D073
:100E90001E4840F2E95100F0F7FF7B88082B07D08D
:100EA0007B88002B04D0194840F2EA5100F0ECFF97
:100EB0007B681B8BFB81FB8923F00803FB81FA898C
:100EC0007B881343FB817B68FA891A831037BD4600
:100ED00080BD00BF002C014000040040000800401D
:100EE000000C004000340140004C01400050014023
:100EF0000054014000180040001C00400020004049
:100F00000040014000440140004801404C440008BA
:100F100080B584B000AF78600B467B800023FB81F6
:100F20007B68234A934224D07B68B3F1804F20D062
:100F30007B68204A93421CD07B681F4A934218D09A
:100F40007B681E4A934214D07B681D4A934210D09E
:100F50007B681C4A93420CD07B681B4A934208D0A2
:100F60007B681A4A934204D0194840F2026100F0AB
:100F70008BFF7B88082B07D07B88002B04D014487C
:100F800040F2036100F080FF7B681B8BFB81FB89D3
:100F900023F40063FB817B881B029AB2FB89134315
:100FA000FB817B68FA891A831037BD4680BD00BF7C
:100FB000002C01400004004000080040000C0040EC
:100FC00000340140004C0140001800400040014046
:100FD0004C44000880B584B000AF78600B467B803D
:100FE0000023FB817B681C4A934218D07B68B3F1D5
:100FF000804F14D07B68194A934210D07B68184AFE
:1010000093420CD07B68174A934208D07B68164AFB
:10101000934204D0154840F21A6100F035FF7B88F6
:10102000082B07D07B88002B04D0104840F21B61AE
:1010300000F02AFF7B689B8BFB81FB8923F0080370
:10104000FB81FA897B881343FB817B68FA899A8349
:101050001037BD4680BD00BF002C01400004004099
:1010600000080040000C0040003401404C440008DF
:1010700080B584B000AF78600B467B800023FB8195
:101080007B681D4A934218D07B68B3F1804F14D01F
:101090007B681A4A934210D07B68194A93420CD05D
:1010A0007B68184A934208D07B68174A934204D061
:1010B000164840F2326100F0E7FE7B88082B07D02B
:1010C0007B88002B04D0114840F2336100F0DCFE35
:1010D0007B689B8BFB81FB8923F40063FB817B880E
:1010E0001B029AB2FB891343FB817B68FA899A83BE
:1010F0001037BD4680BD00BF002C014000040040F9
:1011000000080040000C0040003401404C4400083E
:1011100080B500AF154A154B1B6843F001031360FF
:101120001249124B5A68124B13404B600F4A0F4B37
:101130001B6823F0847323F4803313600B4A0B4B3A
:101140001B6823F480231360084A084B5B6823F470
:10115000FE035360054B4FF41F029A6000F00CF839
:10116000044B4FF000629A6080BD00BF0010024047
:101170000000FFF800ED00E080B500AF00F002F8DD
:1011800080BD00BF80B483B000AF00237B6000232C
:101190003B603A4A394B1B6843F480331360374B4A
:1011A0001B6803F400333B607B6801337B603B6862
:1011B000002B03D17B68B3F5A06FF0D12F4B1B68D8
:1011C00003F40033002B02D001233B6001E0002335
:1011D0003B603B68012B4BD1294A294B1B6843F0EC
:1011E00010031360264A264B1B6823F00303136089
:1011F000234A234B1B6843F0020313601F4A1F4B13
:101200005B6853601D4A1D4B5B6853601B4A1B4B58
:101210005B6843F480635360184A184B5B6823F49F
:101220007C135360154A154B5B6843F4E813536015
:10123000124A124B1B6843F08073136000BF0F4BC0
:101240001B6803F00073002BF9D00C4A0B4B5B6852
:1012500023F003035360094A084B5B6843F0020321
:10126000536000BF054B5B6803F00C03082BF9D1FA
:101270000C37BD465DF8047B704700BF001002408C
:101280000020024080B586B000AF44F20400012186
:1012900000F0B2FE4FF40073BB821823FB750323EA
:1012A000BB7507F114034948194600F0A7FA4FF43B
:1012B0008063BB820423FB750323BB7507F1140312
:1012C0004248194600F09AFA4FF4E1337B6000235C
:1012D0003B8100237B810023BB8100233B820C23C5
:1012E000FB813B1D3A48194600F0F6FE38480121C3
:1012F00001F04EF80820012100F07EFE4FF480201E
:10130000012100F0B1FE4FF48063BB821823FB750E
:101310000323BB7507F114032E48194600F06EFA3B
:101320004FF40063BB820423FB750323BB7507F1F5
:1013300014032848194600F061FA4FF4E1337B604A
:1013400000233B8100237B810023BB8100233B8260
:101350000C23FB813B1D2048194600F0BDFE1E48B2
:10136000012101F015F825233B7000237B70002339
:10137000BB700123FB703B46184601F01DFD14486D
:1013800040F22551012201F051F8114840F2277135
:10139000012201F04BF827233B7000237B700023D0
:1013A000BB700123FB703B46184601F005FD0A485F
:1013B00040F22551012201F039F8074840F2277127
:1013C000012201F033F81837BD4680BD0008014006
:1013D00000380140000C01400048004098B500AFC3
:1013E0003A484FF4004100F033FB394840F22551B0
:1013F00001F0BCF90346012B2CD1354B1B889BB265
:1014000003F00F03002B22D1324B1C68631C314ABE
:1014100013602F4801F0FCF80346DAB22E4B1A5540
:101420002C4B1B68802B02D12A4B00221A602B4BBD
:101430001B680133294A1360284B1B68802B09D194
:10144000264B00221A60264B01221A7002E0204827
:1014500001F0DEF81E484FF4587101F087F9034699
:10146000012B02D11A4801F0D3F8194840F2277134
:1014700001F07CF90346012B22D11A4B1B68002B8B
:1014800018D0184B1B68013B164A1360164B1B689B
:101490005A1C15490A60154AD35C9BB20C48194680
:1014A00001F078F8104B1B68802B09D10E4B0022FD
:1014B0001A6005E0064840F22771002200F0B6FFEE
:1014C00002484FF4004100F009FB98BD00080140BC
:1014D00000380140A8000020EC000020B0000020EF
:1014E000B4000020C0000020BC000020EC0100205F
:1014F00080B582B000AF00BF144B1B68002BFBD03F
:10150000134B1B685A1C12490A60124AD35CFB71C8
:101510000F4B1B68802B02D10D4B00221A600E4826
:1015200040F22551002200F081FF084B1B68013B6F
:10153000064A1360084840F22551012200F076FF68
:10154000FB7918460837BD4680BD00BFB0000020BB
:10155000AC000020EC0000200038014080B582B0D3
:1015600000AF0346FB7100BF1C4B1B68802BFBD0F8
:101570001B4840F22771002200F058FF174B1B68F0
:10158000002B06D11648802101F076F80346002B87
:101590001AD1144B1B685A1C12490A601249FA7975
:1015A000CA54104B1B68802B02D10E4B00221A60CC
:1015B0000A4B1B680133094A1360094840F227713E
:1015C000012200F033FF05E0FB799BB20448194685
:1015D00000F0E0FF0837BD4680BD00BFC00000201E
:1015E00000380140B8000020EC01002080B582B036
:1015F00000AF786006E07B685A1C7A601B7818465A
:10160000FFF7ACFF7B681B78002BF4D10837BD4691
:1016100080BD00BF80B483B000AF00237B6007E0D3
:10162000074A7B68134400221A707B6801337B6091
:101630007B687F2BF4DD0C37BD465DF8047B70477B
:10164000EC02002080B584B000AF7860FFF7E2FFC5
:101650000023FB6011E0FFF74BFF0346FB72FB7AB0
:101660000D2B05D07B685A1C7A60FA7A1A7001E05B
:101670008023FB60FB680133FB60FB687F2BEAD9AA
:101680001037BD4680BD00BF98B500AF394808216E
:1016900000F0DEF9384840F2255101F067F80346C2
:1016A000012B2CD1344B1B889BB203F00F03002B72
:1016B00022D1324B1C68631C304A13602E4800F064
:1016C000A7FF0346DAB22E4B1A552C4B1B68802B12
:1016D00002D12A4B00221A602A4B1B680133294A87
:1016E0001360284B1B68802B09D1264B00221A60FF
:1016F000254B01221A7002E01F4800F089FF1E48A6
:101700004FF4587101F032F80346012B02D11A4808
:1017100000F07EFF184840F2277101F027F80346D9
:10172000012B22D1194B1B68002B18D0174B1B68BB
:10173000013B164A1360164B1B685A1C14490A6079
:10174000144AD35C9BB20C48194600F023FF104B9F
:101750001B68802B09D10E4B00221A6005E0064859
:1017600040F22771002200F061FE0248082100F0DB
:10177000B5F998BD000C014000480040C4000020AD
:101780006C020020CC000020D0000020DC000020F3
:10179000D80000206C01002080B582B000AF104B53
:1017A0007B60104B3B6007E03B681A1D3A607A682B
:1017B000111D796012681A603B680B4A9342F3D39B
:1017C0000A480B494FF000028842B8BF40F8042B8A
:1017D000FADBFFF79DFC00F045FB0837BD4680BDF6
:1017E0007048000800000020A8000020A800002089
:1017F0007003002080B400AFFEE700BF80B588B062
:1018000000AF786039600023FB6100233B61002357
:10181000BB610023FB6000237B610023BB607B680E
:10182000834A93421BD07B68824A934217D07B68DD
:10183000814A934213D07B68804A93420FD07B68E1
:101840007F4A93420BD07B687E4A934207D07B68E5
:101850007D4A934203D07D48B22100F015FB3B68DE
:10186000DB78002B1FD03B68DB78042B1BD03B6858
:10187000DB78282B17D03B68DB78482B13D03B68EC
:10188000DB78142B0FD03B68DB78102B0BD03B6838
:10189000DB781C2B07D03B68DB78182B03D06B4818
:1018A000B32100F0F1FA3B681B88002B03D1674895
:1018B000B42100F0E9FA3B68DB7803F00F03FB6129
:1018C0003B68DB7803F01003002B15D03B689B7856
:1018D000012B0BD03B689B78022B07D03B689B7891
:1018E000032B03D05948BB2100F0CEFA3B689B780C
:1018F0001A46FB691343FB613B681B88DBB2002B74
:1019000044D07B681B687B610023BB6138E0BB6906
:10191000012202FA03F3FB603B681B881A46FB684E
:1019200013403B613A69FB689A4226D1BB699B0030
:10193000FB60FB680F2202FA03F3BB60BB68DB436A
:101940007A6913407B61FB68FA6902FA03F37A69EA
:1019500013437B613B68DB78282B05D1BB690122EF
:101960009A407B685A6108E03B68DB78482B04D1D9
:10197000BB6901229A407B681A61BB690133BB6174
:10198000BB69072BC3D97B687A691A603B681B88DF
:10199000FF2B4AD97B685B687B610023BB613EE01B
:1019A000BB6908331A4601239340FB603B681B88E0
:1019B0001A46FB6813403B613A69FB689A422BD197
:1019C000BB699B00FB60FB680F2202FA03F3BB605C
:1019D000BB68DB437A6913407B61FB68FA6902FAF2
:1019E00003F37A6913437B613B68DB78282B07D1CB
:1019F000BB6908331A46012303FA02F27B685A6175
:101A00003B68DB78482B07D1BB6908331A460123B2
:101A100003FA02F27B681A61BB690133BB61BB69DF
:101A2000072BBDD97B687A695A602037BD4680BDD7
:101A300000080140000C014000100140001401406A
:101A400000180140001C014000200140984400089B
:101A500080B582B000AF78600B467B807B68174A08
:101A600093421CD07B68164A934218D07B68154A73
:101A7000934214D07B68144A934210D07B68134A77
:101A800093420CD07B68124A934208D07B68114A7B
:101A9000934204D0104840F2691100F0F5F97B88B8
:101AA000002B04D10C484FF4B57100F0EDF97A88A1
:101AB0007B681A610837BD4680BD00BF0008014041
:101AC000000C0140001001400014014000180140CA
:101AD000001C0140002001409844000880B582B0FD
:101AE00000AF78600B467B807B68174A93421CD01E
:101AF0007B68164A934218D07B68154A934214D0EB
:101B00007B68144A934210D07B68134A93420CD0EE
:101B10007B68124A934208D07B68114A934204D0F2
:101B2000104840F2791100F0AFF97B88002B04D106
:101B30000C484FF4BD7100F0A7F97A887B685A61B0
:101B40000837BD4680BD00BF00080140000C0140C1
:101B5000001001400014014000180140001C014029
:101B6000002001409844000880B586B000AF78603E
:101B70000B46FB7000233B610023FB6000237B616D
:101B80000023BB607B68012B00F0BA807B68022BCE
:101B900000F0B6807B68042B00F0B2807B68082BD5
:101BA00000F0AE807B688B4A934200F0A9807B688E
:101BB000894A934200F0A4807B68884A934200F0EF
:101BC0009F807B68864A934200F09A807B68854AB2
:101BD000934200F095807B68834A934200F09080A6
:101BE0007B68824A934200F08B807B68804A9342F4
:101BF00000F086807B687F4A934200F081807B689A
:101C0000B3F5805F7CD07B68B3F5EA1F78D07B6842
:101C1000B3F5EB1F74D07B68B3F5004F70D07B68D1
:101C2000754A93426CD07B68744A934268D07B6853
:101C3000734A934264D07B68724A934260D07B6857
:101C4000714A93425CD07B68B3F1201F58D07B6807
:101C50006E4A934254D07B686D4A934250D07B6861
:101C60006C4A93424CD07B686B4A934248D07B6865
:101C70006A4A934244D07B68694A934240D07B6869
:101C8000B3F5011F3CD07B68664A934238D07B682D
:101C9000654A934234D07B68644A934230D07B6873
:101CA000634A93422CD07B68624A934228D07B6877
:101CB000614A934224D07B68604A934220D07B687B
:101CC0005F4A93421CD07B685E4A934218D07B687F
:101CD0005D4A934214D07B685C4A934210D07B6883
:101CE0005B4A93420CD07B685A4A934208D07B6887
:101CF000594A934204D0594840F22A2100F0C4F8CE
:101D0000FB78002B07D0FB78012B04D0534840F21E
:101D10002B2100F0B9F87B68002B03DA504BDB690C
:101D20007B6102E04E4B5B687B617B6803F4702350
:101D30001B0CBB607B689BB23B617B6803F4401368
:101D4000B3F5401F0AD17B6923F070637B61444A7D
:101D5000434B5B6823F07063536021E07B6803F4BE
:101D60008013002B0ED0BB68032202FA03F3FB6042
:101D7000FB68DB437A6913407B617B6943F07063E6
:101D80007B610DE07B685B0D1B011A463B6993404C
:101D9000DB437A6913407B617B6943F070637B614D
:101DA000FB78002B08D07B685B0D1B011A463B6952
:101DB00093407A6913437B617B68002B03DA284ADE
:101DC0007B69D36102E0264A7B6953601837BD46C0
:101DD00080BD00BF10001400300014004000160049
:101DE000C0001600000118000002180000031800CF
:101DF00000081A00000C1A00010020000200200058
:101E000004002000080020001000200040002000F6
:101E100000013000000230000004300000112000FA
:101E200000202000010000800200008004000080EB
:101E3000080000801000008020000080400000802A
:101E4000800000800001008000020080000400800B
:101E500000080080001000800020008098440008E6
:101E60000000014080B500AFFFF752F900F074FDAB
:101E700000F042FD00F0F4FDFFF704FA01F01AF85B
:101E800001F08EF8FEE700BF80B483B000AF786049
:101E90003960FEE780B487B000AF786000237B61D3
:101EA00000233B610023FB600023BB604D4B5B685C
:101EB00003F00C037B617B69042B07D0082B09D04E
:101EC000002B34D17B68484A1A6034E07B68464A6C
:101ED0001A6030E0434B5B6803F470133B61414B85
:101EE0005B6803F48033FB603B699B0C02333B610E
:101EF000FB68002B06D13B693C4A02FB03F27B687E
:101F00001A6013E0374B5B6803F40033002B06D0F4
:101F10003B69364A02FB03F27B681A6006E03B69C4
:101F2000314A02FB03F27B681A6004E003E07B683D
:101F30002D4A1A6000BF2B4B5B6803F0F0037B61F6
:101F40007B691B097B612A4A7B6913441B78DBB2DE
:101F5000BB607B681A68BB68DA407B685A60214BBB
:101F60005B6803F4E0637B617B691B0A7B61204A49
:101F70007B6913441B78DBB2BB607B685A68BB6823
:101F8000DA407B689A60174B5B6803F460537B61AF
:101F90007B69DB0A7B61164A7B6913441B78DBB2E1
:101FA000BB607B685A68BB68DA407B68DA600D4BBF
:101FB0005B6803F440437B617B699B0B7B610D4A4B
:101FC0007B6913441B78DBB2BB607B68DA68BB6853
:101FD000B2FBF3F27B681A611C37BD465DF8047BE7
:101FE000704700BF0010024000127A0000093D0057
:101FF000000000201000002080B582B000AF7860A3
:102000000B46FB707A68154B1340002B02D17B689E
:10201000002B04D1124840F24A41FFF735FFFB780C
:10202000002B07D0FB78012B04D00D4840F24B4128
:10203000FFF72AFFFB78002B06D00A49094B9A6963
:102040007B6813438B6106E00649064B9A697B68FF
:10205000DB4313408B610837BD4680BD0200C0FFE3
:10206000E44400080010024080B582B000AF786000
:102070000B46FB707A68154B1340002B02D17B682E
:10208000002B04D1124840F26941FFF7FDFEFB78B6
:10209000002B07D0FB78012B04D00D4840F26A4199
:1020A000FFF7F2FEFB78002B06D00A49094BDA69EC
:1020B0007B681343CB6106E00649064BDA697B680F
:1020C000DB431340CB610837BD4680BD003601813C
:1020D000E44400080010024080B58CB000AF786086
:1020E00039600023FB620023BB6200237B62002374
:1020F0003B620023FB617B689D4A934213D07B685F
:102100009C4A93420FD07B689B4A93420BD07B68DA
:102110009A4A934207D07B68994A934203D09948E0
:10212000B821FFF7B1FE3B681B68002B04D03B6869
:102130001B68954A934203D99248B921FFF7A4FE40
:102140003B689B88002B08D03B689B88B3F5805F79
:1021500003D08C48BA21FFF797FE3B68DB88002B41
:1021600012D03B68DB88B3F5805F0DD03B68DB881D
:10217000B3F5005F08D03B68DB88B3F5405F03D060
:102180008048BB21FFF780FE3B681B89002B0DD0E8
:102190003B681B89B3F5806F08D03B681B89B3F59A
:1021A000C06F03D07748BC21FFF76EFE3B685B89A8
:1021B0001A464FF6F3731340002B03D13B685B893B
:1021C000002B03D16F48BD21FFF75EFE3B689B8962
:1021D000002B12D03B689B89B3F5807F0DD03B6804
:1021E0009B89B3F5007F08D03B689B89B3F5407F9E
:1021F00003D06448BE21FFF747FE3B689B89002B54
:102200000FD07B685A4A93420BD07B68594A93425D
:1022100007D07B68584A934203D05A48C221FFF73F
:1022200033FE7B68FB617B681B8A9BB2FB62FA6AA8
:102230004CF6FF731340FB623B68DB881A46FB6A6F
:102240001343FB62FB6A9AB27B681A827B689B89A4
:102250009BB2FB62FA6A4EF6F3131340FB623B68D3
:102260009A883B681B8913439AB23B685B89134386
:102270009BB21A46FB6A1343FB62FB6A9AB27B6805
:102280009A817B689B8A9BB2FB62FA6A4FF6FF4396
:102290001340FB623B689B891A46FB6A1343FB624F
:1022A000FB6A9AB27B689A8207F108031846FFF727
:1022B000F1FDFB692E4A934202D17B69BB6201E0CA
:1022C0003B69BB627B689B899BB29BB21BB2002BB4
:1022D0000CDABA6A13469B0013449A001A443B680E
:1022E0001B685B00B2FBF3F37B620BE0BA6A134638
:1022F0009B0013449A001A443B681B689B00B2FB86
:10230000F3F37B627B6A214AA2FB03235B091B0177
:10231000FB62FB6A1B09642202FB03F37A6AD31A8D
:102320003B627B689B899BB29BB21BB2002B0CDA91
:102330003B6ADB003233154AA2FB03235B0903F03F
:102340000703FA6A1343FB620BE03B6A1B0132335B
:102350000E4AA2FB03235B0903F00F03FA6A13433F
:10236000FB62FB6A9AB27B681A813037BD4680BD3A
:10237000003801400044004000480040004C00404C
:10238000005000403045000820AA44001F85EB5152
:1023900080B582B000AF78600B46FB707B681D4A49
:1023A000934214D07B681C4A934210D07B681B4A2E
:1023B00093420CD07B681A4A934208D07B68194A32
:1023C000934204D018484FF4B171FFF75DFDFB78DC
:1023D000002B07D0FB78012B04D0134840F2631187
:1023E000FFF752FDFB78002B08D07B689B899BB2DE
:1023F00043F400539AB27B689A8107E07B689B891B
:102400009BB223F400539AB27B689A810837BD4689
:1024100080BD00BF0038014000440040004800403B
:10242000004C0040005000403045000880B586B0A8
:1024300000AF78600B467B8013467B7000233B61C6
:102440000023FB600023BB6000237B617B684B4A59
:10245000934214D07B684A4A934210D07B68494A21
:1024600093420CD07B68484A934208D07B68474A25
:10247000934204D0464840F28911FFF705FD7B885E
:10248000282B25D07B8840F22772934220D07B886E
:1024900040F2266293421BD07B8840F22552934241
:1024A00016D07B8840F22442934211D07B8840F6BC
:1024B000460293420CD07B8840F66A12934207D0C2
:1024C0007B88602B04D032484FF4C571FFF7DCFCE9
:1024D0007B78002B07D07B78012B04D02C4840F26E
:1024E0008B11FFF7D1FC7B8840F66A12934210D122
:1024F0007B68224A93420CD07B68214A934208D0E1
:102500007B68204A934204D0214840F28F11FFF7A4
:10251000BBFC7B687B617B88DBB25B09DBB23B6128
:102520007B8803F01F03FB60FB68012202FA03F3C0
:10253000BB603B69012B03D17B690C337B6109E0F4
:102540003B69022B03D17B6910337B6102E07B691D
:1025500014337B617B78002B06D07B697A69116824
:10256000BA680A431A6006E07B697A691168BA683A
:10257000D2430A401A601837BD4680BD003801407A
:102580000044004000480040004C00400050004023
:102590003045000880B582B000AF78600B467B8084
:1025A0007B68154A934214D07B68144A934210D03A
:1025B0007B68134A93420CD07B68124A934208D03E
:1025C0007B68114A934204D0104840F25321FFF730
:1025D0005BFC7B88B3F5007F04D30C484FF4157186
:1025E000FFF752FC7B88C3F308039AB27B689A809A
:1025F0000837BD4680BD00BF0038014000440040A0
:1026000000480040004C00400050004030450008A9
:1026100080B582B000AF78607B68114A934214D0D5
:102620007B68104A934210D07B680F4A93420CD0CB
:102630007B680E4A934208D07B680D4A934204D0CF
:102640000C484FF41971FFF71FFC7B689B889BB205
:10265000C3F308039BB218460837BD4680BD00BFD0
:10266000003801400044004000480040004C004059
:10267000005000403045000880B584B000AF78605D
:102680000B467B800023FB737B68324A934214D055
:102690007B68314A934210D07B68304A93420CD019
:1026A0007B682F4A934208D07B682E4A934204D01D
:1026B0002D4840F26E31FFF7E7FB7B88012B21D0DC
:1026C0007B88802B1ED07B88402B1BD07B88202BC7
:1026D00018D07B88102B15D07B88B3F5807F11D064
:1026E0007B88B3F5007F0DD07B88082B0AD07B88D0
:1026F000042B07D07B88022B04D01B4840F26F319B
:10270000FFF7C2FB7B88B3F5007F10D17B68114ACD
:1027100093420CD07B68104A934208D07B680F4AE2
:10272000934204D0104840F27331FFF7ADFB7B6851
:102730001B889AB27B8813409BB2002B02D00123E6
:10274000FB7301E00023FB73FB7B18461037BD468B
:1027500080BD00BF003801400044004000480040F8
:10276000004C0040005000403045000880B586B065
:1027700000AF78600B467B800023FB6000237B6109
:102780000023BB600023FB747B68554A934214D03E
:102790007B68544A934210D07B68534A93420CD0D2
:1027A0007B68524A934208D07B68514A934204D0D6
:1027B000504840F2C131FFF767FB7B88282B2ED0B1
:1027C0007B8840F22772934229D07B8840F22662B0
:1027D000934224D07B8840F2255293421FD07B88BD
:1027E00040F2244293421AD07B8840F6460293423C
:1027F00015D07B8840F66A12934210D07B88B3F5DF
:10280000587F0CD07B88B3F5187F08D07B88B3F550
:10281000B07F04D0374840F2C231FFF735FB7B88E8
:1028200040F66A12934210D17B682D4A93420CD035
:102830007B682C4A934208D07B682B4A934204D091
:102840002C4840F2C631FFF71FFB7B88DBB25B09E7
:10285000DBB2BB607B8803F01F037B617B690122D5
:1028600002FA03F37B61BB68012B07D17B689B896C
:102870009BB21A467B6913407B6111E0BB68022B57
:1028800007D17B681B8A9BB21A467B6913407B6128
:1028900006E07B689B8A9BB21A467B6913407B618A
:1028A0007B881B0A9BB2FB60FB68012202FA03F3E0
:1028B000FB607B681B889BB21A46FB681340FB6079
:1028C0007B69002B05D0FB68002B02D00123FB7431
:1028D00001E00023FB74FB7C18461837BD4680BD21
:1028E000003801400044004000480040004C0040D7
:1028F000005000403045000880B582B000AF012094
:102900000121FFF779FB11480121FFF72DF90C2078
:102910000121FFF771FB4FF40273BB801023FB71A1
:102920000223BB713B1D0A481946FEF767FF4FF4AF
:102930000043BB801023FB710223BB713B1D054884
:102940001946FEF75BFF0837BD4680BD0002300028
:10295000000C01400008014080B500AF04200121B7
:10296000FFF782FB074B45F6BF521A85054B4FF622
:10297000FF729A85034B01221A80034B4FF40052D9
:102980005A6080BD00080040002004E080B483B09D
:1029900000AF0346FB800D4AFB8893850B4B00225A
:1029A0009A8400BF094B1B8A9BB203F00103002BE2
:1029B000F8D0064A054B1B8A9BB223F001039BB259
:1029C00013820C37BD465DF8047B70470008004059
:1029D00080B584B000AF03460A46FB8013467B7186
:1029E0000023FB7312E0FB7B0133FB730B480821D0
:1029F000FFF72EF8FB881846FFF7C8FF07480821A5
:102A0000FFF76CF8FB881846FFF7C0FFFA7B7B796D
:102A10009A42E8D91037BD4680BD00BF000C014086
:102A200080B485B000AF78600B4B1B68002B02D1DF
:102A3000094B0A4A1A60084B1B68FB60064B1A6870
:102A40007B681344044A1360FB6818461437BD467C
:102A50005DF8047B704700BFE00000207003002099
:102A600080B588B000AF03200121FFF7FDFA0D20EB
:102A70000121FFF7C1FACF233B801823FB7002230B
:102A8000BB703B4654481946FEF7B8FE03233B8013
:102A90003B4652481946FEF7B1FE4AF28C033B838F
:102AA0002223BB8200237B830023FB8207F11403D4
:102AB0004B481946FDF72AFB7023BB80BB887B81FE
:102AC0000223BB810123FB803B1D45481946FDF7CE
:102AD00017FC43480821FEF797F90123FB803B1DB3
:102AE0003F481946FDF758FD3D480821FEF710FA0A
:102AF0000123FB803B1D3A481946FDF777FE384815
:102B00000821FEF767FA0123FB803B1D3448194674
:102B1000FDF782FF32480821FEF7AAFA304801216A
:102B2000FEF7DEF82E480121FEF746F84AF28C0344
:102B30003B832223BB8200237B830023FB8207F19C
:102B400014034FF080401946FDF7E0FA7023BB8074
:102B50000223BB810123FB803B1D4FF080401946BF
:102B6000FDF7CEFB4FF080400821FEF74DF9012321
:102B7000FB803B1D4FF080401946FDF70DFD4FF0E7
:102B800080400821FEF7C4F90123FB803B1D4FF074
:102B900080401946FDF72AFE4FF080400821FEF7DD
:102BA00019FA0123FB803B1D4FF080401946FDF7C9
:102BB00033FF4FF080400821FEF75AFA4FF0804073
:102BC0000121FEF78DF84FF080400121FDF7F4FF61
:102BD0002037BD4680BD00BF00080140000C014009
:102BE0000004004090B583B000AF78600A4C78686C
:102BF00000F0F0FB094BD3E9002300F051FC024642
:102C00000B461046194600F05DFE03469BB2A386B4
:102C10000C37BD4690BD00BF0004004018000020E6
:102C200090B583B000AF78600A4C786800F0D2FBB2
:102C3000094BD3E9002300F033FC02460B46104653
:102C4000194600F03FFE03469BB223870C37BD4672
:102C500090BD00BF000400401800002090B583B074
:102C600000AF78600A4C786800F0B4FB094BD3E9F8
:102C7000002300F015FC02460B461046194600F0F2
:102C800021FE03469BB2A3870C37BD4690BD00BF13
:102C9000000400401800002090B583B000AF7860B9
:102CA0000A4C786800F096FB094BD3E9002300F04A
:102CB000F7FB02460B461046194600F003FE03469A
:102CC0009BB2A4F840300C37BD4690BD00040040D4
:102CD0001800002090B583B000AF78604FF08044BA
:102CE000786800F077FB084BD3E9002300F0D8FBAD
:102CF00002460B461046194600F0E4FD03469BB21F
:102D0000A3860C37BD4690BD1800002090B583B057
:102D100000AF78604FF08044786800F05BFB084BB0
:102D2000D3E9002300F0BCFB02460B4610461946CF
:102D300000F0C8FD03469BB223870C37BD4690BD0B
:102D40001800002090B583B000AF78604FF0804449
:102D5000786800F03FFB084BD3E9002300F0A0FBAC
:102D600002460B461046194600F0ACFD03469BB2E6
:102D7000A3870C37BD4690BD1800002090B583B0E6
:102D800000AF78604FF08044786800F023FB094B77
:102D9000D3E9002300F084FB02460B461046194697
:102DA00000F090FD03469BB2A4F840300C37BD46BE
:102DB00090BD00BF1800002080B586B000AF7860DD
:102DC00000237B6100233B610F23FB607B68DB7882
:102DD000002B07D07B68DB78012B03D032487521AC
:102DE000FFF752F87B685B780F2B03D92E487621CA
:102DF000FFF74AF87B689B780F2B03D92A48772185
:102E0000FFF742F87B68DB78002B3AD0274BDB6872
:102E1000DB4303F4E0631B0A7B617B69C3F10403BA
:102E20003B617B69FA6822FA03F3FB607B685B789D
:102E30001A463B6902FA03F37B617B689B781A466A
:102E4000FB6813407A6913437B617B691B017B61DB
:102E5000174A7B681B787969C9B213440A4683F81C
:102E60000023134A7B681B785B09DBB218467B683A
:102E70001B7803F01F03012101FA03F342F820300D
:102E80000FE00B497B681B785B09DBB218467B6857
:102E90001B7803F01F0301229A4000F1200341F840
:102EA00023201837BD4680BD7C45000800ED00E0BA
:102EB00000E100E080B500AF1D484FF40071FEF75F
:102EC000C7FDC820FFF762FD1A481B4900F046F80D
:102ED0001A481B4900F042F8C820FFF757FD19486F
:102EE000174900F03BF8C820FFF750FD1648144979
:102EF00000F034F84FF4FA70FFF748FD134810491A
:102F000000F02CF8C820FFF741FD11480C4900F0F3
:102F100025F8C820FFF73AFD0E48094900F01EF8D1
:102F2000C820FFF733FD0C48054900F017F880BDB5
:102F3000000C0140C0450008CC450008D4450008FD
:102F4000DC450008E0450008F04500081846000888
:102F500028460008384600085046000880B582B070
:102F600000AF786039607868FEF740FB0B48FEF7E9
:102F700069FB0A48396800F0F9FC0346002BF5D0DC
:102F80000648396800F0F2FC0346002B03D01E20EF
:102F90000121FFF71DFD0837BD4680BDEC02002072
:102FA00080B500AF00F042F81C48FEF74BFB1B4811
:102FB0001B4900F0DBFC0346002B0DD117481949D3
:102FC00000F0D4FC0346002B06D11448164900F04B
:102FD000CDFC0346002BE5D01048114900F0C6FC9B
:102FE0000346002B02D000F021F815E00B480D49F4
:102FF00000F0BCFC0346002B02D0FFF75BFF0BE0A8
:103000000648094900F0B2FC0346002B04D06420B6
:10301000FFF7BCFCFFF7C4FF80BD00BFEC0200203F
:10302000804600088C4600089446000880B586B0AB
:1030300006AF3348FEF706FB3148324900F096FCF4
:103040000346002B06D12E482F4900F08FFC034683
:10305000002BEED02A482B4900F088FC0346002BB9
:1030600043D02748FEF7EEFA284B0093284B0193F4
:10307000284B0293284B0393284B0493284B05932A
:103080001F482849284A294B00F03CFC264B1B6866
:103090001846FFF7A7FD244B5B681846FFF7C0FDF5
:1030A000214B9B681846FFF7D9FD1F4BDB6818467C
:1030B000FFF7F2FD1C4B1B691846FFF70BFE1A4B7E
:1030C0005B691846FFF722FE174B9B691846FFF70E
:1030D00039FE154BDB691846FFF750FE08480A49D0
:1030E00000F044FC0346002BBBD00548064900F025
:1030F0003DFC0346002B01D0FFF752FFBD4680BDCB
:10310000EC0200209C460008A84600082800002089
:103110002C00002030000020340000203800002067
:103120003C000020B44600082000002024000020BD
:1031300081F0004102E000BF83F0004330B54FEA68
:1031400041044FEA430594EA050F08BF90EA020FD5
:103150001FBF54EA000C55EA020C7FEA645C7FEA68
:10316000655C00F0E2804FEA5454D4EB5555B8BF8B
:103170006D420CDD2C4480EA020281EA030382EAFC
:10318000000083EA010180EA020281EA0303362D8E
:1031900088BF30BD11F0004F4FEA01314FF4801C61
:1031A0004CEA113102D0404261EB410113F0004F73
:1031B0004FEA03334CEA133302D0524263EB43032A
:1031C00094EA050F00F0A780A4F10104D5F1200EC8
:1031D0000DDB02FA0EFC22FA05F2801841F1000123
:1031E00003FA0EF2801843FA05F359410EE0A5F1F7
:1031F00020050EF1200E012A03FA0EFC28BF4CF028
:10320000020C43FA05F3C01851EBE37101F00045DD
:1032100007D54FF0000EDCF1000C7EEB00006EEBEA
:103220000101B1F5801F1BD3B1F5001F0CD3490874
:103230005FEA30004FEA3C0C04F101044FEA4452CB
:1032400012F5800F80F09A80BCF1004F08BF5FEA52
:10325000500C50F1000041EB045141EA050130BD32
:103260005FEA4C0C404141EB010111F4801FA4F1D5
:103270000104E9D191F0000F04BF01460020B1FA2A
:1032800081F308BF2033A3F10B03B3F120020CDA62
:103290000C3208DD02F1140CC2F10C0201FA0CF040
:1032A00021FA02F10CE002F11402D8BFC2F1200CA5
:1032B00001FA02F120FA0CFCDCBF41EA0C0190405B
:1032C000E41AA2BF01EB0451294330BD6FEA0404A4
:1032D0001F3C1CDA0C340EDC04F11404C4F120028F
:1032E00020FA04F001FA02F340EA030021FA04F3A1
:1032F00045EA030130BDC4F10C04C4F1200220FAF8
:1033000002F001FA04F340EA0300294630BD21FA35
:1033100004F0294630BD94F0000F83F4801306BFFB
:1033200081F480110134013D4EE77FEA645C18BFEF
:103330007FEA655C29D094EA050F08BF90EA020F86
:1033400005D054EA000C04BF1946104630BD91EA7E
:10335000030F1EBF0021002030BD5FEA545C05D181
:103360004000494128BF41F0004130BD14F58004C0
:103370003CBF01F5801130BD01F0004545F0FE4134
:1033800041F470014FF0000030BD7FEA645C1ABF69
:10339000194610467FEA655C1CBF0B46024650EAA0
:1033A000013406BF52EA033591EA030F41F40021CC
:1033B00030BD00BF90F0000F04BF0021704730B552
:1033C0004FF4806404F132044FF000054FF0000127
:1033D00050E700BF90F0000F04BF0021704730B5E8
:1033E0004FF4806404F1320410F0004548BF4042BD
:1033F0004FF000013EE700BF42004FEAE2014FEA12
:1034000031014FEA02701FBF12F07F4393F07F4FEC
:1034100081F06051704792F0000F14BF93F07F4F1E
:10342000704730B54FF4607401F0004521F0004161
:1034300020E700BF50EA010208BF704730B54FF0E7
:1034400000050AE050EA010208BF704730B511F0EC
:10345000004502D5404261EB41014FF4806404F124
:1034600032045FEA915C3FF4DCAE4FF003025FEAA6
:10347000DC0C18BF03325FEADC0C18BF033202EB2E
:10348000DC02C2F1200300FA03FC20FA02F001FA88
:1034900003FE40EA0E0021FA02F11444C1E600BF27
:1034A00070B54FF0FF0C4CF4E06C1CEA11541DBFDA
:1034B0001CEA135594EA0C0F95EA0C0F00F0DEF8A5
:1034C0002C4481EA030621EA4C5123EA4C5350EA8A
:1034D000013518BF52EA033541F4801143F48013DB
:1034E00038D0A0FB02CE4FF00005E1FB02E506F06C
:1034F0000042E0FB03E54FF00006E1FB03569CF0C1
:10350000000F18BF4EF0010EA4F1FF04B6F5007FC6
:1035100064F5407404D25FEA4E0E6D4146EB060638
:1035200042EAC62141EA55514FEAC52040EA5E50C1
:103530004FEACE2EB4F1FD0C88BFBCF5E06F1ED86B
:10354000BEF1004F08BF5FEA500E50F1000041EBA2
:10355000045170BD06F0004646EA010140EA02004F
:1035600081EA0301B4EB5C04C2BFD4EB0C0541EA71
:10357000045170BD41F480114FF0000E013C00F386
:10358000AB8014F1360FDEBF002001F0004170BDAA
:10359000C4F10004203C35DA0C341BDC04F11404C3
:1035A000C4F1200500FA05F320FA04F001FA05F24F
:1035B00040EA020001F0004221F0004110EBD3701C
:1035C00021FA04F642EB06015EEA430E08BF20EA48
:1035D000D37070BDC4F10C04C4F1200500FA04F3EB
:1035E00020FA05F001FA04F240EA020001F000417D
:1035F00010EBD37041F100015EEA430E08BF20EAF0
:10360000D37070BDC4F1200500FA05F24EEA020E37
:1036100020FA04F301FA05F243EA020321FA04F066
:1036200001F0004121FA04F220EA020000EBD3701D
:103630005EEA430E08BF20EAD37070BD94F0000F1D
:103640000FD101F00046400041EB010111F4801F51
:1036500008BF013CF7D041EA060195F0000F18BF02
:10366000704703F00046520043EB030313F4801F3E
:1036700008BF013DF7D043EA0603704794EA0C0FF8
:103680000CEA135518BF95EA0C0F0CD050EA41060E
:1036900018BF52EA4306D1D181EA030101F000418B
:1036A0004FF0000070BD50EA410606BF10461946B3
:1036B00052EA430619D094EA0C0F02D150EA0136BF
:1036C00013D195EA0C0F05D152EA03361CBF104600
:1036D00019460AD181EA030101F0004141F0FE419F
:1036E00041F470014FF0000070BD41F0FE4141F423
:1036F000780170BD70B54FF0FF0C4CF4E06C1CEA23
:1037000011541DBF1CEA135594EA0C0F95EA0C0FD7
:1037100000F0A7F8A4EB050481EA030E52EA033592
:103720004FEA013100F088804FEA03334FF08055B3
:1037300045EA131343EA12634FEA022245EA1115E0
:1037400045EA10654FEA00260EF000419D4208BF91
:10375000964244F1FD0404F5407402D25B084FEA3E
:103760003202B61A65EB03055B084FEA32024FF4EA
:1037700080104FF4002CB6EB020E75EB030E22BF47
:10378000B61A754640EA0C005B084FEA3202B6EB07
:10379000020E75EB030E22BFB61A754640EA5C00B6
:1037A0005B084FEA3202B6EB020E75EB030E22BF46
:1037B000B61A754640EA9C005B084FEA3202B6EB47
:1037C000020E75EB030E22BFB61A754640EADC0006
:1037D00055EA060E18D04FEA051545EA16754FEA68
:1037E00006164FEAC30343EA52734FEAC2025FEA86
:1037F0001C1CC0D111F4801F0BD141EA00014FF015
:1038000000004FF0004CB6E711F4801F04BF0143E5
:103810000020B4F1FD0C88BFBCF5E06F3FF6AFAE01
:10382000B5EB030C04BFB6EB020C5FEA500C50F191
:10383000000041EB045170BD0EF0004E4EEA113114
:1038400014EB5C04C2BFD4EB0C0541EA045170BD1B
:1038500041F480114FF0000E013C90E645EA060E5F
:103860008DE60CEA135594EA0C0F08BF95EA0C0F8D
:103870003FF43BAF94EA0C0F0AD150EA01347FF4D5
:1038800034AF95EA0C0F7FF425AF104619462CE7AC
:1038900095EA0C0F06D152EA03353FF4FDAE10460F
:1038A000194622E750EA410618BF52EA43067FF460
:1038B000C5AE50EA41047FF40DAF52EA43057FF4F0
:1038C000EBAE12E74A0011D212F5001211D20DD55B
:1038D0006FF47873B3EB62520ED44FEAC12343F016
:1038E000004343EA505323FA02F070474FF00000C0
:1038F000704750EA013002D14FF0FF3070474FF06F
:10390000000070470EB430B59CB01FAC4FF401728C
:1039100054F8045BADF814200290069000F01EF8F5
:103920000B4B03900B9300230F9314934FF6FF73ED
:10393000ADF81630074B079002A918682A462346AF
:10394000019400F085F81CB0BDE8304003B070472A
:1039500059390008A000002000207047034613F8E2
:10396000012B002AFBD1181A0138704730B50378B3
:1039700023B90B78002B18BF002030BD03461A78FE
:1039800001303AB100228C5C34B19D5CA542F5D186
:103990000132F8E7104630BD184630BD38B54B1C33
:1039A000144602D14FF0FF3038BD9389CDB223F0D9
:1039B00020039381536B526883B1A36B9A4207DA59
:1039C00023685A1E226003F8015C636801331FE01C
:1039D000214600F00FFC0028F2D0E3E721692368BC
:1039E00051B18B4208D913F8010CA84204D1013B14
:1039F00001322360626038BDE36304F14403636312
:103A00000323A3632346226403F8465F2360012354
:103A10006360284638BD10B50C46496B69B104F1A6
:103A20004403994201D000F037FC236C002060630E
:103A3000636013B1E36B236010BD23694FF0FF3067
:103A4000236000236360A38943F02003A38110BD9A
:103A50002DE9F04707460C469046ADF5247D0193CD
:103A60000023469347939C4B0DF10C0AA2939B4B6A
:103A7000CDF820A1A39398F80050002D00F02481E8
:103A800097490B6889462B445B7803F0080303F0E1
:103A9000FF02EBB16368002B10DD2368D9F800103A
:103AA0001A780A44527815070ED5479A0133013225
:103AB000479262682360013A6260EBE7A39B384655
:103AC000214698470028E8D008F10106B046D2E721
:103AD000252D08F101064FD14592439298F8013007
:103AE0002A2B03D11023439308F10206317835467F
:103AF000A1F13003092B06F1010606D8459B0A22E5
:103B000002FB0313303B4593F0E7DFF8DC8103222F
:103B1000404600F0A8FB40B135460123C8EB000049
:103B200003FA00F2439B134343936E1C2D78672DD9
:103B30000FD8652D78D25B2D54D005D8002D00F01C
:103B4000C580252D18D071E0632D57D0642D3FD04E
:103B50006CE0702D32D007D86E2D55D03AD8692D33
:103B600064D1002344933BE0752D31D0782D29D0CA
:103B7000732D5BD102233FE06368002B0DDD2368CA
:103B80001A78AA4240F0A080013362682360479B04
:103B9000013A01336260479398E7A39B3846214678
:103BA00098470028EBD04698002800F08F80A38922
:103BB00013F0400F18BF4FF0FF3089E0439B43F0F4
:103BC00020034393439B43F400734393102302E089
:103BD0000A2300E008236E2D449301DD04230BE04B
:103BE000032309E03146504600F0D0F90646439BD6
:103BF00043F040034393012349931BE0439B43F06D
:103C0000400343930023F7E7439AD0063FF55EAFA6
:103C100012F0010F019A479B02F104010191126811
:103C200014BF1380136051E70523E5E7032349938D
:103C30000A2344936368002B03DD439B590611D587
:103C400018E0A39B3846214698470028F5D0AAE7FC
:103C5000479A013247926268013A002A626013DD96
:103C6000013323602368D9F800101A780A44527887
:103C70001207EDD4499B022B0DDC384643A922469E
:103C800001AB00F033F819E0A39B38462146984772
:103C90000028E7D087E7042B06DC384643A92246F4
:103CA00001AB00F081F809E00E4B002B3FF40EAFA2
:103CB000384643A9224601ABAFF30080012803D068
:103CC00002287FF403AF6EE7469801E04FF0FF3023
:103CD0000DF5247DBDE8F0879D390008173A0008EE
:103CE000A400002000000000E24600082DE9F04199
:103CF00015468A6880460C4632B98A69002A0CBF8C
:103D000001224FF0FF328A6022680026D1065FBF91
:103D10001A68111D19601768A069F8B9236801367F
:103D2000DA065EBF2B681B783B702A686B6802F16D
:103D300001022A60A26803F1FF3302F1FF326B60D7
:103D400058BF0137A260EAB1002BE5DCD4F880311E
:103D50004046294698470028DED013E0012807D1C5
:103D60002B6862691B78D35C002BD7D1C6B109E000
:103D7000022807D12B680B4A1B78126813445B7822
:103D80001B07CBD5236813F0100305D1E26801327D
:103D9000E260A26902B13B70236900201E442661E3
:103DA000BDE8F081A40000202DE9F04F0C469A46B2
:103DB000724B87B08346164693E8070003AB83E84F
:103DC00007006F4BA1696F4A04F11C09032918BF52
:103DD0001A46A36800925A1EB2F5AE7F82BF6FF4F6
:103DE000AE7503EB050840F25D134F4688BFA36034
:103DF000236898BF4FF0000843F45063236000230A
:103E0000326803A951F8230011780222019300F0CF
:103E10002AFA019B002835D0012B0BD162682AB900
:103E200008226260226842F400722260226822F452
:103E3000A0620BE0022B0AD1226802F4C061B1F546
:103E4000007F1FD11021616042F480722260A2685D
:103E5000511EA160B2B132687D1C511C31601278D4
:103E60003A707268013A002A72600ADCD4F8802144
:103E70005846314601939047002841D12F46019B77
:103E800000E02F460133032BBAD163680BB90A2334
:103E9000636063683C496069C91A00F077F83D4681
:103EA0000027A3686BB3316860690A78805C40B30F
:103EB000302A22680AD1100508D50137B8F1000F61
:103EC0000BD0013308F1FF38A36006E022F4106242
:103ED00022600B78013505F8013C7368013B002B2B
:103EE000736003DD33680133336005E0D4F880315B
:103EF00058463146984720B9A368013BA360D0E7F4
:103F000000272368D9050DD54D4509D915F8011CA1
:103F100005F1FF38D4F87C3158463246984745467B
:103F20004D4527D0226812F010021BD12A70636819
:103F300058464946009EB0472268DAF8003012F031
:103F4000200F07D1D20705D51A1DCAF800201B681B
:103F5000188004E01A1DCAF800201B681860E36886
:103F60000133E360C9EB05053D44276900203D446A
:103F7000256100E0012007B0BDE8F08FE8460008A9
:103F8000FD400008F13F000804470008F0B50A783A
:103F9000441E5E2A13BF4B1C8B1C4A78002108BFAD
:103FA000012100F1FF0504F8011FAC42FBD10AB961
:103FB000581EF0BDC1F10104E7B2875419785E1CA8
:103FC0002D2905D05D290ED079B10A463346F3E795
:103FD0005D785D2DF9D09542F7DB02330132AA42BC
:103FE0008754FBDBEAE73046F0BD1846F0BD000021
:103FF0002DE9F0470F46404CD4F800903D4615F8A7
:1040000001EB09EB0E04667806F0080404F0FF06E5
:104010000CB12F46F2E774462D2C03D1BD1C7C78E1
:10402000012603E02B2C04BF7C78BD1C13B1102BA0
:104030000AD15AE0302C56D12C7804F0DF04582CE9
:104040004CD16C7810230235002E14BF4FF000487D
:104050006FF00048B8FBF3FA0027BE4603FB1A884E
:1040600009EB040C9CF801C01CF0040F01D0303C9B
:104070000BE01CF0030C1BD0BCF1010F0CBF4FF088
:10408000370C4FF0570CCCEB04049C4210DAB7F11C
:10409000FF3F0AD0D64506D801D1444503DC03FBD7
:1040A0000E4E012701E04FF0FF3715F8014BD7E71F
:1040B0007C1C73460AD1002E4FF0220114BF4FF032
:1040C00000436FF0004301602AB911E00EB1CEF158
:1040D00000036AB107B1691E116009E03024002BAA
:1040E000B2D10823B0E70A23AEE7302CACD1A3E766
:1040F0001846BDE8F08700BFA40000202DE9F04776
:104100000E463B4CD4F80090354615F801EB09EB10
:104110000E04677807F0080404F0FF070CB12E4680
:10412000F2E774462D2C03D1B51C7478012703E007
:104130002B2C04BF7478B51C13B1102B0AD151E09D
:10414000302C4DD12C7804F0DF04582C43D16C78FE
:10415000102302354FF0FF38B8FBF3F803FB08FAE1
:1041600000266FEA0A0AB64609EB040C9CF801C067
:104170001CF0040F01D0303C0BE01CF0030C1BD0F2
:10418000BCF1010F0CBF4FF0370C4FF0570CCCEBCC
:1041900004049C4210DAB6F1FF3F0AD0C64506D8A7
:1041A00001D1544503DC03FB0E4E012601E04FF024
:1041B000FF3615F8014BD7E7741C734603D1222351
:1041C0000360334602E00FB1CEF100036AB106B1DD
:1041D000691E116009E03024002BBBD10823B9E728
:1041E0000A23B7E7302CB5D1ACE71846BDE8F08715
:1041F000A40000202DE9F0410C46496B04F1440372
:1042000099421AD14FF4806100F08AF818B94FF042
:10421000FF30BDE8F0814FF48063A36394F846302B
:10422000606380F8FF3394F8453000F2FD3043704E
:1042300094F844300370206012E0A66B77003A4691
:1042400000F0C4F805460028E1D000EB060840461F
:104250002946324600F015F8C4F800806563A7636C
:104260000020BDE8F08110B5C9B202449042034677
:1042700005D01C7801308C42F8D1184610BD0020C2
:1042800010BD10B5431E0A44914204D011F8014BF1
:1042900003F8014FF8E710BD30B500293CD051F8C4
:1042A000042C0B1F1D49002AB8BF9B180A680C4636
:1042B00012B95A600B6030BD93420DD2196858187C
:1042C000904201BF5A5852181A60426823605A60DF
:1042D00030BD994203D80A4651680029F9D11468C3
:1042E00015199D420AD11B682344D01888421360D7
:1042F00012D10868034413604B680CE002D90C2308
:10430000036030BD1C681819884201BF08684968FD
:10431000001918605960536030BD00BFE8000020EC
:1043200070B5CC1C24F0030408340C2C38BF0C24CA
:10433000002C064603DA0C233360002070BD8C424B
:10434000F9D3204A136810461946A1B10A68121B16
:104350000ED40B2A03D90A608B188C501FE08B42B5
:104360000BBF5A684A6802605A6018BF0B4616E0D5
:104370000B464968E9E7144D2B681BB9304600F03D
:104380004BF828603046214600F046F8421C0346B0
:10439000D1D0C51C25F0030585420AD11C6003F16C
:1043A0000B001A1D20F00700821A0AD051429950C2
:1043B00070BD3046E91A00F02FF80130BBD02B4613
:1043C000ECE770BDE8000020E4000020F8B50746E7
:1043D00015460E4621B91146BDE8F840FFF7A0BFCB
:1043E0001AB9FFF759FF2846F8BD00F025F8A84292
:1043F0000ED238462946FFF793FF044650B13146A6
:104400002A46FFF73EFF38463146FFF745FF01E0F9
:104410003046F8BD2046F8BD38B5064C00230546A9
:1044200008462360FEF7FCFA431C02D1236803B15F
:104430002B6038BD6C03002051F8040C0028BEBF6F
:10444000091851F8043CC01804387047433A5C55C9
:10445000736572735C4C5C446F63756D656E7473E9
:104460005C6769746875625C52434F4E54524F4C9E
:104470005C4669726D776172655C73746D5F6C69BF
:10448000625C7372635C73746D3332663130785F73
:1044900074696D2E63000000433A5C557365727356
:1044A0005C4C5C446F63756D656E74735C676974B6
:1044B0006875625C52434F4E54524F4C5C46697271
:1044C0006D776172655C73746D5F6C69625C737249
:1044D000635C73746D3332663130785F6770696F17
:1044E0002E630000433A5C55736572735C4C5C4408
:1044F0006F63756D656E74735C6769746875625C13
:1045000052434F4E54524F4C5C4669726D77617204
:10451000655C73746D5F6C69625C7372635C737409
:104520006D3332663130785F7263632E6300000052
:10453000433A5C55736572735C4C5C446F63756D94
:10454000656E74735C6769746875625C52434F4E44
:1045500054524F4C5C4669726D776172655C73743E
:104560006D5F6C69625C7372635C73746D33326629
:104570003130785F75736172742E6300433A5C5515
:10458000736572735C4C5C446F63756D656E7473B8
:104590005C6769746875625C52434F4E54524F4C6D
:1045A0005C4669726D776172655C73746D5F6C698E
:1045B000625C7372635C6D6973632E63000000005C
:1045C00041542B5253540D0A00000000726561647F
:1045D00079000000415445300D0A00004F4B0000A7
:1045E00041542B43574D4F44453D320D0A000000C6
:1045F00041542B43575341503D2252434F4E545246
:104600004F4C222C2272636F6E74726F6C222C33AB
:104610002C330D0A0000000041542B4349504D4FEC
:1046200044453D300D0A000041542B4349504D553F
:10463000583D310D0A00000041542B434950534569
:10464000525645523D312C383030300D0A000000B2
:1046500041542B43495053544152543D302C225520
:104660004450222C223139322E3136382E342E311C
:10467000222C383030302C383030302C320D0A00BB
:10468000302C434F4E4E4543540000004552524F8C
:104690005200000062757379000000000A2B495037
:1046A000442C302C33393A00302C434C4F53454482
:1046B000000000000A2B4950442C302C33393A209A
:1046C0002534642C2534642C2534642C2534642C46
:1046D0002534642C2534642C2534642C2534640062
:1046E0004300686C4C0000000647000809470008BA
:1046F0000C470008412D46612D6638393031323380
:10470000343536375D002B2D0030300078580000EE
:104710002020202020202020202828282828202071
:104720002020202020202020202020202020202089
:104730008810101010101010101010101010101001
:1047400004040404040404040404101010101010E1
:1047500010414141414141010101010101010101BA
:1047600001010101010101010101011010101010EE
:10477000104242424242420202020202020202028B
:1047800002020202020202020202021010101020B3
:104790000000000000000000000000000000000019
:1047A0000000000000000000000000000000000009
:1047B00000000000000000000000000000000000F9
:1047C00000000000000000000000000000000000E9
:1047D00000000000000000000000000000000000D9
:1047E00000000000000000000000000000000000C9
:1047F00000000000000000000000000000000000B9
:1048000000000000000000000000000000000000A8
:104810000000000000000000000000000000000098
:104820000000000000000000000000000000000088
:104830000000000000000000000000000000000078
:104840000000000000000000000000000000000068
:104850000000000000000000000000000000000058
:104860000000000000000000000000000000000048
:104870000000000001020304010203040607080906
:104880000204060800000000666666666666004070
:10489000E8030000E8030000E8030000E80300006C
:1048A000E8030000E8030000E8030000E80300005C
:1048B0000000000010480008304800085048000878
:1048C00000000000000000000000000000000000E8
:1048D000E0460008000000000000000000000000AA
:1048E00000000000000000000000000000000000C8
:1048F00000000000000000000000000000000000B8
:1049000000000000000000000000000000000000A7
:08491000400000200F470008E1
:0400000508000000EF
:00000001FF
