:020000040800F2
:100000009807002051120008AD120008AD12000838
:10001000AD120008AD120008AD120008000000008B
:10002000000000000000000000000000AD12000809
:10003000AD12000800000000AD120008AD1200086B
:10004000AD120008AD120008AD120008AD12000894
:10005000AD120008AD120008AD120008AD12000884
:10006000AD120008AD120008AD120008AD12000874
:10007000AD120008AD120008AD120008AD12000864
:10008000AD120008AD120008AD120008AD12000854
:10009000AD120008AD120008AD120008AD12000844
:1000A000AD120008AD120008AD120008AD12000834
:1000B000992B0008AD120008AD120008AD1200081F
:1000C000AD120008AD120008AD120008AD12000814
:1000D000AD120008950E0008AD120008411100088D
:1000E000AD120008AD120008AD12000800000000BB
:1000F0000000000000000000000000000000000000
:1001000000000000000000005FF808F180B584B036
:1001100000AF786039600023FB817B68674A9342B7
:1001200043D07B68B3F1804F3FD07B68644A9342F1
:100130003BD07B68634A934237D07B68624A9342E4
:1001400033D07B68614A93422FD07B68604A9342E8
:100150002BD07B685F4A934227D07B685E4A9342EC
:1001600023D07B685D4A93421FD07B685C4A9342F0
:100170001BD07B685B4A934217D07B685A4A9342F4
:1001800013D07B68594A93420FD07B68584A9342F8
:100190000BD07B68574A934207D07B68564A9342FC
:1001A00003D05648E72101F0CDFB3B685B88002B6C
:1001B00013D03B685B88102B0FD03B685B88202BEB
:1001C0000BD03B685B88402B07D03B685B88602B7B
:1001D00003D04A48E82101F0B5FB3B68DB88002BDF
:1001E0000DD03B68DB88B3F5807F08D03B68DB88A7
:1001F000B3F5007F03D04148E92101F0A3FB7B6800
:100200001B88FB817B682D4A934213D07B68314A5F
:1002100093420FD07B68B3F1804F0BD07B68284AA4
:10022000934207D07B68274A934203D07B68264AD3
:10023000934208D1FB8923F07003FB813B685A8805
:10024000FB891343FB817B68204A93420CD07B6877
:100250001F4A934208D0FB8923F44073FB813B681B
:10026000DA88FB891343FB817B68FA891A803B6833
:100270009A887B689A853B681A887B681A857B68B0
:100280000E4A93420FD07B68124A93420BD07B6890
:10029000174A934207D07B68164A934203D07B6883
:1002A000154A934204D13B681B7A9AB27B681A863E
:1002B0007B6801229A821037BD4680BD002C014028
:1002C0000004004000080040000C00400010004006
:1002D0000014004000340140004C01400050014037
:1002E0000054014000180040001C00400020004065
:1002F0000040014000440140004801409C3A000891
:1003000080B584B000AF7860396000237B81002322
:10031000FB810023BB817B68904A93423CD07B6881
:10032000B3F1804F38D07B688D4A934234D07B68DC
:100330008C4A934230D07B688B4A93422CD07B68A6
:100340008A4A934228D07B68894A934224D07B68AA
:10035000884A934220D07B68874A93421CD07B68AE
:10036000864A934218D07B68854A934214D07B68B2
:10037000844A934210D07B68834A93420CD07B68B6
:10038000824A934208D07B68814A934204D08148D4
:100390004FF48E7101F0D6FA3B681B88002B18D001
:1003A0003B681B88102B14D03B681B88202B10D077
:1003B0003B681B88302B0CD03B681B88602B08D017
:1003C0003B681B88702B04D0724840F21D1101F06D
:1003D000B9FA3B685B88002B08D03B685B88012B2F
:1003E00004D06C484FF48F7101F0ACFA3B681B8964
:1003F000002B08D03B681B89022B04D0654840F2D3
:100400001F1101F09FFA7B681B8C9BB223F0010344
:100410009AB27B681A847B681B8CFB817B689B8803
:10042000BB817B681B8B7B817B8923F070037B8185
:100430007B8923F003037B813B681A887B89134304
:100440007B81FB8923F00203FB813B681A89FB89CE
:100450001343FB813B685A88FB891343FB817B680C
:100460003E4A93420FD07B68404A93420BD07B6850
:10047000454A934207D07B68444A934203D07B6845
:10048000434A934259D13B689B88002B08D03B6874
:100490009B88042B04D03F484FF49E7101F052FA20
:1004A0003B685B89002B08D03B685B89082B04D034
:1004B000384840F23D1101F045FA3B68DB89B3F55D
:1004C000007F08D03B68DB89002B04D031484FF413
:1004D0009F7101F037FA3B689B89B3F5807F08D0A4
:1004E0003B689B89002B04D02A4840F23F1101F061
:1004F00029FAFB8923F00803FB813B685A89FB89B1
:100500001343FB81FB8923F00403FB813B689A883A
:10051000FB891343FB81BB8923F48073BB81BB89B7
:1005200023F40073BB813B689A89BB891343BB8169
:100530003B68DA89BB891343BB817B68BA899A809F
:100540007B687A891A833B68DA887B689A867B683D
:10055000FA891A841037BD4680BD00BF002C0140C7
:100560000004004000080040000C0040003401403E
:10057000004C014000500140005401400018004070
:10058000001C0040002000400040014000440140A9
:10059000004801409C3A000880B582B000AF786006
:1005A0000B46FB707B68354A934244D07B68B3F1BD
:1005B000804F40D07B68324A93423CD07B68314ABE
:1005C000934238D07B68304A934234D07B682F4ABC
:1005D000934230D07B682E4A93422CD07B682D4AC0
:1005E000934228D07B682C4A934224D07B682B4AC4
:1005F000934220D07B682A4A93421CD07B68294AC8
:10060000934218D07B68284A934214D07B68274ACB
:10061000934210D07B68264A93420CD07B68254ACF
:10062000934208D07B68244A934204D0234840F286
:10063000293101F087F9FB78002B07D0FB78012BDB
:1006400004D01E4840F22A3101F07CF9FB78002BDF
:1006500008D07B681B889BB243F001039AB27B6889
:100660001A8007E07B681B889BB223F001039AB2D3
:100670007B681A800837BD4680BD00BF002C014052
:100680000004004000080040000C00400010004042
:100690000014004000340140004C01400050014073
:1006A0000054014000180040001C004000200040A1
:1006B0000040014000440140004801409C3A0008CD
:1006C00080B582B000AF78600B467B8013467B70AC
:1006D0007B683C4A934244D07B68B3F1804F40D062
:1006E0007B68394A93423CD07B68384A934238D081
:1006F0007B68374A934234D07B68364A934230D085
:100700007B68354A93422CD07B68344A934228D088
:100710007B68334A934224D07B68324A934220D08C
:100720007B68314A93421CD07B68304A934218D090
:100730007B682F4A934214D07B682E4A934210D094
:100740007B682D4A93420CD07B682C4A934208D098
:100750007B682B4A934204D02A4840F26B3101F067
:10076000F1F87B8803F47F43002B02D17B88002BB8
:1007700004D124484FF45B7101F0E4F87B78002B3E
:1007800007D07B78012B04D01E4840F26D3101F078
:10079000D9F87B78002B08D07B689B899AB27B883C
:1007A00013439AB27B689A8109E07B689B899AB26D
:1007B0007B88DB439BB213409AB27B689A810837EF
:1007C000BD4680BD002C01400004004000080040F0
:1007D000000C0040001000400014004000340140B4
:1007E000004C0140005001400054014000180040FE
:1007F000001C004000200040004001400044014037
:10080000004801409C3A000880B582B000AF786093
:100810000B467B8013463B807B685E4A934224D024
:100820007B68B3F1804F20D07B685B4A93421CD039
:100830007B685A4A934218D07B68594A934214D035
:100840007B68584A934210D07B68574A93420CD039
:100850007B68564A934208D07B68554A934204D03D
:1008600054484FF46B7101F06DF87B88002B3AD03F
:100870007B88012B37D07B88022B34D07B88032BDD
:1008800031D07B88042B2ED07B88052B2BD07B8806
:10089000062B28D07B88072B25D07B88082B22D0DD
:1008A0007B88092B1FD07B880A2B1CD07B880B2BC5
:1008B00019D07B880C2B16D07B880D2B13D07B880E
:1008C0000E2B10D07B880F2B0DD07B88102B0AD0DD
:1008D0007B88112B07D07B88122B04D0354840F23F
:1008E000AD3101F02FF83B88002B48D03B88B3F5A1
:1008F000807F44D03B88B3F5007F40D03B88B3F580
:10090000407F3CD03B88B3F5806F38D03B88B3F54F
:10091000A06F34D03B88B3F5C06F30D03B88B3F5BF
:10092000E06F2CD03B88B3F5006F28D03B88B3F53F
:10093000106F24D03B88B3F5206F20D03B88B3F5EF
:10094000306F1CD03B88B3F5406F18D03B88B3F5AF
:10095000506F14D03B88B3F5606F10D03B88B3F56F
:10096000706F0CD03B88B3F5805F08D03B88B3F53F
:10097000885F04D00F4840F2AE3100F0E3FF7A8880
:100980003B8813439AB27B68A3F848200837BD46DA
:1009900080BD00BF002C0140000400400008004062
:1009A000000C004000340140004001400044014080
:1009B000004801409C3A000880B582B000AF7860E2
:1009C0000B467B8013467B707B68314A93422CD068
:1009D0007B68B3F1804F28D07B682E4A934224D0A5
:1009E0007B682D4A934220D07B682C4A93421CD0CE
:1009F0007B682B4A934218D07B682A4A934214D0D2
:100A00007B68294A934210D07B68284A93420CD0D5
:100A10007B68274A934208D07B68264A934204D0D9
:100A2000254840F2C73100F08DFF7A8848F2FF0375
:100A30001340002B02D17B88002B04D11E484FF4B9
:100A4000727100F07FFF7B78002B07D07B78012B41
:100A500004D0194840F2C93100F074FF7B78002BB4
:100A600008D07B689B899AB27B8813439AB27B68D3
:100A70009A8109E07B689B899AB27B88DB439BB2B1
:100A800013409AB27B689A810837BD4680BD00BF8B
:100A9000002C01400004004000080040000C004011
:100AA00000100040001400400034014000400140AC
:100AB00000440140004801409C3A000880B582B0E3
:100AC00000AF78600B467B807B682E4A934244D00F
:100AD0007B68B3F1804F40D07B682B4A93423CD077
:100AE0007B682A4A934238D07B68294A934234D0A3
:100AF0007B68284A934230D07B68274A93422CD0A7
:100B00007B68264A934228D07B68254A934224D0AA
:100B10007B68244A934220D07B68234A93421CD0AE
:100B20007B68224A934218D07B68214A934214D0B2
:100B30007B68204A934210D07B681F4A93420CD0B6
:100B40007B681E4A934208D07B681D4A934204D0BA
:100B50001C4840F62B2100F0F5FE7B8803F461432E
:100B6000002B02D17B88002B04D1164840F62C21A3
:100B700000F0E8FE7B88DB439AB27B681A82083774
:100B8000BD4680BD002C014000040040000800402C
:100B9000000C0040001000400014004000340140F0
:100BA000004C01400050014000540140001800403A
:100BB000001C004000200040004001400044014073
:100BC000004801409C3A000880B500AF154A154B1B
:100BD0001B6843F0010313601249124B5A68124B11
:100BE00013404B600F4A0F4B1B6823F0847323F4B0
:100BF000803313600B4A0B4B1B6823F48023136074
:100C0000084A084B5B6823F4FE035360054B4FF41E
:100C10001F029A6000F00CF8044B4FF000629A60DB
:100C200080BD00BF001002400000FFF800ED00E0B2
:100C300080B500AF00F002F880BD00BF80B483B083
:100C400000AF00237B6000233B603A4A394B1B68AE
:100C500043F480331360374B1B6803F400333B606D
:100C60007B6801337B603B68002B03D17B68B3F565
:100C7000A06FF0D12F4B1B6803F40033002B02D080
:100C800001233B6001E000233B603B68012B4BD11B
:100C9000294A294B1B6843F010031360264A264B50
:100CA0001B6823F003031360234A234B1B6843F0A4
:100CB000020313601F4A1F4B5B6853601D4A1D4BA4
:100CC0005B6853601B4A1B4B5B6843F48063536053
:100CD000184A184B5B6823F47C135360154A154B74
:100CE0005B6843F4E8135360124A124B1B6843F0ED
:100CF0008073136000BF0F4B1B6803F00073002B61
:100D0000F9D00C4A0B4B5B6823F003035360094A8C
:100D1000084B5B6843F00203536000BF054B5B6800
:100D200003F00C03082BF9D10C37BD465DF8047BAA
:100D3000704700BF001002400020024080B586B01E
:100D400000AF44F20400012100F0ECFE4FF4007308
:100D5000BB821823FB750323BB7507F114034948B5
:100D6000194600F0A7FA4FF48063BB820423FB7599
:100D70000323BB7507F114034248194600F09AFAA1
:100D80004FF4E1337B6000233B8100237B81002310
:100D9000BB8100233B820C23FB813B1D3A48194653
:100DA00000F030FF3848012101F088F808200121C7
:100DB00000F0B8FE4FF48020012100F0EBFE4FF46C
:100DC0008063BB821823FB750323BB7507F11403F3
:100DD0002E48194600F06EFA4FF40063BB820423DC
:100DE000FB750323BB7507F114032848194600F06F
:100DF00061FA4FF4E1337B6000233B8100237B8168
:100E00000023BB8100233B820C23FB813B1D204838
:100E1000194600F0F7FE1E48012101F04FF8252386
:100E20003B7000237B700023BB700123FB703B46AB
:100E3000184601F0FBFE144840F22551012201F052
:100E40008BF8114840F22771012201F085F8272321
:100E50003B7000237B700023BB700123FB703B467B
:100E6000184601F0E3FE0A4840F22551012201F044
:100E700073F8074840F22771012201F06DF8183726
:100E8000BD4680BD0008014000380140000C014013
:100E90000048004098B500AF3A484FF4004100F0D8
:100EA00033FB394840F2255101F0F6F90346012B96
:100EB0002CD1354B1B889BB203F00F03002B22D1A2
:100EC000324B1C68631C314A13602F4801F036F91D
:100ED0000346DAB22E4B1A552C4B1B68802B02D1DD
:100EE0002A4B00221A602B4B1B680133294A1360DE
:100EF000284B1B68802B09D1264B00221A60264BF9
:100F000001221A7002E0204801F018F91E484FF43F
:100F1000587101F0C1F90346012B02D11A4801F0C2
:100F20000DF9194840F2277101F0B6F90346012B7B
:100F300022D11A4B1B68002B18D0184B1B68013BA1
:100F4000164A1360164B1B685A1C15490A60154A4D
:100F5000D35C9BB20C48194601F0B2F8104B1B68E9
:100F6000802B09D10E4B00221A6005E0064840F2A2
:100F70002771002200F0F0FF02484FF4004100F01A
:100F800009FB98BD0008014000380140D000002056
:100F900014010020D8000020DC000020E800002020
:100FA000E40000201402002080B582B000AF00BF32
:100FB000144B1B68002BFBD0134B1B685A1C1249A7
:100FC0000A60124AD35CFB710F4B1B68802B02D165
:100FD0000D4B00221A600E4840F22551002200F00D
:100FE000BBFF084B1B68013B064A1360084840F2F0
:100FF0002551012200F0B0FFFB7918460837BD46A5
:1010000080BD00BFD8000020D400002014010020C3
:101010000038014080B582B000AF0346FB7100BFCD
:101020001C4B1B68802BFBD01B4840F22771002211
:1010300000F092FF174B1B68002B06D11648802149
:1010400001F0B0F80346002B1AD1144B1B685A1C50
:1010500012490A601249FA79CA54104B1B68802B56
:1010600002D10E4B00221A600A4B1B680133094A59
:101070001360094840F22771012200F06DFF05E07E
:10108000FB799BB20448194601F01AF80837BD46AF
:1010900080BD00BFE800002000380140E0000020D3
:1010A0001402002080B582B000AF786006E07B6853
:1010B0005A1C7A601B781846FFF7ACFF7B681B78D8
:1010C000002BF4D10837BD4680BD00BF80B483B08B
:1010D00000AF0023FB7106E0FB79074A0021D154E1
:1010E000FB790133FB71FB795BB2002BF4DA0C372F
:1010F000BD465DF8047B70471403002080B584B0C2
:1011000000AF7860FFF7E2FF0023FB6011E0FFF71C
:101110004BFF0346FB72FB7A0D2B05D07B685A1CF4
:101120007A60FA7A1A7001E08023FB60FB68013371
:10113000FB60FB687F2BEAD91037BD4680BD00BF3E
:1011400098B500AF3948082100F0DEF9384840F280
:10115000255101F0A1F80346012B2CD1344B1B88FB
:101160009BB203F00F03002B22D1324B1C68631C8F
:10117000304A13602E4800F0E1FF0346DAB22E4BEE
:101180001A552C4B1B68802B02D12A4B00221A6067
:101190002A4B1B680133294A1360284B1B68802B9C
:1011A00009D1264B00221A60254B01221A7002E059
:1011B0001F4800F0C3FF1E484FF4587101F06CF84F
:1011C0000346012B02D11A4800F0B8FF184840F23C
:1011D000277101F061F80346012B22D1194B1B68DE
:1011E000002B18D0174B1B68013B164A1360164B97
:1011F0001B685A1C14490A60144AD35C9BB20C4801
:10120000194600F05DFF104B1B68802B09D10E4B77
:1012100000221A6005E0064840F22771002200F023
:101220009BFE0248082100F0B5F998BD000C014072
:1012300000480040EC00002094020020F400002050
:10124000F80000200401002000010020940100208B
:1012500080B582B000AF104B7B60104B3B6007E065
:101260003B681A1D3A607A68111D796012681A602D
:101270003B680B4A9342F3D30A480B494FF00002F4
:101280008842B8BF40F8042BFADBFFF79DFC00F062
:1012900045FB0837BD4680BD243F00080000002004
:1012A000D0000020D00000209803002080B400AFC0
:1012B000FEE700BF80B588B000AF786039600023DA
:1012C000FB6100233B610023BB610023FB60002323
:1012D0007B610023BB607B68834A93421BD07B68A1
:1012E000824A934217D07B68814A934213D07B682D
:1012F000804A93420FD07B687F4A93420BD07B6831
:101300007E4A934207D07B687D4A934203D07D4852
:10131000B22100F017FB3B68DB78002B1FD03B6845
:10132000DB78042B1BD03B68DB78282B17D03B687D
:10133000DB78482B13D03B68DB78142B0FD03B684D
:10134000DB78102B0BD03B68DB781C2B07D03B687D
:10135000DB78182B03D06B48B32100F0F3FA3B681D
:101360001B88002B03D16748B42100F0EBFA3B68DF
:10137000DB7803F00F03FB613B68DB7803F01003BD
:10138000002B15D03B689B78012B0BD03B689B78DA
:10139000022B07D03B689B78032B03D05948BB2115
:1013A00000F0D0FA3B689B781A46FB691343FB6157
:1013B0003B681B88DBB2002B44D07B681B687B61D9
:1013C0000023BB6138E0BB69012202FA03F3FB6032
:1013D0003B681B881A46FB6813403B613A69FB680F
:1013E0009A4226D1BB699B00FB60FB680F2202FA80
:1013F00003F3BB60BB68DB437A6913407B61FB6826
:10140000FA6902FA03F37A6913437B613B68DB787C
:10141000282B05D1BB6901229A407B685A6108E0FC
:101420003B68DB78482B04D1BB6901229A407B687A
:101430001A61BB690133BB61BB69072BC3D97B68E8
:101440007A691A603B681B88FF2B4AD97B685B6806
:101450007B610023BB613EE0BB6908331A46012370
:101460009340FB603B681B881A46FB6813403B6156
:101470003A69FB689A422BD1BB699B00FB60FB6811
:101480000F2202FA03F3BB60BB68DB437A691340A7
:101490007B61FB68FA6902FA03F37A6913437B61A3
:1014A0003B68DB78282B07D1BB6908331A46012338
:1014B00003FA02F27B685A613B68DB78482B07D15C
:1014C000BB6908331A46012303FA02F27B681A61EA
:1014D000BB690133BB61BB69072BBDD97B687A69E6
:1014E0005A602037BD4680BD00080140000C014015
:1014F000001001400014014000180140001C014090
:1015000000200140EC3A000880B582B000AF78605E
:101510000B467B807B68174A93421CD07B68164A37
:10152000934218D07B68154A934214D07B68144AC2
:10153000934210D07B68134A93420CD07B68124AC6
:10154000934208D07B68114A934204D0104840F27D
:10155000691100F0F7F97B88002B04D10C484FF497
:10156000B57100F0EFF97A887B681A610837BD46DB
:1015700080BD00BF00080140000C01400010014088
:101580000014014000180140001C014000200140EF
:10159000EC3A000880B582B000AF78600B467B80E3
:1015A0007B68174A93421CD07B68164A934218D036
:1015B0007B68154A934214D07B68144A934210D03A
:1015C0007B68134A93420CD07B68124A934208D03E
:1015D0007B68114A934204D0104840F2791100F020
:1015E000B1F97B88002B04D10C484FF4BD7100F099
:1015F000A9F97A887B685A610837BD4680BD00BF6B
:1016000000080140000C014000100140001401409E
:1016100000180140001C014000200140EC3A000885
:1016200080B586B000AF78600B46FB7000233B614D
:101630000023FB6000237B610023BB607B68012BE0
:1016400000F0BA807B68022B00F0B6807B68042B28
:1016500000F0B2807B68082B00F0AE807B688B4A7C
:10166000934200F0A9807B68894A934200F0A480ED
:101670007B68884A934200F09F807B68864A934249
:1016800000F09A807B68854A934200F095807B68E1
:10169000834A934200F090807B68824A934200F034
:1016A0008B807B68804A934200F086807B687F4A0B
:1016B000934200F081807B68B3F5805F7CD07B68CB
:1016C000B3F5EA1F78D07B68B3F5EB1F74D07B6865
:1016D000B3F5004F70D07B68754A93426CD07B683D
:1016E000744A934268D07B68734A934264D07B68A3
:1016F000724A934260D07B68714A93425CD07B68A7
:10170000B3F1201F58D07B686E4A934254D07B6857
:101710006D4A934250D07B686C4A93424CD07B68B0
:101720006B4A934248D07B686A4A934244D07B68B4
:10173000694A934240D07B68B3F5011F3CD07B6877
:10174000664A934238D07B68654A934234D07B68BE
:10175000644A934230D07B68634A93422CD07B68C2
:10176000624A934228D07B68614A934224D07B68C6
:10177000604A934220D07B685F4A93421CD07B68CA
:101780005E4A934218D07B685D4A934214D07B68CE
:101790005C4A934210D07B685B4A93420CD07B68D2
:1017A0005A4A934208D07B68594A934204D0594818
:1017B00040F22A2100F0C6F8FB78002B07D0FB7816
:1017C000012B04D0534840F22B2100F0BBF87B687A
:1017D000002B03DA504BDB697B6102E04E4B5B6808
:1017E0007B617B6803F470231B0CBB607B689BB23E
:1017F0003B617B6803F44013B3F5401F0AD17B695A
:1018000023F070637B61444A434B5B6823F0706351
:10181000536021E07B6803F48013002B0ED0BB687B
:10182000032202FA03F3FB60FB68DB437A6913408F
:101830007B617B6943F070637B610DE07B685B0DCE
:101840001B011A463B699340DB437A6913407B6175
:101850007B6943F070637B61FB78002B08D07B6869
:101860005B0D1B011A463B6993407A6913437B6108
:101870007B68002B03DA284A7B69D36102E0264AA1
:101880007B6953601837BD4680BD00BF100014004F
:101890003000140040001600C000160000011800BF
:1018A000000218000003180000081A00000C1A00BB
:1018B0000100200002002000040020000800200099
:1018C0001000200040002000000130000002300025
:1018D00000043000001120000020200001000080E2
:1018E00002000080040000800800008010000080DA
:1018F0002000008040000080800000800001008007
:1019000000020080000400800008008000100080B9
:1019100000200080EC3A00080000014080B500AFD4
:10192000FFF752F900F0AEFD00F07CFD01F0FEF88B
:1019300001F09CF8FFF702FA01F0F6F901F06AFAFB
:10194000FEE700BF80B483B000AF78603960FEE787
:1019500080B487B000AF786000237B6100233B61D7
:101960000023FB600023BB604D4B5B6803F00C035E
:101970007B617B69042B07D0082B09D0002B34D165
:101980007B68484A1A6034E07B68464A1A6030E057
:10199000434B5B6803F470133B61414B5B6803F49A
:1019A0008033FB603B699B0C02333B61FB68002B7F
:1019B00006D13B693C4A02FB03F27B681A6013E0E4
:1019C000374B5B6803F40033002B06D03B69364A83
:1019D00002FB03F27B681A6006E03B69314A02FBB6
:1019E00003F27B681A6004E003E07B682D4A1A600A
:1019F00000BF2B4B5B6803F0F0037B617B691B0925
:101A00007B612A4A7B6913441B78DBB2BB607B682D
:101A10001A68BB68DA407B685A60214B5B6803F444
:101A2000E0637B617B691B0A7B61204A7B6913440D
:101A30001B78DBB2BB607B685A68BB68DA407B68A6
:101A40009A60174B5B6803F460537B617B69DB0A28
:101A50007B61164A7B6913441B78DBB2BB607B68F1
:101A60005A68BB68DA407B68DA600D4B5B6803F448
:101A700040437B617B699B0B7B610D4A7B6913440F
:101A80001B78DBB2BB607B68DA68BB68B2FBF3F241
:101A90007B681A611C37BD465DF8047B704700BF48
:101AA0000010024000127A0000093D0000000020F2
:101AB0001000002080B582B000AF78600B46FB704C
:101AC0007B6823F4AA6323F00703002B02D17B6811
:101AD000002B04D1114840F22B41FFF733FFFB7874
:101AE000002B07D0FB78012B04D00C4840F22C418E
:101AF000FFF728FFFB78002B06D00949084B5A69ED
:101B00007B6813434B6106E00549054B5A697B68C6
:101B1000DB4313404B610837BD4680BD3C3B0008AA
:101B20000010024080B582B000AF78600B46FB70B9
:101B30007A68154B1340002B02D17B68002B04D12F
:101B4000124840F24A41FFF7FDFEFB78002B07D018
:101B5000FB78012B04D00D4840F24B41FFF7F2FE19
:101B6000FB78002B06D00A49094B9A697B6813431E
:101B70008B6106E00649064B9A697B68DB4313409C
:101B80008B610837BD4680BD0200C0FF3C3B0008AA
:101B90000010024080B582B000AF78600B46FB7049
:101BA0007A68154B1340002B02D17B68002B04D1BF
:101BB000124840F26941FFF7C5FEFB78002B07D0C1
:101BC000FB78012B04D00D4840F26A41FFF7BAFEC2
:101BD000FB78002B06D00A49094BDA697B6813436E
:101BE000CB6106E00649064BDA697B68DB431340AC
:101BF000CB610837BD4680BD003601813C3B000803
:101C00000010024080B58CB000AF786039600023CE
:101C1000FB620023BB6200237B6200233B62002344
:101C2000FB617B689D4A934213D07B689C4A934238
:101C30000FD07B689B4A93420BD07B689A4A9342B1
:101C400007D07B68994A934203D09948B821FFF79F
:101C500079FE3B681B68002B04D03B681B68954AE3
:101C6000934203D99248B921FFF76CFE3B689B88E9
:101C7000002B08D03B689B88B3F5805F03D08C486D
:101C8000BA21FFF75FFE3B68DB88002B12D03B6870
:101C9000DB88B3F5805F0DD03B68DB88B3F5005F70
:101CA00008D03B68DB88B3F5405F03D08048BB2198
:101CB000FFF748FE3B681B89002B0DD03B681B8952
:101CC000B3F5806F08D03B681B89B3F5C06F03D0B4
:101CD0007748BC21FFF736FE3B685B891A464FF612
:101CE000F3731340002B03D13B685B89002B03D1B6
:101CF0006F48BD21FFF726FE3B689B89002B12D061
:101D00003B689B89B3F5807F0DD03B689B89B3F519
:101D1000007F08D03B689B89B3F5407F03D06448BF
:101D2000BE21FFF70FFE3B689B89002B0FD07B681D
:101D30005A4A93420BD07B68594A934207D07B683A
:101D4000584A934203D05A48C221FFF7FBFD7B68F3
:101D5000FB617B681B8A9BB2FB62FA6A4CF6FF73DD
:101D60001340FB623B68DB881A46FB6A1343FB6245
:101D7000FB6A9AB27B681A827B689B899BB2FB6282
:101D8000FA6A4EF6F3131340FB623B689A883B688D
:101D90001B8913439AB23B685B8913439BB21A4673
:101DA000FB6A1343FB62FB6A9AB27B689A817B6889
:101DB0009B8A9BB2FB62FA6A4FF6FF431340FB62B9
:101DC0003B689B891A46FB6A1343FB62FB6A9AB223
:101DD0007B689A8207F108031846FFF7B9FDFB6993
:101DE0002E4A934202D17B69BB6201E03B69BB6230
:101DF0007B689B899BB29BB21BB2002B0CDABA6A40
:101E000013469B0013449A001A443B681B685B000E
:101E1000B2FBF3F37B620BE0BA6A13469B001344F8
:101E20009A001A443B681B689B00B2FBF3F37B6289
:101E30007B6A214AA2FB03235B091B01FB62FB6A4D
:101E40001B09642202FB03F37A6AD31A3B627B68A4
:101E50009B899BB29BB21BB2002B0CDA3B6ADB0066
:101E60003233154AA2FB03235B0903F00703FA6A26
:101E70001343FB620BE03B6A1B0132330E4AA2FBA9
:101E800003235B0903F00F03FA6A1343FB62FB6A47
:101E90009AB27B681A813037BD4680BD0038014058
:101EA0000044004000480040004C0040005000400A
:101EB0008C3B000820AA44001F85EB5180B582B0FE
:101EC00000AF78600B46FB707B681D4A934214D0CC
:101ED0007B681C4A934210D07B681B4A93420CD00B
:101EE0007B681A4A934208D07B68194A934204D00F
:101EF00018484FF4B171FFF725FDFB78002B07D090
:101F0000FB78012B04D0134840F26311FFF71AFD50
:101F1000FB78002B08D07B689B899BB243F400536D
:101F20009AB27B689A8107E07B689B899BB223F415
:101F300000539AB27B689A810837BD4680BD00BFC6
:101F4000003801400044004000480040004C004080
:101F5000005000408C3B000880B586B000AF786030
:101F60000B467B8013467B7000233B610023FB60A4
:101F70000023BB6000237B617B684B4A934214D0F3
:101F80007B684A4A934210D07B68494A93420CD0FE
:101F90007B68484A934208D07B68474A934204D002
:101FA000464840F28911FFF7CDFC7B88282B25D0CD
:101FB0007B8840F22772934220D07B8840F22662D1
:101FC00093421BD07B8840F22552934216D07B88E7
:101FD00040F22442934211D07B8840F6460293425D
:101FE0000CD07B8840F66A12934207D07B88602B26
:101FF00004D032484FF4C571FFF7A4FC7B78002B66
:1020000007D07B78012B04D02C4840F28B11FFF7CE
:1020100099FC7B8840F66A12934210D17B68224A71
:1020200093420CD07B68214A934208D07B68204AB7
:10203000934204D0214840F28F11FFF783FC7B6864
:102040007B617B88DBB25B09DBB23B617B8803F0A1
:102050001F03FB60FB68012202FA03F3BB603B69CC
:10206000012B03D17B690C337B6109E03B69022BB7
:1020700003D17B6910337B6102E07B6914337B61A0
:102080007B78002B06D07B697A691168BA680A43AD
:102090001A6006E07B697A691168BA68D2430A401F
:1020A0001A601837BD4680BD00380140004400402A
:1020B00000480040004C0040005000408C3B0008AD
:1020C00080B582B000AF78600B467B807B68154A94
:1020D000934214D07B68144A934210D07B68134A11
:1020E00093420CD07B68124A934208D07B68114A15
:1020F000934204D0104840F25321FFF723FC7B8821
:10210000B3F5007F04D30C484FF41571FFF71AFCA8
:102110007B88C3F308039AB27B689A800837BD4670
:1021200080BD00BF0038014000440040004800402E
:10213000004C0040005000408C3B000880B582B04D
:1021400000AF78607B68114A934214D07B68104AD4
:10215000934210D07B680F4A93420CD07B680E4AA2
:10216000934208D07B680D4A934204D00C484FF448
:102170001971FFF7E7FB7B689B889BB2C3F30803E9
:102180009BB218460837BD4680BD00BF00380140ED
:102190000044004000480040004C00400050004017
:1021A0008C3B000880B584B000AF78600B467B8024
:1021B0000023FB737B68324A934214D07B68314A18
:1021C000934210D07B68304A93420CD07B682F4AF0
:1021D000934208D07B682E4A934204D02D4840F2A7
:1021E0006E31FFF7AFFB7B88012B21D07B88802BE2
:1021F0001ED07B88402B1BD07B88202B18D07B885F
:10220000102B15D07B88B3F5807F11D07B88B3F578
:10221000007F0DD07B88082B0AD07B88042B07D049
:102220007B88022B04D01B4840F26F31FFF78AFBFA
:102230007B88B3F5007F10D17B68114A93420CD0A4
:102240007B68104A934208D07B680F4A934204D0BF
:10225000104840F27331FFF775FB7B681B889AB218
:102260007B8813409BB2002B02D00123FB7301E05B
:102270000023FB73FB7B18461037BD4680BD00BFB3
:10228000003801400044004000480040004C00403D
:10229000005000408C3B000880B586B000AF7860ED
:1022A0000B467B800023FB6000237B610023BB6027
:1022B0000023FB747B68554A934214D07B68544AD0
:1022C000934210D07B68534A93420CD07B68524AA9
:1022D000934208D07B68514A934204D0504840F260
:1022E000C131FFF72FFB7B88282B2ED07B8840F253
:1022F0002772934229D07B8840F22662934224D0F1
:102300007B8840F2255293421FD07B8840F22442C2
:1023100093421AD07B8840F64602934215D07B88C0
:1023200040F66A12934210D07B88B3F5587F0CD0E8
:102330007B88B3F5187F08D07B88B3F5B07F04D0D5
:10234000374840F2C231FFF7FDFA7B8840F66A1247
:10235000934210D17B682D4A93420CD07B682C4A63
:10236000934208D07B682B4A934204D02C4840F219
:10237000C631FFF7E7FA7B88DBB25B09DBB2BB60F3
:102380007B8803F01F037B617B69012202FA03F360
:102390007B61BB68012B07D17B689B899BB21A4686
:1023A0007B6913407B6111E0BB68022B07D17B681E
:1023B0001B8A9BB21A467B6913407B6106E07B68EF
:1023C0009B8A9BB21A467B6913407B617B881B0A00
:1023D0009BB2FB60FB68012202FA03F3FB607B689F
:1023E0001B889BB21A46FB681340FB607B69002B7D
:1023F00005D0FB68002B02D00123FB7401E0002311
:10240000FB74FB7C18461837BD4680BD0038014080
:102410000044004000480040004C00400050004094
:102420008C3B000880B582B000AF01200121FFF78E
:1024300079FB11480121FFF7F3F80C200121FFF788
:1024400071FB4FF40273BB801023FB710223BB713D
:102450003B1D0A481946FEF72DFF4FF40043BB8091
:102460001023FB710223BB713B1D05481946FEF783
:1024700021FF0837BD4680BD00023000000C01403E
:102480000008014080B500AF04200121FFF782FB66
:10249000034B01221A80034B4FF400525A6080BD57
:1024A00000080040002004E080B483B000AF034681
:1024B000FB800F4B48F69F421A850D4AFB88938597
:1024C0000B4B00229A8400BF094B1B8A9BB203F07E
:1024D0000103002BF8D0064A054B1B8A9BB223F060
:1024E00001039BB213820C37BD465DF8047B704735
:1024F0000008004080B584B000AF03460A46FB8068
:1025000013467B710023FB7312E0FB7B0133FB73EB
:102510000B480821FEF7F8FFFB881846FFF7C4FFB9
:1025200007480821FFF736F8FB881846FFF7BCFF7D
:10253000FA7B7B799A42E8D91037BD4680BD00BF4F
:10254000000C014080B485B000AF78600B4B1B6875
:10255000002B02D1094B0A4A1A60084B1B68FB602A
:10256000064B1A687B681344044A1360FB681846DC
:102570001437BD465DF8047B704700BF080100209A
:102580009803002080B582B000AF78607B68664A0F
:1025900093422FD07B68654A93422BD07B68644A74
:1025A000934227D07B68634A934223D07B68624A78
:1025B00093421FD07B68614A93421BD07B68604A7C
:1025C000934217D07B685F4A934213D07B685E4A80
:1025D00093420FD07B685D4A93420BD07B685C4A84
:1025E000934207D07B685B4A934203D05A486F21DD
:1025F000FFF7A8F97B681A684FF6FE7313407A68F4
:1026000013607B6800221A607B6800225A607B6836
:1026100000229A607B680022DA607B68424A93421B
:1026200006D14E4A4D4B5B6843F00F03536077E091
:102630007B683E4A934206D1484A484B5B6843F068
:10264000F00353606CE07B68394A934206D1434AF9
:10265000424B5B6843F47063536061E07B68354ACA
:10266000934206D13D4A3D4B5B6843F4704353604F
:1026700056E07B68304A934206D1384A374B5B6854
:1026800043F4702353604BE07B682C4A934206D19D
:10269000324A324B5B6843F47003536040E07B681E
:1026A000274A934206D12D4A2C4B5B6843F0706356
:1026B000536035E07B68234A934206D1284A284B71
:1026C0005B6843F00F0353602AE07B681E4A934225
:1026D00006D1234A224B5B6843F0F00353601FE0AE
:1026E0007B681A4A934206D11D4A1D4B5B6843F42E
:1026F0007063536014E07B68154A934206D1184A10
:10270000174B5B6843F47043536009E07B68114AE0
:10271000934205D1124A124B5B6843F47023536015
:102720000837BD4680BD00BF080002401C000240C3
:102730003000024044000240580002406C00024059
:1027400080000240080402401C04024030040240A1
:102750004404024058040240DC3B000800000240F0
:102760000004024080B584B000AF78603960002377
:10277000FB607B68764A93422FD07B68754A934210
:102780002BD07B68744A934227D07B68734A93426C
:1027900023D07B68724A93421FD07B68714A934270
:1027A0001BD07B68704A934217D07B686F4A934274
:1027B00013D07B686E4A93420FD07B686D4A934278
:1027C0000BD07B686C4A934207D07B686B4A93427C
:1027D00003D06B48CF21FFF7B5F83B689B68102BFF
:1027E00007D03B689B68002B03D06548D021FFF7DA
:1027F000A9F83B68DB68002B04D03B68DB68B3F5C5
:10280000803F03D35E48D121FFF79CF83B681B69EA
:10281000402B07D03B681B69002B03D05848D221BE
:10282000FFF790F83B685B69802B07D03B685B69DA
:10283000002B03D05248D321FFF784F83B689B69F3
:10284000002B0DD03B689B69B3F5807F08D03B68B7
:102850009B69B3F5007F03D04948D421FFF772F894
:102860003B68DB69002B0DD03B68DB69B3F5806FFB
:1028700008D03B68DB69B3F5006F03D04048D52131
:10288000FFF760F83B681B6A202B07D03B681B6A88
:10289000002B03D03A48D621FFF754F83B685B6A17
:1028A000B3F5405F11D03B685B6AB3F5005F0CD0B5
:1028B0003B685B6AB3F5805F07D03B685B6A002BBF
:1028C00003D02F48D721FFF73DF83B689B6AB3F54B
:1028D000804F07D03B689B6A002B03D02848D82143
:1028E000FFF730F87B681B68FB60FB6823F4FF434D
:1028F00023F07003FB603B689A683B681B6A1A43CD
:102900003B681B691A433B685B691A433B689B69D8
:102910001A433B68DB691A433B685B6A1A433B68AE
:102920009B6A1343FA681343FB607B68FA681A607A
:102930003B68DA687B685A603B681A687B689A6013
:102940003B685A687B68DA601037BD4680BD00BFBF
:10295000080002401C0002403000024044000240D7
:10296000580002406C00024080000240080402400F
:102970001C04024030040240440402405804024057
:10298000DC3B000880B582B000AF78600B46FB707E
:102990007B68294A934230D07B68284A93422CD0E6
:1029A0007B68274A934228D07B68264A934224D0EA
:1029B0007B68254A934220D07B68244A93421CD0EE
:1029C0007B68234A934218D07B68224A934214D0F2
:1029D0007B68214A934210D07B68204A93420CD0F6
:1029E0007B681F4A934208D07B681E4A934204D0FA
:1029F0001D4840F22911FEF7A5FFFB78002B07D0F8
:102A0000FB78012B04D018484FF49571FEF79AFF1C
:102A1000FB78002B06D07B681B6843F001027B68C3
:102A20001A6006E07B681A684FF6FE7313407A68F6
:102A300013600837BD4680BD080002401C000240FC
:102A40003000024044000240580002406C00024046
:102A500080000240080402401C040240300402408E
:102A60004404024058040240DC3B000880B58AB0B0
:102A700000AF05200121FFF755F801200121FFF7E4
:102A800089F845F2EF533B844723BB8300237B84C3
:102A90000023FB8307F11C034FF080401946FDF72C
:102AA00035FB3023BB810123FB8100237B82022382
:102AB000BB8207F10C034FF080401946FDF720FC64
:102AC0004FF080400D210022FDF79EFE4FF0804028
:102AD0004FF400710122FDF76FFF4FF0804001219C
:102AE0000122FDF7EDFD01233B810323BB72182377
:102AF000FB7207F108030C481946FEF7DBFB4FF0A9
:102B000080400121FDF748FD1C233B7100237B71B0
:102B10000023BB710123FB713B1D184600F086F8B2
:102B20002837BD4680BD00BF0008014080B58CB08D
:102B300000AF01200121FEF7BDFF1448FFF722FD81
:102B40000023FB6220237B624FF40053BB624FF4EF
:102B50008073FB614FF480633B628023BB61002381
:102B60007B611023FB6012233B61094B7B60094BA7
:102B7000BB603B1D05481946FFF7F4FD03480121E2
:102B8000FFF700FF3037BD4680BD00BF5800024050
:102B9000340000402000002080B582B000AF012347
:102BA0007B6032E07A681E4B1340002B03DA013B56
:102BB00063F001030133012B18D17B68013B194AF3
:102BC00032F813207B68013BD90F0B445B10194688
:102BD000154B53F821309BB213449BB2A3F5C87335
:102BE00099B2104A7B6822F813100BE07B68013B16
:102BF0000C4A32F8133003F5C87399B2094A7B685E
:102C000022F813107B6801337B607B68102BC9DDD1
:102C10004FF080400121FDF751FF0837BD4680BDD0
:102C200001000080200000204800002080B586B010
:102C300000AF786000237B6100233B610F23FB60C2
:102C40007B68DB78002B07D07B68DB78012B03D017
:102C500032487521FEF776FE7B685B780F2B03D92F
:102C60002E487621FEF76EFE7B689B780F2B03D9EA
:102C70002A487721FEF766FE7B68DB78002B3AD086
:102C8000274BDB68DB4303F4E0631B0A7B617B6952
:102C9000C3F104033B617B69FA6822FA03F3FB602A
:102CA0007B685B781A463B6902FA03F37B617B68B9
:102CB0009B781A46FB6813407A6913437B617B69F2
:102CC0001B017B61174A7B681B787969C9B2134481
:102CD0000A4683F80023134A7B681B785B09DBB242
:102CE00018467B681B7803F01F03012101FA03F3E8
:102CF00042F820300FE00B497B681B785B09DBB2A0
:102D000018467B681B7803F01F0301229A4000F1EC
:102D1000200341F823201837BD4680BD2C3C000815
:102D200000ED00E000E100E080B500AF1D484FF489
:102D30000071FEF7E9FBC820FFF7B6FB1A481B49F4
:102D400000F046F81A481B4900F042F8C820FFF787
:102D5000ABFB1948174900F03BF8C820FFF7A4FB6C
:102D60001648144900F034F84FF4FA70FFF79CFB52
:102D70001348104900F02CF8C820FFF795FB1148C4
:102D80000C4900F025F8C820FFF78EFB0E480949D2
:102D900000F01EF8C820FFF787FB0C48054900F03B
:102DA00017F880BD000C0140743C0008803C00080E
:102DB000883C0008903C0008943C0008A43C0008B3
:102DC000CC3C0008DC3C0008EC3C0008043D00085A
:102DD00080B582B000AF786039607868FEF762F93C
:102DE0000B48FEF78BF90A48396800F0E7F803460C
:102DF000002BF5D00648396800F0E0F80346002BB8
:102E000003D01E200121FFF775FB0837BD4680BDAA
:102E10001403002080B500AF00F042F81C48FEF714
:102E20006DF91B481B4900F0C9F80346002B0DD172
:102E30001748194900F0C2F80346002B06D1144880
:102E4000164900F0BBF80346002BE5D010481149A5
:102E500000F0B4F80346002B02D000F021F815E092
:102E60000B480D4900F0AAF80346002B02D0FFF7EB
:102E70005BFF0BE00648094900F0A0F80346002B71
:102E800004D06420FFF710FBFFF7C4FF80BD00BF34
:102E900014030020343D0008403D0008483D000870
:102EA00080B586B006AF1F48FEF728F91D481E49B9
:102EB00000F084F80346002B06D11A481B4900F0A5
:102EC0007DF80346002BEED01648174900F076F83F
:102ED0000346002B1BD01348FEF710F9144B009348
:102EE000144B0193144B0293144B0393144B049310
:102EF000144B05930B481449144A154B00F02AF85B
:102F000008480A4900F05AF80346002BE3D0054868
:102F1000064900F053F80346002B01D0FFF77AFF73
:102F2000BD4680BD14030020503D00085C3D0008F4
:102F30005000002054000020580000205C000020B9
:102F40006000002064000020683D00084800002068
:102F50004C0000200EB430B59CB01FAC4FF4017291
:102F600054F8045BADF814200290069000F01EF8AF
:102F70000B4B03900B9300230F9314934FF6FF73A7
:102F8000ADF81630074B079002A918682A46234669
:102F9000019400F085F81CB0BDE8304003B07047E4
:102FA000A92F0008C800002000207047034613F82E
:102FB000012B002AFBD1181A0138704730B503786D
:102FC00023B90B78002B18BF002030BD03461A78B8
:102FD00001303AB100228C5C34B19D5CA542F5D140
:102FE0000132F8E7104630BD184630BD38B54B1CED
:102FF000144602D14FF0FF3038BD9389CDB223F093
:1030000020039381536B526883B1A36B9A4207DA12
:1030100023685A1E226003F8015C636801331FE0D5
:10302000214600F00FFC0028F2D0E3E72169236875
:1030300051B18B4208D913F8010CA84204D1013BCD
:1030400001322360626038BDE36304F144036363CB
:103050000323A3632346226403F8465F236001230E
:103060006360284638BD10B50C46496B69B104F160
:103070004403994201D000F037FC236C00206063C8
:10308000636013B1E36B236010BD23694FF0FF3021
:10309000236000236360A38943F02003A38110BD54
:1030A0002DE9F04707460C469046ADF5247D019387
:1030B0000023469347939C4B0DF10C0AA2939B4B24
:1030C000CDF820A1A39398F80050002D00F02481A2
:1030D00097490B6889462B445B7803F0080303F09B
:1030E000FF02EBB16368002B10DD2368D9F80010F4
:1030F0001A780A44527815070ED5479A01330132DF
:10310000479262682360013A6260EBE7A39B38460E
:10311000214698470028E8D008F10106B046D2E7DA
:10312000252D08F101064FD14592439298F80130C0
:103130002A2B03D11023439308F102063178354638
:10314000A1F13003092B06F1010606D8459B0A229E
:1031500002FB0313303B4593F0E7DFF8DC810322E9
:10316000404600F0A8FB40B135460123C8EB000003
:1031700003FA00F2439B134343936E1C2D78672D93
:103180000FD8652D78D25B2D54D005D8002D00F0D6
:10319000C580252D18D071E0632D57D0642D3FD008
:1031A0006CE0702D32D007D86E2D55D03AD8692DED
:1031B00064D1002344933BE0752D31D0782D29D084
:1031C000732D5BD102233FE06368002B0DDD236884
:1031D0001A78AA4240F0A080013362682360479BBE
:1031E000013A01336260479398E7A39B3846214632
:1031F00098470028EBD04698002800F08F80A389DC
:1032000013F0400F18BF4FF0FF3089E0439B43F0AD
:1032100020034393439B43F400734393102302E042
:103220000A2300E008236E2D449301DD04230BE004
:10323000032309E03146504600F0D0F90646439B8F
:1032400043F040034393012349931BE0439B43F026
:10325000400343930023F7E7439AD0063FF55EAF60
:1032600012F0010F019A479B02F1040101911268CB
:1032700014BF1380136051E70523E5E70323499347
:103280000A2344936368002B03DD439B590611D541
:1032900018E0A39B3846214698470028F5D0AAE7B6
:1032A000479A013247926268013A002A626013DD50
:1032B000013323602368D9F800101A780A44527841
:1032C0001207EDD4499B022B0DDC384643A9224658
:1032D00001AB00F033F819E0A39B3846214698472C
:1032E0000028E7D087E7042B06DC384643A92246AE
:1032F00001AB00F081F809E00E4B002B3FF40EAF5C
:10330000384643A9224601ABAFF30080012803D021
:1033100002287FF403AF6EE7469801E04FF0FF30DC
:103320000DF5247DBDE8F087ED2F0008673000081B
:10333000CC00002000000000963D00082DE9F0417F
:1033400015468A6880460C4632B98A69002A0CBF45
:1033500001224FF0FF328A6022680026D1065FBF4B
:103360001A68111D19601768A069F8B92368013639
:10337000DA065EBF2B681B783B702A686B6802F127
:1033800001022A60A26803F1FF3302F1FF326B6091
:1033900058BF0137A260EAB1002BE5DCD4F88031D8
:1033A0004046294698470028DED013E0012807D17F
:1033B0002B6862691B78D35C002BD7D1C6B109E0BA
:1033C000022807D12B680B4A1B78126813445B78DC
:1033D0001B07CBD5236813F0100305D1E268013237
:1033E000E260A26902B13B70236900201E4426619D
:1033F000BDE8F081CC0000202DE9F04F0C469A4644
:10340000724B87B08346164693E8070003AB83E808
:1034100007006F4BA1696F4A04F11C09032918BF0B
:103420001A46A36800925A1EB2F5AE7F82BF6FF4AF
:10343000AE7503EB050840F25D134F4688BFA360ED
:10344000236898BF4FF0000843F4506323600023C3
:10345000326803A951F8230011780222019300F089
:103460002AFA019B002835D0012B0BD162682AB9BA
:1034700008226260226842F400722260226822F40C
:10348000A0620BE0022B0AD1226802F4C061B1F500
:10349000007F1FD11021616042F480722260A26817
:1034A000511EA160B2B132687D1C511C316012788E
:1034B0003A707268013A002A72600ADCD4F88021FE
:1034C0005846314601939047002841D12F46019B31
:1034D00000E02F460133032BBAD163680BB90A23EE
:1034E000636063683C496069C91A00F077F83D463B
:1034F0000027A3686BB3316860690A78805C40B3C9
:10350000302A22680AD1100508D50137B8F1000F1A
:103510000BD0013308F1FF38A36006E022F41062FB
:1035200022600B78013505F8013C7368013B002BE4
:10353000736003DD33680133336005E0D4F8803114
:1035400058463146984720B9A368013BA360D0E7AD
:1035500000272368D9050DD54D4509D915F8011C5B
:1035600005F1FF38D4F87C31584632469847454635
:103570004D4527D0226812F010021BD12A706368D3
:1035800058464946009EB0472268DAF8003012F0EB
:10359000200F07D1D20705D51A1DCAF800201B68D5
:1035A000188004E01A1DCAF800201B681860E36840
:1035B0000133E360C9EB05053D44276900203D4424
:1035C000256100E0012007B0BDE8F08F9C3D0008B8
:1035D0004D37000841360008B83D0008F0B50A78BC
:1035E000441E5E2A13BF4B1C8B1C4A78002108BF67
:1035F000012100F1FF0504F8011FAC42FBD10AB91B
:10360000581EF0BDC1F10104E7B2875419785E1C61
:103610002D2905D05D290ED079B10A463346F3E74E
:103620005D785D2DF9D09542F7DB02330132AA4275
:103630008754FBDBEAE73046F0BD1846F0BD0000DA
:103640002DE9F0470F46404CD4F800903D4615F860
:1036500001EB09EB0E04667806F0080404F0FF069F
:103660000CB12F46F2E774462D2C03D1BD1C7C789B
:10367000012603E02B2C04BF7C78BD1C13B1102B5A
:103680000AD15AE0302C56D12C7804F0DF04582CA3
:103690004CD16C7810230235002E14BF4FF0004837
:1036A0006FF00048B8FBF3FA0027BE4603FB1A8808
:1036B00009EB040C9CF801C01CF0040F01D0303C55
:1036C0000BE01CF0030C1BD0BCF1010F0CBF4FF042
:1036D000370C4FF0570CCCEB04049C4210DAB7F1D6
:1036E000FF3F0AD0D64506D801D1444503DC03FB91
:1036F0000E4E012701E04FF0FF3715F8014BD7E7D9
:103700007C1C73460AD1002E4FF0220114BF4FF0EB
:1037100000436FF0004301602AB911E00EB1CEF111
:1037200000036AB107B1691E116009E03024002B63
:10373000B2D10823B0E70A23AEE7302CACD1A3E71F
:103740001846BDE8F08700BFCC0000202DE9F04707
:103750000E463B4CD4F80090354615F801EB09EBCA
:103760000E04677807F0080404F0FF070CB12E463A
:10377000F2E774462D2C03D1B51C7478012703E0C1
:103780002B2C04BF7478B51C13B1102B0AD151E057
:10379000302C4DD12C7804F0DF04582C43D16C78B8
:1037A000102302354FF0FF38B8FBF3F803FB08FA9B
:1037B00000266FEA0A0AB64609EB040C9CF801C021
:1037C0001CF0040F01D0303C0BE01CF0030C1BD0AC
:1037D000BCF1010F0CBF4FF0370C4FF0570CCCEB86
:1037E00004049C4210DAB6F1FF3F0AD0C64506D861
:1037F00001D1544503DC03FB0E4E012601E04FF0DE
:10380000FF3615F8014BD7E7741C734603D122230A
:103810000360334602E00FB1CEF100036AB106B196
:10382000691E116009E03024002BBBD10823B9E7E1
:103830000A23B7E7302CB5D1ACE71846BDE8F087CE
:10384000CC0000202DE9F0410C46496B04F1440303
:1038500099421AD14FF4806100F08AF818B94FF0FC
:10386000FF30BDE8F0814FF48063A36394F84630E5
:10387000606380F8FF3394F8453000F2FD30437008
:1038800094F844300370206012E0A66B77003A464B
:1038900000F0C4F805460028E1D000EB06084046D9
:1038A0002946324600F015F8C4F800806563A76326
:1038B0000020BDE8F08110B5C9B202449042034631
:1038C00005D01C7801308C42F8D1184610BD00207C
:1038D00010BD10B5431E0A44914204D011F8014BAB
:1038E00003F8014FF8E710BD30B500293CD051F87E
:1038F000042C0B1F1D49002AB8BF9B180A680C46F0
:1039000012B95A600B6030BD93420DD21968581835
:10391000904201BF5A5852181A60426823605A6098
:1039200030BD994203D80A4651680029F9D114687C
:1039300015199D420AD11B682344D0188842136090
:1039400012D10868034413604B680CE002D90C23C1
:10395000036030BD1C681819884201BF08684968B7
:10396000001918605960536030BD00BF100100207D
:1039700070B5CC1C24F0030408340C2C38BF0C2484
:10398000002C064603DA0C233360002070BD8C4205
:10399000F9D3204A136810461946A1B10A68121BD0
:1039A0000ED40B2A03D90A608B188C501FE08B426F
:1039B0000BBF5A684A6802605A6018BF0B4616E08F
:1039C0000B464968E9E7144D2B681BB9304600F0F7
:1039D0004BF828603046214600F046F8421C03466A
:1039E000D1D0C51C25F0030585420AD11C6003F126
:1039F0000B001A1D20F00700821A0AD0514299507C
:103A000070BD3046E91A00F02FF80130BBD02B46CC
:103A1000ECE770BD100100200C010020F8B507464E
:103A200015460E4621B91146BDE8F840FFF7A0BF84
:103A30001AB9FFF759FF2846F8BD00F025F8A8424B
:103A40000ED238462946FFF793FF044650B131465F
:103A50002A46FFF73EFF38463146FFF745FF01E0B3
:103A60003046F8BD2046F8BD38B5064C0023054663
:103A700008462360FEF766FD431C02D1236803B1AC
:103A80002B6038BD9403002051F8040C0028BEBF01
:103A9000091851F8043CC01804387047453A5C5581
:103AA000736572735C54617261735C446F63756DAE
:103AB000656E74735C4769744875625C52434F4E1F
:103AC00054524F4C5C4669726D776172655C7374D9
:103AD0006D5F6C69625C7372635C73746D333266C4
:103AE0003130785F74696D2E63000000453A5C5593
:103AF000736572735C54617261735C446F63756D5E
:103B0000656E74735C4769744875625C52434F4ECE
:103B100054524F4C5C4669726D776172655C737488
:103B20006D5F6C69625C7372635C73746D33326673
:103B30003130785F6770696F2E630000453A5C55DD
:103B4000736572735C54617261735C446F63756D0D
:103B5000656E74735C4769744875625C52434F4E7E
:103B600054524F4C5C4669726D776172655C737438
:103B70006D5F6C69625C7372635C73746D33326623
:103B80003130785F7263632E63000000453A5C5504
:103B9000736572735C54617261735C446F63756DBD
:103BA000656E74735C4769744875625C52434F4E2E
:103BB00054524F4C5C4669726D776172655C7374E8
:103BC0006D5F6C69625C7372635C73746D333266D3
:103BD0003130785F75736172742E6300453A5C55BD
:103BE000736572735C54617261735C446F63756D6D
:103BF000656E74735C4769744875625C52434F4EDE
:103C000054524F4C5C4669726D776172655C737497
:103C10006D5F6C69625C7372635C73746D33326682
:103C20003130785F646D612E63000000453A5C5569
:103C3000736572735C54617261735C446F63756D1C
:103C4000656E74735C4769744875625C52434F4E8D
:103C500054524F4C5C4669726D776172655C737447
:103C60006D5F6C69625C7372635C6D6973632E6314
:103C70000000000041542B5253540D0A0000000074
:103C80007265616479000000415445300D0A0000FE
:103C90004F4B000041542B43574D4F44453D320D8F
:103CA0000A00000041542B43575341503D225243D8
:103CB0004F4E54524F4C222C2272636F6E74726FAF
:103CC0006C222C332C330D0A0000000041542B438E
:103CD00049504D4F44453D300D0A000041542B439F
:103CE00049504D55583D310D0A00000041542B43B9
:103CF00049505345525645523D312C383030300DE5
:103D00000A00000041542B43495053544152543D42
:103D1000302C22554450222C223139322E31363863
:103D20002E342E31222C383030302C383030302C9C
:103D3000320D0A00302C434F4E4E454354000000D4
:103D40004552524F52000000627573790000000026
:103D50000A2B4950442C302C33393A00302C434C38
:103D60004F534544000000000A2B4950442C302C8E
:103D700033393A202534642C2534642C2534642CC2
:103D80002534642C2534642C2534642C2534642C8F
:103D9000253464004300686C4C000000BA3D000804
:103DA000BD3D0008C03D0008412D46612D663839F3
:103DB00030313233343536375D002B2D0030300052
:103DC000785800002020202020202020202828288B
:103DD00028282020202020202020202020202020D3
:103DE000202020208810101010101010101010101B
:103DF000101010100404040404040404040410103B
:103E000010101010104141414141410101010101D7
:103E10000101010101010101010101010101011083
:103E200010101010104242424242420202020202AC
:103E30000202020202020202020202020202021054
:103E40001010102000000000000000000000000022
:103E50000000000000000000000000000000000062
:103E60000000000000000000000000000000000052
:103E70000000000000000000000000000000000042
:103E80000000000000000000000000000000000032
:103E90000000000000000000000000000000000022
:103EA0000000000000000000000000000000000012
:103EB0000000000000000000000000000000000002
:103EC00000000000000000000000000000000000F2
:103ED00000000000000000000000000000000000E2
:103EE00000000000000000000000000000000000D2
:103EF00000000000000000000000000000000000C2
:103F000000000000000000000000000000000000B1
:103F100000000000000000000000000000000000A1
:043F2000000000009D
:103F2400000000000102030401020304060708095B
:103F340002040608000000006666666666660040C5
:103F4400900178050807B80B480D5C12EC1364194E
:103F5400F41AD0206022302AC02B90332035803EC2
:103F64001040EF5500000000E8030000E8030000E3
:103F7400E8030000E8030000E8030000E803000091
:103F8400E8030000E803000000000000C43E00084D
:103F9400E43E0008043F00080000000000000000A8
:103FA4000000000000000000943D00080000000034
:103FB40000000000000000000000000000000000FD
:103FC40000000000000000000000000000000000ED
:103FD40000000000000000000000000000000000DD
:103FE400000000000000000068000020C33D00083D
:0400000508000000EF
:00000001FF
