:020000040800F2
:10000000D80F00202911000885110008851100086B
:100010008511000885110008851100080000000006
:100020000000000000000000000000008511000832
:1000300085110008000000008511000885110008E6
:100040008511000885110008851100088511000838
:100050008511000885110008851100088511000828
:100060008511000885110008851100088511000818
:100070008511000885110008851100088511000808
:100080008511000885110008851100080000000096
:1000900000000000000000000000000085110008C2
:1000A00085110008851100088511000885110008D8
:1000B00085110008851100088511000885110008C8
:1000C00085110008851100088511000885110008B8
:1000D0008511000821140008651500088511000825
:1000E0008511000885110008851100080000000036
:1000F0000000000000000000000000000000000000
:1001000000000000000000000000000000000000EF
:1001100000000000000000008511000885110008A3
:100120005FF808F180B584B000AF786039600023D3
:10013000FB817B68674A934243D07B68B3F1804F71
:100140003FD07B68644A93423BD07B68634A9342CA
:1001500037D07B68624A934233D07B68614A9342CE
:100160002FD07B68604A93422BD07B685F4A9342D2
:1001700027D07B685E4A934223D07B685D4A9342D6
:100180001FD07B685C4A93421BD07B685B4A9342DA
:1001900017D07B685A4A934213D07B68594A9342DE
:1001A0000FD07B68584A93420BD07B68574A9342E2
:1001B00007D07B68564A934203D05648E72101F0A6
:1001C000D7FC3B685B88002B13D03B685B88102B07
:1001D0000FD03B685B88202B0BD03B685B88402BA3
:1001E00007D03B685B88602B03D04A48E82101F0C8
:1001F000BFFC3B68DB88002B0DD03B68DB88B3F588
:10020000807F08D03B68DB88B3F5007F03D041488E
:10021000E92101F0ADFC7B681B88FB817B682D4ADE
:10022000934213D07B68314A93420FD07B68B3F17D
:10023000804F0BD07B68284A934207D07B68274ABF
:10024000934203D07B68264A934208D1FB8923F06E
:100250007003FB813B685A88FB891343FB817B68F1
:10026000204A93420CD07B681F4A934208D0FB89F6
:1002700023F44073FB813B68DA88FB891343FB81DD
:100280007B68FA891A803B689A887B689A853B6804
:100290001A887B681A857B680E4A93420FD07B6868
:1002A000124A93420BD07B68174A934207D07B686F
:1002B000164A934203D07B68154A934204D13B68A7
:1002C0001B7A9AB27B681A867B6801229A82103761
:1002D000BD4680BD002C01400004004000080040E5
:1002E000000C0040001000400014004000340140A9
:1002F000004C0140005001400054014000180040F3
:10030000001C00400020004000400140004401402B
:1003100000480140948F000880B584B000AF786039
:10032000396000237B810023FB810023BB817B6834
:10033000904A93423CD07B68B3F1804F38D07B68C1
:100340008D4A934234D07B688C4A934230D07B688C
:100350008B4A93422CD07B688A4A934228D07B6890
:10036000894A934224D07B68884A934220D07B6894
:10037000874A93421CD07B68864A934218D07B6898
:10038000854A934214D07B68844A934210D07B689C
:10039000834A93420CD07B68824A934208D07B68A0
:1003A000814A934204D081484FF48E7101F0E0FB02
:1003B0003B681B88002B18D03B681B88102B14D07F
:1003C0003B681B88202B10D03B681B88302B0CD03F
:1003D0003B681B88602B08D03B681B88702B04D0BF
:1003E000724840F21D1101F0C3FB3B685B88002B93
:1003F00008D03B685B88012B04D06C484FF48F71A8
:1004000001F0B6FB3B681B89002B08D03B681B89B9
:10041000022B04D0654840F21F1101F0A9FB7B6854
:100420001B8C9BB223F001039AB27B681A847B6811
:100430001B8CFB817B689B88BB817B681B8B7B81D2
:100440007B8923F070037B817B8923F003037B810D
:100450003B681A887B8913437B81FB8923F0020365
:10046000FB813B681A89FB891343FB813B685A88EF
:10047000FB891343FB817B683E4A93420FD07B6824
:10048000404A93420BD07B68454A934207D07B6831
:10049000444A934203D07B68434A934259D13B6814
:1004A0009B88002B08D03B689B88042B04D03F48D6
:1004B0004FF49E7101F05CFB3B685B89002B08D018
:1004C0003B685B89082B04D0384840F23D1101F0AD
:1004D0004FFB3B68DB89B3F5007F08D03B68DB89C5
:1004E000002B04D031484FF49F7101F041FB3B6871
:1004F0009B89B3F5807F08D03B689B89002B04D093
:100500002A4840F23F1101F033FBFB8923F0080336
:10051000FB813B685A89FB891343FB81FB8923F0EC
:100520000403FB813B689A88FB891343FB81BB89E9
:1005300023F48073BB81BB8923F40073BB813B68C8
:100540009A89BB891343BB813B68DA89BB89134312
:10055000BB817B68BA899A807B687A891A833B68F9
:10056000DA887B689A867B68FA891A841037BD46D8
:1005700080BD00BF002C0140000400400008004086
:10058000000C004000340140004C0140005001408C
:100590000054014000180040001C004000200040B2
:1005A000004001400044014000480140948F000891
:1005B00080B584B000AF7860396000237B81002370
:1005C000FB810023BB817B68854A934224D07B68F2
:1005D000B3F1804F20D07B68824A93421CD07B6865
:1005E000814A934218D07B68804A934214D07B683A
:1005F0007F4A934210D07B687E4A93420CD07B683E
:100600007D4A934208D07B687C4A934204D07C4860
:1006100040F26F1101F0ACFA3B681B88002B18D038
:100620003B681B88102B14D03B681B88202B10D0F4
:100630003B681B88302B0CD03B681B88602B08D094
:100640003B681B88702B04D06D484FF4B87101F0E3
:100650008FFA3B685B88002B08D03B685B88012BD6
:1006600004D0674840F2711101F082FA3B681B899F
:10067000002B08D03B681B89022B04D060484FF444
:10068000B97101F075FA7B681B8C9BB223F01003E3
:100690009AB27B681A847B681B8CFB817B689B8881
:1006A000BB817B681B8B7B817B8923F4E0437B814F
:1006B0007B8923F440737B813B681B881B029AB2C1
:1006C0007B8913437B81FB8923F02003FB813B68FB
:1006D0001B891B019AB2FB891343FB813B685B8832
:1006E0001B019AB2FB891343FB817B683C4A93420E
:1006F00003D07B683E4A934261D13B689B88002BC4
:1007000008D03B689B88042B04D03D4840F28F11F1
:1007100001F02EFA3B685B89002B08D03B685B89AF
:10072000082B04D036484FF4C87101F021FA3B6819
:10073000DB89B3F5007F08D03B68DB89002B04D050
:100740002F4840F2911101F013FA3B689B89B3F5F1
:10075000807F08D03B689B89002B04D028484FF449
:10076000C97101F005FAFB8923F08003FB813B6826
:100770005B891B019AB2FB891343FB81FB8923F040
:100780004003FB813B689B881B019AB2FB891343A2
:10079000FB81BB8923F48063BB81BB8923F40063A5
:1007A000BB813B689B899B009AB2BB891343BB8189
:1007B0003B68DB899B009AB2BB891343BB817B6892
:1007C000BA899A807B687A891A833B68DA887B6861
:1007D0001A877B68FA891A841037BD4680BD00BF2E
:1007E000002C01400004004000080040000C0040C4
:1007F00000340140004C014000180040004001401E
:10080000948F000880B584B000AF78603960002311
:100810007B810023FB810023BB817B687E4A93425E
:1008200018D07B68B3F1804F14D07B687B4A934229
:1008300010D07B687A4A93420CD07B68794A934205
:1008400008D07B68784A934204D0784840F2C111BE
:1008500001F08EF93B681B88002B18D03B681B8881
:10086000102B14D03B681B88202B10D03B681B88B2
:10087000302B0CD03B681B88602B08D03B681B8852
:10088000702B04D069484FF4E17101F071F93B68B5
:100890005B88002B08D03B685B88012B04D0634841
:1008A00040F2C31101F064F93B681B89002B08D0AA
:1008B0003B681B89022B04D05C484FF4E27101F0C5
:1008C00057F97B681B8C9BB223F480739AB27B68C8
:1008D0001A847B681B8CFB817B689B88BB817B684F
:1008E0009B8B7B817B8923F070037B817B8923F049
:1008F00003037B813B681A887B8913437B81FB89D7
:1009000023F40073FB813B681B891B029AB2FB89AD
:100910001343FB813B685B881B029AB2FB8913433C
:10092000FB817B683C4A934203D07B683E4A9342FA
:1009300061D13B689B88002B08D03B689B88042BC7
:1009400004D03A484FF4F07101F012F93B685B892A
:10095000002B08D03B685B89082B04D0334840F259
:10096000E11101F005F93B68DB89B3F5007F08D0A0
:100970003B68DB89002B04D02C484FF4F17101F067
:10098000F7F83B689B89B3F5807F08D03B689B896B
:10099000002B04D0254840F2E31101F0E9F8FB896F
:1009A00023F40063FB813B685B891B029AB2FB89DD
:1009B0001343FB81FB8923F48063FB813B689B88A5
:1009C0001B029AB2FB891343FB81BB8923F480533A
:1009D000BB81BB8923F40053BB813B689B891B010E
:1009E0009AB2BB891343BB813B68DB891B019AB276
:1009F000BB891343BB817B68BA899A807B687A89FB
:100A00009A833B68DA887B689A877B68FA891A84BC
:100A10001037BD4680BD00BF002C014000040040DF
:100A200000080040000C004000340140948F000892
:100A300080B584B000AF786039600023BB810023AB
:100A40007B810023FB817B685B4A934218D07B68E3
:100A5000B3F1804F14D07B68584A934210D07B6822
:100A6000574A93420CD07B68564A934208D07B6821
:100A7000554A934204D055484FF4047101F078F878
:100A80003B681B88002B18D03B681B88102B14D0A8
:100A90003B681B88202B10D03B681B88302B0CD068
:100AA0003B681B88602B08D03B681B88702B04D0E8
:100AB000464840F2112101F05BF83B685B88002B4F
:100AC00008D03B685B88012B04D0404840F21221DB
:100AD00001F04EF83B681B89002B08D03B681B894E
:100AE000022B04D0394840F2132101F041F87B6811
:100AF0001B8C9BB223F480539AB27B681A847B6868
:100B00001B8C7B817B689B88FB817B689B8BBB817B
:100B1000BB8923F4E043BB81BB8923F44073BB81D1
:100B20003B681B881B029AB2BB891343BB817B893C
:100B300023F400537B813B681B891B039AB27B899A
:100B400013437B813B685B881B039AB27B89134309
:100B50007B817B68184A934203D07B681A4A934290
:100B600018D13B689B89B3F5807F08D03B689B898F
:100B7000002B04D015484FF40C7100F0F9FFFB89ED
:100B800023F48043FB813B689B899B019AB2FB89DC
:100B90001343FB817B68FA899A807B68BA899A83C0
:100BA0003B68DA887B68A3F840207B687A891A84DE
:100BB0001037BD4680BD00BF002C0140000400403E
:100BC00000080040000C004000340140948F0008F1
:100BD00080B582B000AF78600B46FB707B68354A09
:100BE000934244D07B68B3F1804F40D07B68324A57
:100BF00093423CD07B68314A934238D07B68304A7C
:100C0000934234D07B682F4A934230D07B682E4A7F
:100C100093422CD07B682D4A934228D07B682C4A83
:100C2000934224D07B682B4A934220D07B682A4A87
:100C300093421CD07B68294A934218D07B68284A8B
:100C4000934214D07B68274A934210D07B68264A8F
:100C500093420CD07B68254A934208D07B68244A93
:100C6000934204D0234840F2293100F081FFFB7801
:100C7000002B07D0FB78012B04D01E4840F22A310C
:100C800000F076FFFB78002B08D07B681B889BB2B6
:100C900043F001039AB27B681A8007E07B681B88E7
:100CA0009BB223F001039AB27B681A800837BD46D5
:100CB00080BD00BF002C014000040040000800403F
:100CC000000C0040001000400014004000340140BF
:100CD000004C014000500140005401400018004009
:100CE000001C004000200040004001400044014042
:100CF00000480140948F000880B582B000AF786052
:100D00000B46FB707B68354A934244D07B68B3F155
:100D1000804F40D07B68324A93423CD07B68314A56
:100D2000934238D07B68304A934234D07B682F4A54
:100D3000934230D07B682E4A93422CD07B682D4A58
:100D4000934228D07B682C4A934224D07B682B4A5C
:100D5000934220D07B682A4A93421CD07B68294A60
:100D6000934218D07B68284A934214D07B68274A64
:100D7000934210D07B68264A93420CD07B68254A68
:100D8000934208D07B68244A934204D0234840F21F
:100D9000845100F0EDFEFB78002B07D0FB78012B8F
:100DA00004D01E4840F2855100F0E2FEFB78002B93
:100DB00008D07B681B889BB243F080039AB27B68A3
:100DC0001A8007E07B681B889BB223F080039AB2ED
:100DD0007B681A800837BD4680BD00BF002C0140EB
:100DE0000004004000080040000C004000100040DB
:100DF0000014004000340140004C0140005001400C
:100E00000054014000180040001C00400020004039
:100E1000004001400044014000480140948F000818
:100E200080B584B000AF78600B467B800023FB81E7
:100E30007B682E4A93423CD07B68B3F1804F38D018
:100E40007B682B4A934234D07B682A4A934230D045
:100E50007B68294A93422CD07B68284A934228D049
:100E60007B68274A934224D07B68264A934220D04D
:100E70007B68254A93421CD07B68244A934218D051
:100E80007B68234A934214D07B68224A934210D055
:100E90007B68214A93420CD07B68204A934208D059
:100EA0007B681F4A934204D01E4840F2E95100F08B
:100EB0005FFE7B88082B07D07B88002B04D0194865
:100EC00040F2EA5100F054FE7B681B8BFB81FB89EA
:100ED00023F00803FB81FA897B881343FB817B683D
:100EE000FA891A831037BD4680BD00BF002C01402F
:100EF0000004004000080040000C004000340140A5
:100F0000004C0140005001400054014000180040D6
:100F1000001C00400020004000400140004401400F
:100F200000480140948F000880B584B000AF78601D
:100F30000B467B800023FB817B68234A934224D0AD
:100F40007B68B3F1804F20D07B68204A93421CD04D
:100F50007B681F4A934218D07B681E4A934214D084
:100F60007B681D4A934210D07B681C4A93420CD088
:100F70007B681B4A934208D07B681A4A934204D08C
:100F8000194840F2026100F0F3FD7B88082B07D07E
:100F90007B88002B04D0144840F2036100F0E8FD88
:100FA0007B681B8BFB81FB8923F40063FB817B88BF
:100FB0001B029AB2FB891343FB817B68FA891A836F
:100FC0001037BD4680BD00BF002C0140000400402A
:100FD00000080040000C004000340140004C01407B
:100FE0000018004000400140948F000880B584B094
:100FF00000AF78600B467B800023FB817B681C4A36
:10100000934218D07B68B3F1804F14D07B68194AA3
:10101000934210D07B68184A93420CD07B68174AE1
:10102000934208D07B68164A934204D0154840F298
:101030001A6100F09DFD7B88082B07D07B88002B70
:1010400004D0104840F21B6100F092FD7B689B8B3E
:10105000FB81FB8923F00803FB81FA897B8813431A
:10106000FB817B68FA899A831037BD4680BD00BF3B
:10107000002C01400004004000080040000C00402B
:1010800000340140948F000880B584B000AF7860D0
:101090000B467B800023FB817B681D4A934218D05E
:1010A0007B68B3F1804F14D07B681A4A934210D00A
:1010B0007B68194A93420CD07B68184A934208D047
:1010C0007B68174A934204D0164840F2326100F020
:1010D0004FFD7B88082B07D07B88002B04D011485C
:1010E00040F2336100F044FD7B689B8BFB81FB8900
:1010F00023F40063FB817B881B029AB2FB891343B4
:10110000FB817B68FA899A831037BD4680BD00BF9A
:10111000002C01400004004000080040000C00408A
:1011200000340140948F000880B582B000AF104BAE
:101130007B60104B3B6007E03B681A1D3A607A68A1
:10114000111D796012681A603B680B4A9342F3D311
:101150000A480B494FF000028842B8BF40F8042B00
:10116000FADB00F013F800F0F1FC0837BD4680BD53
:101170008095000800000020E0080020E008002022
:10118000D40B002080B400AFFEE700BF80B500AFF5
:10119000164A164B1B6843F0010313601349134BA7
:1011A0005A68134B13404B60104A104B1B6823F0D6
:1011B000847323F4803313600C4A0C4B1B6823F4B4
:1011C00080231360094A094B5B6823F4FE035360D4
:1011D000064B4FF41F029A60044B0022DA6200F0C3
:1011E0000BF8044B4FF000629A6080BD0010024083
:1011F0000000FFF800ED00E080B500AF00F002F85D
:1012000080BD00BF80B483B000AF00237B600023AB
:101210003B60304A2F4B1B6843F4803313602D4BE7
:101220001B6803F400333B607B6801337B603B68E1
:10123000002B03D17B68B3F5A06FF0D1254B1B6861
:1012400003F40033002B02D001233B6001E00023B4
:101250003B603B68012B37D11E4A1E4B5B685360D5
:101260001C4A1C4B5B6853601A4A1A4B5B685360FC
:10127000184A184B5B6823F47C135360154A154BCE
:101280005B6843F498135360124A124B1B6843F097
:101290008073136000BF0F4B1B6803F00073002BBB
:1012A000F9D00C4A0B4B5B6823F003035360094AE7
:1012B000084B5B6843F00203536000BF054B5B685B
:1012C00003F00C03082BF9D10C37BD465DF8047B05
:1012D000704700BF0010024080B586B000AF44F2F6
:1012E0000400012100F0BAFF4FF40073BB82182301
:1012F000FB750323BB7507F114034648194600F03C
:101300006FFA4FF48063BB820423FB750323BB7524
:1013100007F114033F48194600F062FA4FF4E13335
:101320007B6000233B8100237B810023BB81002362
:101330003B820C23FB813B1D3748194600F0FEFF22
:101340003548012101F056F94FF40030012100F039
:10135000BDFF0423BB821823FB750323BB7507F174
:1013600014032C48194600F03BFA0823BB820423DF
:10137000FB750323BB7507F114032648194600F0DB
:101380002FFA4FF4E1337B6000233B8100237B8104
:101390000023BB8100233B820C23FB813B1D1F48A4
:1013A000194600F0CBFF1D48012101F023F9252348
:1013B0003B7000237B700023BB700123FB703B4616
:1013C000184601F027FE144840F22551012201F091
:1013D0005FF9114840F22771012201F059F92623E3
:1013E0003B7000237B700023BB700123FB703B46E6
:1013F000184601F00FFE094840F22551012201F084
:1014000047F9064840F22771012201F041F91837E7
:10141000BD4680BD00080140003801400044004046
:1014200098B500AF3A484FF4807100F003FB39489B
:1014300040F2255101F0CCFA0346012B2CD1354B5B
:101440001B889BB203F00F03002B22D1324B1C6888
:10145000631C314A13602F4801F00CFA0346DAB2DC
:101460002E4B1A552C4B1B68802B02D12A4B002285
:101470001A602B4B1B680133294A1360284B1B68E9
:10148000802B09D1264B00221A60264B01221A70AC
:1014900002E0204801F0EEF91E484FF4587101F0C7
:1014A00097FA0346012B02D11A4801F0E3F91948D3
:1014B00040F2277101F08CFA0346012B22D11A4B1E
:1014C0001B68002B18D0184B1B68013B164A136091
:1014D000164B1B685A1C15490A60154AD35C9BB20F
:1014E0000C48194601F088F9104B1B68802B09D174
:1014F0000E4B00221A6005E0064840F227710022D8
:1015000001F0C6F802484FF4807100F0D9FA98BD96
:101510000010014000380140E0080020D009002000
:10152000E8080020EC080020F8080020F40800205B
:10153000D00A002080B483B000AF00237B6007E0B6
:10154000074A7B68134400221A707B6801337B6072
:101550007B687F2BF4DD0C37BD465DF8047B70475C
:10156000500B002098B500AF3A484FF4807100F05E
:1015700061FA394840F2255101F02AFA0346012B5D
:101580002CD1354B1B889BB203F00F03002B22D1CB
:10159000324B1C68631C314A13602F4801F06AF912
:1015A0000346DAB22E4B1A552C4B1B68802B02D106
:1015B0002A4B00221A602B4B1B680133294A136007
:1015C000284B1B68802B09D1264B00221A60264B22
:1015D00001221A7002E0204801F04CF91E484FF435
:1015E000587101F0F5F90346012B02D11A4801F0B8
:1015F00041F9194840F2277101F0EAF90346012B3D
:1016000022D11A4B1B68002B18D0184B1B68013BCA
:10161000164A1360164B1B685A1C15490A60154A76
:10162000D35C9BB20C48194601F0E6F8104B1B68DE
:10163000802B09D10E4B00221A6005E0064840F2CB
:101640002771002201F024F802484FF4807100F065
:1016500037FA98BD0010014000440040FC0800200B
:101660005009002004090020080900201409002066
:1016700010090020500A002080B582B000AF00BFE2
:10168000144B1B68002BFBD0134B1B685A1C1249D0
:101690000A60124AD35CFB710F4B1B68802B02D18E
:1016A0000D4B00221A600E4840F22551002200F036
:1016B000EFFF084B1B68013B064A1360084840F2E5
:1016C0002551012200F0E4FFFB7918460837BD469A
:1016D00080BD00BF0409002000090020500900203F
:1016E0000044004080B582B000AF0346FB7100BFEC
:1016F0001C4B1B68802BFBD01B4840F2277100223B
:1017000000F0C6FF174B1B68002B06D1164880213E
:1017100001F0E4F80346002B1AD1144B1B685A1C45
:1017200012490A601249FA79CA54104B1B68802B7F
:1017300002D10E4B00221A600A4B1B680133094A82
:101740001360094840F22771012200F0A1FF05E073
:10175000FB799BB20448194601F04EF80837BD46A4
:1017600080BD00BF14090020004400400C09002087
:10177000500A002080B582B000AF786006E07B6838
:101780005A1C7A601B781846FFF7ACFF7B681B7801
:10179000002BF4D10837BD4680BD00BF80B584B0B2
:1017A00000AF7860FFF7C6FE0023FB6011E0FFF793
:1017B00063FF0346FB72FB7A0D2B05D07B685A1C36
:1017C0007A60FA7A1A7001E08023FB60FB680133CB
:1017D000FB60FB687F2BEAD91037BD4680BD00BF98
:1017E00080B588B000AF786039600023FB610023CA
:1017F0003B610023BB610023FB6000237B6100236E
:10180000BB607B68834A93421BD07B68824A9342C9
:1018100017D07B68814A934213D07B68804A9342F9
:101820000FD07B687F4A93420BD07B687E4A9342FD
:1018300007D07B687D4A934203D07D48B22100F0F7
:1018400097F93B68DB78002B1FD03B68DB78042BD3
:101850001BD03B68DB78282B17D03B68DB78482B04
:1018600013D03B68DB78142B0FD03B68DB78102B50
:101870000BD03B68DB781C2B07D03B68DB78182B40
:1018800003D06B48B32100F073F93B681B88002B31
:1018900003D16748B42100F06BF93B68DB7803F0B3
:1018A0000F03FB613B68DB7803F01003002B15D0BE
:1018B0003B689B78012B0BD03B689B78022B07D0B1
:1018C0003B689B78032B03D05948BB2100F050F9AB
:1018D0003B689B781A46FB691343FB613B681B8896
:1018E000DBB2002B44D07B681B687B610023BB61AB
:1018F00038E0BB69012202FA03F3FB603B681B88F6
:101900001A46FB6813403B613A69FB689A4226D14C
:10191000BB699B00FB60FB680F2202FA03F3BB600C
:10192000BB68DB437A6913407B61FB68FA6902FAA2
:1019300003F37A6913437B613B68DB78282B05D17D
:10194000BB6901229A407B685A6108E03B68DB78FA
:10195000482B04D1BB6901229A407B681A61BB699C
:101960000133BB61BB69072BC3D97B687A691A60F5
:101970003B681B88FF2B4AD97B685B687B6100232F
:10198000BB613EE0BB6908331A4601239340FB600C
:101990003B681B881A46FB6813403B613A69FB6849
:1019A0009A422BD1BB699B00FB60FB680F2202FAB5
:1019B00003F3BB60BB68DB437A6913407B61FB6860
:1019C000FA6902FA03F37A6913437B613B68DB78B7
:1019D000282B07D1BB6908331A46012303FA02F208
:1019E0007B685A613B68DB78482B07D1BB690833B9
:1019F0001A46012303FA02F27B681A61BB690133BC
:101A0000BB61BB69072BBDD97B687A695A602037F7
:101A1000BD4680BD00080140000C0140001001409F
:101A20000014014000180140001C0140002001404A
:101A3000D08F000880B582B000AF78600B467B8005
:101A40007B68174A93421CD07B68164A934218D091
:101A50007B68154A934214D07B68144A934210D095
:101A60007B68134A93420CD07B68124A934208D099
:101A70007B68114A934204D0104840F2691100F08B
:101A800077F87B88002B04D10C484FF4B57100F037
:101A90006FF87A887B681A610837BD4680BD00BF41
:101AA00000080140000C01400010014000140140FA
:101AB00000180140001C014000200140D08F0008A8
:101AC00080B582B000AF78600B467B807B68174A98
:101AD00093421CD07B68164A934218D07B68154A03
:101AE000934214D07B68144A934210D07B68134A07
:101AF00093420CD07B68124A934208D07B68114A0B
:101B0000934204D0104840F2791100F031F87B88FC
:101B1000002B04D10C484FF4BD7100F029F87A88ED
:101B20007B685A610837BD4680BD00BF0008014090
:101B3000000C014000100140001401400018014059
:101B4000001C014000200140D08F000880B500AF8C
:101B5000FFF71CFB01F01AF801F000F801F0A2F801
:101B6000FFF7BAFB01F0D4FA01F042FBFEE700BF39
:101B700080B483B000AF78603960FEE780B483B092
:101B800000AF78600B46FB707B68FA781A7001230F
:101B900018460C37BD465DF8047B704780B485B0AD
:101BA00000AF786039600023FB600AE07B685A1C54
:101BB0007A603A68511C396012781A70FB680133F8
:101BC000FB603B681B78002BF0D1FB68184614378C
:101BD000BD465DF8047B704780B586B000AFF86005
:101BE0007A603B600B46FB7200237B617B68013BA4
:101BF0007B603B68092B10D93B681E4AA2FB03237C
:101C0000DB08FA7AF86811467A68FFF7E5FF786131
:101C10007B69FA681344FB6011E00DE0FB7AF86819
:101C20001946FFF7ABFFFB680133FB607B690133AB
:101C30007B617B68013B7B607B68002BEEDC396855
:101C40000C4BA3FB0123DA0813469B0013445B00F3
:101C5000CA1AD3B23033DBB2F8681946FFF78EFFE9
:101C600002467B6913447B617B6918461837BD4681
:101C700080BD00BFCDCCCCCC90B587B000AFF860B4
:101C80007A603B600B46FB7200237B613B68002B54
:101C900003DA3B685B423B6101E03B683B617B6888
:101CA000013B7B603B69092B25D93B68002B0FDA90
:101CB0003B69314AA2FB0323DB085B421C46FB7AEB
:101CC000F86819467A682346FFF7D6FF78610DE079
:101CD0003B69294AA2FB0323DB081C46FB7AF86810
:101CE00019467A682346FFF7C7FF78617B69FA686F
:101CF0001344FB6025E03B68002B02DA7B68013B64
:101D00007B600DE0FB7AF8681946FFF737FFFB6848
:101D10000133FB607B6901337B617B68013B7B6046
:101D20007B68002BEEDC3B68002B0ADAF8682D217B
:101D3000FFF724FF02467B6913447B61FB68013394
:101D4000FB6039690C4BA3FB0123DA0813469B00A7
:101D500013445B00CA1AD3B23033DBB2F8681946B9
:101D6000FFF70CFF02467B6913447B617B691846D1
:101D70001C37BD4690BD00BFCDCCCCCC90B589B052
:101D800002AFF8607A601A460B46FB721346BB72CC
:101D900000237B617B68013B7B60BB6A1B09002BD6
:101DA00013D0BB6A1B09FA7ABC7A0093F868114613
:101DB0007A682346FFF7E2FF02467B6913447B61A2
:101DC0007B69FA681344FB6011E00DE0FB7AF86868
:101DD0001946FFF7D3FEFB680133FB607B690133D3
:101DE0007B617B68013B7B607B68002BEEDCBB6A20
:101DF00003F00F03092B0BD8BB6ADBB203F00F0310
:101E0000DBB23033DBB2F8681946FFF7B7FE19E0F2
:101E1000BB7A002B0BD0BB6ADBB203F00F03DBB243
:101E20003733DBB2F8681946FFF7A8FE0AE0BB6A51
:101E3000DBB203F00F03DBB25733DBB2F8681946AD
:101E4000FFF79CFE7B6901337B617B6918461C3779
:101E5000BD4690BD90B58BB002AFF860B9607A60B6
:101E60003B600023BB6100237B61FB68002B02D039
:101E7000FB6800221A70FCE07B681B78252B0BD0D6
:101E8000FB685A1CFA607A68511C796012781A70E3
:101E90007B6901337B61ECE07B6801331B78252B88
:101EA0000BD1FB685A1CFA6025221A707B6802333A
:101EB0007B607B6901337B61DBE02023FB770023C0
:101EC000BB777B6801337B607B681B78302B04D148
:101ED0003023FB777B6801337B600EE0BB7F1A46C3
:101EE000920013445B00DAB27B681B781344DBB2C8
:101EF000303BBB777B6801337B607B681B782F2B83
:101F000003D97B681B78392BE8D9BA7F7B691344E6
:101F10001A46BB689A4205D9BB68DAB27B69DBB264
:101F2000D31ABB777B681B78583B202B00F2938039
:101F300001A252F823F000BF0F200008572000082C
:101F40005720000857200008572000085720000895
:101F50005720000857200008572000085720000885
:101F60005720000841200008BD1F00085720000826
:101F7000572000085720000857200008BD1F000800
:101F80005720000857200008572000085720000855
:101F90005720000857200008572000085720000845
:101FA000572000082D20000857200008D71F0008E0
:101FB0005720000857200008F11F0008BC7F3B682D
:101FC0001A1D3A601B68FA7FF86811462246FFF72F
:101FD00053FEB86142E0BC7F3B681A1D3A601B6843
:101FE000FA7FF86811462246FFF7F6FDB86135E042
:101FF000BC7F3B681A1D3A601B68FA7F0093F86843
:10200000114622460023FFF7B9FEB86126E0BC7FE7
:102010003B681A1D3A601B68FA7F0093F868114606
:1020200022460123FFF7AAFEB86117E03B681A1D9C
:102030003A601B68F8681946FFF7B0FDB8610DE01B
:102040003B681A1D3A601B68DBB2F8681946FFF757
:1020500095FDB86102E04FF0FF3325E07B68013366
:102060007B60BB69FA681344FB607A69BB691344FF
:102070007B617B681B78002B04D07A69BB689A422D
:10208000FFF4FAAE7A69BB689A4203D2FB68002279
:102090001A7008E0FB68013BFB60FB6800221A70C5
:1020A0007B69013B7B617B6918462437BD4690BD47
:1020B00080B584B000AFF860B9607A60F8686421D8
:1020C000BA687B68FFF7C6FE034618461037BD4660
:1020D00080BD00BF0EB480B585B000AF786007F159
:1020E0002003BB607868F969BA68FFF7E1FFF86020
:1020F000FB6818461437BD46BDE8804003B0704702
:1021000080B489B000AF78600023FB610023BB611D
:1021100000237B6100233B610023FB604A4B5B682B
:1021200003F00C03FB61FB69042B07D0082B09D0DB
:10213000002B2FD17B68454A1A602FE07B68434A09
:102140001A602BE0404B5B6803F47013BB613E4B9D
:102150005B6803F480337B61BB699B0C0233BB611A
:102160007B69002B06D1BB69394A02FB03F27B680D
:102170001A6013E0344BDB6A03F00F030133FB609A
:10218000324AFB68B2FBF3F3BA6902FB03F27B68E5
:102190001A6003E07B682D4A1A6000BF2A4B5B6817
:1021A00003F0F003FB61FB691B09FB61294AFB6932
:1021B00013441B78DBB23B617B681A683B69DA40E9
:1021C0007B685A60204B5B6803F4E063FB61FB694A
:1021D0001B0AFB611F4AFB6913441B78DBB23B619E
:1021E0007B685A683B69DA407B689A60164B5B688B
:1021F00003F46053FB61FB69DB0AFB61154AFB6971
:1022000013441B78DBB23B617B685A683B69DA4058
:102210007B68DA600C4B5B6803F44043FB61FB694D
:102220009B0BFB610C4AFB6913441B78DBB23B61DF
:102230007B68DA683B69B2FBF3F27B681A6124378A
:10224000BD465DF8047B70470010024000127A0022
:1022500000093D00000000201000002080B582B081
:1022600000AF78600B46FB707A68154B1340002B6B
:1022700002D17B68002B04D1124840F24A41FFF79B
:1022800077FCFB78002B07D0FB78012B04D00D489E
:1022900040F24B41FFF76CFCFB78002B06D00A495B
:1022A000094B9A697B6813438B6106E00649064B2C
:1022B0009A697B68DB4313408B610837BD4680BD5C
:1022C0000200C0FF0C9000080010024080B582B0F0
:1022D00000AF78600B46FB707A68154B1340002BFB
:1022E00002D17B68002B04D1124840F26941FFF70C
:1022F0003FFCFB78002B07D0FB78012B04D00D4866
:1023000040F26A41FFF734FCFB78002B06D00A4903
:10231000094BDA697B681343CB6106E00649064B3B
:10232000DA697B68DB431340CB610837BD4680BD6B
:10233000003601810C9000080010024080B58CB07E
:1023400000AF786039600023FB620023BB6200238A
:102350007B6200233B620023FB617B689D4A9342C2
:1023600013D07B689C4A93420FD07B689B4A934270
:102370000BD07B689A4A934207D07B68994A934274
:1023800003D09948B821FFF7F3FB3B681B68002B8B
:1023900004D03B681B68954A934203D99248B921FF
:1023A000FFF7E6FB3B689B88002B08D03B689B88C7
:1023B000B3F5805F03D08C48BA21FFF7D9FB3B68A7
:1023C000DB88002B12D03B68DB88B3F5805F0DD033
:1023D0003B68DB88B3F5005F08D03B68DB88B3F56A
:1023E000405F03D08048BB21FFF7C2FB3B681B89DD
:1023F000002B0DD03B681B89B3F5806F08D03B687C
:102400001B89B3F5C06F03D07748BC21FFF7B0FB41
:102410003B685B891A464FF6F3731340002B03D1D8
:102420003B685B89002B03D16F48BD21FFF7A0FB00
:102430003B689B89002B12D03B689B89B3F5807F5A
:102440000DD03B689B89B3F5007F08D03B689B8922
:10245000B3F5407F03D06448BE21FFF789FB3B689A
:102460009B89002B0FD07B685A4A93420BD07B6824
:10247000594A934207D07B68584A934203D05A483E
:10248000C221FFF775FB7B68FB617B681B8A9BB2EF
:10249000FB62FA6A4CF6FF731340FB623B68DB8811
:1024A0001A46FB6A1343FB62FB6A9AB27B681A8284
:1024B0007B689B899BB2FB62FA6A4EF6F31313406A
:1024C000FB623B689A883B681B8913439AB23B685E
:1024D0005B8913439BB21A46FB6A1343FB62FB6A98
:1024E0009AB27B689A817B689B8A9BB2FB62FA6A8C
:1024F0004FF6FF431340FB623B689B891A46FB6A19
:102500001343FB62FB6A9AB27B689A8207F1080365
:102510001846FFF7F5FDFB692E4A934202D17B690D
:10252000BB6201E03B69BB627B689B899BB29BB24B
:102530001BB2002B0CDABA6A13469B0013449A00B4
:102540001A443B681B685B00B2FBF3F37B620BE051
:10255000BA6A13469B0013449A001A443B681B68EE
:102560009B00B2FBF3F37B627B6A214AA2FB03234D
:102570005B091B01FB62FB6A1B09642202FB03F37C
:102580007A6AD31A3B627B689B899BB29BB21BB26F
:10259000002B0CDA3B6ADB003233154AA2FB032323
:1025A0005B0903F00703FA6A1343FB620BE03B6A23
:1025B0001B0132330E4AA2FB03235B0903F00F0316
:1025C000FA6A1343FB62FB6A9AB27B681A8130375E
:1025D000BD4680BD00380140004400400048004036
:1025E000004C0040005000404890000820AA4400E1
:1025F0001F85EB5180B582B000AF78600B46FB7051
:102600007B681D4A934214D07B681C4A934210D0C9
:102610007B681B4A93420CD07B681A4A934208D0CD
:102620007B68194A934204D018484FF4B171FFF700
:102630009FFAFB78002B07D0FB78012B04D01348BE
:1026400040F26311FFF794FAFB78002B08D07B6807
:102650009B899BB243F400539AB27B689A8107E04E
:102660007B689B899BB223F400539AB27B689A8162
:102670000837BD4680BD00BF00380140004400401F
:1026800000480040004C00400050004048900008C6
:1026900080B586B000AF78600B467B8013467B70B8
:1026A00000233B610023FB600023BB6000237B61B0
:1026B0007B684B4A934214D07B684A4A934210D0BD
:1026C0007B68494A93420CD07B68484A934208D0C1
:1026D0007B68474A934204D0464840F28911FFF78D
:1026E00047FA7B88282B25D07B8840F227729342BB
:1026F00020D07B8840F2266293421BD07B8840F238
:102700002552934216D07B8840F22442934211D046
:102710007B8840F6460293420CD07B8840F66A12D2
:10272000934207D07B88602B04D032484FF4C571A8
:10273000FFF71EFA7B78002B07D07B78012B04D0A3
:102740002C4840F28B11FFF713FA7B8840F66A128F
:10275000934210D17B68224A93420CD07B68214A75
:10276000934208D07B68204A934204D0214840F22B
:102770008F11FFF7FDF97B687B617B88DBB25B091A
:10278000DBB23B617B8803F01F03FB60FB68012227
:1027900002FA03F3BB603B69012B03D17B690C3365
:1027A0007B6109E03B69022B03D17B6910337B61BC
:1027B00002E07B6914337B617B78002B06D07B6958
:1027C0007A691168BA680A431A6006E07B697A6917
:1027D0001168BA68D2430A401A601837BD4680BDF6
:1027E000003801400044004000480040004C0040D8
:1027F000005000404890000880B582B000AF78607B
:102800000B467B807B68154A934214D07B68144A40
:10281000934210D07B68134A93420CD07B68124AD3
:10282000934208D07B68114A934204D0104840F28A
:102830005321FFF79DF97B88B3F5007F04D30C4843
:102840004FF41571FFF794F97B88C3F308039AB22C
:102850007B689A800837BD4680BD00BF00380140C4
:102860000044004000480040004C00400050004040
:102870004890000880B582B000AF78607B68114A4C
:10288000934214D07B68104A934210D07B680F4A61
:1028900093420CD07B680E4A934208D07B680D4A65
:1028A000934204D00C484FF41971FFF761F97B682B
:1028B0009B889BB2C3F308039BB218460837BD46FA
:1028C00080BD00BF00380140004400400048004087
:1028D000004C0040005000404890000880B584B093
:1028E00000AF78600B467B800023FB737B68324A25
:1028F000934214D07B68314A934210D07B68304AAF
:1029000093420CD07B682F4A934208D07B682E4AB2
:10291000934204D02D4840F26E31FFF729F97B88AD
:10292000012B21D07B88802B1ED07B88402B1BD095
:102930007B88202B18D07B88102B15D07B88B3F593
:10294000807F11D07B88B3F5007F0DD07B88082B6A
:102950000AD07B88042B07D07B88022B04D01B482D
:1029600040F26F31FFF704F97B88B3F5007F10D197
:102970007B68114A93420CD07B68104A934208D07E
:102980007B680F4A934204D0104840F27331FFF73E
:10299000EFF87B681B889AB27B8813409BB2002BB0
:1029A00002D00123FB7301E00023FB73FB7B18467D
:1029B0001037BD4680BD00BF0038014000440040D4
:1029C00000480040004C0040005000404890000883
:1029D00080B586B000AF78600B467B800023FB603B
:1029E00000237B610023BB600023FB747B68554A96
:1029F000934214D07B68544A934210D07B68534A68
:102A000093420CD07B68524A934208D07B68514A6B
:102A1000934204D0504840F2C131FFF7A9F87B88B7
:102A2000282B2ED07B8840F22772934229D07B88B6
:102A300040F22662934224D07B8840F22552934292
:102A40001FD07B8840F2244293421AD07B8840F604
:102A50004602934215D07B8840F66A12934210D00A
:102A60007B88B3F5587F0CD07B88B3F5187F08D0EE
:102A70007B88B3F5B07F04D0374840F2C231FFF70E
:102A800077F87B8840F66A12934210D17B682D4A12
:102A900093420CD07B682C4A934208D07B682B4A27
:102AA000934204D02C4840F2C631FFF761F87B888E
:102AB000DBB25B09DBB2BB607B8803F01F037B6189
:102AC0007B69012202FA03F37B61BB68012B07D10A
:102AD0007B689B899BB21A467B6913407B6111E03E
:102AE000BB68022B07D17B681B8A9BB21A467B69A5
:102AF00013407B6106E07B689B8A9BB21A467B6928
:102B000013407B617B881B0A9BB2FB60FB68012240
:102B100002FA03F3FB607B681B889BB21A46FB68D2
:102B20001340FB607B69002B05D0FB68002B02D0B3
:102B30000123FB7401E00023FB74FB7C184618376B
:102B4000BD4680BD003801400044004000480040C0
:102B5000004C0040005000404890000880B582B012
:102B600000AF10200121FFF779FB4FF44073BB80C9
:102B70001023FB710223BB713B1D03481946FEF76E
:102B80002FFE0837BD4680BD0010014080B500AF64
:102B900001200121FFF79AFB4FF0804345F6BF5219
:102BA0001A854FF080434FF6FF729A854FF08043AD
:102BB00001221A80024B4FF400625A6080BD00BFB0
:102BC000002004E080B483B000AF0346FB804FF0E8
:102BD0008042FB8893854FF0804300229A8400BF97
:102BE0004FF080431B8A9BB203F00103002BF7D008
:102BF0004FF080424FF080431B8A9BB223F00103C9
:102C00009BB213820C37BD465DF8047B704700BF52
:102C100080B584B000AF78600B46FB700023FB7377
:102C200016E0FB7B0133FB730D484FF40071FEF798
:102C300001FF7B689BB21846FFF7C4FF08484FF4BA
:102C40000071FEF73DFF7B689BB21846FFF7BAFFA5
:102C5000FA7BFB789A42E4D91037BD4680BD00BFAD
:102C60000010014080B485B000AF78600B4B1B684A
:102C7000002B02D1094B0A4A1A60084B1B68FB6003
:102C8000064B1A687B681344044A1360FB681846B5
:102C90001437BD465DF8047B704700BF180900205B
:102CA000D40B002080B588B000AF06200121FFF7CB
:102CB0000DFB0D200121FFF7D1FAC0233B80182323
:102CC000FB700223BB703B464E481946FEF788FD59
:102CD00040F2C3333B803B464B481946FEF780FD2C
:102CE00048F2D0433B830D23BB8200237B83002328
:102CF000FB8207F1140345481946FDF713FA7023C8
:102D0000BB800223BB810123FB803B1D3F4819464A
:102D1000FDF702FB3D480821FEF782F80123FB8006
:102D20003B1D3A481946FDF743FC38480821FEF799
:102D3000FBF80123FB803B1D34481946FDF762FD7B
:102D400032480821FEF752F90123FB803B1D2F4832
:102D50001946FDF76DFE2D480821FEF795F92B4821
:102D60000121FDF7C9FF29480121FDF731FF48F294
:102D7000D0433B830D23BB8200237B830023FB8254
:102D800007F1140322481946FDF7CCF97023BB80E4
:102D90000223BB810123FB803B1D1D481946FDF723
:102DA000BBFA1B480821FEF73BF80123FB803B1DC3
:102DB00017481946FDF7FCFB15480821FEF7B4F843
:102DC0000123FB803B1D12481946FDF71BFD1048EF
:102DD0000821FEF70BF90123FB803B1D0C48194627
:102DE000FDF726FE0A480821FEF74EF908480121A2
:102DF000FDF782FF06480121FDF7EAFE2037BD46B8
:102E000080BD00BF00080140000C014000040040EC
:102E10000008004090B583B000AF0346FB800B4C28
:102E2000FB88184600F0FAFB094BD3E9002300F0B9
:102E30005BFC02460B461046194600F067FE03464F
:102E40009BB2A3860C37BD4690BD00BF0004004076
:102E50001800002090B583B000AF0346FB800B4CF8
:102E6000FB88184600F0DAFB094BD3E9002300F099
:102E70003BFC02460B461046194600F047FE03464F
:102E80009BB223870C37BD4690BD00BF00040040B5
:102E90001800002090B583B000AF0346FB800B4CB8
:102EA000FB88184600F0BAFB094BD3E9002300F079
:102EB0001BFC02460B461046194600F027FE03464F
:102EC0009BB2A3870C37BD4690BD00BF00040040F5
:102ED0001800002090B583B000AF0346FB800B4C78
:102EE000FB88184600F09AFB094BD3E9002300F059
:102EF000FBFB02460B461046194600F007FE034650
:102F00009BB2A4F840300C37BD4690BD0004004091
:102F10001800002090B583B000AF0346FB800B4C37
:102F2000FB88184600F07AFB094BD3E9002300F038
:102F3000DBFB02460B461046194600F0E7FD034650
:102F40009BB2A3860C37BD4690BD00BF0008004071
:102F50001800002090B583B000AF0346FB800B4CF7
:102F6000FB88184600F05AFB094BD3E9002300F018
:102F7000BBFB02460B461046194600F0C7FD034650
:102F80009BB223870C37BD4690BD00BF00080040B0
:102F90001800002090B583B000AF0346FB800B4CB7
:102FA000FB88184600F03AFB094BD3E9002300F0F8
:102FB0009BFB02460B461046194600F0A7FD034650
:102FC0009BB2A3870C37BD4690BD00BF00080040F0
:102FD0001800002090B583B000AF0346FB800B4C77
:102FE000FB88184600F01AFB094BD3E9002300F0D8
:102FF0007BFB02460B461046194600F087FD034650
:103000009BB2A4F840300C37BD4690BD000800408C
:103010001800002080B586B000AF786000237B6187
:1030200000233B610F23FB607B68DB78002B07D01C
:103030007B68DB78012B03D032487521FEF798FDC1
:103040007B685B780F2B03D92E487621FEF790FD25
:103050007B689B780F2B03D92A487721FEF788FDE0
:103060007B68DB78002B3AD0274BDB68DB4303F42B
:10307000E0631B0A7B617B69C3F104033B617B69ED
:10308000FA6822FA03F3FB607B685B781A463B69B7
:1030900002FA03F37B617B689B781A46FB68134056
:1030A0007A6913437B617B691B017B61174A7B68EB
:1030B0001B787969C9B213440A4683F80023134A7E
:1030C0007B681B785B09DBB218467B681B7803F0D2
:1030D0001F03012101FA03F342F820300FE00B49EE
:1030E0007B681B785B09DBB218467B681B7803F0B2
:1030F0001F0301229A4000F1200341F823201837D2
:10310000BD4680BD8490000800ED00E000E100E0D5
:1031100080B500AFC820FFF755FD1A481A4900F0E6
:1031200045F81A481A4900F041F8C820FFF74AFD4F
:103130001848174900F03AF8C820FFF743FD164831
:10314000134900F033F84FF4FA70FFF73BFD1348D2
:103150000F4900F02BF8C820FFF734FD10480C4948
:1031600000F024F8C820FFF72DFD0E48084900F0B4
:103170001DF8C820FFF726FD0B48054900F016F89A
:1031800080BD00BFB8900008C4900008CC90000833
:10319000D4900008D8900008E8900008109100082A
:1031A00020910008309100084891000880B582B055
:1031B00000AF786039607868FEF7DCFA0B48FEF7FC
:1031C000EDFA0A48396800F075FE0346002BF5D089
:1031D0000648396800F06EFE0346002B03D01E201F
:1031E0000121FFF715FD0837BD4680BD500B0020BB
:1031F00080B500AF00F03EF81A481B4900F05AFEB7
:103200000346002B0DD11748184900F053FE034622
:10321000002B06D11348164900F04CFE0346002B44
:10322000E8D01048104900F045FE0346002B02D0BC
:1032300000F020F815E00B480C4900F03BFE034677
:10324000002B02D0FFF764FF0BE00648084900F0AE
:1032500031FE0346002B04D06420FFF7B3FCFFF7D8
:10326000C7FF80BD500B00207891000884910008B2
:103270008C91000880B586B006AF3348FEF78EFA11
:103280003148324900F016FE0346002B06D12E4885
:103290002F4900F00FFE0346002BEED02A482B49A1
:1032A00000F008FE0346002B43D02748FEF776FACD
:1032B000284B0093284B0193284B0293284B0393F0
:1032C000284B0493284B05931F482849284A294B2B
:1032D00000F03CFC264B1B681846FFF79BFD254B76
:1032E0001B681846FFF7B6FD1A4B1B681846FFF718
:1032F000D1FD194B1B681846FFF7ECFD174B1B68F7
:103300001846FFF707FE164B1B681846FFF722FE0C
:10331000144B1B681846FFF73DFE134B1B681846FD
:10332000FFF758FE08480A4900F0C4FD0346002B89
:10333000BBD00548064900F0BDFD0346002B01D077
:10334000FFF756FFBD4680BD500B0020949100084A
:10335000A0910008280000202C0000203000002050
:1033600034000020380000203C000020AC91000810
:10337000200000202400002081F0004102E000BF76
:1033800083F0004330B54FEA41044FEA430594EA25
:10339000050F08BF90EA020F1FBF54EA000C55EA60
:1033A000020C7FEA645C7FEA655C00F0E2804FEA31
:1033B0005454D4EB5555B8BF6D420CDD2C4480EA13
:1033C000020281EA030382EA000083EA010180EA43
:1033D000020281EA0303362D88BF30BD11F0004F91
:1033E0004FEA01314FF4801C4CEA113102D04042C7
:1033F00061EB410113F0004F4FEA03334CEA133302
:1034000002D0524263EB430394EA050F00F0A78019
:10341000A4F10104D5F1200E0DDB02FA0EFC22FA14
:1034200005F2801841F1000103FA0EF2801843FA08
:1034300005F359410EE0A5F120050EF1200E012AF9
:1034400003FA0EFC28BF4CF0020C43FA05F3C01837
:1034500051EBE37101F0004507D54FF0000EDCF1B0
:10346000000C7EEB00006EEB0101B1F5801F1BD359
:10347000B1F5001F0CD349085FEA30004FEA3C0C5D
:1034800004F101044FEA445212F5800F80F09A8053
:10349000BCF1004F08BF5FEA500C50F1000041EB57
:1034A000045141EA050130BD5FEA4C0C404141EB5B
:1034B000010111F4801FA4F10104E9D191F0000F82
:1034C00004BF01460020B1FA81F308BF2033A3F105
:1034D0000B03B3F120020CDA0C3208DD02F1140CFC
:1034E000C2F10C0201FA0CF021FA02F10CE002F137
:1034F0001402D8BFC2F1200C01FA02F120FA0CFC30
:10350000DCBF41EA0C019040E41AA2BF01EB045178
:10351000294330BD6FEA04041F3C1CDA0C340EDC76
:1035200004F11404C4F1200220FA04F001FA02F3B9
:1035300040EA030021FA04F345EA030130BDC4F177
:103540000C04C4F1200220FA02F001FA04F340EA6C
:103550000300294630BD21FA04F0294630BD94F01D
:10356000000F83F4801306BF81F480110134013D04
:103570004EE77FEA645C18BF7FEA655C29D094EA75
:10358000050F08BF90EA020F05D054EA000C04BFF3
:103590001946104630BD91EA030F1EBF00210020DE
:1035A00030BD5FEA545C05D14000494128BF41F07D
:1035B000004130BD14F580043CBF01F5801130BDE1
:1035C00001F0004545F0FE4141F470014FF000006C
:1035D00030BD7FEA645C1ABF194610467FEA655C1D
:1035E0001CBF0B46024650EA013406BF52EA0335BF
:1035F00091EA030F41F4002130BD00BF90F0000FAD
:1036000004BF0021704730B54FF4806404F13204E8
:103610004FF000054FF0000150E700BF90F0000FA1
:1036200004BF0021704730B54FF4806404F13204C8
:1036300010F0004548BF40424FF000013EE700BF98
:1036400042004FEAE2014FEA31014FEA02701FBF28
:1036500012F07F4393F07F4F81F06051704792F0FA
:10366000000F14BF93F07F4F704730B54FF4607474
:1036700001F0004521F0004120E700BF50EA0102BF
:1036800008BF704730B54FF000050AE050EA01026C
:1036900008BF704730B511F0004502D5404261EBDC
:1036A00041014FF4806404F132045FEA915C3FF41D
:1036B000DCAE4FF003025FEADC0C18BF03325FEAB6
:1036C000DC0C18BF033202EBDC02C2F1200300FA6B
:1036D00003FC20FA02F001FA03FE40EA0E0021FA90
:1036E00002F11444C1E600BF70B54FF0FF0C4CF47A
:1036F000E06C1CEA11541DBF1CEA135594EA0C0F30
:1037000095EA0C0F00F0DEF82C4481EA030621EA6A
:103710004C5123EA4C5350EA013518BF52EA0335A5
:1037200041F4801143F4801338D0A0FB02CE4FF057
:103730000005E1FB02E506F00042E0FB03E54FF087
:103740000006E1FB03569CF0000F18BF4EF0010E7F
:10375000A4F1FF04B6F5007F64F5407404D25FEA7B
:103760004E0E6D4146EB060642EAC62141EA55512E
:103770004FEAC52040EA5E504FEACE2EB4F1FD0C70
:1037800088BFBCF5E06F1ED8BEF1004F08BF5FEAEE
:10379000500E50F1000041EB045170BD06F00046A0
:1037A00046EA010140EA020081EA0301B4EB5C044D
:1037B000C2BFD4EB0C0541EA045170BD41F4801145
:1037C0004FF0000E013C00F3AB8014F1360FDEBF6A
:1037D000002001F0004170BDC4F10004203C35DA46
:1037E0000C341BDC04F11404C4F1200500FA05F3C9
:1037F00020FA04F001FA05F240EA020001F000426A
:1038000021F0004110EBD37021FA04F642EB0601DF
:103810005EEA430E08BF20EAD37070BDC4F10C0409
:10382000C4F1200500FA04F320FA05F001FA04F2CD
:1038300040EA020001F0004110EBD37041F10001B9
:103840005EEA430E08BF20EAD37070BDC4F12005C4
:1038500000FA05F24EEA020E20FA04F301FA05F22C
:1038600043EA020321FA04F001F0004121FA04F2D4
:1038700020EA020000EBD3705EEA430E08BF20EAA4
:10388000D37070BD94F0000F0FD101F000464000DE
:1038900041EB010111F4801F08BF013CF7D041EA60
:1038A000060195F0000F18BF704703F00046520064
:1038B00043EB030313F4801F08BF013DF7D043EA35
:1038C0000603704794EA0C0F0CEA135518BF95EAEB
:1038D0000C0F0CD050EA410618BF52EA4306D1D172
:1038E00081EA030101F000414FF0000070BD50EA91
:1038F000410606BF1046194652EA430619D094EA1B
:103900000C0F02D150EA013613D195EA0C0F05D104
:1039100052EA03361CBF104619460AD181EA030158
:1039200001F0004141F0FE4141F470014FF0000010
:1039300070BD41F0FE4141F4780170BD70B54FF0AB
:10394000FF0C4CF4E06C1CEA11541DBF1CEA13552B
:1039500094EA0C0F95EA0C0F00F0A7F8A4EB05040D
:1039600081EA030E52EA03354FEA013100F0888004
:103970004FEA03334FF0805545EA131343EA1263CD
:103980004FEA022245EA111545EA10654FEA002682
:103990000EF000419D4208BF964244F1FD0404F53B
:1039A000407402D25B084FEA3202B61A65EB030597
:1039B0005B084FEA32024FF480104FF4002CB6EB54
:1039C000020E75EB030E22BFB61A754640EA0C00D4
:1039D0005B084FEA3202B6EB020E75EB030E22BF14
:1039E000B61A754640EA5C005B084FEA3202B6EB55
:1039F000020E75EB030E22BFB61A754640EA9C0014
:103A00005B084FEA3202B6EB020E75EB030E22BFE3
:103A1000B61A754640EADC0055EA060E18D04FEAA1
:103A2000051545EA16754FEA06164FEAC30343EA41
:103A300052734FEAC2025FEA1C1CC0D111F4801F0E
:103A40000BD141EA00014FF000004FF0004CB6E707
:103A500011F4801F04BF01430020B4F1FD0C88BFA6
:103A6000BCF5E06F3FF6AFAEB5EB030C04BFB6EBB1
:103A7000020C5FEA500C50F1000041EB045170BDA4
:103A80000EF0004E4EEA113114EB5C04C2BFD4EBD1
:103A90000C0541EA045170BD41F480114FF0000E55
:103AA000013C90E645EA060E8DE60CEA135594EAD1
:103AB0000C0F08BF95EA0C0F3FF43BAF94EA0C0FD4
:103AC0000AD150EA01347FF434AF95EA0C0F7FF449
:103AD00025AF104619462CE795EA0C0F06D152EA9D
:103AE00003353FF4FDAE1046194622E750EA410681
:103AF00018BF52EA43067FF4C5AE50EA41047FF492
:103B00000DAF52EA43057FF4EBAE12E74A0011D243
:103B100012F5001211D20DD56FF47873B3EB625227
:103B20000ED44FEAC12343F0004343EA505323FA33
:103B300002F070474FF00000704750EA013002D1A8
:103B40004FF0FF3070474FF0000070470EB4F0B5F3
:103B50009CB021AC4FF4017254F8045BADF8142012
:103B60000290069000F020F84FF6FF7E06460B49C3
:103B70000B4F2A4623460025086802A901940396A4
:103B80000796ADF816E00A970E95139500F0A2FA85
:103B90001CB0BDE8F04003B0704700BF68040020CF
:103BA000A53B00080020704720F0030110F003003F
:103BB000C0F1000051F8043B00F1040C4FEACC0CBA
:103BC0006FF000021CBF22FA0CF213434FF0010CFD
:103BD0004CEA0C2C4CEA0C4CA3EB0C0222EA03023C
:103BE00012EACC1204BF51F8043B0430F4D0C2F105
:103BF000000102EA0102B2FA82F2C2F11F0200EBF6
:103C0000D20070472DE9F0414FF0010E74460025B7
:103C10004FF0FF3663198B4200EB06070DD23F5D74
:103C200010F803C0BC452DD21D460124C6EB030E7F
:103C300063198B4200EB0607F1D34FF001084446AD
:103C4000C2F800E000254FF0FF376319994200EBFE
:103C5000070E0ED91EF804E010F803C0F44518D979
:103C60001D460124C7EB03086319994200EB070EB8
:103C7000F0D80137701C874224BF3846C2F8008054
:103C8000BDE8F0810CD04FF0010E2E46744675440D
:103C9000C0E709D04FF001082F4644464544D4E719
:103CA000744505D00134B5E7444504D00134CCE770
:103CB0001D460124AEE71D460124C6E72DE9F04F5D
:103CC000ADF2144D164605468B461046194603AA1A
:103CD0001C46FFF797FF804603AB0DF20C4243F8FA
:103CE000044F9342FBD15CB13246631E371904A8DE
:103CF00012F8011BBA4240F8213003F1FF33F7D12B
:103D0000039930463144424601F088F900286DD1CC
:103D100008F1FF330093F31882460193234681464E
:103D2000544658469A4609EB0A073A1A0021284495
:103D300001F02AF9002840F0AC80002F00F0A980A3
:103D4000EB1913F8012C04AB53F822304BB124B11A
:103D5000039A934201D2C2EB0A03994400243846E5
:103D6000E1E74445234638BF43460AF1FF3E734529
:103D700013D203EB0902A85C16F803C02A44844559
:103D800006EB030106D02DE011F801CF12F8010F68
:103D9000844527D101337345F6D34445009980F01B
:103DA0008780009B019809EB0302AB5C00782A44F2
:103DB00098427DD1019B06EB040B06E013F801ED60
:103DC00012F8010D864504D161465B4501F1FF3CC7
:103DD000F4D101348C4256D8039C3846A144C4EB3C
:103DE0000A04A0E7C8F101029144B6E7C8EB040356
:103DF000434538BF434608F1FF3701330393F319B6
:103E00005846A246C34698464FF0000909EB0A04FB
:103E1000221A0021284401F0B7F8D0BBCCB32B19EB
:103E200013F8012C04AB53F82230C3BB0AF1FF3066
:103E3000834514D209EB0B02AB5C16F80BE02A4465
:103E40009E4506EB0B015B4606D02BE011F801CF37
:103E500012F801EFF44525D101338342F6D37B1CE0
:103E600011D009EB0702AB5C98F800102A44994284
:103E700014D1434605E013F8010D12F8011D8842E4
:103E80000CD1B342F7D105EB09000DF2144DBDE89A
:103E9000F08F00200DF2144DBDE8F08F039B994484
:103EA0002046B3E7CBF10102914499442046ADE7A7
:103EB00041468EE70278002A00F003812DE9F04F99
:103EC00091F8008085B04346B8F1000F15D08446C4
:103ED00001F1010E012402E01EF8013B63B19A4298
:103EE00014BF002404F001041CF8012F7746002AB7
:103EF000F2D19EF800301BB934B105B0BDE8F08FA7
:103F0000002005B0BDE8F08F0E4605464146013061
:103F100001F070F9BC1B07460028F1D0012CECD051
:103F20002819874294BFC7EB000B4FF0010B1F2CE1
:103F300008D93846594632462346FFF7BFFE05B03A
:103F4000BDE8F08F214603AA3046FFF75BFE0399D8
:103F5000804602463144304601F060F8002858D1CE
:103F600081460546B246584608F1FF330193F318DF
:103F700000932E19321A0021384401F005F8002868
:103F8000BED1002EBCD0C1454B4638BF43469C42F3
:103F900012D95A19B95C1AF803003A4488420AEB5C
:103FA000030E06D02DE01EF8010F12F8011F884203
:103FB00027D101339C42F6D8019BC845194640F2EF
:103FC00083800098EA18BB5C00783A4498427BD121
:103FD000009B0AEB090B06E013F801CD12F801ED86
:103FE000F44504D101465B4501F1FF30F4D109F1FC
:103FF000010989456AD8039B30461D44C3EB040977
:10400000B7E7C8F1010215441D444FF000093046DE
:10401000AFE7C8EB0403434508F1FF3238BF43461E
:1040200006EB02095846CB469146013303934FF005
:10403000000A0AEB04052A1A0021384400F0A4FF04
:1040400000287FF45DAF002D3FF45AAF444514D9EA
:104050000AEB0802BB5C16F808003A44984206EBEB
:104060000801434606D022E011F801EF12F8010FD3
:1040700086451CD101339C42F6D8B9F1FF3F11D0DF
:104080000AEB0902BB5C9BF800103A44994214D138
:104090005B4605E013F8010D12F8011D88420CD1B2
:1040A000B342F7D107EB0A0005B0BDE8F08FC8F1C5
:1040B000010292449A442846BBE7039B28469A444F
:1040C000B7E70B7823B97047414690E7781914E7B2
:1040D000002070472DE9F04F8A468989ADF52D7D86
:1040E0008E040290039309D4DAF8643041F400514D
:1040F00023F40053AAF80C10CAF86430164616F8D8
:10410000011B0023089306939B460793DFF85C840A
:10411000119179B3D8F8000043185B7803F00803D5
:1041200003F0FF055BB3DAF80430029C1A4612E094
:10413000DAF80030D8F800101A7801330A445278BF
:10414000150710D5DAF804200BF1010B013ACAF873
:104150000030CAF80420002AEADC2046514602F06A
:10416000B1FB0028E4D03246164616F8011B119127
:104170000029CFD107980DF52D7DBDE8F08F2529B9
:1041800040F082802C465378711C782B00F2B98263
:10419000DFE813F09300B702B702B702B702B70225
:1041A000B702B702B702B702B702B702B702B70247
:1041B000B702B702B702B702B702B702B702B70237
:1041C000B702B702B702B702B702B702B702B70227
:1041D000B702B702B702B702B702B702B702790057
:1041E000B702B702B702B7023002B702B702B7028E
:1041F000B702B7025A025A025A025A025A025A0225
:104200005A025A025A025A02B702B702B702B7025A
:10421000B702B702B702B702B702B7023502790296
:10422000B7027902B702B702B702B7027402B70247
:10423000B7026B02B702B702B702B702B702B70202
:10424000B702B7026202B702B7029902B702B70219
:10425000B702B702B702B702B7029402920279021C
:10426000790279028D029900B702B702AF02B70254
:104270007E027C02AB02B702B702A802B702A1021B
:10428000B702B70262020E46DAF80430002B40F3A0
:104290004085DAF8003016F8012C197891427FF445
:1042A00069AFDAF804200133013ACAF80420CAF8E9
:1042B00000300BF1010B324656E74FF0FF300DF5A1
:1042C0002D7DBDE8F08F0E46A64B032708930023F3
:1042D0000693DAF80430002B40F39E816B0610D56C
:1042E000013F032F00F2BE80DFE817F0E3009200E9
:1042F000220016020298514602F0E4FA002840F02B
:104300009281D8F80010DAF8002001E0CAF8002005
:10431000137801320B445B781807E1D5DAF80430E2
:104320000BF1010B013B002BCAF80430EEDCE1E796
:1043300054AA4FF00009099217464A46631EB3F586
:10434000AE7F86BF6FF4AE7163180023994688BFB5
:1043500040F25D145B469346B446069E45F45865AC
:10436000DAF800100878A0F12B024D2A00F2E18063
:10437000DFE812F02A01DF002A01DF00DF00FE0083
:10438000CA00CA00CA00CA00CA00CA00CA003A016C
:104390003A01DF00DF00DF00DF00DF00DF00DF00C9
:1043A000250125012501250125012501DF00DF006B
:1043B000DF00DF00DF00DF00DF00DF00DF00DF0005
:1043C000DF00DF00DF00DF00DF00DF00DF002F01A4
:1043D000DF00DF00DF00DF00DF00DF00DF00DF00E5
:1043E000250125012501250125012501DF00DF002B
:1043F000DF00DF00DF00DF00DF00DF00DF00DF00C5
:10440000DF00DF00DF00DF00DF00DF00DF002F0163
:10441000002C08BF4FF0FF3415F0010340F0C083BB
:10442000ED0640F13B831D46D8F80010DAF8002075
:10443000137801320B445B78180737D4DAF804306C
:104440000135013BAC428AE80C002FD0002BEFDC99
:104450000298514602F036FA40BBD8F80010DAF85C
:104460000020E5E7002C08BF012415F0010340F00F
:104470004683EA0640F12A841D46029F0BE01A4457
:10448000CAF80020384651461D44E41A02F01AFAD0
:10449000002840F015849AE80C00A342EFDB1B1BB8
:1044A0002244CAF804302544CAF80020AB443246FE
:1044B0005AE6002C08BF4FF0FF34EB0640F1BC82F7
:1044C000DAF80010002514AF0B780131FB5CB3B1B2
:1044D000DAF804300135013BAC428AE80A00E5D045
:1044E000002BF1DC0298514602F0ECF90028DDD1F6
:1044F000DAF800100B780131FB5C002BE8D1002DBD
:104500003FF438AEAB44D2E7174A25F4386532F9A8
:104510001660DAF804203870013A002A07F1010722
:10452000CAF804203EDD0131CAF80010013C7FF4D6
:1045300017AFEA050696D94666469B4607D5099BFE
:104540009F4200F2D983099B9F423FF413AE15F0BE
:10455000100400F04C83099B3246FF1A4F44BB44C1
:1045600002E600BF39620008DC9100086C040020FC
:104570002A05CED516B945F4007508266A0500F15E
:104580005E8325F46075B9F1000F02D009F1FF399F
:104590000134DAF804200BF1010B013A002ACAF8C1
:1045A0000420C0DC02985146CDF810C0069302F0FA
:1045B00089F9069BDDF810C00028B7D0B9E70A2EAC
:1045C000B7DD25F43865A4E72A06B2D525F08005C5
:1045D0009FE705F4C062B2F5007FAAD125F400750B
:1045E00045F4A065102694E7A34A32F91660082E18
:1045F000E7DC9EE7737845F010050E46C4E50E46ED
:1046000045F001059D4B032708930A230693DAF82A
:104610000430002B3FF762AE0298514602F052F987
:1046200000283FF45BAE079A002A3FF446AEBAF882
:104630000C3013F0400F134618BF4FF0FF331846ED
:104640000DF52D7DBDE8F08F04EB840403EB4404ED
:10465000303C73780E4697E50E4645F40075884B5E
:10466000032708931023069333E60E4645F0010511
:10467000834B03270893082306932AE6737845F0B3
:1046800002050E4680E50E46042722E60E46EFE7B9
:10469000EC060E463FF567AD680740F15383039A79
:1046A000136804320392A3F800B032465CE57378D5
:1046B00045F004050E4667E50E46A3E70E4645F0B5
:1046C0004005002705E614A800F054FD45F040051C
:1046D00006460127FDE56A4B0E4608930A2306931A
:1046E0000327F6E50E460227F3E50E4645F4087566
:1046F000B5E773786C2B00F01F8345F001050E467B
:1047000042E503445B780E4603F00303012B7FF47C
:1047100079AF45F0010575E7029800F0EDFB631EE7
:104720000268B3F5AE7F0D9240F283816FF4AE72F2
:10473000A31840F25D140C93002754AB0A969946D7
:104740003A463E4609930F970E970B9745F4F0654E
:10475000DAF800000178A1F12B0EBEF14E0F00F245
:104760003B81DFE81EF07B0039017B003901390114
:104770006F004F004F004F004F004F004F004F00A1
:104780004F004F003901390139013901390139012F
:10479000390134013901390139011D01180139018B
:1047A0003901A00039013901390139018F0039017E
:1047B00039013901390139018400390139013901DF
:1047C00039018000390139013901390139013901D3
:1047D000390134013901390139011D01180139014B
:1047E0003901A00039013901390139018F0039013E
:1047F000390139013901390184003901390139019F
:1048000039018000D74215D125F4C07589F8001010
:1048100009F10109DAF80410013C013900290BF112
:10482000010BCAF8041040F3E4800130CAF800001C
:10483000002C8DD104963B461746049A0A9E002A06
:1048400041D0F3E0EB05DDD50C9B25F0800501366A
:10485000002BDFD0013B0C930134DBE72B06E9D5BD
:1048600025F08005D2E7072AE4D10822CEE7062A00
:10487000E0D10722CAE700BFDC91000839620008D6
:1048800021650008002F40F0C8802EB905F4E06EC5
:10489000BEF5E06F00F04582012A01D0042AC9D19B
:1048A0000132D2B2B2E7002A40F0B080002E40F0D0
:1048B000B98005F4E06EBEF5E06F00F026823B465D
:1048C000174604960A9E013B012B40F2C9827B1ECB
:1048D000062B1BD8022F40F2D282032F16D03C1F8A
:1048E000E4B2E7430A954F444D46A146029C15F8B1
:1048F000011D2046524601F0A1FFBD42F7D14C46B2
:104900000BF1FF3BA9460A9DC4EB0B0BEA051CD536
:104910006B0500F1C38219F8011C09F1FF33652909
:104920000BF1FF340BD0452909D00298524601F013
:1049300085FF19F8021CABF10204A9F102030298E9
:104940005246A346994601F079FF15F010027FF414
:104950000AAC05F4C063B3F5806F89F8002000F05D
:10496000E4810E9B002B40F08F8100220999029870
:1049700000F0CAFCEF0702460B4640F14A8103985B
:10498000016804300390C1E90023079B32460133DC
:104990000793FFF7E9BB022A7FF44CAF032235E708
:1049A00005F4A06EBEF5806F04D06B057FF542AFB5
:1049B000002E84D0AB0504D40B9BCDF83C90F31AA9
:1049C0000E9325F4F06545F4C07500261EE7012F0F
:1049D0007FF430AF022719E70D9B93F800E08E4576
:1049E0007FF428AFAB057FF525AF25F420750B9636
:1049F0000CE702985146049201F064FF049A0028E3
:104A00007FF418AF002C7FF4A3AE13E7032A3FF422
:104A100047AF052A3FF444AF0CE7022F7FF43CAFC9
:104A20000327F3E63B46174604960A9E25F4807555
:104A300049E700230C937FE6039A14AF13461568E9
:104A40000433A9460393DAF800301A78591CBA5C8B
:104A5000C2B1DAF80420CAF80010013ACAF80420FA
:104A60001B78013C09F8013B0CD0DAF80430002B2C
:104A7000E9DC0298514601F025FF0028E3D0A94562
:104A80003FF4D1ADB9EB05053FF474AB079A0023B1
:104A90000132079289F80030AB4408E5039A1568A3
:104AA000171DA946DAF80010D8F800200B78481C2A
:104AB00013445B781B0715D4DAF80430CAF80000F9
:104AC000013BCAF804300B78013C09F8013B09D0DE
:104AD000DAF80430002BE5DC0298514601F0F2FED2
:104AE0000028DFD0079AC5EB0905013200230792A1
:104AF000AB44039789F800303246FFF735BB12AB61
:104B0000184600210822099300F0BAFA15F01003A4
:104B10000A9300F0AA80002319460B960E46002542
:104B2000A9460A9D54AFCDF810B000F0DFF9484512
:104B30003FF479AD9AE80A00099A11F801EB013BBC
:104B400009F1010BCAF80010029800923146CAF828
:104B5000043007F809E05B463A4600F0D1F9411C01
:104B60003FF461AD002840F0A38005B93560049B97
:104B7000013C5B440493002D40F09F80A94604361D
:104B8000DAF80430002B63DD002CCED1DDF810B054
:104B90000B9E0A9B002B3FF4F8AE3246FFF7E4BAB7
:104BA00012AB184600210822099300F069FA15F0AB
:104BB000100947D011AD002217460496DAF80030EC
:104BC000D8F800201B7813445B781E0702D4002C11
:104BD00040F0EE80049EB9F1000F7FF4C4AA079B59
:104BE000C5F80090013307933246FFF7BDBA22465D
:104BF000069B3C7002980999089CA047AB063BD5E0
:104C0000039A1368043203921860079B01330793D9
:104C1000A1E4AC073FF5B3AECDE90423039B1D1D12
:104C20001C6800F07BFADDE90423002800F0BB805B
:104C30001046194603F086FE03952060A5E625F48C
:104C4000B06566E4039A1346043315680393B2E72C
:104C50000298514601F036FE002895D04D46DDF809
:104C600010B00B9E002D94D0DDE4039A1368194612
:104C700013460433039350E76C077CD5039A1368FB
:104C8000043203921880C0E70F9C0A230298611C2B
:104C900001F0D2FAA1460E9BC21A0DF2A323994548
:104CA00028BF0DF2A22948468549FDF713FA5CE6B4
:104CB00002307FF45CAFD94662E74FF000095FE74E
:104CC000002D3FF4B0ACAB44FFF7F1BB039D23468E
:104CD00029680298CDF800A0012201F011FE2B46B0
:104CE000043300283FF49FAC079A834401320792B3
:104CF00003933246FFF738BA7B1E17F8011C02985F
:104D000052461F4601F09AFD1DE425F4F06501228C
:104D10007CE50298514601F0D5FD00283FF4B9AA80
:104D200081E425F4F065012770E50B9A049B9B1A3A
:104D30005A42002BB1D118E6B37845F0020502368D
:104D4000FFF722BAE9070DD4AA070BD5039A134639
:104D500011685A4604330393D317C1E9002332463E
:104D6000FFF702BA039A136804320392C3F800B043
:104D70003246FFF7F9B915F001027FF441AFA907F8
:104D80007FF53EAF4F4B0899029899420999069BCF
:104D900000F0938001F0DEFA039A13680432039264
:104DA000C3E9000131E700F021FA03952060ECE54A
:104DB00000F09CF8B8423FF436AC9AE80A0011F8CB
:104DC000012B0DF5A87ECAF8001009997E1C013B45
:104DD000009102980EF80720CAF80430294633469D
:104DE000724600F08DF8471C3FF41DACC0B9286036
:104DF00000F06AF840B33746049E002F3FF4EBAE54
:104E000054ABDC1904952546029C013F204615F859
:104E1000011D524601F012FD002FF6D1049DDAE685
:104E2000023019D13746DAF80430002B3FF7C6AE0E
:104E30000298514601F046FD00283FF4BFAE049EA3
:104E4000002F7FF4F0ABC6E6B344013CB9F1000F8C
:104E500004D104354F46E6E72868C9E70746E2E78C
:104E6000099B99457FF686A919F8011D02985246BB
:104E700001F0E4FC099B9945F6D1FFF77BB9099B4A
:104E800099457FF677A919F8011D0298524601F05D
:104E9000D5FC099B9945F6D1FFF76CB9099B99455B
:104EA0007FF668A919F8011D0298524601F0C6FC68
:104EB000099B9945F6D1FFF75DB901F0CBFB6BE794
:104EC0000092000821650008FF2807D8044B1B68E2
:104ED0001844407800F00800C0B2704700207047C6
:104EE0006C04002000487047A8040020014B18689B
:104EF000704700BFC80400200048704770040020BD
:104F00002DE9F04383B005460A9E1446B2B11F4610
:104F1000104B8846D3F80090FFF7E4FF41468DE838
:104F2000410022463B462846C847431C03D1002285
:104F30008A2332602B6003B0BDE8F083054B1F6805
:104F4000FFF7D0FF21468DE84100034A28460123A0
:104F5000B847EAE7CC0400200492000882B049B1C7
:104F60005AB16BB113780B601278101C18BF012076
:104F700002B0704701A9002AF3D1104602B0704771
:104F80006FF00100F4E700BF830770B4C9B240D0EE
:104F9000541E002A3FD003788B4218BF431C05D112
:104FA0001CE0ECB10278013C8A4217D013F0030FE9
:104FB000184603F10103F4D1032C14D884B103780B
:104FC0008B420BD00519431C02E002788A4205D0BF
:104FD000AB42184603F10103F7D1002070BC7047C3
:104FE000204670BC7047024641EA012646EA064662
:104FF000136810467340A3F1013525EA030313F04B
:10500000803F02F10402D9D1043C032C1046EFD8B2
:10501000D4E71446D0E71046E0E700BF032A70B497
:1050200026D940EA01039B0711D004780D78AC42E1
:1050300022D10244431C05E013F8014B11F8015F33
:10504000AC4219D19342F7D1002070BC70470C4696
:1050500003461E6825681846AE42214603F1040344
:1050600004F1040404D1043A032A18462146F0D876
:10507000002ADAD11046E8E7601B70BC704700BF19
:1050800070B4840746D0541E002A41D0CDB20346E6
:1050900002E0621EE4B3144603F8015B9A07F8D1FC
:1050A000032C2ED9CDB245EA05250F2C45EA05453E
:1050B00019D9264603F11002103E0F2E42F8105C5B
:1050C00042F80C5C42F8085C42F8045C02F1100201
:1050D000F2D8A4F1100222F00F0204F00F041032F3
:1050E000032C13440DD91E462246043A032A46F8DF
:1050F000045BFAD8221F22F003020432134404F0A6
:1051000003042CB1C9B21C4403F8011BA342FBD118
:1051100070BC704714460346C2E700BF10B431F0BC
:10512000004408D0114BA1F580129A4208D80420FF
:105130005DF8044B704718B902205DF8044B7047C6
:1051400001F1FF41094B01F5E0019942EFD9B4F5B6
:10515000801F01D20320EBE7054B9C4201D00020C9
:10516000E6E7B0FA80F04009E2E700BFFFFFDF7F2B
:105170000000F07F70B40D785E2D2FD0002216460F
:105180000131431E00F1FF0403F8012FA342FBD1BC
:1051900085B186F0010242554E1C16F8013C2D2BBC
:1051A0000ED05D2B09D013B11D463146F3E70846FA
:1051B00070BC7047481E70BC7047304670BC70476A
:1051C0004C785D2C0FD0A5420DDC0231431901351E
:1051D000AC4203F8012FFADC0236DEE701224D78FB
:1051E00016460231CDE731461D46D4E700487047E8
:1051F0000000C07FC9B270B4002933D0850710D039
:105200000378002B59D0994218BF431C06D127E0E0
:1052100013F8012B002A4DD0914221D09A0718464D
:10522000F6D141EA0126036846EA064601E050F855
:10523000043F83EA0605A5F10134A3F1013224EA13
:10524000050422EA0303234313F0803FEFD00378E1
:1052500023B932E010F8013F002B2ED09942F9D14A
:1052600070BC704784070BD00378002BF8D0431C28
:1052700003E002780133002AF2D099071846F8D1EA
:105280000268A2F1013323EA020313F0803F08D140
:1052900050F8042FA2F1013323EA020313F0803FF8
:1052A000F6D00378002BDBD010F8013F002BFBD1A8
:1052B00070BC7047104670BC7047184670BC704791
:1052C0002DE9F0410F46904602F050FE04460D468F
:1052D000B8F1000F11D0C7F30A53C3F16B03002BD1
:1052E0000BDD1B0503F17F55002405F54015224613
:1052F0002B46FEF7F9F9BDE8F08120462946BDE8C6
:10530000F08100BF000000002DE9F04F0F469FB074
:1053100083460B4600200021CDE9040103920022C0
:1053200019971A921C4613F8016B2D2E00F2F0808B
:10533000DFE816F02E00EE00EE00EE00EE00EE00CC
:10534000EE00EE00EE00DD00DD00DD00DD00DD0042
:10535000EE00EE00EE00EE00EE00EE00EE00EE00DD
:10536000EE00EE00EE00EE00EE00EE00EE00EE00CD
:10537000EE00EE00DD00EE00EE00EE00EE00EE00CE
:10538000EE00EE00EE00EE00EE004400EE00DA006B
:10539000039B4FF000084FF0000953B10023069320
:1053A000039B1F60069B23B1414609F100438846D9
:1053B0009946404649461FB0BDE8F08F002306934A
:1053C000631C19936678002EE2D0302E1C4600F044
:1053D000A480002308940A93A6F130034FF0000A3A
:1053E000092B55462346544619D8082CC8BF0AEB4A
:1053F0008A0A05EB850203F1010306EB42021993C9
:10540000C4BF06EB4A06A6F1300A1E78D8BFA2F147
:105410003005A6F13002092A04F10104E5D9584605
:105420000793FFF769FDD0F800805846FFF764FD49
:105430000068FEF7B9FB079B02464146184603F099
:10544000F3F88046002800F0E48000208446864679
:10545000A146652E73D0452E71D00023B9F1000FFF
:1054600047D0B9F1100FC846CCEB03032846A8BFBC
:105470004FF010080793FEF7C1F8002C08BF4C4608
:10548000B8F1090FCDE9040113DD764B03EBC80336
:1054900053E91223FEF728F9064650460F46FEF759
:1054A000ADF802460B4630463946FDF76BFFCDE9B5
:1054B0000401B9F10F0F00F3D780079B002B00F018
:1054C000A580079B40F36785162B00F3D284DDE9A6
:1054D00004230798634901EBC001D1E90001FEF7FD
:1054E00003F9804689460DE00123069368E7199386
:1054F00018E718B90A9B002B00F0A1824FF00008B2
:105500004FF00009039B002B3FF44CAF199F47E776
:105510000023302E06937FF45CAF6378582B00F0A5
:10552000A483782B00F0A183013419942678302EBF
:10553000FAD0002EE2D0012308940A934CE7B9F187
:10554000000F4ED0199F7B1C19937E782B2E00F0F4
:105550006D822D2E00F064824FF00008A6F130031A
:10556000092B324600F20282302E06D1199B0133FC
:1055700019931E78302EFAD03246313A082A3FF677
:105580006CAF199B19460A46013219920793A6F18E
:1055900030034E78A6F1300109290BD80132199257
:1055A00003EB830306EB43031678303BA6F130018F
:1055B0000929F3D90799521A082A00F3518444F6AD
:1055C0001F629342A8BF1346C8F1000253404344F0
:1055D000B9F1000F7FF445AF8BE74FF0000C4FF0AF
:1055E000010E002840F028820A9B002B3FF4D0AE29
:1055F0008146A7E76FF0004305934FF0FF33049314
:105600002B0742BF059B43F000430593DDE9048966
:1056100078E75846FFF770FC0068FEF7C5FA199B5B
:105620001A1819921E5C002C40F0E881302E20469A
:1056300005D10132199216780130302EF9D0A6F139
:105640003103082B00F2A082199B303E089300F131
:10565000010C4FF0010905EB850506EB450500201F
:10566000DAE100BF88940008079BC8EB090898445A
:10567000B8F1000F40F39A8318F00F000AD0DDE96B
:105680000423C14901EBC001D1E90001FEF72CF868
:10569000CDE9040138F00F0640F0288200230A9378
:1056A0000095089922464B46584602F0DDF91090C5
:1056B000002800F03B83079A0021002AC2F1000372
:1056C000A8BF0B460F460C9322EAE27307910B9397
:1056D000109C5846616802F053F98246002800F099
:1056E000A582DDE9042321469046994622690C31C2
:1056F000023292000C30CDE9088902F0C7F81BA8ED
:105700001CA98DE8030042464B46584602F0B8FCFF
:105710001A90002800F08B825846012102F03EFAD0
:105720000746002800F082821B9A002AC0F21281EC
:105730000C9B0B9903EB02080A981C9B121A1A4443
:105740006FF47F708242C3F1360380F2EC80801ADE
:105750001F28A3EB000300F30281012500228540EE
:10576000119208EB0309C1454A46A8BF4246CE182C
:105770000A9B1E44B2421346A8BF3346002B04DDE9
:10578000C3EB0909F61AC3EB08080C9BB3B1394601
:1057900058461A4602F0ACFA0746002800F0468246
:1057A000584639461A9A02F003FA0446002800F0D7
:1057B0003D8258461A9902F00BF91A94B9F1000F7C
:1057C00008DD4A4658461A9902F0E2FA1A90002873
:1057D00000F02D820B9B43B1514658460B9A02F0C4
:1057E00087FA8246002800F02182002E08DD51460B
:1057F0003246584602F0CCFA8246002800F0168263
:10580000B8F1000F08DD39464246584602F0C0FAAA
:105810000746002800F00A8258461A99524602F0BC
:1058200033FB0790002800F00182079A0026D36816
:105830003946D6600D9302F003FBB042C0F22084DB
:1058400000F0DD830798394602F06EFC00224FF02D
:10585000804304460D4603F02FF8002867D00D9BC7
:10586000002B00F0A280B146484DDDF814C0DFF8EF
:105870001C810024464E474B0CEA06069E4200F06F
:1058800027820A9B23B3B6F1D46F21D83CA3D3E976
:1058900000234846414603F00FF8B0B14846414660
:1058A000FEF734F98146002800F02683FDF7A6FEB6
:1058B000814688460D9B002B40F0198308F1004378
:1058C000CDF850901593DDE9144505F1D6639D1B85
:1058D000DDE9080102F04AFB02460B462046294654
:1058E000FDF702FF02460B46DDE90801FDF74AFD20
:1058F0000C46CDE904010A9B23B9254B23409E4267
:1059000000F01F8258461A9902F062F85846514634
:1059100002F05EF85846394602F05AF858460799A0
:1059200002F056F8D4E600221192012519E71A4B2D
:10593000204629460022FDF7D7FE0D9B814688466A
:1059400073BB01F100430E900F93DDE90E45DDF8C6
:1059500014C08FE70B9BDDF83080991AECE60F48F6
:105960000125801A05FA00F21192FAE61997002330
:10597000B9F1000F7FF475ADBBE500BFAFF3008058
:105980000000C0FFFFFFDF41889400080000F03FE7
:105990000000F07F0000E07F0000E03FE3FBFFFF3E
:1059A00002460B46CDE90E23CFE7049BDDE9040157
:1059B000002B40F0DE80C1F313038C46002B40F037
:1059C000DC801191204629460022B54B02F06AFF87
:1059D000DDF844C0002840F09883B24B20462946A9
:1059E0000022FDF781FE8146884601F10043DDF883
:1059F00044C016901793DDE916453BE74046A146A3
:105A0000C446A6F13002092A13D8431C1646002AC0
:105A100040F04D821846199B5A1C19925E78F0E7A7
:105A20004FF00108BB1C1993BE7897E54FF00008B2
:105A3000F8E74FF0010E0CE54FF0000982E5BEF1EA
:105A4000000F7FF4A5AC493E252E3FF6A1AC01A383
:105A500053F826F0D35B00089153000891530008D7
:105A600091530008915300089B5B00089153000874
:105A70009153000891530008915300089153000876
:105A80009153000891530008915300089153000866
:105A90009153000891530008915300089153000856
:105AA0009153000891530008915300089153000846
:105AB0009153000891530008915300089153000836
:105AC0009153000891530008915300089153000826
:105AD00091530008D35B00089153000891530008CC
