:020000040800F2
:10000000D80F0020711000086F1000086F10000852
:100010006F1000086F1000086F100008000000004B
:100020000000000000000000000000006F10000849
:100030006F100008000000006F1000086F1000082B
:100040006F1000086F1000086F1000086F10000894
:100050006F1000086F1000086F1000086F10000884
:100060006F1000086F1000086F1000086F10000874
:100070006F1000086F1000086F1000086F10000864
:100080006F1000086F1000086F1000086F10000854
:100090006F1000086F1000086F1000086F10000844
:1000A0006F1000086F1000086F1000086F10000834
:1000B0006F1000086F1000086F1000086F10000824
:1000C0006F1000086F1000086F1000086F10000814
:1000D0006F100008C10D0008A50E00086F10000881
:1000E0006F1000086F1000086F100008000000007B
:1000F0000000000000000000000000000000000000
:1001000000000000000000005FF808F138B5534B14
:10011000044698420D4642D0B0F1804F3FD0A3F53F
:10012000943398423BD003F58063984237D003F56F
:100130008063984233D003F5806398422FD003F553
:10014000806398422BD003F59033984227D003F573
:10015000C053984223D003F5806398421FD003F523
:10016000806398421BD0A3F59E33984217D003F5C5
:100170008063984213D003F5806398420FD003F553
:10018000903398420BD003F58063984207D003F573
:100190008063984203D03248E72101F08FF86B88E2
:1001A00023F010024AB123F04002202A05D0402B50
:1001B00003D02B48E82101F081F8EB8823F480720A
:1001C00032B1B3F5007F03D02548E92101F076F87C
:1001D000224A238894429BB212D002F500629442D4
:1001E0000ED0B4F1804F0BD0A2F59832944207D0D4
:1001F00002F58062944203D002F58062944203D1FA
:100200006A8823F070031343164A944208D002F51B
:10021000806294421FBF23F44073EA889BB2134369
:100220002380AB88A3852B8823850C4B9C420FD061
:1002300003F500639C420BD003F540639C4207D05A
:1002400003F580639C4203D003F580639C4201D197
:100250002B7A23860123A38238BD00BF002C0140E6
:10026000ECA0000800100040674B2DE9F0419842D7
:1002700004460D463BD0B0F1804F38D0A3F59433FF
:10028000984234D003F58063984230D003F5806300
:1002900098422CD003F59433984228D003F5C053EC
:1002A000984224D003F58063984220D003F5806300
:1002B00098421CD0A3F59E33984218D003F5806372
:1002C000984214D003F58063984210D003F5903320
:1002D00098420CD003F58063984208D003F5806300
:1002E000984204D049484FF48E7100F0E7FF2B8804
:1002F00023F0100223F0300392B233B1602A04D00D
:10030000424840F21D1100F0D9FF6B88012B04D93F
:100310003E484FF48F7100F0D1FF2B8923F0020388
:100320009BB223B1394840F21F1100F0C7FF238C64
:10033000B5F8008023F001031B041B0C2384238CDD
:10034000A788228B23F0020322F073021204120CFE
:1003500042EA08086E882A891B041B0C16431E43B8
:10036000294BBFB29C42B6B20FD003F500639C424A
:100370000BD003F540639C4207D003F580639C4299
:1003800003D003F580639C4236D1AB8823F004038D
:100390009BB223B11D484FF49E7100F08FFF6B8913
:1003A00023F008039BB223B1184840F23D1100F03E
:1003B00085FFEB8923F400739BB223B113484FF4FC
:1003C0009F7100F07BFFAB8923F480739BB223B154
:1003D0000E4840F23F1100F071FF6B8926F00806CD
:1003E0001E43AB8826F004061E43EA89AB8927F436
:1003F000407713431F43BFB2EB88A780A4F818804F
:10040000A3862684BDE8F081002C0140ECA0000802
:100410005B4B2DE9F041984205460E4623D0B0F1E2
:10042000804F20D0A3F5943398421CD003F580630D
:10043000984218D003F58063984214D003F59433A2
:10044000984210D003F5C05398420CD0A3F59A33CC
:10045000984208D003F59433984204D0494840F2BA
:100460006F1100F02BFF338823F0100223F03003CC
:1004700092B233B1602A04D042484FF4B87100F010
:100480001DFF7388012B04D93E4840F2711100F022
:1004900015FF338923F002039BB223B139484FF48F
:1004A000B97100F00BFF2B8C348923F010031B046F
:1004B0001B0C2B842B8CAF8823F020031B042A8B6E
:1004C0001B0C43EA0413748822F4E642B6F8008059
:1004D00043EA041412042A4B120C42EA08229D42F9
:1004E000BFB21FFA82F8A4B203D003F500639D42A5
:1004F0003DD1B38823F004039BB223B1214840F2DD
:100500008F1100F0DBFE738923F008039BB223B147
:100510001C484FF4C87100F0D1FEF38923F4007336
:100520009BB223B1174840F2911100F0C7FEB38986
:1005300023F480739BB223B112484FF4C97100F0C9
:10054000BDFE738924F08004A4B244EA03144FF67C
:10055000BF732340B48827F4406743EA0414B38987
:10056000A4B247EA8307F38947EA8307BFB2F38857
:10057000AF80A5F818802B872C84BDE8F08100BFE0
:10058000002C0140ECA00008544B2DE9F0419842AA
:1005900005460E4617D0B0F1804F14D0A3F5943322
:1005A000984210D003F5806398420CD003F5806325
:1005B000984208D003F59433984204D0484840F25A
:1005C000C11100F07BFE338823F0100223F03003CA
:1005D00092B233B1602A04D041484FF4E17100F087
:1005E0006DFE7388012B04D93D4840F2C31100F021
:1005F00065FE338923F002039BB223B138484FF4E0
:10060000E27100F05BFE2B8C348923F480731B04B1
:100610001B0C2B842B8CAF8823F400731B041B0C46
:1006200043EA0423AA8B748822F0730243EA042469
:100630002A4B1204B6F80080120C9D42BFB242EA67
:100640000808A4B203D003F500639D423DD1B388EE
:1006500023F004039BB223B121484FF4F07100F062
:100660002DFE738923F008039BB223B11C4840F28E
:10067000E11100F023FEF38923F400739BB223B150
:1006800017484FF4F17100F019FEB38923F4807319
:100690009BB223B1124840F2E31100F00FFE7389C0
:1006A00024F40064A4B244EA03244FF6FF33234049
:1006B000B48827F4405743EA0424B389A4B247EA34
:1006C0000317F38947EA0317BFB2F388AF80A5F891
:1006D0001C80AB872C84BDE8F08100BF002C01405A
:1006E000ECA000083F4B2DE9F041984204460F462C
:1006F00017D0B0F1804F14D0A3F59433984210D0A6
:1007000003F5806398420CD003F58063984208D0CB
:1007100003F59433984204D033484FF4047100F049
:10072000CDFD3B8823F0100223F0300392B233B1A9
:10073000602A04D02C4840F2112100F0BFFD7B88D4
:10074000012B04D9284840F2122100F0B7FD3B8963
:1007500023F002039BB223B1234840F2132100F09F
:10076000ADFD238C3D8923F480531B041B0C238493
:10077000238CB4F8048023F400531B04A28B1B0CBD
:1007800043EA05337D8822F4E6423E8843EA053594
:100790001204144B120C42EA06229C421FFA88F8FB
:1007A00096B2ADB203D003F500639C4210D1BB8971
:1007B00023F480739BB223B10B484FF40C7100F00B
:1007C0007DFDBB8928F4804848EA83181FFA88F821
:1007D000FB88A4F80480A683A4F840302584BDE8F3
:1007E000F08100BF002C0140ECA0000838B52F4B71
:1007F000044698420D4643D0B0F1804F40D0A3F557
:10080000943398423CD003F58063984238D003F586
:100810008063984234D003F58063984230D003F56A
:10082000806398422CD003F59033984228D003F58A
:10083000C053984224D003F58063984220D003F53A
:10084000806398421CD0A3F59E33984218D003F5DC
:100850008063984214D003F58063984210D003F56A
:10086000903398420CD003F58063984208D003F58A
:100870008063984204D00E4840F2293100F01EFDFA
:10088000012D05D90A4840F22A3100F017FD00E099
:1008900025B123889BB243F0010304E0238823F0B1
:1008A00001031B041B0C238038BD00BF002C01403A
:1008B000ECA0000838B52F4B044698420D4643D0B3
:1008C000B0F1804F40D0A3F5943398423CD003F56B
:1008D0008063984238D003F58063984234D003F5A2
:1008E0008063984230D003F5806398422CD003F5A2
:1008F0009033984228D003F5C053984224D003F592
:100900008063984220D003F5806398421CD0A3F501
:100910009E33984218D003F58063984214D003F5B3
:100920008063984210D003F5903398420CD003F5C1
:100930008063984208D003F58063984204D00E4843
:1009400040F2845100F0BAFC012D05D90A4840F26A
:10095000855100F0B3FC00E025B123889BB243F041
:10096000800304E0238823F080031B041B0C2380F6
:1009700038BD00BF002C0140ECA0000838B5284B62
:10098000044698420D463BD0B0F1804F38D0A3F5D5
:100990009433984234D003F58063984230D003F505
:1009A000806398422CD003F59433984228D003F505
:1009B000C053984224D003F58063984220D003F5B9
:1009C000806398421CD0A3F59E33984218D003F55B
:1009D0008063984214D003F58063984210D003F5E9
:1009E000903398420CD003F58063984208D003F509
:1009F0008063984204D00B4840F2E95100F05EFC5D
:100A000025F0080323B1074840F2EA5100F056FCF4
:100A1000218B21F008010904090C2943218338BDE9
:100A2000002C0140ECA0000838B51D4B044698424C
:100A30000D4623D0B0F1804F20D0A3F594339842D7
:100A40001CD003F58063984218D003F58063984268
:100A500014D003F59433984210D003F5C053984254
:100A60000CD0A3F59A33984208D003F594339842FA
:100A700004D00C4840F2026100F020FC25F008038D
:100A800023B1084840F2036100F018FC218B21F4E7
:100A900000610904090C41EA052189B2218338BDAE
:100AA000002C0140ECA0000838B5164B04469842D3
:100AB0000D4617D0B0F1804F14D0A3F5943398426F
:100AC00010D003F5806398420CD003F58063984200
:100AD00008D003F59433984204D00B4840F21A61D1
:100AE00000F0ECFB25F0080323B1074840F21B613E
:100AF00000F0E4FBA18B21F008010904090C294353
:100B0000A18338BD002C0140ECA0000838B5174B7C
:100B1000044698420D4617D0B0F1804F14D0A3F58B
:100B20009433984210D003F5806398420CD003F5BB
:100B30008063984208D003F59433984204D00C485F
:100B400040F2326100F0BAFB25F0080323B10848F7
:100B500040F2336100F0B2FBA18B21F40061090483
:100B6000090C41EA052189B2A18338BD002C01405E
:100B7000ECA00008384B82B01A6842F001021A60FB
:100B80005968364A0A405A601A6822F0847222F480
:100B900080321A601A6822F480221A605A6822F49D
:100BA000FE025A604FF41F029A60002200920192E6
:100BB0001A6842F480321A601A6802F40032019214
:100BC000009A01320092019A1AB9009AB2F5A06F08
:100BD000F2D11A6812F4003218BF01220192019A70
:100BE000012A05D01E4B4FF000629A6002B0704798
:100BF0001C4A116841F010011160116821F00301D5
:100C00001160116841F0020111605A685A605A6817
:100C10005A605A6842F480625A605A6822F47C1220
:100C20005A605A6842F4E8125A601A6842F08072B8
:100C30001A601968084A8901FBD5516821F003013F
:100C40005160516841F0020151605A6802F00C0293
:100C5000082AFAD1C6E700BF001002400000FFF8E2
:100C600000ED00E0002002402DE9F04F514D87B02B
:100C700044F20400012100F065FB03264E4F4FF4BF
:100C800000734FF0180B284669464FF00408ADF882
:100C900000308DF802608DF803B000F00DFA4FF4CB
:100CA0008063284669460024ADF800308DF8026064
:100CB0004FF4E13A4FF00C098DF8038000F0FCF995
:100CC000384602A9CDF808A0ADF80C40ADF80E40AA
:100CD000ADF81040ADF81440ADF8129000F07AFB7A
:100CE0003846012100F032FC4FF40030012100F0C1
:100CF0004DFB284669468DF80260ADF800808DF8FE
:100D000003B000F0D9F98DF802602C4E0823284674
:100D10006946ADF800308DF8038000F0CDF930461B
:100D200002A9CDF808A0ADF80C40ADF80E40ADF822
:100D30001040ADF81440ADF8129000F04BFB304677
:100D4000012100F003FC012525230DEB08008DF89F
:100D500004308DF805408DF806408DF8075000F0FE
:100D600063FF38462A4640F2255100F023FC2A460C
:100D7000384640F2277100F01DFC26230DEB0800D9
:100D80008DF804308DF805408DF806408DF8075039
:100D900000F04AFF30462A4640F2255100F00AFC96
:100DA000304640F227712A4600F004FC07B0BDE847
:100DB000F08F00BF000801400038014000440040AF
:100DC000F8B52E4D2E484FF4807100F007FA2846F2
:100DD00040F2255100F002FD01281FD12B8813F0AD
:100DE0000F0618D1274C284627687B1C236000F08B
:100DF00083FC254B234AD8552368802B636808BFA2
:100E000026600133802B03BF00235360012353600E
:100E100008BF137202E0284600F06EFC17484FF43A
:100E2000587100F0DBFC012802D1144800F064FC8A
:100E3000124840F2277100F0D1FC012817D1114C63
:100E4000E2687AB12369013AE2605A1C22610F4AD2
:100E50000A48D15C00F024FC2369802B07D10023D1
:100E6000236104E0054840F2277100F0A3FBBDE8D0
:100E7000F84003484FF4807100F0E0B900380140B9
:100E800000100140E4080020D4090020D40A00200A
:100E90000023034A002199540133802BF9D1704774
:100EA000540B0020F8B52F4D2F484FF4807100F0FF
:100EB00095F9284640F2255100F090FC012820D1F8
:100EC0002B8813F00F0619D1284C2846E7697B1CA4
:100ED000E36100F011FC264B244AD855E369802BCE
:100EE000236A08BFE6610133802B03BF002313622E
:100EF0000123136208BF82F8243002E0284600F084
:100F0000FBFB18484FF4587100F068FC012802D12F
:100F1000144800F0F1FB134840F2277100F05EFC2A
:100F2000012817D1114CA26A7AB1E36A013AA26290
:100F30005A1CE2620F4A0B48D15C00F0B1FBE36A35
:100F4000802B07D10023E36204E0064840F22771BA
:100F500000F030FBBDE8F84003484FF4807100F02A
:100F60006DB900BF0044004000100140E4080020BB
:100F700054090020540A002038B5104C236A03B9E4
:100F8000FEE7226B0E49531C802B23638D5C08BF48
:100F900000230C4840F225514FF0000208BF2363A4
:100FA00000F008FB236A0748013B40F2255101226B
:100FB000236200F0FFFA284638BD00BFE408002095
:100FC000540900200044004070B5184D0646AB6A35
:100FD0002C46802B00D1FEE7154840F227710022F5
:100FE00000F0E8FAAB6A53B1626B1249531C802BD4
:100FF00063638E540FD10D4B00225A630BE00C48F3
:10100000802100F09BFB0028EED03146BDE8704007
:10101000074800F045BBA36A05480133A36240F2CC
:101020002771BDE87040012200F0C4BAE408002036
:1010300000440040540A002010B5441E14F8010F6B
:1010400010B1FFF7C1FFF9E710BD38B50546FFF74E
:101050001FFF0024FFF790FF0D2808BF802404F134
:1010600001041CBF287001357F2CF3D938BDFEE781
:1010700008B50C4A0C4B0D498B4204D252F8041FA0
:1010800043F8041BF7E70A480A494FF00002884278
:10109000B8BF40F8042BFADBFFF76CFDBDE8084051
:1010A00000F0FCB874A7000800000020E40800204D
:1010B000E4080020D80B0020F8B5464B04469842BF
:1010C0000D461BD003F58063984217D003F580636B
:1010D000984213D003F5806398420FD003F58063E4
:1010E00098420BD003F58063984207D003F58063E4
:1010F000984203D03848B22100F0E0F8EB7813F0C2
:10110000EB0F03F0FB0209D0282B07D0482B05D0AA
:10111000182A03D03048B32100F0D0F82B881BB92F
:101120002D48B42100F0CAF8EB7803F00F06DB0677
:1011300001D4334609E0AA78013A022A03D92648A5
:10114000BB2100F0BBF8AB783343288810F0FF0FC9
:101150001DD02268002101268E4006EA0007B74212
:1011600011D14FEA810E0F2606FA0EF622EA060288
:1011700003FA0EF63243EE78282E01D1676102E0C1
:10118000482E08BF276101310829E4D12260FF28D9
:101190001FD96268002101F108070126BE4006EA56
:1011A0000007B74211D14FEA810E0F2606FA0EF65C
:1011B00022EA060203FA0EF63243EE78282E01D117
:1011C000676102E0482E08BF276101310829E2D19A
:1011D0006260F8BD0008014036A1000838B5154B23
:1011E000044698420D461CD003F58063984218D0FF
:1011F00003F58063984214D003F58063984210D0C1
:1012000003F5806398420CD003F58063984208D0C0
:1012100003F58063984204D0074840F2691100F05A
:101220004DF825B904484FF4B57100F047F8256131
:1012300038BD00BF0008014036A1000838B5154B85
:10124000044698420D461CD003F58063984218D09E
:1012500003F58063984214D003F58063984210D060
:1012600003F5806398420CD003F58063984208D060
:1012700003F58063984204D0074840F2791100F0EA
:101280001DF825B904484FF4BD7100F017F86561E9
:1012900038BD00BF0008014036A1000808B5FFF7BF
:1012A00069FC00F027FB00F00DFB00F075FBFFF779
:1012B000DBFC00F01DFD00F0CBFDFEE7FEE70000CB
:1012C0001C4A10B5536803F00C03042B01D0082B03
:1012D00001D0194B0EE053685168C3F38343CC032C
:1012E00003F1020302D55168890301D5134900E0D7
:1012F00011494B43036053681149C3F30313CC5C9A
:101300000368E34043605468C4F302240C5D23FA8D
:1013100004F484605468C4F3C2240C5DE340C360E9
:101320005268C2F381320A44127CB3FBF2F30361C8
:1013300010BD00BF0010024000127A0000093D00FD
:10134000000000200E4B70B5034005460E4603B961
:1013500020B90C4840F24A41FFF7B0FF012E0A4C79
:1013600005D9084840F24B41FFF7A8FF00E016B14D
:10137000A3691D4302E0A36923EA0505A56170BDC9
:101380000200C0FF81A10008001002400E4B70B5A2
:10139000034005460E4603B920B90C4840F26941A6
:1013A000FFF78CFF012E0A4C05D9084840F26A412C
:1013B000FFF784FF00E016B1E3691D4302E0E36933
:1013C00023EA0505E56170BD0036018181A10008B1
:1013D0000010024070B55A4B86B0984204460D4644
:1013E00013D0A3F5744398420FD003F5806398425D
:1013F0000BD003F58063984207D003F580639842D1
:1014000003D05048B821FFF759FF2B684E4A013BE3
:10141000934203D94B48B921FFF750FFAB8823F41F
:1014200080539BB21BB14748BA21FFF747FFEB88B7
:1014300023F440539BB21BB14248BB21FFF73EFF50
:101440002B8923F4806232B1B3F5C06F03D03D48DD
:10145000BC21FFF733FF6B8923F00C0202B91BB9E3
:101460003848BD21FFF72AFFAB8923F440739BB2B4
:101470001BB13448BE21FFF721FFAB8973B1304B5C
:101480009C420BD0A3F574439C4207D003F58063C4
:101490009C4203D02B48C221FFF710FF238AEA8821
:1014A0009BB223F44053134323822989AB88A2893A
:1014B0000B4392B2698922F4B0520B4322F00C0222
:1014C00013439BB2A381A38AAA899BB223F44073DE
:1014D0001343A38201A8FFF7F3FE039A049B184964
:1014E00064268C4218BF1346A289296812B2002ACA
:1014F0004FF0190202FB03F2B4BF4D008D00B2FBA6
:10150000F5F5B5FBF6F00001010906FB1153A289C0
:1015100012B2002AADBF1A01D90032313232B5BF42
:10152000B1FBF6F2B2FBF6F302F0070203F00F0391
:10153000B4BF1043184380B2208106B070BD00BF15
:1015400000380140CBA100081FAA440038B5174B52
:10155000044698420D4614D0A3F57443984210D027
:1015600003F5806398420CD003F58063984208D05D
:1015700003F58063984204D00D484FF4B171FFF732
:101580009DFE012D05D90A4840F26311FFF796FE32
:1015900000E025B1A3899BB243F4005304E0A38982
:1015A00023F400531B041B0CA38138BD00380140F9
:1015B000CBA10008384B70B5984204460D4616463C
:1015C00014D0A3F57443984210D003F58063984279
:1015D0000CD003F58063984208D003F580639842ED
:1015E00004D02E4840F28911FFF768FE282D1ED046
:1015F00040F227739D421AD040F226639D4216D0D6
:1016000040F225539D4212D040F224439D420ED019
:1016100040F646039D420AD040F66A139D4238D0F8
:10162000602D04D01D484FF4C571FFF747FE012E11
:1016300018D91A4840F28B11FFF740FE40F66A13A2
:101640009D420FD1144B9C420CD0A3F574439C4295
:1016500008D003F580639C4204D0104840F28F11FB
:10166000FFF72CFEC5F34212012305F01F05012AE6
:1016700003FA05F301D10C3403E0022A0CBF103445
:10168000143422680EB1134301E022EA03032360FD
:1016900070BD012ECDD8D5E700380140CBA10008A0
:1016A00038B5134B044698420D4614D0A3F5744345
:1016B000984210D003F5806398420CD003F5806304
:1016C000984208D003F58063984204D0094840F25C
:1016D0005321FFF7F3FDB5F5007F04D305484FF420
:1016E0001571FFF7EBFDC5F30805A58038BD00BFF8
:1016F00000380140CBA100080E4B10B598420446BB
:1017000014D0A3F57443984210D003F58063984237
:101710000CD003F58063984208D003F580639842AB
:1017200004D005484FF41971FFF7C8FDA088C0F335
:10173000080010BD00380140CBA1000838B5244B8B
:10174000054698420C4614D0A3F57443984210D035
:1017500003F5806398420CD003F58063984208D06B
:1017600003F58063984204D01A4840F26E31FFF7C7
:10177000A5FD012C26D0802C24D0402C22D0202C5A
:1017800020D0102C1ED0B4F5807F1BD0B4F5007F84
:1017900009D0082C16D0042C14D0022C12D00D48DD
:1017A00040F26F310CE00A4B9D420BD00A4B9D4238
:1017B00008D003F580639D4204D040F273310548A0
:1017C000FFF77CFD2B881C4214BF0120002038BD90
:1017D00000380140CBA100080044004038B5364B2A
:1017E000054698420C4614D0A3F57443984210D095
:1017F00003F5806398420CD003F58063984208D0CB
:1018000003F58063984204D02C4840F2C131FFF7C1
:1018100055FD282C32D040F227739C422ED040F246
:1018200026639C422AD040F225539C4226D040F2A7
:1018300024439C4222D040F646039C421ED040F6F0
:101840006A139C420BD0B4F5187F17D024F40073B0
:10185000B3F5B07F12D0194840F2C2310CE0164BFC
:101860009D420BD0164B9D4208D003F580639D42EC
:1018700004D040F2C6311148FFF720FD0120C4F327
:10188000421204F01F03824200FA03F301D1A88937
:1018900003E0022A0CBF288AA88A80B218402B884D
:1018A0009BB238B1240A0122A2401A4214BF01207F
:1018B000002038BD38BD00BF00380140CBA1000872
:1018C0000044004007B510200121FFF73BFD4FF415
:1018D0004073ADF8043010238DF80730044802231C
:1018E00001A98DF80630FFF7E7FB03B05DF804FBB4
:1018F00000100140012008B50146FFF747FD45F6FD
:10190000BF524FF080431A854FF6FF729A8501222D
:101910001A80024B4FF400625A6008BD002004E0B8
:101920004FF08043002298859A844FF08042138ABA
:10193000DB07FAD5138A23F001031B041B0C138267
:1019400070470000F8B507460E4600244FF40071BA
:101950000948BDB2FFF742FC2846FFF7E1FF064801
:101960004FF40071FFF76AFC01342846FFF7D8FFF7
:10197000E3B2B342EAD9F8BD00100140044B02467D
:10198000196809B903491960186802441A60704758
:101990001C090020D80B00202DE9F047062088B054
:1019A0000121FFF7F3FC0D200121FFF7CBFCC02341
:1019B0000227ADF80030694618234E488DF80330F1
:1019C0008DF80270FFF778FB40F2C33348F2D04A3B
:1019D000494D69464948ADF800300026FFF76CFBD9
:1019E0004FF00D09284601A901244FF07008ADF809
:1019F00008A0ADF80490ADF80A60ADF80660FEF7F7
:101A000085FB284604A9ADF81080ADF81870ADF834
:101A10001240FEF729FC28460821FEF7AFFF2846B2
:101A200004A9ADF81240FEF7F3FC28460821FEF7A2
:101A3000FBFF284604A9ADF81240FEF7A5FD284695
:101A40000821FFF731F8284604A9ADF81240FEF747
:101A500049FE28460821FFF759F828462146FEF797
:101A600029FF2846214605F58065FEF7BFFE28467A
:101A700001A9ADF808A0ADF80490ADF80A60ADF882
:101A80000660FEF743FB284604A9ADF81080ADF8C8
:101A90001870ADF81240FEF7E7FB28460821FEF764
:101AA0006DFF284604A9ADF81240FEF7B1FC2846A8
:101AB0000821FEF7B9FF284604A9ADF81240FEF749
:101AC00063FD28460821FEF7EFFF284604A9ADF87C
:101AD0001240FEF707FE28460821FFF717F82846B0
:101AE0002146FEF7E7FE28462146FEF77FFE08B0B6
:101AF000BDE8F0870008014000040040000C0140F0
:101B000008B500F02BFB054BD3E9002300F08CFB5C
:101B100000F09CFD024B80B2988608BD18000020A2
:101B20000004004008B500F019FB054BD3E9002381
:101B300000F07AFB00F08AFD024B80B2188708BDE6
:101B4000180000200004004008B500F007FB054B1A
:101B5000D3E9002300F068FB00F078FD024B80B26F
:101B6000988708BD180000200004004008B500F068
:101B7000F5FA064BD3E9002300F056FB00F066FDB2
:101B8000034B80B2A3F8400008BD00BF180000203E
:101B90000004004008B500F0E1FA054BD3E900234A
:101BA00000F042FB00F052FD024B80B2988608BD67
:101BB000180000200008004008B500F0CFFA054BDF
:101BC000D3E9002300F030FB00F040FD024B80B26F
:101BD000188708BD180000200008004008B500F074
:101BE000BDFA054BD3E9002300F01EFB00F02EFDEB
:101BF000024B80B2988708BD180000200008004002
:101C000008B500F0ABFA064BD3E9002300F00CFB5B
:101C100000F01CFD034B80B2A3F8400008BD00BFDC
:101C20001800002000080040C37810B5012B0446BE
:101C300003D921487521FFF741FB63780F2B03D9A6
:101C40001D487621FFF73AFBA3780F2B03D91A48DA
:101C50007721FFF733FBE27823780AB3174A03F1C1
:101C60006043D0686278C043C0F30220C0F1040131
:101C700002FA01F10F22C240A07803F5614302404D
:101C80000A431201D2B283F80023237801225909B2
:101C900003F01F0302FA03F3094A42F8213010BD92
:101CA0005A09012103F01F03994002F12003044A5D
:101CB00042F8231010BD00BF17A2000800ED00E09D
:101CC00000E100E010B50C46FFF7B6F90748FFF752
:101CD000BCF90648214600F08DFE0028F6D01E20F3
:101CE0000121BDE81040FFF72DBE00BF540B0020BE
:101CF00010B5C8201B4CFFF713FE1B481B49FFF70C
:101D0000E1FF21461A48FFF7DDFFC820FFF708FE74
:101D100021461848FFF7D6FFC820FFF701FE2146ED
:101D20001548FFF7CFFF4FF4FA70FFF7F9FD214692
:101D30001248FFF7C7FFC820FFF7F2FD2146104801
:101D4000FFF7C0FFC820FFF7EBFD21460D48FFF766
:101D5000B9FFC820FFF7E4FD2146BDE810400A485E
:101D6000FFF7B0BF6EA2000858A2000861A20008E9
:101D700067A2000871A200087FA20008A4A20008C0
:101D8000B3A20008C1A20008D7A2000810B586B00F
:101D90002A48FFF75AF92948294900F02BFE80B953
:101DA0002648284900F026FE0028F1D0234825497E
:101DB00000F020FE00283FD006B0BDE8104000F043
:101DC00047B8214C1D48FFF740F904F10803009380
:101DD00004F10C03019304F11003029304F11403C2
:101DE000039304F11803049304F11C0317492246DA
:101DF00005931248231D00F049FC2068FFF780FE80
:101E00006068FFF78FFEA068FFF79EFEE068FFF7AF
:101E1000ADFE2069FFF7BEFE6069FFF7CDFEA06949
:101E2000FFF7DCFEE069FFF7EBFE0448054900F030
:101E3000E1FD0028C5D0B9E706B010BD540B002065
:101E400007A3000813A30008200000201CA300081B
:101E500008B5FFF79BFF1448144900F0CBFD58B9B3
:101E60001148134900F0C6FD50B90F48114900F060
:101E7000C1FD0028EDD003E0BDE80840FFF786BFB4
:101E800009480B4900F0B6FD18B1BDE80840FFF75E
:101E90002FBF0548074900F0ADFD18B16420FFF7DA
:101EA0003FFDD6E708BD00BF540B002048A3000843
:101EB00052A3000858A3000881F0004102E000BFCF
:101EC00083F0004330B54FEA41044FEA430594EAFA
:101ED000050F08BF90EA020F1FBF54EA000C55EA35
:101EE000020C7FEA645C7FEA655C00F0E2804FEA06
:101EF0005454D4EB5555B8BF6D420CDD2C4480EAE8
:101F0000020281EA030382EA000083EA010180EA17
:101F1000020281EA0303362D88BF30BD11F0004F65
:101F20004FEA01314FF4801C4CEA113102D040429B
:101F300061EB410113F0004F4FEA03334CEA1333D6
:101F400002D0524263EB430394EA050F00F0A780EE
:101F5000A4F10104D5F1200E0DDB02FA0EFC22FAE9
:101F600005F2801841F1000103FA0EF2801843FADD
:101F700005F359410EE0A5F120050EF1200E012ACE
:101F800003FA0EFC28BF4CF0020C43FA05F3C0180C
:101F900051EBE37101F0004507D54FF0000EDCF185
:101FA000000C7EEB00006EEB0101B1F5801F1BD32E
:101FB000B1F5001F0CD349085FEA30004FEA3C0C32
:101FC00004F101044FEA445212F5800F80F09A8028
:101FD000BCF1004F08BF5FEA500C50F1000041EB2C
:101FE000045141EA050130BD5FEA4C0C404141EB30
:101FF000010111F4801FA4F10104E9D191F0000F57
:1020000004BF01460020B1FA81F308BF2033A3F1D9
:102010000B03B3F120020CDA0C3208DD02F1140CD0
:10202000C2F10C0201FA0CF021FA02F10CE002F10B
:102030001402D8BFC2F1200C01FA02F120FA0CFC04
:10204000DCBF41EA0C019040E41AA2BF01EB04514D
:10205000294330BD6FEA04041F3C1CDA0C340EDC4B
:1020600004F11404C4F1200220FA04F001FA02F38E
:1020700040EA030021FA04F345EA030130BDC4F14C
:102080000C04C4F1200220FA02F001FA04F340EA41
:102090000300294630BD21FA04F0294630BD94F0F2
:1020A000000F83F4801306BF81F480110134013DD9
:1020B0004EE77FEA645C18BF7FEA655C29D094EA4A
:1020C000050F08BF90EA020F05D054EA000C04BFC8
:1020D0001946104630BD91EA030F1EBF00210020B3
:1020E00030BD5FEA545C05D14000494128BF41F052
:1020F000004130BD14F580043CBF01F5801130BDB6
:1021000001F0004545F0FE4141F470014FF0000040
:1021100030BD7FEA645C1ABF194610467FEA655CF1
:102120001CBF0B46024650EA013406BF52EA033593
:1021300091EA030F41F4002130BD00BF90F0000F81
:1021400004BF0021704730B54FF4806404F13204BD
:102150004FF000054FF0000150E700BF90F0000F76
:1021600004BF0021704730B54FF4806404F132049D
:1021700010F0004548BF40424FF000013EE700BF6D
:1021800042004FEAE2014FEA31014FEA02701FBFFD
:1021900012F07F4393F07F4F81F06051704792F0CF
:1021A000000F14BF93F07F4F704730B54FF4607449
:1021B00001F0004521F0004120E700BF50EA010294
:1021C00008BF704730B54FF000050AE050EA010241
:1021D00008BF704730B511F0004502D5404261EBB1
:1021E00041014FF4806404F132045FEA915C3FF4F2
:1021F000DCAE4FF003025FEADC0C18BF03325FEA8B
:10220000DC0C18BF033202EBDC02C2F1200300FA3F
:1022100003FC20FA02F001FA03FE40EA0E0021FA64
:1022200002F11444C1E600BF70B54FF0FF0C4CF44E
:10223000E06C1CEA11541DBF1CEA135594EA0C0F04
:1022400095EA0C0F00F0DEF82C4481EA030621EA3F
:102250004C5123EA4C5350EA013518BF52EA03357A
:1022600041F4801143F4801338D0A0FB02CE4FF02C
:102270000005E1FB02E506F00042E0FB03E54FF05C
:102280000006E1FB03569CF0000F18BF4EF0010E54
:10229000A4F1FF04B6F5007F64F5407404D25FEA50
:1022A0004E0E6D4146EB060642EAC62141EA555103
:1022B0004FEAC52040EA5E504FEACE2EB4F1FD0C45
:1022C00088BFBCF5E06F1ED8BEF1004F08BF5FEAC3
:1022D000500E50F1000041EB045170BD06F0004675
:1022E00046EA010140EA020081EA0301B4EB5C0422
:1022F000C2BFD4EB0C0541EA045170BD41F480111A
:102300004FF0000E013C00F3AB8014F1360FDEBF3E
:10231000002001F0004170BDC4F10004203C35DA1A
:102320000C341BDC04F11404C4F1200500FA05F39D
:1023300020FA04F001FA05F240EA020001F000423E
:1023400021F0004110EBD37021FA04F642EB0601B4
:102350005EEA430E08BF20EAD37070BDC4F10C04DE
:10236000C4F1200500FA04F320FA05F001FA04F2A2
:1023700040EA020001F0004110EBD37041F100018E
:102380005EEA430E08BF20EAD37070BDC4F1200599
:1023900000FA05F24EEA020E20FA04F301FA05F201
:1023A00043EA020321FA04F001F0004121FA04F2A9
:1023B00020EA020000EBD3705EEA430E08BF20EA79
:1023C000D37070BD94F0000F0FD101F000464000B3
:1023D00041EB010111F4801F08BF013CF7D041EA35
:1023E000060195F0000F18BF704703F00046520039
:1023F00043EB030313F4801F08BF013DF7D043EA0A
:102400000603704794EA0C0F0CEA135518BF95EABF
:102410000C0F0CD050EA410618BF52EA4306D1D146
:1024200081EA030101F000414FF0000070BD50EA65
:10243000410606BF1046194652EA430619D094EAEF
:102440000C0F02D150EA013613D195EA0C0F05D1D9
:1024500052EA03361CBF104619460AD181EA03012D
:1024600001F0004141F0FE4141F470014FF00000E5
:1024700070BD41F0FE4141F4780170BD70B54FF080
:10248000FF0C4CF4E06C1CEA11541DBF1CEA135500
:1024900094EA0C0F95EA0C0F00F0A7F8A4EB0504E2
:1024A00081EA030E52EA03354FEA013100F08880D9
:1024B0004FEA03334FF0805545EA131343EA1263A2
:1024C0004FEA022245EA111545EA10654FEA002657
:1024D0000EF000419D4208BF964244F1FD0404F510
:1024E000407402D25B084FEA3202B61A65EB03056C
:1024F0005B084FEA32024FF480104FF4002CB6EB29
:10250000020E75EB030E22BFB61A754640EA0C00A8
:102510005B084FEA3202B6EB020E75EB030E22BFE8
:10252000B61A754640EA5C005B084FEA3202B6EB29
:10253000020E75EB030E22BFB61A754640EA9C00E8
:102540005B084FEA3202B6EB020E75EB030E22BFB8
:10255000B61A754640EADC0055EA060E18D04FEA76
:10256000051545EA16754FEA06164FEAC30343EA16
:1025700052734FEAC2025FEA1C1CC0D111F4801FE3
:102580000BD141EA00014FF000004FF0004CB6E7DC
:1025900011F4801F04BF01430020B4F1FD0C88BF7B
:1025A000BCF5E06F3FF6AFAEB5EB030C04BFB6EB86
:1025B000020C5FEA500C50F1000041EB045170BD79
:1025C0000EF0004E4EEA113114EB5C04C2BFD4EBA6
:1025D0000C0541EA045170BD41F480114FF0000E2A
:1025E000013C90E645EA060E8DE60CEA135594EAA6
:1025F0000C0F08BF95EA0C0F3FF43BAF94EA0C0FA9
:102600000AD150EA01347FF434AF95EA0C0F7FF41D
:1026100025AF104619462CE795EA0C0F06D152EA71
:1026200003353FF4FDAE1046194622E750EA410655
:1026300018BF52EA43067FF4C5AE50EA41047FF466
:102640000DAF52EA43057FF4EBAE12E74A0011D218
:1026500012F5001211D20DD56FF47873B3EB6252FC
:102660000ED44FEAC12343F0004343EA505323FA08
:1026700002F070474FF00000704750EA013002D17D
:102680004FF0FF3070474FF0000070470EB4F0B5C8
:102690009CB021AC4FF4017254F8045BADF81420E7
:1026A0000290069000F020F84FF6FF7E06460B4998
:1026B0000B4F2A4623460025086802A90194039679
:1026C0000796ADF816E00A970E95139500F0A2FA5A
:1026D0001CB0BDE8F04003B0704700BF700400209C
:1026E000E52600080020704720F0030110F00300E9
:1026F000C0F1000051F8043B00F1040C4FEACC0C8F
:102700006FF000021CBF22FA0CF213434FF0010CD1
:102710004CEA0C2C4CEA0C4CA3EB0C0222EA030210
:1027200012EACC1204BF51F8043B0430F4D0C2F1D9
:10273000000102EA0102B2FA82F2C2F11F0200EBCA
:10274000D20070472DE9F0414FF0010E744600258C
:102750004FF0FF3663198B4200EB06070DD23F5D49
:1027600010F803C0BC452DD21D460124C6EB030E54
:1027700063198B4200EB0607F1D34FF00108444682
:10278000C2F800E000254FF0FF376319994200EBD3
:10279000070E0ED91EF804E010F803C0F44518D94E
:1027A0001D460124C7EB03086319994200EB070E8D
:1027B000F0D80137701C874224BF3846C2F8008029
:1027C000BDE8F0810CD04FF0010E2E4674467544E2
:1027D000C0E709D04FF001082F4644464544D4E7EE
:1027E000744505D00134B5E7444504D00134CCE745
:1027F0001D460124AEE71D460124C6E72DE9F04F32
:10280000ADF2144D164605468B461046194603AAEE
:102810001C46FFF797FF804603AB0DF20C4243F8CE
:10282000044F9342FBD15CB13246631E371904A8B2
:1028300012F8011BBA4240F8213003F1FF33F7D1FF
:10284000039930463144424601F088F900286DD1A1
:1028500008F1FF330093F318824601932346814623
:10286000544658469A4609EB0A073A1A002128446A
:1028700001F02AF9002840F0AC80002F00F0A98078
:10288000EB1913F8012C04AB53F822304BB124B1EF
:10289000039A934201D2C2EB0A03994400243846BA
:1028A000E1E74445234638BF43460AF1FF3E7345FE
:1028B00013D203EB0902A85C16F803C02A4484452E
:1028C00006EB030106D02DE011F801CF12F8010F3D
:1028D000844527D101337345F6D34445009980F0F0
:1028E0008780009B019809EB0302AB5C00782A44C7
:1028F00098427DD1019B06EB040B06E013F801ED35
:1029000012F8010D864504D161465B4501F1FF3C9B
:10291000F4D101348C4256D8039C3846A144C4EB10
:102920000A04A0E7C8F101029144B6E7C8EB04032A
:10293000434538BF434608F1FF3701330393F3198A
:102940005846A246C34698464FF0000909EB0A04D0
:10295000221A0021284401F0B7F8D0BBCCB32B19C0
:1029600013F8012C04AB53F82230C3BB0AF1FF303B
:10297000834514D209EB0B02AB5C16F80BE02A443A
:102980009E4506EB0B015B4606D02BE011F801CF0C
:1029900012F801EFF44525D101338342F6D37B1CB5
:1029A00011D009EB0702AB5C98F800102A44994259
:1029B00014D1434605E013F8010D12F8011D8842B9
:1029C0000CD1B342F7D105EB09000DF2144DBDE86F
:1029D000F08F00200DF2144DBDE8F08F039B994459
:1029E0002046B3E7CBF10102914499442046ADE77C
:1029F00041468EE70278002A00F003812DE9F04F6E
:102A000091F8008085B04346B8F1000F15D0844698
:102A100001F1010E012402E01EF8013B63B19A426C
:102A200014BF002404F001041CF8012F7746002A8B
:102A3000F2D19EF800301BB934B105B0BDE8F08F7B
:102A4000002005B0BDE8F08F0E4605464146013036
:102A500001F096F9BC1B07460028F1D0012CECD000
:102A60002819874294BFC7EB000B4FF0010B1F2CB6
:102A700008D93846594632462346FFF7BFFE05B00F
:102A8000BDE8F08F214603AA3046FFF75BFE0399AD
:102A9000804602463144304601F060F8002858D1A3
:102AA00081460546B246584608F1FF330193F318B4
:102AB00000932E19321A0021384401F005F800283D
:102AC000BED1002EBCD0C1454B4638BF43469C42C8
:102AD00012D95A19B95C1AF803003A4488420AEB31
:102AE000030E06D02DE01EF8010F12F8011F8842D8
:102AF00027D101339C42F6D8019BC845194640F2C4
:102B000083800098EA18BB5C00783A4498427BD1F5
:102B1000009B0AEB090B06E013F801CD12F801ED5A
:102B2000F44504D101465B4501F1FF30F4D109F1D0
:102B3000010989456AD8039B30461D44C3EB04094B
:102B4000B7E7C8F1010215441D444FF000093046B3
:102B5000AFE7C8EB0403434508F1FF3238BF4346F3
:102B600006EB02095846CB469146013303934FF0DA
:102B7000000A0AEB04052A1A0021384400F0A4FFD9
:102B800000287FF45DAF002D3FF45AAF444514D9BF
:102B90000AEB0802BB5C16F808003A44984206EBC0
:102BA0000801434606D022E011F801EF12F8010FA8
:102BB00086451CD101339C42F6D8B9F1FF3F11D0B4
:102BC0000AEB0902BB5C9BF800103A44994214D10D
:102BD0005B4605E013F8010D12F8011D88420CD187
:102BE000B342F7D107EB0A0005B0BDE8F08FC8F19A
:102BF000010292449A442846BBE7039B28469A4424
:102C0000B7E70B7823B97047414690E7781914E786
:102C1000002070472DE9F04F8A468989ADF52D7D5A
:102C20008E040290039309D4DAF8643041F4005121
:102C300023F40053AAF80C10CAF86430164616F8AC
:102C4000011B0023089306939B460793DFF85C84DF
:102C5000119179B3D8F8000043185B7803F00803AA
:102C600003F0FF055BB3DAF80430029C1A4612E069
:102C7000DAF80030D8F800101A7801330A44527894
:102C8000150710D5DAF804200BF1010B013ACAF848
:102C90000030CAF80420002AEADC2046514602F03F
:102CA000D5FB0028E4D03246164616F8011B1191D8
:102CB0000029CFD107980DF52D7DBDE8F08F25298E
:102CC00040F082802C465378711C782B00F2B98238
:102CD000DFE813F09300B702B702B702B702B702FA
:102CE000B702B702B702B702B702B702B702B7021C
:102CF000B702B702B702B702B702B702B702B7020C
:102D0000B702B702B702B702B702B702B702B702FB
:102D1000B702B702B702B702B702B702B70279002B
:102D2000B702B702B702B7023002B702B702B70262
:102D3000B702B7025A025A025A025A025A025A02F9
:102D40005A025A025A025A02B702B702B702B7022F
:102D5000B702B702B702B702B702B702350279026B
:102D6000B7027902B702B702B702B7027402B7021C
:102D7000B7026B02B702B702B702B702B702B702D7
:102D8000B702B7026202B702B7029902B702B702EE
:102D9000B702B702B702B702B702940292027902F1
:102DA000790279028D029900B702B702AF02B70229
:102DB0007E027C02AB02B702B702A802B702A102F0
:102DC000B702B70262020E46DAF80430002B40F375
:102DD0004085DAF8003016F8012C197891427FF41A
:102DE00069AFDAF804200133013ACAF80420CAF8BE
:102DF00000300BF1010B324656E74FF0FF300DF576
:102E00002D7DBDE8F08F0E46A64B032708930023C7
:102E10000693DAF80430002B40F39E816B0610D540
:102E2000013F032F00F2BE80DFE817F0E3009200BD
:102E3000220016020298514602F008FB002840F0DA
:102E40009281D8F80010DAF8002001E0CAF80020DA
:102E5000137801320B445B781807E1D5DAF80430B7
:102E60000BF1010B013B002BCAF80430EEDCE1E76B
:102E700054AA4FF00009099217464A46631EB3F55B
:102E8000AE7F86BF6FF4AE7163180023994688BF8A
:102E900040F25D145B469346B446069E45F4586581
:102EA000DAF800100878A0F12B024D2A00F2E18038
:102EB000DFE812F02A01DF002A01DF00DF00FE0058
:102EC000CA00CA00CA00CA00CA00CA00CA003A0141
:102ED0003A01DF00DF00DF00DF00DF00DF00DF009E
:102EE000250125012501250125012501DF00DF0040
:102EF000DF00DF00DF00DF00DF00DF00DF00DF00DA
:102F0000DF00DF00DF00DF00DF00DF00DF002F0178
:102F1000DF00DF00DF00DF00DF00DF00DF00DF00B9
:102F2000250125012501250125012501DF00DF00FF
:102F3000DF00DF00DF00DF00DF00DF00DF00DF0099
:102F4000DF00DF00DF00DF00DF00DF00DF002F0138
:102F5000002C08BF4FF0FF3415F0010340F0C08390
:102F6000ED0640F13B831D46D8F80010DAF800204A
:102F7000137801320B445B78180737D4DAF8043041
:102F80000135013BAC428AE80C002FD0002BEFDC6E
:102F90000298514602F05AFA40BBD8F80010DAF80D
:102FA0000020E5E7002C08BF012415F0010340F0E4
:102FB0004683EA0640F12A841D46029F0BE01A442C
:102FC000CAF80020384651461D44E41A02F03EFA81
:102FD000002840F015849AE80C00A342EFDB1B1B8D
:102FE0002244CAF804302544CAF80020AB443246D3
:102FF0005AE6002C08BF4FF0FF34EB0640F1BC82CC
:10300000DAF80010002514AF0B780131FB5CB3B186
:10301000DAF804300135013BAC428AE80A00E5D019
:10302000002BF1DC0298514602F010FA0028DDD1A5
:10303000DAF800100B780131FB5C002BE8D1002D91
:103040003FF438AEAB44D2E7174A25F4386532F97D
:103050001660DAF804203870013A002A07F10107F7
:10306000CAF804203EDD0131CAF80010013C7FF4AB
:1030700017AFEA050696D94666469B4607D5099BD3
:103080009F4200F2D983099B9F423FF413AE15F093
:10309000100400F04C83099B3246FF1A4F44BB4496
:1030A00002E600BFC14D000860A3000840000020F8
:1030B0002A05CED516B945F4007508266A0500F133
:1030C0005E8325F46075B9F1000F02D009F1FF3974
:1030D0000134DAF804200BF1010B013A002ACAF896
:1030E0000420C0DC02985146CDF810C0069302F0CF
:1030F000ADF9069BDDF810C00028B7D0B9E70A2E5D
:10310000B7DD25F43865A4E72A06B2D525F0800599
:103110009FE705F4C062B2F5007FAAD125F40075DF
:1031200045F4A065102694E7A34A32F91660082EEC
:10313000E7DC9EE7737845F010050E46C4E50E46C1
:1031400045F001059D4B032708930A230693DAF8FF
:103150000430002B3FF762AE0298514602F076F938
:1031600000283FF45BAE079A002A3FF446AEBAF857
:103170000C3013F0400F134618BF4FF0FF331846C2
:103180000DF52D7DBDE8F08F04EB840403EB4404C2
:10319000303C73780E4697E50E4645F40075884B33
:1031A000032708931023069333E60E4645F00105E6
:1031B000834B03270893082306932AE6737845F088
:1031C00002050E4680E50E46042722E60E46EFE78E
:1031D000EC060E463FF567AD680740F15383039A4E
:1031E000136804320392A3F800B032465CE57378AA
:1031F00045F004050E4667E50E46A3E70E4645F08A
:103200004005002705E614A800F054FD45F04005F0
:1032100006460127FDE56A4B0E4608930A230693EE
:103220000327F6E50E460227F3E50E4645F408753A
:10323000B5E773786C2B00F01F8345F001050E464F
:1032400042E503445B780E4603F00303012B7FF451
:1032500079AF45F0010575E7029800F0EDFB631EBC
:103260000268B3F5AE7F0D9240F283816FF4AE72C7
:10327000A31840F25D140C93002754AB0A969946AC
:103280003A463E4609930F970E970B9745F4F06523
:10329000DAF800000178A1F12B0EBEF14E0F00F21A
:1032A0003B81DFE81EF07B0039017B0039013901E9
:1032B0006F004F004F004F004F004F004F004F0076
:1032C0004F004F0039013901390139013901390104
:1032D000390134013901390139011D011801390160
:1032E0003901A00039013901390139018F00390153
:1032F00039013901390139018400390139013901B4
:1033000039018000390139013901390139013901A7
:10331000390134013901390139011D01180139011F
:103320003901A00039013901390139018F00390112
:103330003901390139013901840039013901390173
:1033400039018000D74215D125F4C07589F80010E5
:1033500009F10109DAF80410013C013900290BF1E7
:10336000010BCAF8041040F3E4800130CAF80000F1
:10337000002C8DD104963B461746049A0A9E002ADB
:1033800041D0F3E0EB05DDD50C9B25F0800501363F
:10339000002BDFD0013B0C930134DBE72B06E9D592
:1033A00025F08005D2E7072AE4D10822CEE7062AD5
:1033B000E0D10722CAE700BF60A30008C14D0008A2
:1033C000A9500008002F40F0C8802EB905F4E06E27
:1033D000BEF5E06F00F04582012A01D0042AC9D170
:1033E0000132D2B2B2E7002A40F0B080002E40F0A5
:1033F000B98005F4E06EBEF5E06F00F026823B4632
:10340000174604960A9E013B012B40F2C9827B1E9F
:10341000062B1BD8022F40F2D282032F16D03C1F5E
:10342000E4B2E7430A954F444D46A146029C15F885
:10343000011D2046524601F0C5FFBD42F7D14C4662
:103440000BF1FF3BA9460A9DC4EB0B0BEA051CD50B
:103450006B0500F1C38219F8011C09F1FF336529DE
:103460000BF1FF340BD0452909D00298524601F0E8
:10347000A9FF19F8021CABF10204A9F1020302989A
:103480005246A346994601F09DFF15F010027FF4C5
:103490000AAC05F4C063B3F5806F89F8002000F032
:1034A000E4810E9B002B40F08F8100220999029845
:1034B00000F0EEFCEF0702460B4640F14A8103980C
:1034C000016804300390C1E90023079B32460133B1
:1034D0000793FFF7E9BB022A7FF44CAF032235E7DD
:1034E00005F4A06EBEF5806F04D06B057FF542AF8A
:1034F000002E84D0AB0504D40B9BCDF83C90F31A7E
:103500000E9325F4F06545F4C07500261EE7012FE3
:103510007FF430AF022719E70D9B93F800E08E454A
:103520007FF428AFAB057FF525AF25F420750B960A
:103530000CE702985146049201F088FF049A002893
:103540007FF418AF002C7FF4A3AE13E7032A3FF4F7
:1035500047AF052A3FF444AF0CE7022F7FF43CAF9E
:103560000327F3E63B46174604960A9E25F480752A
:1035700049E700230C937FE6039A14AF13461568BE
:103580000433A9460393DAF800301A78591CBA5C60
:10359000C2B1DAF80420CAF80010013ACAF80420CF
:1035A0001B78013C09F8013B0CD0DAF80430002B01
:1035B000E9DC0298514601F049FF0028E3D0A94513
:1035C0003FF4D1ADB9EB05053FF474AB079A002386
:1035D0000132079289F80030AB4408E5039A156878
:1035E000171DA946DAF80010D8F800200B78481CFF
:1035F00013445B781B0715D4DAF80430CAF80000CE
:10360000013BCAF804300B78013C09F8013B09D0B2
:10361000DAF80430002BE5DC0298514601F016FF81
:103620000028DFD0079AC5EB090501320023079275
:10363000AB44039789F800303246FFF735BB12AB35
:10364000184600210822099300F0BAFA15F0100379
:103650000A9300F0AA80002319460B960E46002517
:10366000A9460A9D54AFCDF810B000F0DFF94845E7
:103670003FF479AD9AE80A00099A11F801EB013B91
:1036800009F1010BCAF80010029800923146CAF8FD
:10369000043007F809E05B463A4600F0D1F9411CD6
:1036A0003FF461AD002840F0A38005B93560049B6C
:1036B000013C5B440493002D40F09F80A9460436F2
:1036C000DAF80430002B63DD002CCED1DDF810B029
:1036D0000B9E0A9B002B3FF4F8AE3246FFF7E4BA8C
:1036E00012AB184600210822099300F069FA15F080
:1036F000100947D011AD002217460496DAF80030C1
:10370000D8F800201B7813445B781E0702D4002CE5
:1037100040F0EE80049EB9F1000F7FF4C4AA079B2D
:10372000C5F80090013307933246FFF7BDBA224631
:10373000069B3C7002980999089CA047AB063BD5B4
:10374000039A1368043203921860079B01330793AE
:10375000A1E4AC073FF5B3AECDE90423039B1D1DE7
:103760001C6800F07BFADDE90423002800F0BB8030
:103770001046194606F092F903952060A5E625F457
:10378000B06566E4039A1346043315680393B2E701
:103790000298514601F05AFE002895D04D46DDF8BA
:1037A00010B00B9E002D94D0DDE4039A13681946E7
:1037B00013460433039350E76C077CD5039A1368D0
:1037C000043203921880C0E70F9C0A230298611C00
:1037D00001F0F6FAA1460E9BC21A0DF2A3239945F9
:1037E00028BF0DF2A2294846854900F0A3FA5CE6FD
:1037F00002307FF45CAFD94662E74FF000095FE723
:10380000002D3FF4B0ACAB44FFF7F1BB039D234662
:1038100029680298CDF800A0012201F035FE2B4660
:10382000043300283FF49FAC079A83440132079287
:1038300003933246FFF738BA7B1E17F8011C029833
:1038400052461F4601F0BEFD1DE425F4F06501223D
:103850007CE50298514601F0F9FD00283FF4B9AA31
:1038600081E425F4F065012770E50B9A049B9B1A0F
:103870005A42002BB1D118E6B37845F00205023662
:10388000FFF722BAE9070DD4AA070BD5039A13460E
:1038900011685A4604330393D317C1E90023324613
:1038A000FFF702BA039A136804320392C3F800B018
:1038B0003246FFF7F9B915F001027FF441AFA907CD
:1038C0007FF53EAF4F4B0899029899420999069BA4
:1038D00000F0938001F002FB039A13680432039214
:1038E000C3E9000131E700F021FA03952060ECE51F
:1038F00000F09CF8B8423FF436AC9AE80A0011F8A0
:10390000012B0DF5A87ECAF8001009997E1C013B19
:10391000009102980EF80720CAF804302946334671
:10392000724600F08DF8471C3FF41DACC0B928600A
:1039300000F06AF840B33746049E002F3FF4EBAE28
:1039400054ABDC1904952546029C013F204615F82E
:10395000011D524601F036FD002FF6D1049DDAE636
:10396000023019D13746DAF80430002B3FF7C6AEE3
:103970000298514601F06AFD00283FF4BFAE049E54
:10398000002F7FF4F0ABC6E6B344013CB9F1000F61
:1039900004D104354F46E6E72868C9E70746E2E761
:1039A000099B99457FF686A919F8011D0298524690
:1039B00001F008FD099B9945F6D1FFF77BB9099BFA
:1039C00099457FF677A919F8011D0298524601F032
:1039D000F9FC099B9945F6D1FFF76CB9099B99450C
:1039E0007FF668A919F8011D0298524601F0EAFC19
:1039F000099B9945F6D1FFF75DB901F0EFFB6BE745
:103A000084A30008A9500008FF2807D8044B1B68AE
:103A10001844407800F00800C0B27047002070479A
:103A20004000002000487047AC040020014B18689B
:103A3000704700BFCC040020004870477404002089
:103A40002DE9F04383B005460A9E1446B2B11F46E5
:103A5000104B8846D3F80090FFF7E4FF41468DE80D
:103A6000410022463B462846C847431C03D100225A
:103A70008A2332602B6003B0BDE8F083054B1F68DA
:103A8000FFF7D0FF21468DE84100034A2846012375
:103A9000B847EAE7D004002030A5000882B049B159
:103AA0005AB16BB113780B601278101C18BF01204B
:103AB00002B0704701A9002AF3D1104602B0704746
:103AC0006FF00100F4E700BF830770B4C9B240D0C3
:103AD000541E002A3FD003788B4218BF431C05D1E7
:103AE0001CE0ECB10278013C8A4217D013F0030FBE
:103AF000184603F10103F4D1032C14D884B10378E0
:103B00008B420BD00519431C02E002788A4205D093
:103B1000AB42184603F10103F7D1002070BC704797
:103B2000204670BC7047024641EA012646EA064636
:103B3000136810467340A3F1013525EA030313F01F
:103B4000803F02F10402D9D1043C032C1046EFD887
:103B5000D4E71446D0E71046E0E700BF032A70B46C
:103B600026D940EA01039B0711D004780D78AC42B6
:103B700022D10244431C05E013F8014B11F8015F08
:103B8000AC4219D19342F7D1002070BC70470C466B
:103B900003461E6825681846AE42214603F1040319
:103BA00004F1040404D1043A032A18462146F0D84B
:103BB000002ADAD11046E8E7601B70BC704700BFEE
:103BC00070B4840746D0541E002A41D0CDB20346BB
:103BD00002E0621EE4B3144603F8015B9A07F8D1D1
:103BE000032C2ED9CDB245EA05250F2C45EA054513
:103BF00019D9264603F11002103E0F2E42F8105C30
:103C000042F80C5C42F8085C42F8045C02F11002D5
:103C1000F2D8A4F1100222F00F0204F00F041032C7
:103C2000032C13440DD91E462246043A032A46F8B3
:103C3000045BFAD8221F22F003020432134404F07A
:103C400003042CB1C9B21C4403F8011BA342FBD1ED
:103C500070BC704714460346C2E700BF10B431F091
:103C6000004408D0114BA1F580129A4208D80420D4
:103C70005DF8044B704718B902205DF8044B70479B
:103C800001F1FF41094B01F5E0019942EFD9B4F58B
:103C9000801F01D20320EBE7054B9C4201D000209E
:103CA000E6E7B0FA80F04009E2E700BFFFFFDF7F00
:103CB0000000F07F70B40D785E2D2FD000221646E4
:103CC0000131431E00F1FF0403F8012FA342FBD191
:103CD00085B186F0010242554E1C16F8013C2D2B91
:103CE0000ED05D2B09D013B11D463146F3E70846CF
:103CF00070BC7047481E70BC7047304670BC70473F
:103D00004C785D2C0FD0A5420DDC023143190135F2
:103D1000AC4203F8012FFADC0236DEE701224D78CF
:103D200016460231CDE731461D46D4E700487047BC
:103D30000000C07F0EB4F0B506464FF6FF7E9CB083
:103D400021AC54F8042B0D4923466FF00045086858
:103D50004FF4027702A9029606960194ADF816E098
:103D6000ADF814700495079501F0CEFB029B00227C
:103D70001A701CB0BDE8F04003B07047700400201A
:103D8000C9B270B4002933D0850710D00378002B56
:103D900059D0994218BF431C06D127E013F8012BD4
:103DA000002A4DD0914221D09A071846F6D141EA17
:103DB0000126036846EA064601E050F8043F83EA1C
:103DC0000605A5F10134A3F1013224EA050422EA33
:103DD0000303234313F0803FEFD0037823B932E08D
:103DE00010F8013F002B2ED09942F9D170BC7047DA
:103DF00084070BD00378002BF8D0431C03E0027833
:103E00000133002AF2D099071846F8D10268A2F1CE
:103E1000013323EA020313F0803F08D150F8042F46
:103E2000A2F1013323EA020313F0803FF6D00378B6
:103E3000002BDBD010F8013F002BFBD170BC70478A
:103E4000104670BC7047184670BC70472DE9F041B1
:103E50000F46904605F0B4F804460D46B8F1000F41
:103E600011D0C7F30A53C3F16B03002B0BDD1B0505
:103E700003F17F55002405F5401522462B46FEF739
:103E8000D3F9BDE8F08120462946BDE8F08100BFA6
:103E90002DE9F04F0F469FB083460B4600200021CE
:103EA000CDE904010392002219971A921C4613F8D7
:103EB000016B2D2E00F2F080DFE816F02E00EE00F0
:103EC000EE00EE00EE00EE00EE00EE00EE00DD0093
:103ED000DD00DD00DD00DD00EE00EE00EE00EE00B6
:103EE000EE00EE00EE00EE00EE00EE00EE00EE0062
:103EF000EE00EE00EE00EE00EE00EE00DD00EE0063
:103F0000EE00EE00EE00EE00EE00EE00EE00EE0041
:103F1000EE004400EE00DA00039B4FF000084FF083
:103F2000000953B100230693039B1F60069B23B136
:103F3000414609F1004388469946404649461FB02C
:103F4000BDE8F08F00230693631C19936678002E5A
:103F5000E2D0302E1C4600F0A480002308940A937F
:103F6000A6F130034FF0000A092B5546234654466C
:103F700019D8082CC8BF0AEB8A0A05EB850203F1A1
:103F8000010306EB42021993C4BF06EB4A06A6F1F1
:103F9000300A1E78D8BFA2F13005A6F13002092AF6
:103FA00004F10104E5D958460793FFF745FDD0F821
:103FB00000805846FFF740FD0068FEF795FB079B21
:103FC00002464146184605F059FB8046002800F09D
:103FD000E480002084468646A146652E73D0452E97
:103FE00071D00023B9F1000F47D0B9F1100FC846C6
:103FF000CCEB03032846A8BF4FF010080793FEF749
:104000009DF8002C08BF4C46B8F1090FCDE904011A
:1040100013DD764B03EBC80353E91223FEF704F9D3
:10402000064650460F46FEF789F802460B463046D4
:104030003946FDF747FFCDE90401B9F10F0F00F351
:10404000D780079B002B00F0A580079B40F3678576
:10405000162B00F3D284DDE904230798634901EBB2
:10406000C001D1E90001FEF7DFF8804689460DE086
:104070000123069368E7199318E718B90A9B002BE8
:1040800000F0A1824FF000084FF00009039B002BC5
:104090003FF44CAF199F47E70023302E06937FF47F
:1040A0005CAF6378582B00F0A483782B00F0A183D9
:1040B000013419942678302EFAD0002EE2D0012354
:1040C00008940A934CE7B9F1000F4ED0199F7B1C5E
:1040D00019937E782B2E00F06D822D2E00F06482D5
:1040E0004FF00008A6F13003092B324600F202829D
:1040F000302E06D1199B013319931E78302EFAD039
:104100003246313A082A3FF66CAF199B19460A46E7
:10411000013219920793A6F130034E78A6F13001CF
:1041200009290BD80132199203EB830306EB4303F1
:104130001678303BA6F130010929F3D90799521AB4
:10414000082A00F3518444F61F629342A8BF134625
:10415000C8F1000253404344B9F1000F7FF445AF6A
:104160008BE74FF0000C4FF0010E002840F0288242
:104170000A9B002B3FF4D0AE8146A7E76FF00043C7
:1041800005934FF0FF3304932B0742BF059B43F089
:1041900000430593DDE9048978E75846FFF74CFCB6
:1041A0000068FEF7A1FA199B1A1819921E5C002CE0
:1041B00040F0E881302E204605D101321992167860
:1041C0000130302EF9D0A6F13103082B00F2A08285
:1041D000199B303E089300F1010C4FF0010905EBEB
:1041E000850506EB45050020DAE100BF80A6000842
:1041F000079BC8EB09089844B8F1000F40F39A8375
:1042000018F00F000AD0DDE90423C14901EBC00119
:10421000D1E90001FEF708F8CDE9040138F00F06F6
:1042200040F0288200230A930095089922464B46C5
:10423000584604F043FC1090002800F03B83079A96
:104240000021002AC2F10003A8BF0B460F460C93C1
:1042500022EAE27307910B93109C5846616804F0C0
:10426000B9FB8246002800F0A582DDE9042321463F
:104270009046994622690C31023292000C30CDE909
:10428000088904F02DFB1BA81CA98DE803004246F9
:104290004B46584604F01EFF1A90002800F08B820F
:1042A0005846012104F0A4FC0746002800F0828251
:1042B0001B9A002AC0F212810C9B0B9903EB020897
:1042C0000A981C9B121A1A446FF47F708242C3F141
:1042D000360380F2EC80801A1F28A3EB000300F362
:1042E0000281012500228540119208EB0309C14596
:1042F0004A46A8BF4246CE180A9B1E44B242134605
:10430000A8BF3346002B04DDC3EB0909F61AC3EB43
:1043100008080C9BB3B1394658461A4604F012FD02
:104320000746002800F04682584639461A9A04F09B
:1043300069FC0446002800F03D8258461A9904F0B2
:1043400071FB1A94B9F1000F08DD4A4658461A99D4
:1043500004F048FD1A90002800F02D820B9B43B119
:10436000514658460B9A04F0EDFC8246002800F0B6
:104370002182002E08DD51463246584604F032FDB7
:104380008246002800F01682B8F1000F08DD394699
:104390004246584604F026FD0746002800F00A82EF
:1043A00058461A99524604F099FD0790002800F0EB
:1043B0000182079A0026D3683946D6600D9304F02F
:1043C00069FDB042C0F2208400F0DD8307983946D1
:1043D00004F0D4FE00224FF0804304460D4605F061
:1043E00017FB002867D00D9B002B00F0A280B14680
:1043F000484DDDF814C0DFF81C810024464E474BC1
:104400000CEA06069E4200F027820A9B23B3B6F10F
:10441000D46F21D83CA3D3E900234846414605F098
:10442000F7FAB0B148464146FEF710F98146002838
:1044300000F02683FDF782FE814688460D9B002B07
:1044400040F0198308F10043CDF850901593DDE951
:10445000144505F1D6639D1BDDE9080104F0B0FDAC
:1044600002460B4620462946FDF7DEFE02460B4675
:10447000DDE90801FDF726FD0C46CDE904010A9BA4
:1044800023B9254B23409E4200F01F8258461A99BB
:1044900004F0C8FA5846514604F0C4FA5846394662
:1044A00004F0C0FA5846079904F0BCFAD4E600229A
:1044B0001192012519E71A4B204629460022FDF7E3
:1044C000B3FE0D9B8146884673BB01F100430E90FD
:1044D0000F93DDE90E45DDF814C08FE70B9BDDF887
:1044E0003080991AECE60F480125801A05FA00F28F
:1044F0001192FAE619970023B9F1000F7FF475AD18
:10450000BBE500BFAFF300800000C0FFFFFFDF414D
:1045100080A600080000F03F0000F07F0000E07F70
:104520000000E03FE3FBFFFF02460B46CDE90E2310
:10453000CFE7049BDDE90401002B40F0DE80C1F3EE
:1045400013038C46002B40F0DC8011912046294655
:104550000022B54B05F052FADDF844C0002840F0C7
:104560009883B24B204629460022FDF75DFE814626
:10457000884601F10043DDF844C016901793DDE949
:1045800016453BE74046A146C446A6F13002092A3B
:1045900013D8431C1646002A40F04D821846199B3A
:1045A0005A1C19925E78F0E74FF00108BB1C199372
:1045B000BE7897E54FF00008F8E74FF0010E0CE5E4
:1045C0004FF0000982E5BEF1000F7FF4A5AC493E33
:1045D000252E3FF6A1AC01A353F826F05B47000857
:1045E000193F0008193F0008193F0008193F00084B
:1045F00023470008193F0008193F0008193F000829
:10460000193F0008193F0008193F0008193F00082A
:10461000193F0008193F0008193F0008193F00081A
:10462000193F0008193F0008193F0008193F00080A
:10463000193F0008193F0008193F0008193F0008FA
:10464000193F0008193F0008193F0008193F0008EA
:10465000193F0008193F0008193F00085B47000890
:10466000193F0008193F0008193F0008193F0008CA
:1046700023470008B6F59A7F00F31C813611012EFE
:10468000DFF8D08140F32383DDE9040147464FF092
:10469000000A16F0010F0AF1010A4FEA660603D07C
:1046A000D7E90023FDF7C0FD012E07F10807F0D17F
:1046B000CDE90401059B08EBCA08A3F154730593E7
:1046C000DDE90423D8E90001FDF7AEFD21F0004348
:1046D0001B0D574A1B059342CDE9040100F2EA8005
:1046E000A2F58012934240F2CF82524B05930023F1
:1046F0000A934FF0FF33049396E5012800F0C3813D
:104700008C4600244C4D4FF00009DFF81C8175E603
:10471000652E3FF426AD4FF00009CC464FF0010E58
:104720005DE41999454809E011F8013FA3F14104FE
:10473000192C98BF203393427FF4EEAB10F8012B75
:10474000002AF1D14B1C19934B78282B00F0FD82E5
:104750003B4B0593002304931CE5199A394809E063
:1047600012F8013FA3F14104192C98BF20338B426A
:104770007FF4D2AB10F8011B0029F1D11992154634
:10478000314809E012F8013FA3F14104192C98BF08
:1047900020338B4240F0988210F8011B0029F1D1A0
:1047A00001321992294B059300230493F2E401315D
:1047B00040F0B8821A98254B0022059322230492D8
:1047C000CBF80030DDE904890146584604F02AF9A7
:1047D0005846514604F026F95846394604F022F965
:1047E0005846109904F01EF95846079904F01AF932
:1047F0004CE4069A1AAB01920093584619A9144A40
:104800001BAB03F09BFA10F0070605463FF43AACE9
:10481000062E40F047810134002319944FF0000820
:104820004FF00009069331E40000F03F0000E03F44
:104830000000A07CFFFFEF7F0000F0BFC0A40008D5
:104840000000F8FFB4A40008B8A400080000F07F3E
:10485000C4A4000848A70008ACF154730593DDE92F
:1048600004231046194604F0ABFB02460B462046D3
:104870002946FDF7D9FC02460B46DDE90401FDF7A8
:1048800021FB21F000431B0DB34A1B059342CDE9E8
:104890000401DDE90801CDE9120140F2A980AF4B26
:1048A000139A9A4200F0EB81AC4B05934FF0FF3323
:1048B0000493EBE5AA4B0022059304922223DDE941
:1048C0000489CBF80030FFF7E1BB4146484605F0CC
:1048D000BDF8FDF743FC0B46024641464846FDF74E
:1048E000EFFA0D9B8046894683B9049B73B9C4F3E4
:1048F00013045CB992A3D3E9002305F07FF80028E4
:104900003FF4C4ADDDE904891A985DE78EA3D3E9CD
:1049100000234046494605F071F80028F2D18CA3E7
:10492000D3E900234046494605F086F800283FF4C5
:10493000ADADE7E73FF476ACC8F1000717F00F0222
:104940000AD0DDE90401874B03EBC203D3E900235E
:10495000FDF794FDCDE904013F113FF463AC1F2F37
:1049600039DC17F0100300F0E7816A23002FD8BF6D
:104970000A9314DDDDE904017B4E0A9317F0010F61
:104980004FEA670703D0D6E90023FDF74DFC002F5F
:1049900006F10806F2DC0A9BCDE9040193B1DDE9DA
:1049A0000401C1F30A53C3F16B03002B0ADD1F2B73
:1049B00040F3E8810022342B049240F3EB814FF066
:1049C0005C730593DDE904010022002305F00CF877
:1049D00000283FF429AC2223CBF800304FF0000828
:1049E0004FF00009FFF752BB44F61F63FFF7B0BB5F
:1049F000059B03F15474059441E5079AC9F1250319
:104A00009A423FF7F5ABDDE90423564CC9F10F0993
:104A100004EBC901D1E90001FDF706FC079BC9EBD6
:104A2000030904EBC904D4E90023FDF7FDFB80462C
:104A30008946FFF72BBB012B9C4414D0484402E06D
:104A40005D00814510D009F1010909F1FF33082B00
:104A500005EB8503F4DDB9F1100FDCBF0AEB8A0A20
:104A60004FEA4A0AEDE74846082800F101097FDCD1
:104A7000199BFFF7B4BB4A464346CDE91423E6E44D
:104A8000DFF8E880DAE4DDE904239C46002B7FF4BC
:104A900038AE2223CBF800301A984FF000084FF0C0
:104AA000000991E61A9A3AB11CA8352104F092FB4C
:104AB00058461A9903F0B6FF1B9B062E3FF664ABCF
:104AC00001A252F826F000BF154B0008FD4A00086D
:104AD000F14A0008E54A00087D410008FD4A000847
:104AE000154B00081E4B059300230493FFF74CBBA6
:104AF0001C9B04931D9B0593FFF746BB1D9A1C99B5
:104B000003F2334322F4801242EA035304910593E3
:104B1000FFF73ABB002305930493FFF735BB163329
:104B2000FFF666ABDDE90401079A0E4BA3EBC20367
:104B3000D3E90023FDF7A2FC80468946FFF7A6BA19
:104B40009535A094FFFFCF3F9535A094FFFFDF3F41
:104B500035E5AF350000E03FFFFF9F7CFFFFEF7FB3
:104B60000000F07F80A60008D8A400080000F03FF5
:104B7000B9F1100FD7BF0AEB8A0A199B199B02EBF8
:104B80004A0A00200CE50D9EAE46DDE90889002E9C
:104B900000F08880DDE90445824BC5F3130199429A
:104BA0002A4600F0A980119B002B00F08880059A0E
:104BB00013420DD0DDE904010A9A002E00F08A802C
:104BC000FFF744F942464B46FDF77CF9804689469B
:104BD0000A9BBBB1744B4046139300231293DDE94B
:104BE00012234946FDF720FB02460B4680468946C4
:104BF000CDE9042331B9049B23B922231A98CBF8B9
:104C00000030E1E51A98DFE50D9EDDE90889002E08
:104C1000DED1049B002BDBD1DDE90401C1F31303DA
:104C20000C46002BD4D1059B23F000431B0D1B0524
:104C3000B3F1D66FCCD9079A536913B91369012B15
:104C4000C6DD07990122584604F0CCF83946079092
:104C500004F020F90028BBDD0A9B002B40F0878080
:104C6000524B2340A3F580136FEA13536FEA0353AB
:104C700005934FF0FF330493DDE90489A8E7129B05
:104C800001337FF411AE95E501F154730593FFF7FD
:104C9000C9BA474B0022CDE91623DDF83490DFF87E
:104CA0001C816CE4DDE90401C1F313030C46002B05
:104CB0007FF479AF049B002B7FF475AFCCE7049AA7
:104CC0001EEA020F84D075E76B1C19936AE54FF05A
:104CD000000AEFE4FFF7BAF802460B4640464946A1
:104CE000FDF7EEF8002200238046894604F07CFEA2
:104CF00000287FF4CEAE6BE70A9B049913B32B4BCD
:104D00002B40B3F1D46F1DD81B0DC3F16B034FF0D3
:104D1000FF3000FA03F399427FF445AF254B9A42E6
:104D20003FF445AD214B134003F580130593002359
:104D30000493DDE904894BE7002FD8BF0A933FF7BE
:104D400019AE3FE64FF0FF33E5E719A81A491CAA50
:104D500003F07EFA05287FF4FBAC1D9B43F0FF4374
:104D600043F4E00305931C9B0493FFF713BA0F4B26
:104D70002340B3F1D66F3FF775AFB3F15C7F3FF7D8
:104D800029AF86E64FF0FF3202FA03F3049A1A4085
:104D9000049217E6203B4FF0FF3202FA03F30B4078
:104DA00005930FE6FFFF0F00000050390000F07F71
:104DB0000000E0BFFFFFEF7FA0A400080000E03F7D
:104DC0002DE9F04F444C83460E46D4F800E000E055
:104DD0002646344614F8015B0EEB0500407800F0DF
:104DE000080000F0FF080028F2D12D2D4BD02B2D0C
:104DF00004BF7578B41C1BB1102B60D09A4603E039
:104E0000302D54D00A239A46B8F1000F14BF4FF04A
:104E100000406FF00040B0FBFAF90027BC460AFBE7
:104E200019000CE0303DAB4219DD7E1C05D0CC45AD
:104E300024D821D00AFB0C5C012714F8015B0EEB8F
:104E40000506767816F0040FECD116F0030606D0AE
:104E5000012E0CBF37265726AD1BAB42E5DC7B1C71
:104E600016D0C8F100008CEA000040444AB107B1F6
:104E7000611E1160BDE8F08F8542DBDD4FF0FF372A
:104E8000DBE7BDE8F08FB41C75784FF00108B2E79E
:104E9000B8F1000F4FF0220314BF4FF000406FF045
:104EA0000040CBF80030002AE2D1BDE8F08F237833
:104EB00003F0DF03582B09D008239A46A4E7302DCE
:104EC0009CD1207800F0DF00582897D14FF0100ACD
:104ED00065785346023497E7400000202DE9F04FF3
:104EE0000C4687B004916F49019205909B4622467B
:104EF000D1F800A000E02A46154615F8014B0AEB50
:104F000004035B7803F0080303F0FF01002BF2D1E8
:104F10002D2C00F092808C462B2C04BF5478951CCD
:104F2000BBF1000F72D0BBF1100F00F0A3805E4602
:104F3000F717BCF1000F72D14FF0FF386FF0004946
:104F40004046494632463B46CDF80CC004F0F6FDDB
:104F5000404602923B463246494604F0EFFD0022AD
:104F600000234FF0000EDDF80CC0DDF808801BE0D8
:104F7000303CA3452DDDBEF1FF3F13D0994208BF61
:104F8000904253D38B4208BF82424DD002FB07FEB2
:104F900006FB03EEA2FB06237344121943EBE473F2
:104FA0004FF0010E15F8014B0AEB040999F8019036
:104FB00019F0040FDCD119F003090AD0B9F1010F7F
:104FC0000CBF4FF037094FF05709C9EB0404A34554
:104FD000D1DCBEF1FF3F35D06046DCF100064FEA80
:104FE000E07161EB410772407B4012EB0C024B41D8
:104FF0000199002953D0BEF1000F1AD1104619466D
:10500000049D019B1D6007B0BDE8F08F302C27D0B8
:105010000A2600274FF00A0BBCF1000F8CD04FF08E
:1050200000084FF000498BE74445AFDD4FF0FF3EED
:10503000B8E710461946013DE3E7951C54784FF058
:10504000010C6DE7BCF1000F19D14FF0FF306FF08C
:105050000041059A22231360019B002BEBD1D2E77C
:105060002B7803F0DF03582B12D0082600274FF0CF
:10507000080B5EE7302C06D01026002759E70020E9
:105080004FF00041E5E72B7803F0DF03582BF3D115
:105090006C781026002702354FF0100B49E71046B8
:1050A0001946B0E7400000202DE9F04F494C0F466B
:1050B000D4F800E000E027463C4614F8015B0EEB14
:1050C0000506767806F0080606F0FF08002EF2D1F5
:1050D0002D2D51D02B2D04BF7D78BC1C5BB1102B26
:1050E0005BD04FF0FF39B9FBF3F903FB09FB9A469C
:1050F0006FEA0B0B07E0302D43D00A239A46DFF806
:10510000D8904FF0050B0027BC460CE0303DAB4279
:1051100019DD7E1C05D0CC4524D821D00AFB0C5CBF
:10512000012714F8015B0EEB0506767816F0040FE4
:10513000ECD116F0030606D0012E0CBF37265726F9
:10514000AD1BAB42E5DC002F11DBC8F100008CEA9F
:10515000000040444AB107B1611E1160BDE8F08F04
:105160005D45DBDD4FF0FF37DBE7BDE8F08F222345
:1051700003604FF0FF30EDE7BC1C7D784FF0010875
:10518000ACE7237803F0DF03582B0ED008239A46B0
:105190004FF0070B6FF06049B5E7302D0FD09A46FE
:1051A0004FF00F0B6FF07049ADE74FF0100A6578C4
:1051B00053464FF00F0B02346FF07049A3E7267887
:1051C00006F0DF06582EF0D04FF00F0B6FF070494D
:1051D0009A4698E740000020999999192DE9F04FD7
:1051E0008B46764987B09246049099465A46D1F844
:1051F000008000E02A46154615F8014B08EB040331
:105200005B7803F0080303F0FF00002BF2D12D2C94
:1052100000F097802B2C08BF5478039008BF951C92
:10522000B9F1000F1DD0B9F1100F00F09F804E466C
:10523000F7174A463B464FF0FF304FF0FF3104F07E
:105240007DFC4A46059000913B464FF0FF304FF001
:10525000FF3104F073FCDDF814C00292604600993F
:105260000AE0302C72D00523554902934FF0993053
:105270000A2600274FF00A09002200234FF0000EF3
:10528000CDE900671DE0303CA1452FDDBEF1FF3FB9
:1052900015D0994208BF904246D38B4208BF824244
:1052A0003FD0019E02FB06FE009E06FB03EEA2FB22
:1052B00006237344121943EBE4734FF0010E15F803
:1052C000014B08EB040C9CF801C01CF0040FDAD170
:1052D0001CF0030C0AD0BCF1010F0CBF4FF0370CCF
:1052E0004FF0570CCCEB0404A145CFDCBEF1000F0E
:1052F0001FDB03990E46CF1708463946764267EB07
:10530000470772407B4080185941BAF1000F05D021
:10531000BEF1000F0BD0013DCAF8005007B0BDE848
:10532000F08F029EB442BCDD4FF0FF3EC7E75D4602
:10533000F2E7049A222313604FF0FF304FF0FF3161
:10534000E3E70123951C5478039369E72B7803F076
:10535000DF03582B15D0072302934FF0FF306FF077
:105360006041082600274FF0080985E7302C16D049
:105370000F234FF0FF306FF070411026002702938B
:105380007AE70F2302936FF070436C784FF0FF3C85
:1053900002350093102600274FF010095EE72B78A6
:1053A00003F0DF03582BECD00F2302934FF0FF30B4
:1053B0006FF07041102600275EE700BF400000201C
:1053C00099999919B1F1FF3F37D0F8B514469389EF
:1053D000126B23F02003CDB2A381AAB16268636B84
:1053E0009A4209DA236828465A1E226003F8015CB3
:1053F000636801336360F8BD214601F0FFFA0028BD
:10540000F0D04FF0FF30F8BD236922682BB19342F2
:1054100003D212F8010CA84212D02346676804F1A7
:1054200040060321A263E76326636163012203F858
:10543000425F284623606260F8BD4FF0FF3070473E
:105440006368013A013384E80C00F8BD10B50C46DE
:10545000096B69B104F14003994201D002F046FBA7
:10546000E36B00206360206313B1A36B236010BD66
:10547000A389216943F020030022A38184E8060068
:105480004FF0FF3010BD00BF2DE9F04F9A4602FBF0
:105490000AF983B001920C9CB9F1000F28D007469D
:1054A0000E464D464FF000080FE05A4603F018FA3A
:1054B0002268C4F804805A44226038462146CBEB67
:1054C00005055E44FFF7C2FFB0B9D4F804B030461A
:1054D0005D452168E9D82A4603F002FA5046626821
:1054E0002368521B2B446260236003B0BDE8F08F39
:1054F000484603B0BDE8F08F019BC5EB0909B9FB35
:10550000F3F003B0BDE8F08F2DE9F04FC1B089464C
:105510000A920E930890FEF78FFA036818461793C5
:10552000FDF7E2F8B9F80C3018901C0604D5D9F84C
:105530001030002B01F0C28030AF3C464E460023B5
:105540001393169319930B932593249323971493F2
:1055500015930A9D2B78002B00F0A980252B02D1F2
:10556000A5E0252B03D015F8013F002BF9D10A9BAC
:10557000EB1A73B1249A259901320A981944072A23
:1055800084E809002591249272DC08340B9A1A44AD
:105590000B922B78002B00F0E28700231A46691C3F
:1055A0006D788DF86F300C9307934FF0FF3A4B1CDA
:1055B000A5F12001582900F2EA83DFE811F06D021D
:1055C000E803E803D102E803E803E803E803E8039B
:1055D000E803BC020D02E803F4011102E803D8025B
:1055E0007B027B027B027B027B027B027B027B02D3
:1055F0007B02E803E803E803E803E803E803E803C1
:10560000E803E803E8038A02DF02E803DF02E803B5
:10561000E803E803E803CB03E803E8032F03E80308
:10562000E803E803E803E8034D03E803E80367033E
:10563000E803E803E803E803E803E803E803E80312
:10564000E803E80382032B02DF02DF02DF02CA0263
:105650002B02E803E803B202E803D203FB011903BB
:105660007402E803A303E8037A00E803E8034702AF
:105670000898314623AA079304F04AF850B93C46EB
:10568000079B83E70898314623AA04F041F80028D5
:1056900000F08581B146B9F80C3013F0400F0B9B38
:1056A00018BF4FF0FF33184641B0BDE8F08F0A9D98
:1056B0006FE70A93079B980640F1D7820E9B03F190
:1056C000070929F0070303F10802D3E900890E92C4
:1056D000012300229446CDF844A08DF86F20BAF142
:1056E000000F03DB079A22F08002079258EA0902B2
:1056F00040F06F83BAF1000F00F07484012B00F0CA
:105700007283022B00F0C28439464FEAD80242EA83
:1057100049724FEAD90008F00703814690463033BA
:1057200058EA090201F8013DEFD1079A1091D2071A
:1057300000F17F857B1A0D930D9A53469245B8BFB1
:105740001346099300231293BCF1000F02D0099B6A
:1057500001330993079B13F002030F9302D0099BB7
:1057600002330993079B13F0840940F02F830C9BAD
:10577000099AC2EB0308B8F1000F40F32783B8F190
:10578000100F2599249ADFF870A529DD53464FF0B4
:10579000100BC246A8461D4606E0AAF1100ABAF14F
:1057A000100F04F1080417DD01321031072A25918A
:1057B000249284E82008F0DD0898314623AA03F0FB
:1057C000A7FF00287FF466AFAAF1100ABAF1100F04
:1057D0003C462599249AE7DC2B464546D0469A4616
:1057E000013208EB010B072ACDF894B02492C4F8DB
:1057F00000A0C4F8048000F3DE829DF86FC0083476
:10580000BCF1000F0FD0249B0BF1010B01330DF104
:105810006F010122072BCDF894B0249384E8060091
:1058200000F3FD8308340F9B73B1249B0BF1020B33
:1058300001331CA90222072BCDF894B0249384E8ED
:10584000060000F3F9830834B9F1800F00F03483C7
:10585000119B0D9AC2EB030ABAF1000F3CDDBAF1BD
:10586000100F249ADFF894942BDD49465B46A94635
:105870004FF01008DDF820B00D4606E0AAF1100A3E
:10588000BAF1100F04F1080417DD01321033072AB2
:105890002593249284E82001F0DD5846314623AA5E
:1058A00003F036FF00287FF4F5AEAAF1100ABAF132
:1058B000100F3C46259B249AE7DC9B462B464D4621
:1058C00099460132D344072ACDF894B0249284E853
:1058D000000600F398830834079BD90500F18F82F6
:1058E000249B0D990133109A8B44072BCDF894B06B
:1058F00022606160249300F3B8830834079B5A0741
:1059000041D50C9B099A9D1A002D3CDD102D249B3E
:10591000DFF8E4A323DD4FF010085A46DDF82090AD
:1059200004E0103D102D04F1080417DD013310329E
:10593000072B25922493C4F800A0C4F80480F0DD5E
:105940004846314623AA03F0E3FE00287FF4A2AEC6
:10595000103D102D3C46259A249BE7DC93460133ED
:10596000AB44072BCDF894B02493C4F800A0656035
:1059700009DD0898314623AA03F0CAFE00287FF407
:1059800089AEDDF894B00B9B099A0C998A42ACBFA2
:105990009B185B180B93BBF1000F7FF473AE0023D1
:1059A00024933C46D5E51946079840F0040007903B
:1059B0001D78FCE50A93079B13F0200300F0388163
:1059C0000E9B03F1070929F0070303F10802D3E94D
:1059D00000890E9200237CE61D7819462B22E6E50D
:1059E0001D78591C2A2D00F0E587A5F13000092803
:1059F0000B464FF0000A3FF6DBAD13F8015B0AEBF4
:105A00008A0A00EB4A0AA5F130000928F5D94AEACA
:105A1000EA7ACDE50A93079B8DF86F20980662D548
:105A20000E9B03F1070929F00709D9E9002309F1C1
:105A30000801904699460E91002A73F1000364DB39
:105A40009DF86FC0CDF844A0012348E60A93A74B08
:105A50008DF86F201693079B9B0640F120810E9BCB
:105A600003F1070929F0070303F108020E92D3E9B5
:105A70000089079BD90740F1228158EA090300F009
:105A80001E81079A302342F002028DF870308DF8A3
:105A90007150079202231CE6002A40F0E5841D782D
:105AA0001946202283E5079941F0200107911D78CE
:105AB00019467CE5A5F13000002113F8015B01EBEC
:105AC000810100EB4101A5F130000928F5D90C91C5
:105AD0006EE50A93079B8DF86F2043F01003079340
