:020000040800F2
:10000000D80F002099170008F5170008F517000809
:10001000F5170008F5170008F517000800000000A4
:10002000000000000000000000000000F5170008BC
:10003000F517000800000000F5170008F517000884
:10004000F5170008F5170008F5170008F517000860
:10005000F5170008F5170008F5170008F517000850
:10006000F5170008F5170008F5170008F517000840
:10007000F5170008F5170008F5170008F517000830
:10008000F5170008F5170008F5170008F517000820
:10009000F5170008F5170008F5170008F517000810
:1000A000F5170008F5170008F5170008F517000800
:1000B000F5170008F5170008F5170008F5170008F0
:1000C000F5170008F5170008F5170008F5170008E0
:1000D000F5170008DD130008F51700088916000859
:1000E000F5170008F5170008F517000800000000D4
:1000F0000000000000000000000000000000000000
:1001000000000000000000005FF808F180B584B036
:1001100000AF786039600023FB817B68674A9342B7
:1001200043D07B68B3F1804F3FD07B68644A9342F1
:100130003BD07B68634A934237D07B68624A9342E4
:1001400033D07B68614A93422FD07B68604A9342E8
:100150002BD07B685F4A934227D07B685E4A9342EC
:1001600023D07B685D4A93421FD07B685C4A9342F0
:100170001BD07B685B4A934217D07B685A4A9342F4
:1001800013D07B68594A93420FD07B68584A9342F8
:100190000BD07B68574A934207D07B68564A9342FC
:1001A00003D05648E72101F06FFE3B685B88002BC7
:1001B00013D03B685B88102B0FD03B685B88202BEB
:1001C0000BD03B685B88402B07D03B685B88602B7B
:1001D00003D04A48E82101F057FE3B68DB88002B3A
:1001E0000DD03B68DB88B3F5807F08D03B68DB88A7
:1001F000B3F5007F03D04148E92101F045FE7B685B
:100200001B88FB817B682D4A934213D07B68314A5F
:1002100093420FD07B68B3F1804F0BD07B68284AA4
:10022000934207D07B68274A934203D07B68264AD3
:10023000934208D1FB8923F07003FB813B685A8805
:10024000FB891343FB817B68204A93420CD07B6877
:100250001F4A934208D0FB8923F44073FB813B681B
:10026000DA88FB891343FB817B68FA891A803B6833
:100270009A887B689A853B681A887B681A857B68B0
:100280000E4A93420FD07B68124A93420BD07B6890
:10029000174A934207D07B68164A934203D07B6883
:1002A000154A934204D13B681B7A9AB27B681A863E
:1002B0007B6801229A821037BD4680BD002C014028
:1002C0000004004000080040000C00400010004006
:1002D0000014004000340140004C01400050014037
:1002E0000054014000180040001C00400020004065
:1002F00000400140004401400048014064B3000850
:1003000080B584B000AF7860396000237B81002322
:10031000FB810023BB817B68904A93423CD07B6881
:10032000B3F1804F38D07B688D4A934234D07B68DC
:100330008C4A934230D07B688B4A93422CD07B68A6
:100340008A4A934228D07B68894A934224D07B68AA
:10035000884A934220D07B68874A93421CD07B68AE
:10036000864A934218D07B68854A934214D07B68B2
:10037000844A934210D07B68834A93420CD07B68B6
:10038000824A934208D07B68814A934204D08148D4
:100390004FF48E7101F078FD3B681B88002B18D05C
:1003A0003B681B88102B14D03B681B88202B10D077
:1003B0003B681B88302B0CD03B681B88602B08D017
:1003C0003B681B88702B04D0724840F21D1101F06D
:1003D0005BFD3B685B88002B08D03B685B88012B8A
:1003E00004D06C484FF48F7101F04EFD3B681B89BF
:1003F000002B08D03B681B89022B04D0654840F2D3
:100400001F1101F041FD7B681B8C9BB223F001039F
:100410009AB27B681A847B681B8CFB817B689B8803
:10042000BB817B681B8B7B817B8923F070037B8185
:100430007B8923F003037B813B681A887B89134304
:100440007B81FB8923F00203FB813B681A89FB89CE
:100450001343FB813B685A88FB891343FB817B680C
:100460003E4A93420FD07B68404A93420BD07B6850
:10047000454A934207D07B68444A934203D07B6845
:10048000434A934259D13B689B88002B08D03B6874
:100490009B88042B04D03F484FF49E7101F0F4FC7C
:1004A0003B685B89002B08D03B685B89082B04D034
:1004B000384840F23D1101F0E7FC3B68DB89B3F5B9
:1004C000007F08D03B68DB89002B04D031484FF413
:1004D0009F7101F0D9FC3B689B89B3F5807F08D000
:1004E0003B689B89002B04D02A4840F23F1101F061
:1004F000CBFCFB8923F00803FB813B685A89FB890D
:100500001343FB81FB8923F00403FB813B689A883A
:10051000FB891343FB81BB8923F48073BB81BB89B7
:1005200023F40073BB813B689A89BB891343BB8169
:100530003B68DA89BB891343BB817B68BA899A809F
:100540007B687A891A833B68DA887B689A867B683D
:10055000FA891A841037BD4680BD00BF002C0140C7
:100560000004004000080040000C0040003401403E
:10057000004C014000500140005401400018004070
:10058000001C0040002000400040014000440140A9
:100590000048014064B3000880B584B000AF7860C3
:1005A000396000237B810023FB810023BB817B68B2
:1005B000854A934224D07B68B3F1804F20D07B687A
:1005C000824A93421CD07B68814A934218D07B6850
:1005D000804A934214D07B687F4A934210D07B6854
:1005E0007E4A93420CD07B687D4A934208D07B6858
:1005F0007C4A934204D07C4840F26F1101F044FCE5
:100600003B681B88002B18D03B681B88102B14D02C
:100610003B681B88202B10D03B681B88302B0CD0EC
:100620003B681B88602B08D03B681B88702B04D06C
:100630006D484FF4B87101F027FC3B685B88002BD4
:1006400008D03B685B88012B04D0674840F27111E9
:1006500001F01AFC3B681B89002B08D03B681B8902
:10066000022B04D060484FF4B97101F00DFC7B6897
:100670001B8C9BB223F010039AB27B681A847B68B0
:100680001B8CFB817B689B88BB817B681B8B7B8180
:100690007B8923F4E0437B817B8923F440737B8156
:1006A0003B681B881B029AB27B8913437B81FB89C1
:1006B00023F02003FB813B681B891B019AB2FB8955
:1006C0001343FB813B685B881B019AB2FB89134390
:1006D000FB817B683C4A934203D07B683E4A93424D
:1006E00061D13B689B88002B08D03B689B88042B1A
:1006F00004D03D4840F28F1101F0C6FB3B685B8996
:10070000002B08D03B685B89082B04D036484FF497
:10071000C87101F0B9FB3B68DB89B3F5007F08D0F5
:100720003B68DB89002B04D02F4840F2911101F087
:10073000ABFB3B689B89B3F5807F08D03B689B8906
:10074000002B04D028484FF4C97101F09DFBFB89B0
:1007500023F08003FB813B685B891B019AB2FB8914
:100760001343FB81FB8923F04003FB813B689B889B
:100770001B019AB2FB891343FB81BB8923F480637D
:10078000BB81BB8923F40063BB813B689B899B00D1
:100790009AB2BB891343BB813B68DB899B009AB249
:1007A000BB891343BB817B68BA899A807B687A894D
:1007B0001A833B68DA887B681A877B68FA891A840F
:1007C0001037BD4680BD00BF002C01400004004032
:1007D00000080040000C004000340140004C014083
:1007E000001800400040014064B3000880B584B0A8
:1007F00000AF7860396000237B810023FB810023F8
:10080000BB817B687E4A934218D07B68B3F1804FEE
:1008100014D07B687B4A934210D07B687A4A93421B
:100820000CD07B68794A934208D07B68784A93421F
:1008300004D0784840F2C11101F026FB3B681B88C8
:10084000002B18D03B681B88102B14D03B681B88EA
:10085000202B10D03B681B88302B0CD03B681B88AA
:10086000602B08D03B681B88702B04D069484FF47C
:10087000E17101F009FB3B685B88002B08D03B6805
:100880005B88012B04D0634840F2C31101F0FCFAED
:100890003B681B89002B08D03B681B89022B04D0C6
:1008A0005C484FF4E27101F0EFFA7B681B8C9BB25D
:1008B00023F480739AB27B681A847B681B8CFB815B
:1008C0007B689B88BB817B689B8B7B817B8923F0CA
:1008D00070037B817B8923F003037B813B681A884B
:1008E0007B8913437B81FB8923F40073FB813B6885
:1008F0001B891B029AB2FB891343FB813B685B880F
:100900001B029AB2FB891343FB817B683C4A9342EA
:1009100003D07B683E4A934261D13B689B88002BA1
:1009200008D03B689B88042B04D03A484FF4F07100
:1009300001F0AAFA3B685B89002B08D03B685B8911
:10094000082B04D0334840F2E11101F09DFA3B68D6
:10095000DB89B3F5007F08D03B68DB89002B04D02E
:100960002C484FF4F17101F08FFA3B689B89B3F585
:10097000807F08D03B689B89002B04D0254840F23B
:10098000E31101F081FAFB8923F40063FB813B68EA
:100990005B891B029AB2FB891343FB81FB8923F419
:1009A0008063FB813B689B881B029AB2FB891343DF
:1009B000FB81BB8923F48053BB81BB8923F40053A3
:1009C000BB813B689B891B019AB2BB891343BB81E6
:1009D0003B68DB891B019AB2BB891343BB817B68EF
:1009E000BA899A807B687A899A833B68DA887B68BF
:1009F0009A877B68FA891A841037BD4680BD00BF8C
:100A0000002C01400004004000080040000C0040A1
:100A10000034014064B3000880B584B000AF786052
:100A200039600023BB8100237B810023FB817B682D
:100A30005B4A934218D07B68B3F1804F14D07B6837
:100A4000584A934210D07B68574A93420CD07B6837
:100A5000564A934208D07B68554A934204D0554881
:100A60004FF4047101F010FA3B681B88002B18D07A
:100A70003B681B88102B14D03B681B88202B10D0A0
:100A80003B681B88302B0CD03B681B88602B08D040
:100A90003B681B88702B04D0464840F2112101F0BE
:100AA000F3F93B685B88002B08D03B685B88012B1F
:100AB00004D0404840F2122101F0E6F93B681B895E
:100AC000002B08D03B681B89022B04D0394840F228
:100AD000132101F0D9F97B681B8C9BB223F480535E
:100AE0009AB27B681A847B681B8C7B817B689B88AD
:100AF000FB817B689B8BBB81BB8923F4E043BB817B
:100B0000BB8923F44073BB813B681B881B029AB2EC
:100B1000BB891343BB817B8923F400537B813B68F2
:100B20001B891B039AB27B8913437B813B685B88DB
:100B30001B039AB27B8913437B817B68184A9342DB
:100B400003D07B681A4A934218D13B689B89B3F55E
:100B5000807F08D03B689B89002B04D015484FF458
:100B60000C7101F091F9FB8923F48043FB813B6810
:100B70009B899B019AB2FB891343FB817B68FA89AD
:100B80009A807B68BA899A833B68DA887B68A3F885
:100B900040207B687A891A841037BD4680BD00BF2B
:100BA000002C01400004004000080040000C004000
:100BB0000034014064B3000880B582B000AF7860B3
:100BC0000B46FB707B68354A934244D07B68B3F197
:100BD000804F40D07B68324A93423CD07B68314A98
:100BE000934238D07B68304A934234D07B682F4A96
:100BF000934230D07B682E4A93422CD07B682D4A9A
:100C0000934228D07B682C4A934224D07B682B4A9D
:100C1000934220D07B682A4A93421CD07B68294AA1
:100C2000934218D07B68284A934214D07B68274AA5
:100C3000934210D07B68264A93420CD07B68254AA9
:100C4000934208D07B68244A934204D0234840F260
:100C5000293101F019F9FB78002B07D0FB78012B23
:100C600004D01E4840F22A3101F00EF9FB78002B27
:100C700008D07B681B889BB243F001039AB27B6863
:100C80001A8007E07B681B889BB223F001039AB2AD
:100C90007B681A800837BD4680BD00BF002C01402C
:100CA0000004004000080040000C0040001000401C
:100CB0000014004000340140004C0140005001404D
:100CC0000054014000180040001C0040002000407B
:100CD00000400140004401400048014064B3000866
:100CE00080B582B000AF78600B46FB707B68354AF8
:100CF000934244D07B68B3F1804F40D07B68324A46
:100D000093423CD07B68314A934238D07B68304A6A
:100D1000934234D07B682F4A934230D07B682E4A6E
:100D200093422CD07B682D4A934228D07B682C4A72
:100D3000934224D07B682B4A934220D07B682A4A76
:100D400093421CD07B68294A934218D07B68284A7A
:100D5000934214D07B68274A934210D07B68264A7E
:100D600093420CD07B68254A934208D07B68244A82
:100D7000934204D0234840F2845101F085F8FB7877
:100D8000002B07D0FB78012B04D01E4840F2855180
:100D900001F07AF8FB78002B08D07B681B889BB2A7
:100DA00043F080039AB27B681A8007E07B681B8857
:100DB0009BB223F080039AB27B681A800837BD4645
:100DC00080BD00BF002C014000040040000800402E
:100DD000000C0040001000400014004000340140AE
:100DE000004C0140005001400054014000180040F8
:100DF000001C004000200040004001400044014031
:100E00000048014064B3000880B584B000AF78604A
:100E10000B467B800023FB817B682E4A93423CD0AB
:100E20007B68B3F1804F38D07B682B4A934234D033
:100E30007B682A4A934230D07B68294A93422CD05F
:100E40007B68284A934228D07B68274A934224D063
:100E50007B68264A934220D07B68254A93421CD067
:100E60007B68244A934218D07B68234A934214D06B
:100E70007B68224A934210D07B68214A93420CD06F
:100E80007B68204A934208D07B681F4A934204D073
:100E90001E4840F2E95100F0F7FF7B88082B07D08D
:100EA0007B88002B04D0194840F2EA5100F0ECFF97
:100EB0007B681B8BFB81FB8923F00803FB81FA898C
:100EC0007B881343FB817B68FA891A831037BD4600
:100ED00080BD00BF002C014000040040000800401D
:100EE000000C004000340140004C01400050014023
:100EF0000054014000180040001C00400020004049
:100F000000400140004401400048014064B3000833
:100F100080B584B000AF78600B467B800023FB81F6
:100F20007B68234A934224D07B68B3F1804F20D062
:100F30007B68204A93421CD07B681F4A934218D09A
:100F40007B681E4A934214D07B681D4A934210D09E
:100F50007B681C4A93420CD07B681B4A934208D0A2
:100F60007B681A4A934204D0194840F2026100F0AB
:100F70008BFF7B88082B07D07B88002B04D014487C
:100F800040F2036100F080FF7B681B8BFB81FB89D3
:100F900023F40063FB817B881B029AB2FB89134315
:100FA000FB817B68FA891A831037BD4680BD00BF7C
:100FB000002C01400004004000080040000C0040EC
:100FC00000340140004C0140001800400040014046
:100FD00064B3000880B584B000AF78600B467B80B6
:100FE0000023FB817B681C4A934218D07B68B3F1D5
:100FF000804F14D07B68194A934210D07B68184AFE
:1010000093420CD07B68174A934208D07B68164AFB
:10101000934204D0154840F21A6100F035FF7B88F6
:10102000082B07D07B88002B04D0104840F21B61AE
:1010300000F02AFF7B689B8BFB81FB8923F0080370
:10104000FB81FA897B881343FB817B68FA899A8349
:101050001037BD4680BD00BF002C01400004004099
:1010600000080040000C00400034014064B3000858
:1010700080B584B000AF78600B467B800023FB8195
:101080007B681D4A934218D07B68B3F1804F14D01F
:101090007B681A4A934210D07B68194A93420CD05D
:1010A0007B68184A934208D07B68174A934204D061
:1010B000164840F2326100F0E7FE7B88082B07D02B
:1010C0007B88002B04D0114840F2336100F0DCFE35
:1010D0007B689B8BFB81FB8923F40063FB817B880E
:1010E0001B029AB2FB891343FB817B68FA899A83BE
:1010F0001037BD4680BD00BF002C014000040040F9
:1011000000080040000C00400034014064B30008B7
:1011100080B500AF154A154B1B6843F001031360FF
:101120001249124B5A68124B13404B600F4A0F4B37
:101130001B6823F0847323F4803313600B4A0B4B3A
:101140001B6823F480231360084A084B5B6823F470
:10115000FE035360054B4FF41F029A6000F00CF839
:10116000044B4FF000629A6080BD00BF0010024047
:101170000000FFF800ED00E080B500AF00F002F8DD
:1011800080BD00BF80B483B000AF00237B6000232C
:101190003B603A4A394B1B6843F480331360374B4A
:1011A0001B6803F400333B607B6801337B603B6862
:1011B000002B03D17B68B3F5A06FF0D12F4B1B68D8
:1011C00003F40033002B02D001233B6001E0002335
:1011D0003B603B68012B4BD1294A294B1B6843F0EC
:1011E00010031360264A264B1B6823F00303136089
:1011F000234A234B1B6843F0020313601F4A1F4B13
:101200005B6853601D4A1D4B5B6853601B4A1B4B58
:101210005B6843F480635360184A184B5B6823F49F
:101220007C135360154A154B5B6843F4E813536015
:10123000124A124B1B6843F08073136000BF0F4BC0
:101240001B6803F00073002BF9D00C4A0B4B5B6852
:1012500023F003035360094A084B5B6843F0020321
:10126000536000BF054B5B6803F00C03082BF9D1FA
:101270000C37BD465DF8047B704700BF001002408C
:101280000020024080B586B000AF44F20400012186
:1012900000F0B2FE4FF40073BB821823FB750323EA
:1012A000BB7507F114034948194600F0A7FA4FF43B
:1012B0008063BB820423FB750323BB7507F1140312
:1012C0004248194600F09AFA4FF4E1337B6000235C
:1012D0003B8100237B810023BB8100233B820C23C5
:1012E000FB813B1D3A48194600F0F6FE38480121C3
:1012F00001F04EF80820012100F07EFE4FF480201E
:10130000012100F0B1FE4FF48063BB821823FB750E
:101310000323BB7507F114032E48194600F06EFA3B
:101320004FF40063BB820423FB750323BB7507F1F5
:1013300014032848194600F061FA4FF4E1337B604A
:1013400000233B8100237B810023BB8100233B8260
:101350000C23FB813B1D2048194600F0BDFE1E48B2
:10136000012101F015F825233B7000237B70002339
:10137000BB700123FB703B46184601F01DFD14486D
:1013800040F22551012201F051F8114840F2277135
:10139000012201F04BF827233B7000237B700023D0
:1013A000BB700123FB703B46184601F005FD0A485F
:1013B00040F22551012201F039F8074840F2277127
:1013C000012201F033F81837BD4680BD0008014006
:1013D00000380140000C01400048004098B500AFC3
:1013E0003A484FF4004100F033FB394840F22551B0
:1013F00001F0BCF90346012B2CD1354B1B889BB265
:1014000003F00F03002B22D1324B1C68631C314ABE
:1014100013602F4801F0FCF80346DAB22E4B1A5540
:101420002C4B1B68802B02D12A4B00221A602B4BBD
:101430001B680133294A1360284B1B68802B09D194
:10144000264B00221A60264B01221A7002E0204827
:1014500001F0DEF81E484FF4587101F087F9034699
:10146000012B02D11A4801F0D3F8194840F2277134
:1014700001F07CF90346012B22D11A4B1B68002B8B
:1014800018D0184B1B68013B164A1360164B1B689B
:101490005A1C15490A60154AD35C9BB20C48194680
:1014A00001F078F8104B1B68802B09D10E4B0022FD
:1014B0001A6005E0064840F22771002200F0B6FFEE
:1014C00002484FF4004100F009FB98BD00080140BC
:1014D00000380140E408002054090020EC080020F6
:1014E000F0080020FC080020F8080020540A002022
:1014F00080B582B000AF00BF144B1B68002BFBD03F
:10150000134B1B685A1C12490A60124AD35CFB71C8
:101510000F4B1B68802B02D10D4B00221A600E4826
:1015200040F22551002200F081FF084B1B68013B6F
:10153000064A1360084840F22551012200F076FF68
:10154000FB7918460837BD4680BD00BFEC08002077
:10155000E8080020540900200038014080B582B01E
:1015600000AF0346FB7100BF1C4B1B68802BFBD0F8
:101570001B4840F22771002200F058FF174B1B68F0
:10158000002B06D11648802101F076F80346002B87
:101590001AD1144B1B685A1C12490A601249FA7975
:1015A000CA54104B1B68802B02D10E4B00221A60CC
:1015B0000A4B1B680133094A1360094840F227713E
:1015C000012200F033FF05E0FB799BB20448194685
:1015D00000F0E0FF0837BD4680BD00BFFC080020DA
:1015E00000380140F4080020540A002080B582B081
:1015F00000AF786006E07B685A1C7A601B7818465A
:10160000FFF7ACFF7B681B78002BF4D10837BD4691
:1016100080BD00BF80B483B000AF00237B6007E0D3
:10162000074A7B68134400221A707B6801337B6091
:101630007B687F2BF4DD0C37BD465DF8047B70477B
:10164000540B002080B584B000AF7860FFF7E2FF54
:101650000023FB6011E0FFF74BFF0346FB72FB7AB0
:101660000D2B05D07B685A1C7A60FA7A1A7001E05B
:101670008023FB60FB680133FB60FB687F2BEAD9AA
:101680001037BD4680BD00BF98B500AF394808216E
:1016900000F0DEF9384840F2255101F067F80346C2
:1016A000012B2CD1344B1B889BB203F00F03002B72
:1016B00022D1324B1C68631C304A13602E4800F064
:1016C000A7FF0346DAB22E4B1A552C4B1B68802B12
:1016D00002D12A4B00221A602A4B1B680133294A87
:1016E0001360284B1B68802B09D1264B00221A60FF
:1016F000254B01221A7002E01F4800F089FF1E48A6
:101700004FF4587101F032F80346012B02D11A4808
:1017100000F07EFF184840F2277101F027F80346D9
:10172000012B22D1194B1B68002B18D0174B1B68BB
:10173000013B164A1360164B1B685A1C14490A6079
:10174000144AD35C9BB20C48194600F023FF104B9F
:101750001B68802B09D10E4B00221A6005E0064859
:1017600040F22771002200F061FE0248082100F0DB
:10177000B5F998BD000C0140004800400009002068
:10178000D40A0020080900200C09002018090020B4
:1017900014090020D409002080B582B000AF104B9E
:1017A0007B60104B3B6007E03B681A1D3A607A682B
:1017B000111D796012681A603B680B4A9342F3D39B
:1017C0000A480B494FF000028842B8BF40F8042B8A
:1017D000FADBFFF79DFC00F045FB0837BD4680BDF6
:1017E00028BA000800000020E4080020E4080020D7
:1017F000D80B002080B400AFFEE700BF80B588B0F2
:1018000000AF786039600023FB6100233B61002357
:10181000BB610023FB6000237B610023BB607B680E
:10182000834A93421BD07B68824A934217D07B68DD
:10183000814A934213D07B68804A93420FD07B68E1
:101840007F4A93420BD07B687E4A934207D07B68E5
:101850007D4A934203D07D48B22100F015FB3B68DE
:10186000DB78002B1FD03B68DB78042B1BD03B6858
:10187000DB78282B17D03B68DB78482B13D03B68EC
:10188000DB78142B0FD03B68DB78102B0BD03B6838
:10189000DB781C2B07D03B68DB78182B03D06B4818
:1018A000B32100F0F1FA3B681B88002B03D1674895
:1018B000B42100F0E9FA3B68DB7803F00F03FB6129
:1018C0003B68DB7803F01003002B15D03B689B7856
:1018D000012B0BD03B689B78022B07D03B689B7891
:1018E000032B03D05948BB2100F0CEFA3B689B780C
:1018F0001A46FB691343FB613B681B88DBB2002B74
:1019000044D07B681B687B610023BB6138E0BB6906
:10191000012202FA03F3FB603B681B881A46FB684E
:1019200013403B613A69FB689A4226D1BB699B0030
:10193000FB60FB680F2202FA03F3BB60BB68DB436A
:101940007A6913407B61FB68FA6902FA03F37A69EA
:1019500013437B613B68DB78282B05D1BB690122EF
:101960009A407B685A6108E03B68DB78482B04D1D9
:10197000BB6901229A407B681A61BB690133BB6174
:10198000BB69072BC3D97B687A691A603B681B88DF
:10199000FF2B4AD97B685B687B610023BB613EE01B
:1019A000BB6908331A4601239340FB603B681B88E0
:1019B0001A46FB6813403B613A69FB689A422BD197
:1019C000BB699B00FB60FB680F2202FA03F3BB605C
:1019D000BB68DB437A6913407B61FB68FA6902FAF2
:1019E00003F37A6913437B613B68DB78282B07D1CB
:1019F000BB6908331A46012303FA02F27B685A6175
:101A00003B68DB78482B07D1BB6908331A460123B2
:101A100003FA02F27B681A61BB690133BB61BB69DF
:101A2000072BBDD97B687A695A602037BD4680BDD7
:101A300000080140000C014000100140001401406A
:101A400000180140001C014000200140B4B3000810
:101A500080B582B000AF78600B467B807B68174A08
:101A600093421CD07B68164A934218D07B68154A73
:101A7000934214D07B68144A934210D07B68134A77
:101A800093420CD07B68124A934208D07B68114A7B
:101A9000934204D0104840F2691100F0F5F97B88B8
:101AA000002B04D10C484FF4B57100F0EDF97A88A1
:101AB0007B681A610837BD4680BD00BF0008014041
:101AC000000C0140001001400014014000180140CA
:101AD000001C014000200140B4B3000880B582B072
:101AE00000AF78600B467B807B68174A93421CD01E
:101AF0007B68164A934218D07B68154A934214D0EB
:101B00007B68144A934210D07B68134A93420CD0EE
:101B10007B68124A934208D07B68114A934204D0F2
:101B2000104840F2791100F0AFF97B88002B04D106
:101B30000C484FF4BD7100F0A7F97A887B685A61B0
:101B40000837BD4680BD00BF00080140000C0140C1
:101B5000001001400014014000180140001C014029
:101B600000200140B4B3000880B586B000AF7860B3
:101B70000B46FB7000233B610023FB6000237B616D
:101B80000023BB607B68012B00F0BA807B68022BCE
:101B900000F0B6807B68042B00F0B2807B68082BD5
:101BA00000F0AE807B688B4A934200F0A9807B688E
:101BB000894A934200F0A4807B68884A934200F0EF
:101BC0009F807B68864A934200F09A807B68854AB2
:101BD000934200F095807B68834A934200F09080A6
:101BE0007B68824A934200F08B807B68804A9342F4
:101BF00000F086807B687F4A934200F081807B689A
:101C0000B3F5805F7CD07B68B3F5EA1F78D07B6842
:101C1000B3F5EB1F74D07B68B3F5004F70D07B68D1
:101C2000754A93426CD07B68744A934268D07B6853
:101C3000734A934264D07B68724A934260D07B6857
:101C4000714A93425CD07B68B3F1201F58D07B6807
:101C50006E4A934254D07B686D4A934250D07B6861
:101C60006C4A93424CD07B686B4A934248D07B6865
:101C70006A4A934244D07B68694A934240D07B6869
:101C8000B3F5011F3CD07B68664A934238D07B682D
:101C9000654A934234D07B68644A934230D07B6873
:101CA000634A93422CD07B68624A934228D07B6877
:101CB000614A934224D07B68604A934220D07B687B
:101CC0005F4A93421CD07B685E4A934218D07B687F
:101CD0005D4A934214D07B685C4A934210D07B6883
:101CE0005B4A93420CD07B685A4A934208D07B6887
:101CF000594A934204D0594840F22A2100F0C4F8CE
:101D0000FB78002B07D0FB78012B04D0534840F21E
:101D10002B2100F0B9F87B68002B03DA504BDB690C
:101D20007B6102E04E4B5B687B617B6803F4702350
:101D30001B0CBB607B689BB23B617B6803F4401368
:101D4000B3F5401F0AD17B6923F070637B61444A7D
:101D5000434B5B6823F07063536021E07B6803F4BE
:101D60008013002B0ED0BB68032202FA03F3FB6042
:101D7000FB68DB437A6913407B617B6943F07063E6
:101D80007B610DE07B685B0D1B011A463B6993404C
:101D9000DB437A6913407B617B6943F070637B614D
:101DA000FB78002B08D07B685B0D1B011A463B6952
:101DB00093407A6913437B617B68002B03DA284ADE
:101DC0007B69D36102E0264A7B6953601837BD46C0
:101DD00080BD00BF10001400300014004000160049
:101DE000C0001600000118000002180000031800CF
:101DF00000081A00000C1A00010020000200200058
:101E000004002000080020001000200040002000F6
:101E100000013000000230000004300000112000FA
:101E200000202000010000800200008004000080EB
:101E3000080000801000008020000080400000802A
:101E4000800000800001008000020080000400800B
:101E5000000800800010008000200080B4B300085B
:101E60000000014080B500AFFFF752F900F074FDAB
:101E700000F042FD00F0F4FDFFF704FA01F01AF85B
:101E800001F08EF8FEE700BF80B483B000AF786049
:101E90003960FEE780B487B000AF786000237B61D3
:101EA00000233B610023FB600023BB604D4B5B685C
:101EB00003F00C037B617B69042B07D0082B09D04E
:101EC000002B34D17B68484A1A6034E07B68464A6C
:101ED0001A6030E0434B5B6803F470133B61414B85
:101EE0005B6803F48033FB603B699B0C02333B610E
:101EF000FB68002B06D13B693C4A02FB03F27B687E
:101F00001A6013E0374B5B6803F40033002B06D0F4
:101F10003B69364A02FB03F27B681A6006E03B69C4
:101F2000314A02FB03F27B681A6004E003E07B683D
:101F30002D4A1A6000BF2B4B5B6803F0F0037B61F6
:101F40007B691B097B612A4A7B6913441B78DBB2DE
:101F5000BB607B681A68BB68DA407B685A60214BBB
:101F60005B6803F4E0637B617B691B0A7B61204A49
:101F70007B6913441B78DBB2BB607B685A68BB6823
:101F8000DA407B689A60174B5B6803F460537B61AF
:101F90007B69DB0A7B61164A7B6913441B78DBB2E1
:101FA000BB607B685A68BB68DA407B68DA600D4BBF
:101FB0005B6803F440437B617B699B0B7B610D4A4B
:101FC0007B6913441B78DBB2BB607B68DA68BB6853
:101FD000B2FBF3F27B681A611C37BD465DF8047BE7
:101FE000704700BF0010024000127A0000093D0057
:101FF000000000201000002080B582B000AF7860A3
:102000000B46FB707A68154B1340002B02D17B689E
:10201000002B04D1124840F24A41FFF735FFFB780C
:10202000002B07D0FB78012B04D00D4840F24B4128
:10203000FFF72AFFFB78002B06D00A49094B9A6963
:102040007B6813438B6106E00649064B9A697B68FF
:10205000DB4313408B610837BD4680BD0200C0FFE3
:1020600004B400080010024080B582B000AF786070
:102070000B46FB707A68154B1340002B02D17B682E
:10208000002B04D1124840F26941FFF7FDFEFB78B6
:10209000002B07D0FB78012B04D00D4840F26A4199
:1020A000FFF7F2FEFB78002B06D00A49094BDA69EC
:1020B0007B681343CB6106E00649064BDA697B680F
:1020C000DB431340CB610837BD4680BD003601813C
:1020D00004B400080010024080B58CB000AF7860F6
:1020E00039600023FB620023BB6200237B62002374
:1020F0003B620023FB617B689D4A934213D07B685F
:102100009C4A93420FD07B689B4A93420BD07B68DA
:102110009A4A934207D07B68994A934203D09948E0
:10212000B821FFF7B1FE3B681B68002B04D03B6869
:102130001B68954A934203D99248B921FFF7A4FE40
:102140003B689B88002B08D03B689B88B3F5805F79
:1021500003D08C48BA21FFF797FE3B68DB88002B41
:1021600012D03B68DB88B3F5805F0DD03B68DB881D
:10217000B3F5005F08D03B68DB88B3F5405F03D060
:102180008048BB21FFF780FE3B681B89002B0DD0E8
:102190003B681B89B3F5806F08D03B681B89B3F59A
:1021A000C06F03D07748BC21FFF76EFE3B685B89A8
:1021B0001A464FF6F3731340002B03D13B685B893B
:1021C000002B03D16F48BD21FFF75EFE3B689B8962
:1021D000002B12D03B689B89B3F5807F0DD03B6804
:1021E0009B89B3F5007F08D03B689B89B3F5407F9E
:1021F00003D06448BE21FFF747FE3B689B89002B54
:102200000FD07B685A4A93420BD07B68594A93425D
:1022100007D07B68584A934203D05A48C221FFF73F
:1022200033FE7B68FB617B681B8A9BB2FB62FA6AA8
:102230004CF6FF731340FB623B68DB881A46FB6A6F
:102240001343FB62FB6A9AB27B681A827B689B89A4
:102250009BB2FB62FA6A4EF6F3131340FB623B68D3
:102260009A883B681B8913439AB23B685B89134386
:102270009BB21A46FB6A1343FB62FB6A9AB27B6805
:102280009A817B689B8A9BB2FB62FA6A4FF6FF4396
:102290001340FB623B689B891A46FB6A1343FB624F
:1022A000FB6A9AB27B689A8207F108031846FFF727
:1022B000F1FDFB692E4A934202D17B69BB6201E0CA
:1022C0003B69BB627B689B899BB29BB21BB2002BB4
:1022D0000CDABA6A13469B0013449A001A443B680E
:1022E0001B685B00B2FBF3F37B620BE0BA6A134638
:1022F0009B0013449A001A443B681B689B00B2FB86
:10230000F3F37B627B6A214AA2FB03235B091B0177
:10231000FB62FB6A1B09642202FB03F37A6AD31A8D
:102320003B627B689B899BB29BB21BB2002B0CDA91
:102330003B6ADB003233154AA2FB03235B0903F03F
:102340000703FA6A1343FB620BE03B6A1B0132335B
:102350000E4AA2FB03235B0903F00F03FA6A13433F
:10236000FB62FB6A9AB27B681A813037BD4680BD3A
:10237000003801400044004000480040004C00404C
:102380000050004054B4000820AA44001F85EB51BF
:1023900080B582B000AF78600B46FB707B681D4A49
:1023A000934214D07B681C4A934210D07B681B4A2E
:1023B00093420CD07B681A4A934208D07B68194A32
:1023C000934204D018484FF4B171FFF75DFDFB78DC
:1023D000002B07D0FB78012B04D0134840F2631187
:1023E000FFF752FDFB78002B08D07B689B899BB2DE
:1023F00043F400539AB27B689A8107E07B689B891B
:102400009BB223F400539AB27B689A810837BD4689
:1024100080BD00BF0038014000440040004800403B
:10242000004C00400050004054B4000880B586B015
:1024300000AF78600B467B8013467B7000233B61C6
:102440000023FB600023BB6000237B617B684B4A59
:10245000934214D07B684A4A934210D07B68494A21
:1024600093420CD07B68484A934208D07B68474A25
:10247000934204D0464840F28911FFF705FD7B885E
:10248000282B25D07B8840F22772934220D07B886E
:1024900040F2266293421BD07B8840F22552934241
:1024A00016D07B8840F22442934211D07B8840F6BC
:1024B000460293420CD07B8840F66A12934207D0C2
:1024C0007B88602B04D032484FF4C571FFF7DCFCE9
:1024D0007B78002B07D07B78012B04D02C4840F26E
:1024E0008B11FFF7D1FC7B8840F66A12934210D122
:1024F0007B68224A93420CD07B68214A934208D0E1
:102500007B68204A934204D0214840F28F11FFF7A4
:10251000BBFC7B687B617B88DBB25B09DBB23B6128
:102520007B8803F01F03FB60FB68012202FA03F3C0
:10253000BB603B69012B03D17B690C337B6109E0F4
:102540003B69022B03D17B6910337B6102E07B691D
:1025500014337B617B78002B06D07B697A69116824
:10256000BA680A431A6006E07B697A691168BA683A
:10257000D2430A401A601837BD4680BD003801407A
:102580000044004000480040004C00400050004023
:1025900054B4000880B582B000AF78600B467B80F1
:1025A0007B68154A934214D07B68144A934210D03A
:1025B0007B68134A93420CD07B68124A934208D03E
:1025C0007B68114A934204D0104840F25321FFF730
:1025D0005BFC7B88B3F5007F04D30C484FF4157186
:1025E000FFF752FC7B88C3F308039AB27B689A809A
:1025F0000837BD4680BD00BF0038014000440040A0
:1026000000480040004C00400050004054B4000816
:1026100080B582B000AF78607B68114A934214D0D5
:102620007B68104A934210D07B680F4A93420CD0CB
:102630007B680E4A934208D07B680D4A934204D0CF
:102640000C484FF41971FFF71FFC7B689B889BB205
:10265000C3F308039BB218460837BD4680BD00BFD0
:10266000003801400044004000480040004C004059
:102670000050004054B4000880B584B000AF7860CA
:102680000B467B800023FB737B68324A934214D055
:102690007B68314A934210D07B68304A93420CD019
:1026A0007B682F4A934208D07B682E4A934204D01D
:1026B0002D4840F26E31FFF7E7FB7B88012B21D0DC
:1026C0007B88802B1ED07B88402B1BD07B88202BC7
:1026D00018D07B88102B15D07B88B3F5807F11D064
:1026E0007B88B3F5007F0DD07B88082B0AD07B88D0
:1026F000042B07D07B88022B04D01B4840F26F319B
:10270000FFF7C2FB7B88B3F5007F10D17B68114ACD
:1027100093420CD07B68104A934208D07B680F4AE2
:10272000934204D0104840F27331FFF7ADFB7B6851
:102730001B889AB27B8813409BB2002B02D00123E6
:10274000FB7301E00023FB73FB7B18461037BD468B
:1027500080BD00BF003801400044004000480040F8
:10276000004C00400050004054B4000880B586B0D2
:1027700000AF78600B467B800023FB6000237B6109
:102780000023BB600023FB747B68554A934214D03E
:102790007B68544A934210D07B68534A93420CD0D2
:1027A0007B68524A934208D07B68514A934204D0D6
:1027B000504840F2C131FFF767FB7B88282B2ED0B1
:1027C0007B8840F22772934229D07B8840F22662B0
:1027D000934224D07B8840F2255293421FD07B88BD
:1027E00040F2244293421AD07B8840F6460293423C
:1027F00015D07B8840F66A12934210D07B88B3F5DF
:10280000587F0CD07B88B3F5187F08D07B88B3F550
:10281000B07F04D0374840F2C231FFF735FB7B88E8
:1028200040F66A12934210D17B682D4A93420CD035
:102830007B682C4A934208D07B682B4A934204D091
:102840002C4840F2C631FFF71FFB7B88DBB25B09E7
:10285000DBB2BB607B8803F01F037B617B690122D5
:1028600002FA03F37B61BB68012B07D17B689B896C
:102870009BB21A467B6913407B6111E0BB68022B57
:1028800007D17B681B8A9BB21A467B6913407B6128
:1028900006E07B689B8A9BB21A467B6913407B618A
:1028A0007B881B0A9BB2FB60FB68012202FA03F3E0
:1028B000FB607B681B889BB21A46FB681340FB6079
:1028C0007B69002B05D0FB68002B02D00123FB7431
:1028D00001E00023FB74FB7C18461837BD4680BD21
:1028E000003801400044004000480040004C0040D7
:1028F0000050004054B4000880B582B000AF012001
:102900000121FFF779FB11480121FFF72DF90C2078
:102910000121FFF771FB4FF40273BB801023FB71A1
:102920000223BB713B1D0A481946FEF767FF4FF4AF
:102930000043BB801023FB710223BB713B1D054884
:102940001946FEF75BFF0837BD4680BD0002300028
:10295000000C01400008014080B500AF04200121B7
:10296000FFF782FB074B45F6BF521A85054B4FF622
:10297000FF729A85034B01221A80034B4FF40052D9
:102980005A6080BD00080040002004E080B483B09D
:1029900000AF0346FB800D4AFB8893850B4B00225A
:1029A0009A8400BF094B1B8A9BB203F00103002BE2
:1029B000F8D0064A054B1B8A9BB223F001039BB259
:1029C00013820C37BD465DF8047B70470008004059
:1029D00080B584B000AF03460A46FB8013467B7186
:1029E0000023FB7312E0FB7B0133FB730B480821D0
:1029F000FFF72EF8FB881846FFF7C8FF07480821A5
:102A0000FFF76CF8FB881846FFF7C0FFFA7B7B796D
:102A10009A42E8D91037BD4680BD00BF000C014086
:102A200080B485B000AF78600B4B1B68002B02D1DF
:102A3000094B0A4A1A60084B1B68FB60064B1A6870
:102A40007B681344044A1360FB6818461437BD467C
:102A50005DF8047B704700BF1C090020D80B0020E4
:102A600080B588B000AF03200121FFF7FDFA0D20EB
:102A70000121FFF7C1FACF233B801823FB7002230B
:102A8000BB703B4654481946FEF7B8FE03233B8013
:102A90003B4652481946FEF7B1FE48F2D0433B830D
:102AA0002223BB8200237B830023FB8207F11403D4
:102AB0004B481946FDF72AFB7023BB80BB887B81FE
:102AC0000223BB810123FB803B1D45481946FDF7CE
:102AD00017FC43480821FEF797F90123FB803B1DB3
:102AE0003F481946FDF758FD3D480821FEF710FA0A
:102AF0000123FB803B1D3A481946FDF777FE384815
:102B00000821FEF767FA0123FB803B1D3448194674
:102B1000FDF782FF32480821FEF7AAFA304801216A
:102B2000FEF7DEF82E480121FEF746F848F2D043C2
:102B30003B830D23BB8200237B830023FB8207F1B1
:102B400014034FF080401946FDF7E0FA7023BB8074
:102B50000223BB810123FB803B1D4FF080401946BF
:102B6000FDF7CEFB4FF080400821FEF74DF9012321
:102B7000FB803B1D4FF080401946FDF70DFD4FF0E7
:102B800080400821FEF7C4F90123FB803B1D4FF074
:102B900080401946FDF72AFE4FF080400821FEF7DD
:102BA00019FA0123FB803B1D4FF080401946FDF7C9
:102BB00033FF4FF080400821FEF75AFA4FF0804073
:102BC0000121FEF78DF84FF080400121FDF7F4FF61
:102BD0002037BD4680BD00BF00080140000C014009
:102BE0000004004090B583B000AF78600A4C78686C
:102BF00000F0F0FB094BD3E9002300F051FC024642
:102C00000B461046194600F05DFE03469BB2A386B4
:102C10000C37BD4690BD00BF0004004018000020E6
:102C200090B583B000AF78600A4C786800F0D2FBB2
:102C3000094BD3E9002300F033FC02460B46104653
:102C4000194600F03FFE03469BB223870C37BD4672
:102C500090BD00BF000400401800002090B583B074
:102C600000AF78600A4C786800F0B4FB094BD3E9F8
:102C7000002300F015FC02460B461046194600F0F2
:102C800021FE03469BB2A3870C37BD4690BD00BF13
:102C9000000400401800002090B583B000AF7860B9
:102CA0000A4C786800F096FB094BD3E9002300F04A
:102CB000F7FB02460B461046194600F003FE03469A
:102CC0009BB2A4F840300C37BD4690BD00040040D4
:102CD0001800002090B583B000AF78604FF08044BA
:102CE000786800F077FB084BD3E9002300F0D8FBAD
:102CF00002460B461046194600F0E4FD03469BB21F
:102D0000A3860C37BD4690BD1800002090B583B057
:102D100000AF78604FF08044786800F05BFB084BB0
:102D2000D3E9002300F0BCFB02460B4610461946CF
:102D300000F0C8FD03469BB223870C37BD4690BD0B
:102D40001800002090B583B000AF78604FF0804449
:102D5000786800F03FFB084BD3E9002300F0A0FBAC
:102D600002460B461046194600F0ACFD03469BB2E6
:102D7000A3870C37BD4690BD1800002090B583B0E6
:102D800000AF78604FF08044786800F023FB094B77
:102D9000D3E9002300F084FB02460B461046194697
:102DA00000F090FD03469BB2A4F840300C37BD46BE
:102DB00090BD00BF1800002080B586B000AF7860DD
:102DC00000237B6100233B610F23FB607B68DB7882
:102DD000002B07D07B68DB78012B03D032487521AC
:102DE000FFF752F87B685B780F2B03D92E487621CA
:102DF000FFF74AF87B689B780F2B03D92A48772185
:102E0000FFF742F87B68DB78002B3AD0274BDB6872
:102E1000DB4303F4E0631B0A7B617B69C3F10403BA
:102E20003B617B69FA6822FA03F3FB607B685B789D
:102E30001A463B6902FA03F37B617B689B781A466A
:102E4000FB6813407A6913437B617B691B017B61DB
:102E5000174A7B681B787969C9B213440A4683F81C
:102E60000023134A7B681B785B09DBB218467B683A
:102E70001B7803F01F03012101FA03F342F820300D
:102E80000FE00B497B681B785B09DBB218467B6857
:102E90001B7803F01F0301229A4000F1200341F840
:102EA00023201837BD4680BDA4B4000800ED00E023
:102EB00000E100E080B500AF1D484FF40071FEF75F
:102EC000C7FDC820FFF762FD1A481B4900F046F80D
:102ED0001A481B4900F042F8C820FFF757FD19486F
:102EE000174900F03BF8C820FFF750FD1648144979
:102EF00000F034F84FF4FA70FFF748FD134810491A
:102F000000F02CF8C820FFF741FD11480C4900F0F3
:102F100025F8C820FFF73AFD0E48094900F01EF8D1
:102F2000C820FFF733FD0C48054900F017F880BDB5
:102F3000000C0140ECB40008F8B4000800B500082B
:102F400008B500080CB500081CB5000844B5000819
:102F500054B5000864B500087CB5000880B582B09F
:102F600000AF786039607868FEF740FB0B48FEF7E9
:102F700069FB0A48396800F079FE0346002BF5D05A
:102F80000648396800F072FE0346002B03D01E206D
:102F90000121FFF71DFD0837BD4680BD540B002001
:102FA00080B500AF00F042F81C48FEF74BFB1B4811
:102FB0001B4900F05BFE0346002B0DD11748194951
:102FC00000F054FE0346002B06D11448164900F0C9
:102FD0004DFE0346002BE5D01048114900F046FE97
:102FE0000346002B02D000F021F815E00B480D49F4
:102FF00000F03CFE0346002B02D0FFF75BFF0BE026
:103000000648094900F032FE0346002B04D0642034
:10301000FFF7BCFCFFF7C4FF80BD00BF540B0020CE
:10302000ACB50008B8B50008C0B5000880B586B0DA
:1030300006AF3348FEF706FB3148324900F016FE72
:103040000346002B06D12E482F4900F00FFE034601
:10305000002BEED02A482B4900F008FE0346002B37
:1030600043D02748FEF7EEFA284B0093284B0193F4
:10307000284B0293284B0393284B0493284B05932A
:103080001F482849284A294B00F03CFC264B1B6866
:103090001846FFF7A7FD254B1B681846FFF7C0FD34
:1030A0001A4B1B681846FFF7D9FD194B1B681846C9
:1030B000FFF7F2FD174B1B681846FFF70BFE164B88
:1030C0001B681846FFF722FE144B1B681846FFF7D3
:1030D00039FE134B1B681846FFF750FE08480A4993
:1030E00000F0C4FD0346002BBBD00548064900F0A4
:1030F000BDFD0346002B01D0FFF752FFBD4680BD4A
:10310000540B0020C8B50008D4B5000828000020E2
:103110002C00002030000020340000203800002067
:103120003C000020E0B50008200000202400002022
:1031300081F0004102E000BF83F0004330B54FEA68
:1031400041044FEA430594EA050F08BF90EA020FD5
:103150001FBF54EA000C55EA020C7FEA645C7FEA68
:10316000655C00F0E2804FEA5454D4EB5555B8BF8B
:103170006D420CDD2C4480EA020281EA030382EAFC
:10318000000083EA010180EA020281EA0303362D8E
:1031900088BF30BD11F0004F4FEA01314FF4801C61
:1031A0004CEA113102D0404261EB410113F0004F73
:1031B0004FEA03334CEA133302D0524263EB43032A
:1031C00094EA050F00F0A780A4F10104D5F1200EC8
:1031D0000DDB02FA0EFC22FA05F2801841F1000123
:1031E00003FA0EF2801843FA05F359410EE0A5F1F7
:1031F00020050EF1200E012A03FA0EFC28BF4CF028
:10320000020C43FA05F3C01851EBE37101F00045DD
:1032100007D54FF0000EDCF1000C7EEB00006EEBEA
:103220000101B1F5801F1BD3B1F5001F0CD3490874
:103230005FEA30004FEA3C0C04F101044FEA4452CB
:1032400012F5800F80F09A80BCF1004F08BF5FEA52
:10325000500C50F1000041EB045141EA050130BD32
:103260005FEA4C0C404141EB010111F4801FA4F1D5
:103270000104E9D191F0000F04BF01460020B1FA2A
:1032800081F308BF2033A3F10B03B3F120020CDA62
:103290000C3208DD02F1140CC2F10C0201FA0CF040
:1032A00021FA02F10CE002F11402D8BFC2F1200CA5
:1032B00001FA02F120FA0CFCDCBF41EA0C0190405B
:1032C000E41AA2BF01EB0451294330BD6FEA0404A4
:1032D0001F3C1CDA0C340EDC04F11404C4F120028F
:1032E00020FA04F001FA02F340EA030021FA04F3A1
:1032F00045EA030130BDC4F10C04C4F1200220FAF8
:1033000002F001FA04F340EA0300294630BD21FA35
:1033100004F0294630BD94F0000F83F4801306BFFB
:1033200081F480110134013D4EE77FEA645C18BFEF
:103330007FEA655C29D094EA050F08BF90EA020F86
:1033400005D054EA000C04BF1946104630BD91EA7E
:10335000030F1EBF0021002030BD5FEA545C05D181
:103360004000494128BF41F0004130BD14F58004C0
:103370003CBF01F5801130BD01F0004545F0FE4134
:1033800041F470014FF0000030BD7FEA645C1ABF69
:10339000194610467FEA655C1CBF0B46024650EAA0
:1033A000013406BF52EA033591EA030F41F40021CC
:1033B00030BD00BF90F0000F04BF0021704730B552
:1033C0004FF4806404F132044FF000054FF0000127
:1033D00050E700BF90F0000F04BF0021704730B5E8
:1033E0004FF4806404F1320410F0004548BF4042BD
:1033F0004FF000013EE700BF42004FEAE2014FEA12
:1034000031014FEA02701FBF12F07F4393F07F4FEC
:1034100081F06051704792F0000F14BF93F07F4F1E
:10342000704730B54FF4607401F0004521F0004161
:1034300020E700BF50EA010208BF704730B54FF0E7
:1034400000050AE050EA010208BF704730B511F0EC
:10345000004502D5404261EB41014FF4806404F124
:1034600032045FEA915C3FF4DCAE4FF003025FEAA6
:10347000DC0C18BF03325FEADC0C18BF033202EB2E
:10348000DC02C2F1200300FA03FC20FA02F001FA88
:1034900003FE40EA0E0021FA02F11444C1E600BF27
:1034A00070B54FF0FF0C4CF4E06C1CEA11541DBFDA
:1034B0001CEA135594EA0C0F95EA0C0F00F0DEF8A5
:1034C0002C4481EA030621EA4C5123EA4C5350EA8A
:1034D000013518BF52EA033541F4801143F48013DB
:1034E00038D0A0FB02CE4FF00005E1FB02E506F06C
:1034F0000042E0FB03E54FF00006E1FB03569CF0C1
:10350000000F18BF4EF0010EA4F1FF04B6F5007FC6
:1035100064F5407404D25FEA4E0E6D4146EB060638
:1035200042EAC62141EA55514FEAC52040EA5E50C1
:103530004FEACE2EB4F1FD0C88BFBCF5E06F1ED86B
:10354000BEF1004F08BF5FEA500E50F1000041EBA2
:10355000045170BD06F0004646EA010140EA02004F
:1035600081EA0301B4EB5C04C2BFD4EB0C0541EA71
:10357000045170BD41F480114FF0000E013C00F386
:10358000AB8014F1360FDEBF002001F0004170BDAA
:10359000C4F10004203C35DA0C341BDC04F11404C3
:1035A000C4F1200500FA05F320FA04F001FA05F24F
:1035B00040EA020001F0004221F0004110EBD3701C
:1035C00021FA04F642EB06015EEA430E08BF20EA48
:1035D000D37070BDC4F10C04C4F1200500FA04F3EB
:1035E00020FA05F001FA04F240EA020001F000417D
:1035F00010EBD37041F100015EEA430E08BF20EAF0
:10360000D37070BDC4F1200500FA05F24EEA020E37
:1036100020FA04F301FA05F243EA020321FA04F066
:1036200001F0004121FA04F220EA020000EBD3701D
:103630005EEA430E08BF20EAD37070BD94F0000F1D
:103640000FD101F00046400041EB010111F4801F51
:1036500008BF013CF7D041EA060195F0000F18BF02
:10366000704703F00046520043EB030313F4801F3E
:1036700008BF013DF7D043EA0603704794EA0C0FF8
:103680000CEA135518BF95EA0C0F0CD050EA41060E
:1036900018BF52EA4306D1D181EA030101F000418B
:1036A0004FF0000070BD50EA410606BF10461946B3
:1036B00052EA430619D094EA0C0F02D150EA0136BF
:1036C00013D195EA0C0F05D152EA03361CBF104600
:1036D00019460AD181EA030101F0004141F0FE419F
:1036E00041F470014FF0000070BD41F0FE4141F423
:1036F000780170BD70B54FF0FF0C4CF4E06C1CEA23
:1037000011541DBF1CEA135594EA0C0F95EA0C0FD7
:1037100000F0A7F8A4EB050481EA030E52EA033592
:103720004FEA013100F088804FEA03334FF08055B3
:1037300045EA131343EA12634FEA022245EA1115E0
:1037400045EA10654FEA00260EF000419D4208BF91
:10375000964244F1FD0404F5407402D25B084FEA3E
:103760003202B61A65EB03055B084FEA32024FF4EA
:1037700080104FF4002CB6EB020E75EB030E22BF47
:10378000B61A754640EA0C005B084FEA3202B6EB07
:10379000020E75EB030E22BFB61A754640EA5C00B6
:1037A0005B084FEA3202B6EB020E75EB030E22BF46
:1037B000B61A754640EA9C005B084FEA3202B6EB47
:1037C000020E75EB030E22BFB61A754640EADC0006
:1037D00055EA060E18D04FEA051545EA16754FEA68
:1037E00006164FEAC30343EA52734FEAC2025FEA86
:1037F0001C1CC0D111F4801F0BD141EA00014FF015
:1038000000004FF0004CB6E711F4801F04BF0143E5
:103810000020B4F1FD0C88BFBCF5E06F3FF6AFAE01
:10382000B5EB030C04BFB6EB020C5FEA500C50F191
:10383000000041EB045170BD0EF0004E4EEA113114
:1038400014EB5C04C2BFD4EB0C0541EA045170BD1B
:1038500041F480114FF0000E013C90E645EA060E5F
:103860008DE60CEA135594EA0C0F08BF95EA0C0F8D
:103870003FF43BAF94EA0C0F0AD150EA01347FF4D5
:1038800034AF95EA0C0F7FF425AF104619462CE7AC
:1038900095EA0C0F06D152EA03353FF4FDAE10460F
:1038A000194622E750EA410618BF52EA43067FF460
:1038B000C5AE50EA41047FF40DAF52EA43057FF4F0
:1038C000EBAE12E74A0011D212F5001211D20DD55B
:1038D0006FF47873B3EB62520ED44FEAC12343F016
:1038E000004343EA505323FA02F070474FF00000C0
:1038F000704750EA013002D14FF0FF3070474FF06F
:10390000000070470EB4F0B59CB021AC4FF40172CA
:1039100054F8045BADF814200290069000F020F8F3
:103920004FF6FF7E06460B490B4F2A4623460025DD
:10393000086802A9019403960796ADF816E00A9765
:103940000E95139500F0A2FA1CB0BDE8F04003B04C
:10395000704700BF700400205D39000800207047E8
:1039600020F0030110F00300C0F1000051F8043B07
:1039700000F1040C4FEACC0C6FF000021CBF22FADD
:103980000CF213434FF0010C4CEA0C2C4CEA0C4C9B
:10399000A3EB0C0222EA030212EACC1204BF51F894
:1039A000043B0430F4D0C2F1000102EA0102B2FA91
:1039B00082F2C2F11F0200EBD20070472DE9F04104
:1039C0004FF0010E744600254FF0FF3663198B420D
:1039D00000EB06070DD23F5D10F803C0BC452DD2A9
:1039E0001D460124C6EB030E63198B4200EB06074C
:1039F000F1D34FF001084446C2F800E000254FF033
:103A0000FF376319994200EB070E0ED91EF804E048
:103A100010F803C0F44518D91D460124C7EB03086C
:103A20006319994200EB070EF0D80137701C8742EA
:103A300024BF3846C2F80080BDE8F0810CD04FF0BA
:103A4000010E2E4674467544C0E709D04FF00108B8
:103A50002F4644464544D4E7744505D00134B5E7C4
:103A6000444504D00134CCE71D460124AEE71D4691
:103A70000124C6E72DE9F04FADF2144D1646054678
:103A80008B461046194603AA1C46FFF797FF80464F
:103A900003AB0DF20C4243F8044F9342FBD15CB1EF
:103AA0003246631E371904A812F8011BBA4240F8C7
:103AB000213003F1FF33F7D10399304631444246B8
:103AC00001F088F900286DD108F1FF330093F31855
:103AD0008246019323468146544658469A4609EB4E
:103AE0000A073A1A0021284401F02AF9002840F078
:103AF000AC80002F00F0A980EB1913F8012C04AB67
:103B000053F822304BB124B1039A934201D2C2EB55
:103B10000A03994400243846E1E74445234638BF68
:103B200043460AF1FF3E734513D203EB0902A85C3A
:103B300016F803C02A44844506EB030106D02DE0A5
:103B400011F801CF12F8010F844527D101337345D5
:103B5000F6D34445009980F08780009B019809EBDB
:103B60000302AB5C00782A4498427DD1019B06EBAE
:103B7000040B06E013F801ED12F8010D864504D19F
:103B800061465B4501F1FF3CF4D101348C4256D8CB
:103B9000039C3846A144C4EB0A04A0E7C8F1010223
:103BA0009144B6E7C8EB0403434538BF434608F1E8
:103BB000FF3701330393F3195846A246C34698468C
:103BC0004FF0000909EB0A04221A0021284401F0F1
:103BD000B7F8D0BBCCB32B1913F8012C04AB53F8B6
:103BE0002230C3BB0AF1FF30834514D209EB0B022C
:103BF000AB5C16F80BE02A449E4506EB0B015B46D6
:103C000006D02BE011F801CF12F801EFF44525D1D1
:103C100001338342F6D37B1C11D009EB0702AB5C66
:103C200098F800102A44994214D1434605E013F84D
:103C3000010D12F8011D88420CD1B342F7D105EBFA
:103C400009000DF2144DBDE8F08F00200DF2144D67
:103C5000BDE8F08F039B99442046B3E7CBF1010206
:103C6000914499442046ADE741468EE70278002A08
:103C700000F003812DE9F04F91F8008085B04346B4
:103C8000B8F1000F15D0844601F1010E012402E0C5
:103C90001EF8013B63B19A4214BF002404F00104F2
:103CA0001CF8012F7746002AF2D19EF800301BB98C
:103CB00034B105B0BDE8F08F002005B0BDE8F08F4D
:103CC0000E4605464146013001F096F9BC1B0746F9
:103CD0000028F1D0012CECD02819874294BFC7EB03
:103CE000000B4FF0010B1F2C08D9384659463246BD
:103CF0002346FFF7BFFE05B0BDE8F08F214603AABB
:103D00003046FFF75BFE0399804602463144304659
:103D100001F060F8002858D181460546B246584661
:103D200008F1FF330193F31800932E19321A002182
:103D3000384401F005F80028BED1002EBCD0C145A2
:103D40004B4638BF43469C4212D95A19B95C1AF8FF
:103D500003003A4488420AEB030E06D02DE01EF819
:103D6000010F12F8011F884227D101339C42F6D877
:103D7000019BC845194640F283800098EA18BB5C55
:103D800000783A4498427BD1009B0AEB090B06E08D
:103D900013F801CD12F801EDF44504D101465B455D
:103DA00001F1FF30F4D109F1010989456AD8039B7B
:103DB00030461D44C3EB0409B7E7C8F101021544BE
:103DC0001D444FF000093046AFE7C8EB04034345FC
:103DD00008F1FF3238BF434606EB02095846CB468E
:103DE0009146013303934FF0000A0AEB04052A1AA7
:103DF0000021384400F0A4FF00287FF45DAF002DBF
:103E00003FF45AAF444514D90AEB0802BB5C16F8DC
:103E100008003A44984206EB0801434606D022E0E7
:103E200011F801EF12F8010F86451CD101339C42B5
:103E3000F6D8B9F1FF3F11D00AEB0902BB5C9BF841
:103E400000103A44994214D15B4605E013F8010D85
:103E500012F8011D88420CD1B342F7D107EB0A00DA
:103E600005B0BDE8F08FC8F1010292449A4428469B
:103E7000BBE7039B28469A44B7E70B7823B9704702
:103E8000414690E7781914E7002070472DE9F04F7C
:103E90008A468989ADF52D7D8E040290039309D45D
:103EA000DAF8643041F4005123F40053AAF80C10FE
:103EB000CAF86430164616F8011B002308930693CF
:103EC0009B460793DFF85C84119179B3D8F8000022
:103ED00043185B7803F0080303F0FF055BB3DAF8DF
:103EE0000430029C1A4612E0DAF80030D8F80010CC
:103EF0001A7801330A445278150710D5DAF80420ED
:103F00000BF1010B013ACAF80030CAF80420002A6C
:103F1000EADC2046514602F0D5FB0028E4D03246C8
:103F2000164616F8011B11910029CFD107980DF5FF
:103F30002D7DBDE8F08F252940F082802C465378F6
:103F4000711C782B00F2B982DFE813F09300B702FE
:103F5000B702B702B702B702B702B702B702B70299
:103F6000B702B702B702B702B702B702B702B70289
:103F7000B702B702B702B702B702B702B702B70279
:103F8000B702B702B702B702B702B702B702B70269
:103F9000B702B702B7027900B702B702B702B70299
:103FA0003002B702B702B702B702B7025A025A028A
:103FB0005A025A025A025A025A025A025A025A0221
:103FC000B702B702B702B702B702B702B702B70229
:103FD000B702B70235027902B7027902B702B70217
:103FE000B702B7027402B702B7026B02B702B70298
:103FF000B702B702B702B702B702B7026202B7024E
:10400000B7029902B702B702B702B702B702B70206
:10401000B702940292027902790279028D02990024
:10402000B702B702AF02B7027E027C02AB02B70250
:10403000B702A802B702A102B702B70262020E4697
:10404000DAF80430002B40F34085DAF8003016F837
:10405000012C197891427FF469AFDAF8042001331A
:10406000013ACAF80420CAF800300BF1010B3246BD
:1040700056E74FF0FF300DF52D7DBDE8F08F0E4671
:10408000A64B0327089300230693DAF80430002B8D
:1040900040F39E816B0610D5013F032F00F2BE80D6
:1040A000DFE817F0E3009200220016020298514662
:1040B00002F008FB002840F09281D8F80010DAF8EE
:1040C000002001E0CAF80020137801320B445B782D
:1040D0001807E1D5DAF804300BF1010B013B002B96
:1040E000CAF80430EEDCE1E754AA4FF00009099267
:1040F00017464A46631EB3F5AE7F86BF6FF4AE71B6
:1041000063180023994688BF40F25D145B469346CE
:10411000B446069E45F45865DAF800100878A0F118
:104120002B024D2A00F2E180DFE812F02A01DF00C5
:104130002A01DF00DF00FE00CA00CA00CA00CA0070
:10414000CA00CA00CA003A013A01DF00DF00DF00FE
:10415000DF00DF00DF00DF0025012501250125014B
:1041600025012501DF00DF00DF00DF00DF00DF00C9
:10417000DF00DF00DF00DF00DF00DF00DF00DF0047
:10418000DF00DF00DF002F01DF00DF00DF00DF00E6
:10419000DF00DF00DF00DF0025012501250125010B
:1041A00025012501DF00DF00DF00DF00DF00DF0089
:1041B000DF00DF00DF00DF00DF00DF00DF00DF0007
:1041C000DF00DF00DF002F01002C08BF4FF0FF34BD
:1041D00015F0010340F0C083ED0640F13B831D461E
:1041E000D8F80010DAF80020137801320B445B781D
:1041F000180737D4DAF804300135013BAC428AE8BD
:104200000C002FD0002BEFDC0298514602F05AFA36
:1042100040BBD8F80010DAF80020E5E7002C08BF12
:10422000012415F0010340F04683EA0640F12A8498
:104230001D46029F0BE01A44CAF80020384651463A
:104240001D44E41A02F03EFA002840F015849AE872
:104250000C00A342EFDB1B1B2244CAF804302544A8
:10426000CAF80020AB4432465AE6002C08BF4FF093
:10427000FF34EB0640F1BC82DAF80010002514AFE1
:104280000B780131FB5CB3B1DAF804300135013B46
:10429000AC428AE80A00E5D0002BF1DC02985146D6
:1042A00002F010FA0028DDD1DAF800100B780131A5
:1042B000FB5C002BE8D1002D3FF438AEAB44D2E7D5
:1042C000174A25F4386532F91660DAF80420387098
:1042D000013A002A07F10107CAF804203EDD013146
:1042E000CAF80010013C7FF417AFEA050696D946DC
:1042F00066469B4607D5099B9F4200F2D983099BDE
:104300009F423FF413AE15F0100400F04C83099B5C
:104310003246FF1A4F44BB4402E600BF3960000832
:104320000CB60008400000202A05CED516B945F489
:10433000007508266A0500F15E8325F46075B9F101
:10434000000F02D009F1FF390134DAF804200BF133
:10435000010B013A002ACAF80420C0DC0298514639
:10436000CDF810C0069302F0ADF9069BDDF810C041
:104370000028B7D0B9E70A2EB7DD25F43865A4E7E1
:104380002A06B2D525F080059FE705F4C062B2F594
:10439000007FAAD125F4007545F4A065102694E7A6
:1043A000A34A32F91660082EE7DC9EE7737845F0E1
:1043B00010050E46C4E50E4645F001059D4B03274A
:1043C00008930A230693DAF80430002B3FF762AE15
:1043D0000298514602F076F900283FF45BAE079A46
:1043E000002A3FF446AEBAF80C3013F0400F1346E3
:1043F00018BF4FF0FF3318460DF52D7DBDE8F08F47
:1044000004EB840403EB4404303C73780E4697E5D8
:104410000E4645F40075884B032708931023069336
:1044200033E60E4645F00105834B03270893082326
:1044300006932AE6737845F002050E4680E50E469F
:10444000042722E60E46EFE7EC060E463FF567AD81
:10445000680740F15383039A136804320392A3F868
:1044600000B032465CE5737845F004050E4667E51A
:104470000E46A3E70E4645F04005002705E614A8C2
:1044800000F054FD45F0400506460127FDE56A4B66
:104490000E4608930A2306930327F6E50E460227E5
:1044A000F3E50E4645F40875B5E773786C2B00F01C
:1044B0001F8345F001050E4642E503445B780E4636
:1044C00003F00303012B7FF479AF45F0010575E795
:1044D000029800F0EDFB631E0268B3F5AE7F0D920B
:1044E00040F283816FF4AE72A31840F25D140C9316
:1044F000002754AB0A9699463A463E4609930F97D1
:104500000E970B9745F4F065DAF800000178A1F1F9
:104510002B0EBEF14E0F00F23B81DFE81EF07B0058
:1045200039017B00390139016F004F004F004F0006
:104530004F004F004F004F004F004F00390139012D
:1045400039013901390139013901340139013901A0
:1045500039011D01180139013901A0003901390162
:10456000390139018F003901390139013901390126
:1045700084003901390139013901800039013901DB
:104580003901390139013901390134013901390160
:1045900039011D01180139013901A0003901390122
:1045A000390139018F0039013901390139013901E6
:1045B000840039013901390139018000D74215D110
:1045C00025F4C07589F8001009F10109DAF8041022
:1045D000013C013900290BF1010BCAF8041040F32A
:1045E000E4800130CAF80000002C8DD104963B46CF
:1045F0001746049A0A9E002A41D0F3E0EB05DDD568
:104600000C9B25F080050136002BDFD0013B0C937D
:104610000134DBE72B06E9D525F08005D2E7072A30
:10462000E4D10822CEE7062AE0D10722CAE700BF7C
:104630000CB600083960000821630008002F40F024
:10464000C8802EB905F4E06EBEF5E06F00F045823B
:10465000012A01D0042AC9D10132D2B2B2E7002A1C
:1046600040F0B080002E40F0B98005F4E06EBEF559
:10467000E06F00F026823B46174604960A9E013BF7
:10468000012B40F2C9827B1E062B1BD8022F40F261
:10469000D282032F16D03C1FE4B2E7430A954F4461
:1046A0004D46A146029C15F8011D2046524601F0D8
:1046B000C5FFBD42F7D14C460BF1FF3BA9460A9D11
:1046C000C4EB0B0BEA051CD56B0500F1C38219F88E
:1046D000011C09F1FF3365290BF1FF340BD045298B
:1046E00009D00298524601F0A9FF19F8021CABF15B
:1046F0000204A9F1020302985246A346994601F02A
:104700009DFF15F010027FF40AAC05F4C063B3F509
:10471000806F89F8002000F0E4810E9B002B40F0B0
:104720008F8100220999029800F0EEFCEF07024603
:104730000B4640F14A810398016804300390C1E9B7
:104740000023079B324601330793FFF7E9BB022A98
:104750007FF44CAF032235E705F4A06EBEF5806F01
:1047600004D06B057FF542AF002E84D0AB0504D496
:104770000B9BCDF83C90F31A0E9325F4F06545F4AD
:10478000C07500261EE7012F7FF430AF022719E71E
:104790000D9B93F800E08E457FF428AFAB057FF5C5
:1047A00025AF25F420750B960CE70298514604922C
:1047B00001F088FF049A00287FF418AF002C7FF4E2
:1047C000A3AE13E7032A3FF447AF052A3FF444AFF3
:1047D0000CE7022F7FF43CAF0327F3E63B46174676
:1047E00004960A9E25F4807549E700230C937FE622
:1047F000039A14AF134615680433A9460393DAF8F5
:1048000000301A78591CBA5CC2B1DAF80420CAF830
:104810000010013ACAF804201B78013C09F8013B5A
:104820000CD0DAF80430002BE9DC0298514601F094
:1048300049FF0028E3D0A9453FF4D1ADB9EB050508
:104840003FF474AB079A00230132079289F80030D5
:10485000AB4408E5039A1568171DA946DAF800105D
:10486000D8F800200B78481C13445B781B0715D43C
:10487000DAF80430CAF80000013BCAF804300B78BB
:10488000013C09F8013B09D0DAF80430002BE5DCE3
:104890000298514601F016FF0028DFD0079AC5EBB9
:1048A0000905013200230792AB44039789F80030D1
:1048B0003246FFF735BB12AB184600210822099398
:1048C00000F0BAFA15F010030A9300F0AA80002352
:1048D00019460B960E460025A9460A9D54AFCDF801
:1048E00010B000F0DFF948453FF479AD9AE80A00CE
:1048F000099A11F801EB013B09F1010BCAF800100C
:10490000029800923146CAF8043007F809E05B4685
:104910003A4600F0D1F9411C3FF461AD002840F067
:10492000A38005B93560049B013C5B440493002DD2
:1049300040F09F80A9460436DAF80430002B63DD8E
:10494000002CCED1DDF810B00B9E0A9B002B3FF45B
:10495000F8AE3246FFF7E4BA12AB1846002108223F
:10496000099300F069FA15F0100947D011AD002243
:1049700017460496DAF80030D8F800201B78134464
:104980005B781E0702D4002C40F0EE80049EB9F143
:10499000000F7FF4C4AA079BC5F80090013307936A
:1049A0003246FFF7BDBA2246069B3C700298099931
:1049B000089CA047AB063BD5039A136804320392C8
:1049C0001860079B01330793A1E4AC073FF5B3AE32
:1049D000CDE90423039B1D1D1C6800F07BFADDE973
:1049E0000423002800F0BB801046194606F092F917
:1049F00003952060A5E625F4B06566E4039A1346A6
:104A0000043315680393B2E70298514601F05AFE49
:104A1000002895D04D46DDF810B00B9E002D94D0A7
:104A2000DDE4039A1368194613460433039350E7F1
:104A30006C077CD5039A1368043203921880C0E790
:104A40000F9C0A230298611C01F0F6FAA1460E9B06
:104A5000C21A0DF2A323994528BF0DF2A229484698
:104A6000854900F0A3FA5CE602307FF45CAFD946DA
:104A700062E74FF000095FE7002D3FF4B0ACAB44B4
:104A8000FFF7F1BB039D234629680298CDF800A0EB
:104A9000012201F035FE2B46043300283FF49FAC81
:104AA000079A83440132079203933246FFF738BADC
:104AB0007B1E17F8011C029852461F4601F0BEFDEE
:104AC0001DE425F4F06501227CE50298514601F0D1
:104AD000F9FD00283FF4B9AA81E425F4F065012727
:104AE00070E50B9A049B9B1A5A42002BB1D118E631
:104AF000B37845F002050236FFF722BAE9070DD474
:104B0000AA070BD5039A134611685A460433039338
:104B1000D317C1E900233246FFF702BA039A13689C
:104B200004320392C3F800B03246FFF7F9B915F02A
:104B300001027FF441AFA9077FF53EAF4F4B0899C3
:104B4000029899420999069B00F0938001F002FBBC
:104B5000039A136804320392C3E9000131E700F0BD
:104B600021FA03952060ECE500F09CF8B8423FF490
:104B700036AC9AE80A0011F8012B0DF5A87ECAF8A8
:104B8000001009997E1C013B009102980EF8072045
:104B9000CAF8043029463346724600F08DF8471CA7
:104BA0003FF41DACC0B9286000F06AF840B3374646
:104BB000049E002F3FF4EBAE54ABDC190495254660
:104BC000029C013F204615F8011D524601F036FDBA
:104BD000002FF6D1049DDAE6023019D13746DAF813
:104BE0000430002B3FF7C6AE0298514601F06AFD33
:104BF00000283FF4BFAE049E002F7FF4F0ABC6E662
:104C0000B344013CB9F1000F04D104354F46E6E747
:104C10002868C9E70746E2E7099B99457FF686A918
:104C200019F8011D0298524601F008FD099B9945AB
:104C3000F6D1FFF77BB9099B99457FF677A919F85B
:104C4000011D0298524601F0F9FC099B9945F6D1E5
:104C5000FFF76CB9099B99457FF668A919F8011D02
:104C60000298524601F0EAFC099B9945F6D1FFF7FC
:104C70005DB901F0EFFB6BE730B600082163000877
:104C8000FF2807D8044B1B681844407800F0080040
:104C9000C0B27047002070474000002000487047B5
:104CA000AC040020014B1868704700BFCC04002002
:104CB00000487047740400202DE9F04383B0054696
:104CC0000A9E1446B2B11F46104B8846D3F8009096
:104CD000FFF7E4FF41468DE8410022463B46284667
:104CE000C847431C03D100228A2332602B6003B0E3
:104CF000BDE8F083054B1F68FFF7D0FF21468DE824
:104D00004100034A28460123B847EAE7D0040020BF
:104D1000E0B7000882B049B15AB16BB113780B60AB
:104D20001278101C18BF012002B0704701A9002A98
:104D3000F3D1104602B070476FF00100F4E700BFF6
:104D4000830770B4C9B240D0541E002A3FD0037804
:104D50008B4218BF431C05D11CE0ECB10278013C2A
:104D60008A4217D013F0030F184603F10103F4D160
:104D7000032C14D884B103788B420BD00519431C43
:104D800002E002788A4205D0AB42184603F10103E3
:104D9000F7D1002070BC7047204670BC70470246B7
:104DA00041EA012646EA0646136810467340A3F11D
:104DB000013525EA030313F0803F02F10402D9D143
:104DC000043C032C1046EFD8D4E71446D0E7104635
:104DD000E0E700BF032A70B426D940EA01039B072D
:104DE00011D004780D78AC4222D10244431C05E076
:104DF00013F8014B11F8015FAC4219D19342F7D17E
:104E0000002070BC70470C4603461E682568184693
:104E1000AE42214603F1040304F1040404D1043A30
:104E2000032A18462146F0D8002ADAD11046E8E7CE
:104E3000601B70BC704700BF70B4840746D0541E1E
:104E4000002A41D0CDB2034602E0621EE4B314460C
:104E500003F8015B9A07F8D1032C2ED9CDB245EAAD
:104E600005250F2C45EA054519D9264603F1100200
:104E7000103E0F2E42F8105C42F80C5C42F8085CC1
:104E800042F8045C02F11002F2D8A4F1100222F000
:104E90000F0204F00F041032032C13440DD91E46E8
:104EA0002246043A032A46F8045BFAD8221F22F06D
:104EB00003020432134404F003042CB1C9B21C44AD
:104EC00003F8011BA342FBD170BC70471446034694
:104ED000C2E700BF10B431F0004408D0114BA1F577
:104EE00080129A4208D804205DF8044B704718B924
:104EF00002205DF8044B704701F1FF41094B01F5B9
:104F0000E0019942EFD9B4F5801F01D20320EBE70D
:104F1000054B9C4201D00020E6E7B0FA80F0400942
:104F2000E2E700BFFFFFDF7F0000F07F70B40D7885
:104F30005E2D2FD0002216460131431E00F1FF04E2
:104F400003F8012FA342FBD185B186F0010242553F
:104F50004E1C16F8013C2D2B0ED05D2B09D013B141
:104F60001D463146F3E7084670BC7047481E70BCCA
:104F70007047304670BC70474C785D2C0FD0A5420E
:104F80000DDC023143190135AC4203F8012FFADC84
:104F90000236DEE701224D7816460231CDE7314672
:104FA0001D46D4E7004870470000C07F0EB4F0B53E
:104FB00006464FF6FF7E9CB021AC54F8042B0D49F9
:104FC00023466FF0004508684FF4027702A9029665
:104FD00006960194ADF816E0ADF8147004950795A7
:104FE00001F0CEFB029B00221A701CB0BDE8F0401D
:104FF00003B0704770040020C9B270B4002933D0E8
:10500000850710D00378002B59D0994218BF431C54
:1050100006D127E013F8012B002A4DD0914221D070
:105020009A071846F6D141EA0126036846EA064681
:1050300001E050F8043F83EA0605A5F10134A3F12D
:10504000013224EA050422EA0303234313F0803FDC
:10505000EFD0037823B932E010F8013F002B2ED0B7
:105060009942F9D170BC704784070BD00378002BAC
:10507000F8D0431C03E002780133002AF2D09907EC
:105080001846F8D10268A2F1013323EA020313F0B3
:10509000803F08D150F8042FA2F1013323EA020324
:1050A00013F0803FF6D00378002BDBD010F8013FDF
:1050B000002BFBD170BC7047104670BC704718467F
:1050C00070BC70472DE9F0410F46904605F0B4F8EA
:1050D00004460D46B8F1000F11D0C7F30A53C3F1CF
:1050E0006B03002B0BDD1B0503F17F55002405F539
:1050F000401522462B46FEF7D3F9BDE8F081204645
:105100002946BDE8F08100BF2DE9F04F0F469FB062
:1051100083460B4600200021CDE9040103920022C2
:1051200019971A921C4613F8016B2D2E00F2F0808D
:10513000DFE816F02E00EE00EE00EE00EE00EE00CE
:10514000EE00EE00EE00DD00DD00DD00DD00DD0044
:10515000EE00EE00EE00EE00EE00EE00EE00EE00DF
:10516000EE00EE00EE00EE00EE00EE00EE00EE00CF
:10517000EE00EE00DD00EE00EE00EE00EE00EE00D0
:10518000EE00EE00EE00EE00EE004400EE00DA006D
:10519000039B4FF000084FF0000953B10023069322
:1051A000039B1F60069B23B1414609F100438846DB
:1051B0009946404649461FB0BDE8F08F002306934C
:1051C000631C19936678002EE2D0302E1C4600F046
:1051D000A480002308940A93A6F130034FF0000A3C
:1051E000092B55462346544619D8082CC8BF0AEB4C
:1051F0008A0A05EB850203F1010306EB42021993CB
:10520000C4BF06EB4A06A6F1300A1E78D8BFA2F149
:105210003005A6F13002092A04F10104E5D9584607
:105220000793FFF745FDD0F800805846FFF740FD93
:105230000068FEF795FB079B02464146184605F0BD
:1052400059FB8046002800F0E48000208446864612
:10525000A146652E73D0452E71D00023B9F1000F01
:1052600047D0B9F1100FC846CCEB03032846A8BFBE
:105270004FF010080793FEF79DF8002C08BF4C462E
:10528000B8F1090FCDE9040113DD764B03EBC80338
:1052900053E91223FEF704F9064650460F46FEF77F
:1052A00089F802460B4630463946FDF747FFCDE9FF
:1052B0000401B9F10F0F00F3D780079B002B00F01A
:1052C000A580079B40F36785162B00F3D284DDE9A8
:1052D00004230798634901EBC001D1E90001FEF7FF
:1052E000DFF8804689460DE00123069368E71993AD
:1052F00018E718B90A9B002B00F0A1824FF00008B4
:105300004FF00009039B002B3FF44CAF199F47E778
:105310000023302E06937FF45CAF6378582B00F0A7
:10532000A483782B00F0A183013419942678302EC1
:10533000FAD0002EE2D0012308940A934CE7B9F189
:10534000000F4ED0199F7B1C19937E782B2E00F0F6
:105350006D822D2E00F064824FF00008A6F130031C
:10536000092B324600F20282302E06D1199B0133FE
:1053700019931E78302EFAD03246313A082A3FF679
:105380006CAF199B19460A46013219920793A6F190
:1053900030034E78A6F1300109290BD80132199259
:1053A00003EB830306EB43031678303BA6F1300191
:1053B0000929F3D90799521A082A00F3518444F6AF
:1053C0001F629342A8BF1346C8F1000253404344F2
:1053D000B9F1000F7FF445AF8BE74FF0000C4FF0B1
:1053E000010E002840F028820A9B002B3FF4D0AE2B
:1053F0008146A7E76FF0004305934FF0FF33049316
:105400002B0742BF059B43F000430593DDE9048968
:1054100078E75846FFF74CFC0068FEF7A1FA199BA5
:105420001A1819921E5C002C40F0E881302E20469C
:1054300005D10132199216780130302EF9D0A6F13B
:105440003103082B00F2A082199B303E089300F133
:10545000010C4FF0010905EB850506EB4505002021
:10546000DAE100BF30B90008079BC8EB090898448F
:10547000B8F1000F40F39A8318F00F000AD0DDE96D
:105480000423C14901EBC001D1E90001FEF708F88E
:10549000CDE9040138F00F0640F0288200230A937A
:1054A0000095089922464B46584604F043FC10905C
:1054B000002800F03B83079A0021002AC2F1000374
:1054C000A8BF0B460F460C9322EAE27307910B9399
:1054D000109C5846616804F0B9FB8246002800F031
:1054E000A582DDE9042321469046994622690C31C4
:1054F000023292000C30CDE9088904F02DFB1BA884
:105500001CA98DE8030042464B46584604F01EFF96
:105510001A90002800F08B825846012104F0A4FC68
:105520000746002800F082821B9A002AC0F21281EE
:105530000C9B0B9903EB02080A981C9B121A1A4445
:105540006FF47F708242C3F1360380F2EC80801AE0
:105550001F28A3EB000300F30281012500228540F0
:10556000119208EB0309C1454A46A8BF4246CE182E
:105570000A9B1E44B2421346A8BF3346002B04DDEB
:10558000C3EB0909F61AC3EB08080C9BB3B1394603
:1055900058461A4604F012FD0746002800F04682DD
:1055A000584639461A9A04F069FC0446002800F06F
:1055B0003D8258461A9904F071FB1A94B9F1000F14
:1055C00008DD4A4658461A9904F048FD1A9000280A
:1055D00000F02D820B9B43B1514658460B9A04F0C4
:1055E000EDFC8246002800F02182002E08DD5146A5
:1055F0003246584604F032FD8246002800F01682FA
:10560000B8F1000F08DD39464246584604F026FD41
:105610000746002800F00A8258461A99524604F0BC
:1056200099FD0790002800F00182079A0026D368B0
:105630003946D6600D9304F069FDB042C0F2208473
:1056400000F0DD830798394604F0D4FE00224FF0C5
:10565000804304460D4605F017FB002867D00D9BDC
:10566000002B00F0A280B146484DDDF814C0DFF8F1
:105670001C810024464E474B0CEA06069E4200F071
:1056800027820A9B23B3B6F1D46F21D83CA3D3E978
:1056900000234846414605F0F7FAB0B14846414676
:1056A000FEF710F98146002800F02683FDF782FE00
:1056B000814688460D9B002B40F0198308F100437A
:1056C000CDF850901593DDE9144505F1D6639D1B87
:1056D000DDE9080104F0B0FD02460B4620462946EC
:1056E000FDF7DEFE02460B46DDE90801FDF726FD6B
:1056F0000C46CDE904010A9B23B9254B23409E4269
:1057000000F01F8258461A9904F0C8FA58465146CC
:1057100004F0C4FA5846394604F0C0FA58460799CE
:1057200004F0BCFAD4E600221192012519E71A4BC5
:10573000204629460022FDF7B3FE0D9B8146884690
:1057400073BB01F100430E900F93DDE90E45DDF8C8
:1057500014C08FE70B9BDDF83080991AECE60F48F8
:105760000125801A05FA00F21192FAE61997002332
:10577000B9F1000F7FF475ADBBE500BFAFF300805A
:105780000000C0FFFFFFDF4130B900080000F03F1C
:105790000000F07F0000E07F0000E03FE3FBFFFF40
:1057A00002460B46CDE90E23CFE7049BDDE9040159
:1057B000002B40F0DE80C1F313038C46002B40F039
:1057C000DC801191204629460022B54B05F052FAA3
:1057D000DDF844C0002840F09883B24B20462946AB
:1057E0000022FDF75DFE8146884601F10043DDF8A9
:1057F00044C016901793DDE916453BE74046A146A5
:10580000C446A6F13002092A13D8431C1646002AC2
:1058100040F04D821846199B5A1C19925E78F0E7A9
:105820004FF00108BB1C1993BE7897E54FF00008B4
:10583000F8E74FF0010E0CE54FF0000982E5BEF1EC
:10584000000F7FF4A5AC493E252E3FF6A1AC01A385
:1058500053F826F0D35900089151000891510008DF
:1058600091510008915100089B590008915100087E
:105870009151000891510008915100089151000880
:105880009151000891510008915100089151000870
:105890009151000891510008915100089151000860
:1058A0009151000891510008915100089151000850
:1058B0009151000891510008915100089151000840
:1058C0009151000891510008915100089151000830
:1058D00091510008D35900089151000891510008D6
:1058E00091510008915100089B590008B6F59A7F24
:1058F00000F31C813611012EDFF8D08140F32383A1
:10590000DDE9040147464FF0000A16F0010F0AF1E5
:10591000010A4FEA660603D0D7E90023FDF7C0FD70
:10592000012E07F10807F0D1CDE90401059B08EB32
:10593000CA08A3F154730593DDE90423D8E90001F3
:10594000FDF7AEFD21F000431B0D574A1B059342A6
:10595000CDE9040100F2EA80A2F58012934240F200
:10596000CF82524B059300230A934FF0FF330493E9
:1059700096E5012800F0C3818C4600244C4D4FF081
:105980000009DFF81C8175E6652E3FF426AD4FF067
:105990000009CC464FF0010E5DE41999454809E035
:1059A00011F8013FA3F14104192C98BF2033934211
:1059B0007FF4EEAB10F8012B002AF1D14B1C1993A8
:1059C0004B78282B00F0FD823B4B0593002304937A
:1059D0001CE5199A394809E012F8013FA3F1410486
:1059E000192C98BF20338B427FF4D2AB10F8011BE7
:1059F0000029F1D119921546314809E012F8013F0A
:105A0000A3F14104192C98BF20338B4240F09882B7
:105A100010F8011B0029F1D101321992294B05938D
:105A200000230493F2E4013140F0B8821A98254B28
:105A30000022059322230492CBF80030DDE904898B
:105A40000146584604F02AF95846514604F026F912
:105A50005846394604F022F95846109904F01EF9C8
:105A60005846079904F01AF94CE4069A1AAB0192C9
:105A70000093584619A9144A1BAB03F09BFA10F087
:105A8000070605463FF43AAC062E40F04781013444
:105A9000002319944FF000084FF00009069331E4F9
:105AA0000000F03F0000E03F0000A07CFFFFEF7F20
:105AB0000000F0BF6CB700080000F8FF60B70008F6
:105AC00064B700080000F07F70B70008F8B900085C
:105AD000ACF154730593DDE904231046194604F034
